:020000040800F2
:10000000B0040024B102000867230008152100088D
:1000100065230008BD030008812D000800000000D2
:10002000000000000000000000000000AD250008F6
:10003000BF0300080000000069230008AF25000886
:10004000CB020008CB020008CB020008CB0200085C
:10005000CB020008CB020008CB020008CB0200084C
:10006000CB020008CB020008CB020008CB0200083C
:10007000CB020008CB020008CB020008CB0200082C
:10008000CB020008CB020008CB020008CB0200081C
:10009000CB020008CB020008CB020008CB0200080C
:1000A000CB020008CB020008CB020008CB020008FC
:1000B000CB020008CB020008CB020008CB020008EC
:1000C000CB020008CB020008CB020008CB020008DC
:1000D000CB020008CB020008CB020008CB020008CC
:1000E000CB020008CB02000800000000CB02000891
:1000F000CB020008CB020008CB020008CB020008AC
:10010000CB020008CB020008CB020008CB0200089B
:10011000CB020008CB020008CB020008CB0200088B
:10012000CB020008CB020008CB020008CB0200087B
:10013000CB020008CB020008CB020008CB0200086B
:1001400000000000000000000000000000000000AF
:10015000CB020008CB020008CB020008CB0200084B
:10016000CB020008CB020008CB020008CB0200083B
:10017000CB020008CB020008CB020008CB0200082B
:10018000CB020008CB020008CB020008CB0200081B
:10019000CB020008CB020008CB020008CB0200080B
:1001A000CB020008CB020008CB020008CB020008FB
:1001B000CB020008CB020008CB020008CB020008EB
:1001C000CB020008CB020008CB020008CB020008DB
:1001D000CB020008CB020008CB020008CB020008CB
:1001E000CB020008CB020008CB020008CB020008BB
:1001F000CB020008CB020008CB020008CB020008AB
:10020000CB020008CB020008CB020008CB0200089A
:10021000CB020008CB020008CB020008CB0200088A
:10022000CB020008CB020008CB020008000000004F
:10023000CB020008CB02000800000000CB0200083F
:10024000CB020008CB020008CB020008CB0200085A
:10025000CB020008CB020008CB020008CB0200084A
:10026000CB020008CB020008CB020008CB0200083A
:10027000CB020008CB020008CB02000800000000FF
:10028000CB020008CB020008CB02000800000000EF
:1002900000000000CB020008DFF810D000F07CF86E
:1002A00000480047112E0008AFF30080B00400247E
:1002B0000648804706480047FEE7FEE7FEE7FEE700
:1002C000FEE7FEE7FEE7FEE7FEE7FEE75926000849
:1002D000990200082DE9F05F0546002092469B46F2
:1002E00088460646814640241BE02846414647464C
:1002F000224600F041F853465A46C01A914110D3A5
:1003000011461846224600F028F82D1A67EB01081E
:100310004F4622460120002100F01FF817EB00098C
:100320004E41201EA4F10104DFDC484631462A4636
:100330004346BDE8F09FD2B201E000F8012B491E10
:10034000FBD270470022F6E710B513460A46044672
:100350001946FFF7F0FF204610BD202A04DB203AA3
:1003600000FA02F1002070479140C2F1200320FA08
:1003700003F3194390407047202A04DB203A21FA06
:1003800002F00021704721FA02F3D040C2F12002AE
:100390009140084319467047064C074D06E0E06857
:1003A00040F0010394E8070098471034AC42F6D3BC
:1003B000FFF776FFB42F0008D42F0008FEE7704740
:1003C00072B602A002F0DEFCFBE700006572726FFD
:1003D000720D0A0070B5044600F038F90546601C3D
:1003E00002D004480078044400F030F9401BA042D9
:1003F000FAD370BD000000242DE9F84F03247D4D91
:1004000000234FF001094FF0B04B4FF00F0AE9E025
:1004100009FA03F73A4076D00E7906F00306012E6A
:1004200001D0022E18D1D0F808C04FEA430ECE6892
:1004300004FA0EF82CEA080C06FA0EF646EA0C0648
:100440008660D0F804C00E792CEA070CC6F30016BB
:100450009E4046EA0C0646600E79F643B6070BD07E
:10046000C6684FEA43088F6804FA08FC26EA0C06BF
:1004700007FA08F73743C7600E7906F00306022E25
:1004800012D1DE080F694FEA437C00EB8606B646C0
:10049000366A4FEADC6C0AFA0CF807FA0CF726EA1F
:1004A00008063743CEF820700F7906684FEA4308F4
:1004B00007F0030704FA08FC07FA08F726EA0C0617
:1004C000374307604E6816F4403F1CD04A4E3768E9
:1004D00047F00207376036689F0706F0020600966D
:1004E00023F0030606F1B046B6463F0FD6F808647F
:1004F000DFF808810AFA07FC404526EA0C0603D11A
:100500004FF0000C41E06CE0DFF8F4C0604502D130
:100510004FF0010C39E0DFF8ECC0604502D14FF03C
:10052000020C32E0DFF8E0C0604502D14FF0030C6E
:100530002BE0DFF8D8C0604502D14FF0040C24E076
:10054000DFF8CCC0604502D14FF0050C1DE0DFF8AC
:10055000C4C0604502D14FF0060C16E0DFF8B8C009
:10056000604502D14FF0070C0FE0DFF8B0C06045E6
:1005700002D14FF0080C08E0DFF8A4C0604502D1BA
:100580004FF0090C01E04FF00A0C0CFA07FC4CEAA2
:10059000060CCEF808C44F68DBF80060FF0226EABC
:1005A000020600D516435F46CBF80060D1F804C0C0
:1005B000DBF804605FEA8C2C26EA020600D51643BD
:1005C0007E606E684F6826EA0206BF0300D51643B8
:1005D0006E602E684F6826EA0206FF0300D51643B8
:1005E0002E605B1C0A6832FA03F67FF411AFBDE897
:1005F000F88F000080000058F444025800000258B0
:100600000004025800080258000C0258001002585A
:100610000014025800180258001C0258002002580A
:1006200000240258426921EA02030A4043EA0241D7
:10063000816170470AB1816170470904FBE70000DE
:1006400001480068000C70470010005C0148806899
:1006500070470000000000240248816802781144BD
:100660008160704700000024032010B500F0C6F838
:1006700001F0A0F80F4A104914681368C4F303226C
:1006800003F00F038A5CC95C02F01F0201F01F0136
:10069000D0400A4A20FA01F11160094908600F2090
:1006A00000F010F808B1012010BD00F079F800202A
:1006B00010BD000018440258A42F000810000024A8
:1006C0000C00002470B50D4D04462878A0B14FF4FD
:1006D0007A71B1FBF0F00A490968B1FBF0F001F062
:1006E000C6FB48B9102C07D200222146501E00F04C
:1006F00065F800206C6070BD012070BD0000002412
:100700000C000024154BF0B5083B427813491A60E1
:100710000B680A1F23F001030B6043681360057B1D
:10072000C67A827A437B2D07847B45EA0665C77BC0
:1007300090F809C0067A90F800E045EAC24040EA25
:10074000834040EA444040EA074040EA0C2040EA47
:10075000460040EA0E000860F0BD0000A0ED00E099
:10076000BFF35F8F044800210368034A23F48033FA
:10077000036070321160704724ED00E0074A40F0DA
:100780000100064970321060086840F4803008604B
:10079000BFF34F8FBFF36F8F7047000024ED00E071
:1007A000054808B5016841F002010160006800F0E9
:1007B0000200009008BD0000F44402580E4BF0B453
:1007C0001B680D46C3F30223C3F10706042E00D9AC
:1007D0000426191D072901D2002300E0DB1E012495
:1007E00004FA06F19C40491E2940641E99401440B9
:1007F0002143F0BC02F0CEBA0CED00E0064900F057
:10080000070210B54FF6FF040868044B204040EA89
:1008100002201843086010BD0CED00E00000FA054E
:10082000134970B50A68D243520705D5096801F02B
:100830000701814213D118E00A6822F0070202433F
:100840000A60FFF703FF0A4D4FF47A760446083D2D
:1008500007E000BFFFF7FAFE001BB04201D90120FC
:1008600070BD2868C0438004F4D4002070BD00002F
:100870000C48025810B500F057FF05490968054AB1
:10088000C1F30211515C01F01F01C84010BD00000E
:1008900020440258A42F0008494930B5484C0B1D8C
:1008A0000A68143409681D68246802F00303C5F35C
:1008B0000012C1F30531C4F3CC04002914FB02F289
:1008C00000EE102AF8EE400A75D03F4A9FED3D1A1F
:1008D000B7EE000A6BB1DFED3D1A012B01D0022B00
:1008E00064D002EE101A1168F8EE422A81EEA22AB4
:1008F00021E0334C283C23689B0612D5344B2468F6
:1009000001EE901A1168C4F3C104F8EE612AE340C5
:1009100001EE903AC1F30801F8EE611A81EEA22AC5
:100920000BE001EE901ADFED2B2A00BFF8EE611A02
:10093000116882EEA12AC1F3080101EE901A116834
:10094000F8EE611A40EE811A71EE800A62EE200A1A
:10095000C1F3462101EE101AB8EE411A31EE001A29
:10096000C0EE811ABCEEE11A80ED001A1168C1F3E5
:10097000064101EE101AB8EE411A31EE001AC0EE2F
:10098000811ABCEEE11A80ED011A1168C1F306610B
:1009900001EE101AB8EE411A31EE000A80EE801A0C
:1009A000BCEEC10A80ED020A30BD04E001EE901AEF
:1009B000DFED092ABAE70021016041608160F3E7B9
:1009C0002844025800000039384402580024744A70
:1009D0000090D0030024744C20BCBE4B494930B574
:1009E000484C0B1D0A681C3409681D68246802F015
:1009F0000303C5F30022C1F30551C4F3CC0400295D
:100A000014FB02F200EE102AF8EE400A75D03F4ABD
:100A10009FED3D1AB7EE000A6BB1DFED3D1A012BD9
:100A200001D0022B64D002EE101A1168F8EE422AAF
:100A300081EEA22A21E0334C283C23689B0612D584
:100A4000344B246801EE901A1168C4F3C104F8EE27
:100A5000612AE34001EE903AC1F30801F8EE611A11
:100A600081EEA22A0BE001EE901ADFED2B2A00BFE7
:100A7000F8EE611A116882EEA12AC1F3080101EEB5
:100A8000901A1168F8EE611A40EE811A71EE800A30
:100A900062EE200AC1F3462101EE101AB8EE411AA7
:100AA00031EE001AC0EE811ABCEEE11A80ED001A98
:100AB0001168C1F3064101EE101AB8EE411A31EE89
:100AC000001AC0EE811ABCEEE11A80ED011A11681D
:100AD000C1F3066101EE101AB8EE411A31EE000AB8
:100AE00080EE801ABCEEC10A80ED020A30BD04E03F
:100AF00001EE901ADFED092ABAE70021016041609A
:100B00008160F3E72844025800000039404402584D
:100B10000024744A0090D0030024744C20BCBE4BC7
:100B20002DE9FE4F0546DFF8E48350F8081B00244A
:100B3000F64FC943019005F12800264608F1240824
:100B4000009008011DD4A86E50B1B0F5801F0CD0E4
:100B5000B0F5001F0ED0B0F5401F1ED001240FE0ED
:100B6000386840F40030386017E00198022101F045
:100B7000FDFB03E00098022101F088FC04000CD08A
:100B800026462888C043C00523D4A86D05281ED258
:100B9000DFE800F00C11161B1B00AA6ED8F800103D
:100BA00021F440111143C8F80010EAE7386840F416
:100BB0000030386009E00198002101F0D7FB03E024
:100BC0000098002101F062FC044674B100E00124A9
:100BD00026462888C043800528D4E86D80281ED08A
:100BE0000CDC90B140280ED114E0AA6DD8F80010AA
:100BF00021F007011143C8F80010EAE7C02813D01C
:100C0000B0F5807F10D001240FE0386840F4003048
:100C1000386009E00198002101F0A8FB03E000988A
:100C2000002101F033FC04469CB126462888DFF8F9
:100C3000DC92C04309F12C0940052CD4D5F8A8005A
:100C4000B0F5800F20D00DDCA0B1B0F5001F0FD1A2
:100C500015E0EA6DD8F8001021F4E0711143C8F8EE
:100C60000010E3E7B0F5C00F13D0B0F5000F10D0BF
:100C700001240FE0386840F40030386009E0019842
:100C8000002101F073FB03E00098002101F0FEFB5E
:100C900004467CB126462888C04300052DD4D5F8EB
:100CA000AC00B0F1007F21D00EDCA8B1B0F1807FA4
:100CB00010D116E0D5F8A820D9F8001021F4600171
:100CC0001143C9F80010E6E7B0F1407F13D0B0F14E
:100CD000806F10D001240FE0386840F40030386095
:100CE00009E00198002101F041FB03E00098002198
:100CF00001F0CCFB044674B126462868C04380014D
:100D00001FD4E86CD8B110280FD0202812D030287A
:100D100015D0012414E0D5F8AC20D9F8001021F04A
:100D2000E0611143C9F80010E7E7386840F400308B
:100D3000386004E00198022101F018FB044674B108
:100D400026462888C043C0042BD4286EB0F5005F27
:100D500020D00DDCA0B1B0F5805F0FD115E06B485D
:100D6000EA6C2030016821F0300111430160E8E7AE
:100D7000B0F5405F13D0B0F5804F10D001240FE0E4
:100D8000386840F40030386009E00198002101F033
:100D9000EDFA03E00098002101F078FB04468CB1E5
:100DA00026462888C043800429D4686EB0F5403FA9
:100DB00023D010DC08B3B0F5803F14D0B0F5003F6D
:100DC0000FD115E02A6ED8F8001021F4E04111434C
:100DD000C8F80010E5E7B0F5802F0ED0B0F5A02FD1
:100DE0000BD001240AE00198012101F0BFFA03E0D1
:100DF0000098012101F04AFB044694B12646288858
:100E0000C04340042AD4D5F8B000B0F1405F23D0ED
:100E100010DC08B3B0F1805F14D0B0F1005F0FD1E7
:100E200015E06A6ED8F8001021F4E0211143C8F8EB
:100E30000010E4E7B0F1804F0ED0B0F1A04F0BD01E
:100E400001240AE00198012101F090FA03E00098E2
:100E5000012101F01BFB044674B126462888C043DB
:100E600000041FD4286FD8B1B0F1805F0ED0B0F16C
:100E7000005F10D0012414E0D5F8B020D9F800109C
:100E800021F0E0411143C9F80010E7E7386840F469
:100E90000030386004E00198012101F067FA04464F
:100EA00074B126462868C043C0011ED4A86CD0B1D6
:100EB00001280ED0022811D0032814D0012413E0F9
:100EC0002A6FD8F8001021F040511143C8F80010E3
:100ED000E8E7386840F40030386004E00198022107
:100EE00001F044FA0446ACB126462868DFF81CB08D
:100EF000C043ABF11C0B400252D40548016841F4D9
:100F000080710160FFF7A2FB824611E02C44025879
:100F100000480258FA48AA6C016821F00301114305
:100F20000160E2E7FFF792FBA0EB0A00642835D8E6
:100F3000F4480068C005F5D58CBBDFF8C4A3B5F84C
:100F4000B4100AF1240ADAF8000001F4407100F448
:100F50004070884211D0DAF80010DAF8002021F44D
:100F6000407142F48032CAF80020DAF8002022F4FE
:100F70008032CAF80020CAF80010D5F8B400B0F5E5
:100F8000807F1AD1FFF762FB029012E0FFF75EFB51
:100F90000299411A41F2883081420AD90324264637
:100FA0002878DFF85CA3C0430AF1080AC00721D003
:100FB0003CE0DAF800008007E8D5D5F8B410C1F3BA
:100FC0000120032858460DD0016821F47C510160AE
:100FD000B5F8B420DAF80010C2F30B021143CAF8D6
:100FE0000010DDE7C84A036802EA111223F47C51BD
:100FF0001143ECE7E86F182816D005DCA0B10828EB
:1010000008D0102804D10AE020280DD028280BD0C1
:1010100001240AE00198012101F0A8F903E00098F9
:10102000012101F033FA044664B126462878C04312
:1010300080071ED4A86F062819D2DFE800F0160C2E
:1010400011161616EA6FDAF8001021F03801114374
:10105000CAF80010EAE70198012101F087F903E0DE
:101060000098012101F012FA04467CB100E001244D
:1010700026462878C04340071FD4D5F89400062898
:1010800019D2DFE800F0160C11161616AA6FDAF85E
:10109000001021F007011143CAF80010E9E7019898
:1010A000012101F063F903E00098012101F0EEF95C
:1010B0000446A4B100E0012426462878C0438006F7
:1010C0002BD4D5F89000B0F1405F24D011DC10B3E0
:1010D000B0F1805F15D0B0F1005F10D116E0D5F807
:1010E0009420D9F8001021F007011143C9F800102D
:1010F000E3E7B0F1804F0ED0B0F1A04F0BD0012448
:101100000AE00198002101F031F903E00098022182
:1011100001F0BCF9044694B126462878C043400645
:101120002BD4D5F89C00B0F5406F24D011DC10B35F
:10113000B0F5806F15D0B0F5006F10D116E0D5F87E
:101140009020DAF8001021F0E0411143CAF80010B5
:10115000E3E7B0F5805F0ED0B0F5A05F0BD00124BF
:101160000AE00198002101F001F903E00098022152
:1011700001F08CF9044694B126462878C043000655
:101180002BD4D5F8A000B0F5C04F24D011DC10B39B
:10119000B0F5005F15D0B0F5804F10D116E0D5F84E
:1011A0009C20D9F8001021F4E0511143C9F8001037
:1011B000E3E7B0F5004F0ED0B0F5204F0BD001247F
:1011C0000AE00198002101F0D1F803E00098022123
:1011D00001F05CF9044654B126462878C043000764
:1011E0001ED4D5F88400B0F5805F0AD00FE0D5F8A2
:1011F000A020D9F8001021F460411143C9F8001073
:10120000EBE70098022101F041F900B10126D5F881
:101210008420DAF8001021F440511143CAF800107C
:101220002878C043C00613D4D5F89800B0F5807F65
:1012300005D10098022101F029F900B10126D5F865
:101240009820D9F8001021F440711143C9F800101A
:101250002868C043000316D4D5F8A40038B1B0F50F
:10126000803F09D0B0F5003F0BD001240AE001987F
:10127000002101F07BF803E00098022101F006F95B
:1012800004468CB126462868C043400322D4D5F8D2
:101290008800B0F5801F11D0B0F5001F13D0B0F555
:1012A000401F15D0012414E0D5F8A420D9F800106F
:1012B00021F440311143C9F80010E4E7386840F4E4
:1012C0000030386004E00098012101F0DFF80446A6
:1012D0005CB126462868C043C00323D4286DA8B15A
:1012E000B0F5803F17D001241BE0D5F88820DAF84C
:1012F000001021F440111143CAF80010EAE7000081
:101300004C44025800480258CFFFFF00386840F4B0
:101310000030386004E00198022101F027F804460B
:10132000E4B126462868C043800005D40098022115
:1013300001F0ACF800B101262868C04380031BD43B
:10134000D5F88000B0B1B0F5807F0FD0B0F5007F48
:1013500010D0B0F5407F0DD001240CE05A482A6D22
:10136000016821F4803111430160DBE7386840F403
:1013700000303860ECB326462868C043C00207D46A
:101380006A6FD8F8001021F000411143C8F800102E
:101390002868C043C00008D4D5F8B820DBF8001096
:1013A00021F480411143CBF800102868C04380022B
:1013B00007D4EA6ED8F8001021F080711143C8F804
:1013C00000102868C04340000CD4DBF8001021F462
:1013D0000041CBF80010DBF80010D5F8BC20114319
:1013E000CBF800102868C04308D437486A6D0168FC
:1013F00000E018E021F04051114301602868C0432B
:10140000000208D4D5F88C20DAF8001021F440014D
:101410001143CAF8001028790024C04300F00100ED
:1014200020430AD00FE0D5F88020DAF8001021F42C
:1014300040711143CAF800109EE70198002100F0A6
:1014400095FF00B106462879C04300F00200204312
:1014500005D10198012100F089FF00B106462879E5
:10146000C04300F00400204305D10198022100F0A0
:101470007DFF00B106462879C04300F008002043F4
:1014800005D10098002101F001F800B10646287945
:10149000C04300F01000204305D10098012100F066
:1014A000F5FF00B106462879C04300F02000044350
:1014B00004D10098022100F0E9FF00B916B1012023
:1014C000BDE8FE8F0020FBE74C4402582DE9F05F99
:1014D00004000F467ED0DFF83882D8F8000000F014
:1014E0000F00B8420CD2D8F8001021F00F01394398
:1014F000C8F80010D8F8000000F00F00B84269D119
:101500002078844D40070AD52069296801F07001D0
:10151000884204D9296821F07001014329602078AC
:101520007C4E361D00070AD56069316801F07001F4
:10153000884204D9316821F070010143316020787C
:10154000C0060AD5A069316801F4E061884204D977
:10155000316821F4E061014331602078DFF8B4B1F3
:1015600080060BF1080B0CD5E1695846DBF800202A
:1015700002F07002914204D9026822F070020A431C
:101580000260207880070AD5E068296801F00F0121
:10159000884204D9296821F00F010143296020788D
:1015A000C0073ED05B49A2682868183920F47060F3
:1015B000104328606068022818D0032819D00968F1
:1015C000012819D0490700294ADADFF848A1AAF111
:1015D000080A00E044E0DAF8002022F007020243A3
:1015E000CAF80020FFF732F8814612E00968890343
:1015F000E9E709688901E6E7C905E4E7FFF726F8A6
:10160000A0EB090141F28830814202D90320BDE8F4
:10161000F09F6168DAF8000000F03800B0EBC10F0D
:10162000ECD1207880070AD5E068296801F00F0125
:10163000884204D2296821F00F0101432960D8F8BB
:101640000010404601F00F01B9420BD9016821F0AA
:101650000F0139430160006800F00F00B84201D06B
:101660000120D4E7207840070AD52069296801F0D5
:101670007001884204D2296821F070010143296079
:10168000207800070AD56069316801F0700188424E
:1016900004D2316821F07001014331602078C00626
:1016A0000AD5A069316801F4E061884204D231684A
:1016B00021F4E06101433160207880060CD5E169B6
:1016C0005846DBF8002002F07002914204D2026812
:1016D00022F070020A43026000F06CF80E492A689A
:1016E0002B68C2F3032203F00F038A5CC95C02F08B
:1016F0001F0201F01F01D040084A20FA01F11160D9
:101700000749086007480068BDE8F05FFEF7DABFE8
:101710000020005218440258A42F00081000002492
:101720000C0000240400002430B500F043F80B4AFC
:101730000B490C4B15681468C5F3032204F00F0421
:101740008A5C095D02F01F0201F01F01D040064AC9
:1017500020FA01F119601060084630BD18440258A3
:10176000A42F0008100000240C00002400B5FFF78F
:10177000DBFF05490968054AC1F30211515C01F01C
:101780001F01C84000BD00001C440258A42F0008DF
:1017900000B5FFF7C9FF05490968054AC1F30221F1
:1017A000515C01F01F01C84000BD00001C440258FC
:1017B000A42F0008454970B545480968434B103BC4
:1017C00011F0380208D00111082A03D0102A0BD0DA
:1017D000182A0BD0084670BD19688906FBD5196810
:1017E000C1F3C101C84070BD3A4870BD3749374D9B
:1017F00018310C1D24350A68096826682D6802F026
:10180000030406F00102C1F30511C5F3CC0515FB75
:1018100002F200EE102AB8EE400AE9B32F4ADFEDDB
:101820002E0AB7EE001A6CB1DFED2D1A012C01D093
:10183000022C43D002EE101A1068F8EE422A81EE14
:10184000A22A1EE01C68A40611D51B6801EE901A9E
:101850001168C3F3C103F8EE612AD84001EE900A83
:10186000C1F30800F8EE611A81EEA22A0BE001EE46
:10187000901ADFED1C2A00BFF8EE611A106882EEA4
:10188000A12AC0F3080001EE900AF8EE611A40EEBA
:10189000201A31EE810A00E015E022EE000A1068FD
:1018A000C0F34620401C00EE900AF8EE600A80EE7D
:1018B000201ABCEEC10A10EE100A70BD01EE901A9B
:1018C000DFED092AD8E7002070BD0000104402585F
:1018D0000090D00340787D01000000393044025868
:1018E0000024744A0024744C20BCBE4B2DE9F05FE8
:1018F00004007DD0FF4F2078FE4D1837DFF8F493B9
:10190000103DC00748D0D9F80000396800F0380011
:10191000102815D0182803D101F0030002280FD099
:101920006068B0F5803F12D010B1B0F5A02F18D08C
:10193000286820F480302860286820F4802009E09E
:101940002868800328D560680028D2D024E0286861
:1019500040F480302860606888B1FEF777FE064664
:1019600009E0286840F480202860F0E7FEF76EFE6A
:10197000801B64286FD828688003F7D50CE0FEF739
:1019800065FE064605E000BFFEF760FE801B64288A
:10199000F0D828688003F7D4207841F20308D54EA8
:1019A0000C3E800769D5D9F80000396810F038007E
:1019B0000ED0182801D188070AD0E06890B32968B2
:1019C00021F0190101432960FEF740FE824631E013
:1019D0002868400702D5E06800288AD0E1682868B6
:1019E00020F0190008432860FEF730FE824607E029
:1019F000DFE000BFFEF72AFEA0EB0A000228B9D8FC
:101A000028684007F6D500BFFEF71AFE40451BD8F0
:101A10002069402812D0316821F47C3141EA00303D
:101A200030602AE018E000BFFEF710FEA0EB0A00CD
:101A300002289FD828684007F6D5E5E7306820F4EB
:101A40007C3040F40030EBE7207C316821F0FE412F
:101A500041EA0060E4E70DE1286820F00100286019
:101A6000FEF7F4FD824605E0FEF7F0FDA0EB0A006C
:101A700002288DD828684007F6D42078C0065DD5A6
:101A8000D9F80000DFF86CB2396800F03800ABF12B
:101A9000040B082810D0182803D101F003000128F6
:101AA0000AD0E0690028286838D040F0800028601B
:101AB000FEF7CCFD824623E02868C00523D5E06907
:101AC000802876D11FE0206A202821D0316821F0BB
:101AD000F84141EA8060306030E000BF94F82010A7
:101AE000DBF8002022F07C5242EA0161CBF80010C2
:101AF00024E000BFFEF7AAFDA0EB0A00022898D858
:101B00002868C005F6D5FEF79BFD4045E6D8DAE724
:101B1000306820F0F84040F08040DCE720F08000A2
:101B20002860FEF793FD064605E000BFFEF78EFD38
:101B3000801B02289DD82868C005F7D420780007AC
:101B400029D56C486169643000298046016811D04C
:101B500041F001010160FEF779FD064605E000BF96
:101B6000FEF774FD801B0228C9D8D8F80000800752
:101B7000F6D510E021F001010160FEF767FD064691
:101B800005E000BFFEF762FD801B022872D8D8F87E
:101B900000008007F6D42078800623D5A0690028AD
:101BA000286810D040F480502860FEF74FFD0646AC
:101BB00005E036E1FEF74AFD801B02285AD8286866
:101BC0008004F7D50EE020F480502860FEF73EFD3B
:101BD000064604E0FEF73AFD801B02284AD8286832
:101BE0008004F7D4207840074FD5DFF80C81D8F86F
:101BF000001041F48071C8F80010FEF727FD06467A
:101C000005E000BFFEF722FD801B642832D8D8F81B
:101C10000000C005F6D5374EA068603601280AD00E
:101C200008B1052813D0306820F00100306030681A
:101C300020F0040002E0306840F001003060A0684D
:101C400041F2883A90B1FEF701FD80460AE0306823
:101C500040F004003060EEE7FEF7F8FCA0EB08016E
:101C6000514507D830688007F6D50EE0FEF7EEFC48
:101C7000804607E084E000BFFEF7E8FCA0EB080127
:101C800051457DD830688007F6D4606AB0B3DFF87C
:101C90006480D9F8001008F120084FF6F87B08F1AD
:101CA0000409C1F3C2010329A8F1040A69D002287A
:101CB000286820F08070286003D0FEF7C7FC044637
:101CC00084E0FEF7C3FC064605E000BFFEF7BEFC5D
:101CD000801B022877D828688001F7D4E26A40F296
:101CE000F331386854F8283F884340EA021018431B
:101CF000386004E01044025800480258B5E0217BE7
:101D0000434622894FF4FE0C208A4FF0FE474902D9
:101D1000267D521E401EA1F50071C2F308088AB24A
:101D2000761E0CEA004042EA08020243504607EAE7
:101D300006610A431A60DAF8002022F00102CAF8AC
:101D40000020D9F80020266A22EA0B0242EAC602E5
:101D5000C9F80020DAF80010A26921F00C01114343
:101D6000CAF800100168E26921F002011143016024
:101D7000016841F480310160016841F4003101E003
:101D800021E027E00160016841F4802101600168E1
:101D900041F001010160286840F080702860FEF782
:101DA00055FC044605E000BFFEF750FC001B02286E
:101DB00009D828688001F7D557E000BFFEF746FC38
:101DC000001B022802D90320BDE8F09F286880018B
:101DD000F4D44AE039680128D8F8000021D0A26A7A
:101DE00001F0030393421CD1E26AC1F305118A4258
:101DF00017D1216BC0F30802491E8A4211D1616BD1
:101E0000C0F34622491E91420BD1A16BC0F306429A
:101E1000491E914205D1E16BC0F30660491E814223
:101E200001D00120D0E7A16C4E46D9F80000C0F3E4
:101E3000CC00814219D0DAF80000554620F00100AC
:101E4000CAF80000FEF702FC4FEA0007FEF7FEFBAF
:101E5000B842FBD0A26C306820EA0B0040EAC20016
:101E60003060286840F0010028600020ACE7401E88
:101E7000B0F1807F10B501D3012010BD4FF0E024F8
:101E800060610F21601700F085FF0020A06107212D
:101E9000216110BD30B590F88410012918D00122BD
:101EA00080F884202421C0F88810002220240168B2
:101EB0000B680D6823F0005325F001050D604266A4
:101EC00001680B60C0F8884080F88420104630BD5F
:101ED000022030BD70B5044690F8840001281DD062
:101EE000012284F884202420C4F888002068056832
:101EF000026822F0010202602068826822F06062BB
:101F00000A438260204600F015FC22682021002050
:101F10001560C4F8881084F8840070BD022070BD7C
:101F200070B5044690F8840001281DD0012284F881
:101F300084202420C4F8880020680568026822F004
:101F4000010202602068826822F060420A438260D7
:101F5000204600F0EFFB2268202100201560C4F825
:101F6000881084F8840070BD022070BD10B5040094
:101F700003D0D4F8880010B107E0012010BD002084
:101F800084F88400204600F027F82420C4F8880054
:101F90002068016821F001010160A06A10B12046AB
:101FA00000F0EAFB204600F0CBFC0128E6D02068D8
:101FB000416821F4904141602068816821F02A0144
:101FC00081602068016841F0010101602046BDE8A0
:101FD000104000F035BC000010B5B6B00446142126
:101FE00030A8FEF7AFF9C0216846FEF7ABF91A49F1
:101FF000206888422DD100201F9001210446CDE9A0
:1020000000106846FEF78CFD08B1FEF7D9F91348B9
:10201000016841F010010160006800F01000359087
:102020000E481038016841F00101016000680DF1AF
:10203000C00C022100F0010035904FF4C06007236E
:102040008CE8130003220648CDE9332330A9FEF7BC
:10205000D3F936B010BD000000100140F044025822
:10206000000002582DE9F8430446D0F8880098464D
:1020700016460D46202802D00220BDE8F883A5B1FF
:102080009EB10021C4F890102120C4F888001834B3
:10209000FEF7DCFA814654F8100CA687E687202765
:1020A000183CB0F5805F02D003E00120E5E720692D
:1020B00010B12E46002510E000260EE080212046BB
:1020C00000F014FEC0B9DEB116F8010B2168886279
:1020D000B4F85600401EA4F85600B4F856004B461B
:1020E0004FF00002CDF800800028E7D14FF040010A
:1020F000204600F0FBFD48B1C4F888700320BCE71F
:1021000035F8020B2168C0F30800E0E7C4F88870D6
:102110000020B2E7FEE7000030B587B01421684622
:10212000FEF710F90E48016841F0040101600068F3
:102130004FF400540B4D002200F00400214605909E
:102140002846FEF777FA002100940120CDE901012D
:10215000284603916946FEF74FF907B030BD0000ED
:10216000E0440258000802582DE9F04F87B01421CE
:102170006846FEF7E7F85D48016841F48071016048
:10218000016801F480710591016841F0100101605E
:10219000016801F010010591016841F080010160C2
:1021A000016801F080010591016841F04001016082
:1021B000016801F040010591016841F008010160EA
:1021C000016801F008010591016841F00101016019
:1021D000016801F001010591016841F020010160F1
:1021E000016801F020010591016841F004010160DE
:1021F000006840F2FF64DFF8F8B0002200F004004D
:10220000214605905846FEF715FA4FF68377394870
:1022100000223946FEF70EFA4FF60C7836480022B7
:102220004146FEF707FA3548002248F23311FEF71F
:1022300001FA4CF20379324800224946FEF7FAF9D6
:102240004FF63F0A2F4800225146FEF7F3F92E4879
:1022500000220121FEF7EEF901AA0094012469464B
:1022600000255846022682E87000FEF7C5F801AA4C
:1022700000972048694682E87000FEF7BDF801AA81
:10228000CDF800801C48694682E87000FEF7B4F87B
:1022900048F2311069468DE871001848FEF7ACF835
:1022A00001AACDF800901648694682E87000FEF752
:1022B000A3F801AACDF800A01248694682E8700090
:1022C000FEF79AF801AA00940F48694682E8700068
:1022D000FEF792F800966946CDE901450748039557
:1022E000FEF78AF807B0BDE8F08F0000E04402581E
:1022F0000020025800100258001C02580018025812
:10230000000C02580014025800080258144800211A
:1023100010B5124C0C224FF4E1330460C0E90131D6
:10232000C160C0E904128161C161016241628162E0
:10233000FFF71CFE70B90A480021FFF7F1FD48B90C
:1023400007480021FFF7C6FD20B90548FFF7A2FDA9
:10235000002801D0FEF734F810BD00000010014045
:1023600018000024FEE7FEE7704700002DE9F04763
:10237000454D044689464FF0000A2868C04380074F
:102380000AD0414E283E306820F080603060FEF771
:102390005DF90746B04608E00120BDE8F08700BFC0
:1023A000FEF754F9C01B022867D8D8F800000001D6
:1023B000F6D4206829684FF4FE0721F47C313E02F0
:1023C00041EA00302860207AA389B4F804C04002B2
:1023D0002D4D2D495B1E227CACF1010C1035091DE1
:1023E000A0F5007080B2521ECCF3080C07EA03433C
:1023F00040EA0C00184306EA0262104328600868AD
:10240000626920F0C000104308600A68A06922F0E9
:10241000200202430A60281D0A6822F010020A60A6
:1024200002684FF6F873E4699A4342EAC402026014
:102430000868B9F1000F40F010020A6011D0086876
:10244000B9F1010F11D040F400100860D8F8000075
:10245000444640F08060C8F80000FEF7F7F80546F3
:102460000DE0086840F40020EFE740F48010ECE74E
:10247000FEF7ECF8401B022801D903208DE7206805
:102480000001F5D5504688E7284402582DE9F04769
:10249000454D044689464FF0000A2868C04380072E
:1024A0000AD0414E283E306820F080503060FEF760
:1024B000CDF80746B04608E00120BDE8F08700BF30
:1024C000FEF7C4F8C01B022867D8D8F800008000C7
:1024D000F6D4208829684FF4FE0721F07C713E0273
:1024E00041EA00502860207AA389B4F804C0400271
:1024F0002D4D2D495B1E227CACF1010C1835091DB8
:10250000A0F5007080B2521ECCF3080C07EA03431A
:1025100040EA0C00184306EA02621043286008688B
:10252000626920F44060104308600A68A06922F4E0
:10253000007202430A60281D0A6822F480720A6051
:1025400002684FF6F873E4699A4342EAC4020260F3
:102550000868B9F1000F40F480720A6011D0086871
:10256000B9F1010F11D040F080700860D8F8000078
:10257000444640F08050C8F80000FEF767F8054672
:102580000DE0086840F48000EFE740F40000ECE75D
:10259000FEF75CF8401B022801D903208DE7206874
:1025A0008000F5D5504688E7284402587047FEF76A
:1025B00053B8000070B59CB04C216846FDF7C2FED0
:1025C000202113A8FDF7BEFE0220FEF729F92048BE
:1025D00000242049026842F44042026002680A680E
:1025E00042F001020A60096801F001011B910168D3
:1025F0008904FCD50DF1280C022009900521C02288
:102600008CE80700C6030F9008250D9001230E905B
:10261000CDE91054CDE9003668461294FFF766F90B
:1026200088B940201A903F210301CDE916500322BA
:10263000CDE9180313AB13A883E816000421FEF7B5
:1026400045FF002801D0FDF7BBFE1CB070BD0000A7
:10265000184802582C0400582C48F0B52C4A016840
:1026600041F470010160106800F00F00072804D2E7
:10267000106820F00F00C01D106026490020254C76
:1026800010340B68244D43F001030B6020600B688D
:102690002B400B60136803F00F03072B04D913685A
:1026A00023F00F03DB1D13601A4C1C4A18341C4B1B
:1026B000261D371D2060174C1A4D28343060261D0A
:1026C0003860371D23603B1D35601C1D3A60251D99
:1026D0002E1D1860331D22602860326018600A6861
:1026E0000C4B114C22F4802260330A601860206881
:1026F0006FF30F00B0F1005F03D20C490120C1F865
:10270000080143F2D2000A490860F0BD88ED00E0FC
:1027100000200052004402587FEDF6EA80020101D9
:10272000000202020000FF010010005C0080005166
:102730000040005230B5416EB9B101680D4B03F154
:1027400008048A688968C2F34262490F5D5C615C73
:102750002D01B5FBF1F1A0F86A10995CA25C0901AA
:10276000B1FBF2F1A0F8681030BD0121A0F86A10A9
:10277000F8E70000942F000890F82810090706D504
:102780000168836B4A6822F400421A434A6090F859
:102790002810C90706D00168C36A4A6822F40032CB
:1027A0001A434A6090F82810890706D50168036B20
:1027B0004A6822F480321A434A6090F82810490788
:1027C00006D50168436B4A6822F480221A434A60A6
:1027D00090F82810C90606D50168C36B8A6822F4F0
:1027E00080521A438A6090F82810890606D501683D
:1027F000036C8A6822F400521A438A6090F8281009
:10280000490611D50168436C4A6822F480121A43C4
:102810004A60416CB1F5801F06D10168836C4A683B
:1028200022F4C0021A434A6090F82810090606D51F
:102830000168C26C486820F400201043486070476B
:102840002DE9F84300250446C0F89050FDF7FEFE40
:102850008046206820266FF07E470068000713D569
:102860000022434631042046009700F03FFA58B159
:10287000216851E8000F20F0800041E80002002AA2
:10288000F6D1C4F8886021E020680068400722D5AE
:10289000002243464FF480012046009700F026FABC
:1028A000C8B1206850E8001F21F4907140E8001280
:1028B000002AF6D12068083050E8001F21F00101FD
:1028C00040E80012002AF5D1C4F88C60032084F897
:1028D0008450BDE8F883C4F88860C4F88C60E5666D
:1028E0002567002084F88450F3E7000010B50268E3
:1028F00052E8001F21F4907142E80013002BF6D13A
:102900000E4B0268083252E8001F194042E80014DA
:10291000002CF6D1C16E012908D1026852E8001FCF
:1029200021F0100142E80013002BF6D100212022F3
:10293000C0F88C20C166416710BD0000FEFFFFEFAC
:102940002DE9F04304468068D84E87B0D84B216803
:10295000D4E90427D4F81CC010430A68002547EACC
:102960000C073843324002430A602068E26841683D
:1029700021F44051114341602268A1699A4201D07B
:10298000206A01439768DFF82CC3CB4ECB4807EA97
:102990000C070F4397602168676ACA6A22F00F022A
:1029A0003A43CA622268B2420ED1006800F0380091
:1029B000182873D047DCB8B3082879D010286FD115
:1029C00078E028287ED17BE0BD498A4209D10068A1
:1029D00000F00700062875D2DFE800F0546A6C6E3C
:1029E0007072B8498A4209D1006800F007000628D1
:1029F00068D2DFE800F0475D5F616365B2498A42F3
:102A000009D1006800F0070006285BD2DFE800F07B
:102A10003A5052545658AD498A420BD1006800F0E2
:102A2000070006284ED200E010E0DFE800F02B415E
:102A300043454749A6498A420AD1006800F0380058
:102A4000182839D0B7DD2028BBD13CE001203AE07E
:102A5000A0498A4209D1006800F00700062831D257
:102A6000DFE800F01026282A2C2E9B498A420BD141
:102A7000006800F00700062824D2DFE800F0031900
:102A80001B1D1F2100201EE09A421BD18B48001DF8
:102A9000006800F00700062814D202E00CE007E00E
:102AA00010E0DFE800F0030507090B0D02200AE043
:102AB000042008E0082006E0102004E0202002E0C6
:102AC000402000E080208549DFF814829A42854A40
:102AD0004FF400434FEA21174FF000064ED1102863
:102AE0001AD006DC022809D004280BD008287CD193
:102AF0000DE020283ED0402877D13DE0FDF7BAFE1A
:102B0000014610E06846FDF7C7FE01990BE003A8F7
:102B1000FDF764FF049906E01068800605D510688B
:102B2000C0F3C100C140002970D0606A676838F8FE
:102B3000102007EB4703B1FBF2F0834255D8B0EB0E
:102B4000073F52D8002308461946FDF7C3FB02464B
:102B50007808130E120243EA012110183A46714117
:102B60000023FDF7B7FB604AA0F5407191423CD8C5
:102B700021688FE03946D8E71946D6E7D4F81CC05B
:102B80004FF6EF799C4546D1082819D005DC58B19D
:102B900001280CD0042875D10DE0102815D020286C
:102BA00035D040286ED134E0FEF7E0FD01E0FEF7BD
:102BB000EFFD014610E06846FDF76EFE01990BE05F
:102BC00003A8FDF70BFF049906E01068800604D502
:102BD0001068C0F3C100C140C1B1636A606838F8D1
:102BE0001330B1FBF3F1490000E04BE001EB500181
:102BF000B1FBF0F0A0F11001494543D84FF6F07356
:102C00002168C0F342021840104343E043E03946D4
:102C1000E3E71946E1E7082819D005DC58B1012897
:102C20000CD004282ED10DE0102815D020282BD050
:102C3000402827D12AE0FEF799FD01E0FEF7A8FD24
:102C4000014610E06846FDF727FE01990BE003A856
:102C5000FDF7C4FE049906E01068800604D51068EC
:102C6000C0F3C100C140B1B1636A606838F8133085
:102C7000B1FBF3F101EB5001B1FBF0F0A0F1100159
:102C8000494505D9012506E03946EDE71946EBE748
:102C9000216880B2C8600120A4F86A00A4F8680026
:102CA00028466667A66707B0BDE8F083F369FFCFE3
:102CB000000C0058FFF4FF1100100140544402586A
:102CC0000044004000480040004C004000500040DC
:102CD0000014014000780040007C00400090D003C8
:102CE0007C2F000800440258FFFC0F002DE9F0473C
:102CF000994617460D460446089E4FF0000833E0FB
:102D0000701C31D0FDF7A2FCA0EB0900B04218D82E
:102D1000BEB120680168490726D5802D24D0402DFA
:102D200022D0C169C94309070DD408250562204690
:102D3000FFF7DCFDC4F89050012084F88480BDE8E2
:102D4000F0870320FBE7C069C04300050CD421686D
:102D50004FF4006008622046FFF7C8FD2021C4F848
:102D6000901084F88480ECE72068C06935EA0000A0
:102D700004D00020B842C3D00020E0E70120F9E7EA
:102D8000FEE70000014A024900F024B8F92D0008CE
:102D900014000024090700284FEA116104DB00F148
:102DA000E02080F80014704700F00F0000F1E020F0
:102DB00080F8141D704702E008C8121F08C1002ADD
:102DC000FAD170477047002001E001C1121F002AAC
:102DD000FBD170472DE9F04116460F460446002509
:102DE00003E03946B047641C6D1C20780028F8D1F8
:102DF0002846BDE8F081000013B504486423012291
:102E00006946FFF72FF900981CBD00001800002448
:102E10001FB500240094019402940394FDF7A0FCD4
:102E200001208DF80C4017228DF808208DF80940FC
:102E300003238DF80D404FF040418DF800008DF8D0
:102E40000A408DF80E008DF8014001918DF80B308D
:102E50008DF80F006846FDF755FC0420FDF78EFC49
:102E60003D490868800311D4BFF34F8FBFF36F8FC4
:102E70003A480460BFF34F8FBFF36F8F086840F488
:102E800000300860BFF34F8FBFF36F8F0868C00337
:102E900023D4314870300460BFF34F8F001F43F6D6
:102EA000FF7400682D4D1035C0F34E32C0F3C903D6
:102EB00004EA4216184600BF46EA80772F60401E9B
:102EC000FAD2521EF4D2BFF34F8F086840F480301C
:102ED0000860BFF34F8FBFF36F8FFDF7C5FBFFF7A0
:102EE00069FBFFF741F9FFF711FAFFF715F91C4CE1
:102EF0004CF203751B4E4FF68377DFF86C804FF66C
:102F00003F09DFF868A048F2331B01212046FDF796
:102F100089FB29463046FDF785FB39464046FDF7DB
:102F200081FB49465046FDF77DFB11485946FDF7A8
:102F300079FB10484FF60C71FDF774FB0E4840F218
:102F4000FF61FDF76FFB4FF400512046FDF76AFB70
:102F50006420FDF73FFAD8E714ED00E050EF00E001
:102F600000080258000C02580010025800140258C1
:102F700000180258001C02580020025801000200EC
:102F80000400060008000A000C00100020004000A9
:102F90008000000101010103070100000804020490
:102FA0000801010100000000010203040102030402
:102FB00006070809D42F00080000002418000000AC
:102FC000B62D0008EC2F000818000024980400001B
:102FD000C62D0008010000001000000000000000E5
:0C2FE0000090D0030090D003000000001F
:040000050800029954
:00000001FF
