:020000040800F2
:1000000038050124B10200089B380008E1370008D8
:10001000993800081B090008FD5100080000000085
:10002000000000000000000000000000F54900088A
:100030001D090008000000009D380008F74900086D
:10004000CB020008CB020008CB020008CB0200085C
:10005000CB020008CB020008CB020008CB0200084C
:10006000CB020008CB020008CB020008CB0200083C
:10007000CB020008CB020008CB020008CB0200082C
:10008000CB020008CB020008CB020008CB0200081C
:10009000CB020008CB020008CB020008CB0200080C
:1000A000CB020008CB020008CB020008CB020008FC
:1000B000CB020008CB020008CB020008CB020008EC
:1000C000CB020008CB020008CB020008CB020008DC
:1000D000CB020008CB020008CB020008CB020008CC
:1000E000CB020008CB02000800000000CB02000891
:1000F000CB020008CB020008CB020008CB020008AC
:10010000CB020008B53D0008CB020008CB02000876
:10011000CB020008CB020008CB020008CB0200088B
:10012000CB020008CB020008CB020008CB0200087B
:10013000CB020008CB020008CB020008CB0200086B
:1001400000000000000000000000000000000000AF
:10015000CB020008CB020008CB020008CB0200084B
:10016000CB020008CB020008CB020008CB0200083B
:10017000CB020008CB020008CB020008CB0200082B
:10018000CB020008CB020008CB020008CB0200081B
:10019000CB020008CB020008CB020008CB0200080B
:1001A000CB020008CB020008CB020008CB020008FB
:1001B000CB020008CB020008CB020008CB020008EB
:1001C000CB020008CB020008CB020008CB020008DB
:1001D000CB020008CB020008CB020008CB020008CB
:1001E000CB020008CB020008CB020008CB020008BB
:1001F000CB020008CB020008CB020008CB020008AB
:10020000CB020008CB020008CB020008CB0200089A
:10021000CB020008CB020008CB020008CB0200088A
:10022000CB020008CB020008CB020008000000004F
:10023000CB020008CB02000800000000CB0200083F
:10024000CB020008CB020008CB020008CB0200085A
:10025000CB020008CB020008CB020008CB0200084A
:10026000CB020008CB020008CB020008CB0200083A
:10027000CB020008CB020008CB02000800000000FF
:10028000CB020008CB020008CB02000800000000EF
:1002900000000000CB020008DFF810D000F04AFA9E
:1002A00000480047055B0008AFF3008038050124D3
:1002B0000648804706480047FEE7FEE7FEE7FEE700
:1002C000FEE7FEE7FEE7FEE7FEE7FEE7DD4A0008A1
:1002D000990200082DE9F05F0546002092469B46F2
:1002E00088460646814640241BE02846414647464C
:1002F000224600F057F853465A46C01A914110D38F
:1003000011461846224600F03EF82D1A67EB010808
:100310004F4622460120002100F035F817EB000976
:100320004E41201EA4F10104DFDC484631462A4636
:100330004346BDE8F09FD2B201E000F8012B491E10
:10034000FBD270470022F6E710B513460A46044672
:100350001946FFF7F0FF204610BD30B50B460146A9
:1003600000202022012409E021FA02F59D4205D354
:1003700003FA02F5491B04FA02F52844151EA2F1FE
:100380000102F1DC30BD202A04DB203A00FA02F140
:10039000002070479140C2F1200320FA03F3194373
:1003A00090407047202A04DB203A21FA02F0002115
:1003B000704721FA02F3D040C2F120029140084375
:1003C000194670472DE9FE4F804681EA0300C00FB1
:1003D0000C46009021F0004123F00045B8EB0200EC
:1003E000A94105D24046214690461C460B4602468E
:1003F00023F00040104347D0270DC7F30A00C3F392
:100400000A510290401A019040286BDAC3F313009E
:1004100040F4801B0098924620B10023D2EB030ADF
:1004200063EB0B0B01985946C0F140025046FFF7B1
:10043000AAFF06460D4650465946019A00F08CF92F
:1004400010EB08006141002487EA115284EAE77347
:100450001A4340D0009A62B3019A012A4FEA075228
:1004600015DC001B61EB02014FF0004202EA07526B
:10047000CDE90042001C41F5801132462B4600F0C8
:100480008CF903B0BDE8F08F40462146F9E7001B28
:1004900061EB0201001C41F5801300185B4120183C
:1004A000A2F5001747EB030140EAD570B6196D417C
:1004B00011E06D084FEA360645EAC0754FEA07526B
:1004C000001B61EB0201001C41F5801149084FEA55
:1004D00030000019514132462B4603B0BDE8F04FC1
:1004E00000F04CB90098012240000023D0EB02023A
:1004F00063EBE073009821464FEAE074B8EB00002C
:1005000061EB0401E9E783F000435BE781F0004120
:1005100058E72DE9FE4F81EA030404F0004421F07E
:10052000004100944FF0000B23F0004350EA010417
:100530005ED052EA03045BD0C3F30A54C1F30A55F8
:100540002C44A4F2F3340194A0FB0254C1F3130130
:1005500041F48011C3F3130343F4801301FB0244FD
:1005600000FB034E840A970A44EA815447EA835702
:10057000A4FB076802958D0A05FB07854FEA932CBB
:1005800004FB0C542705029D4FEA065847EA16372C
:10059000B5EB08056EEB070C870E920E47EA811744
:1005A00042EA8312A7FB0201B6EB0B0164EB0004E5
:1005B0002B0D43EA0C335E1844EB1C50DA465146CF
:1005C000E7FB0201C5F313044FEA0B3343EA14536C
:1005D0004FEA0432019C43EA0603A4F10C0402949E
:1005E000009CCDE900B400F0D8F803B0BDE8F08F6E
:1005F00000200146F9E72DE9F04D81EA030404F0FB
:10060000004B21F0004514464FF0000A23F0004152
:1006100050EA050220D054EA01021DD0C5F30A5762
:100620000246C5F31303C1F31300C1F30A5640F4A5
:10063000801543F48013A7EB0608101BD64608F27A
:10064000FD3873EB050002D308F1010801E09218B0
:100650005B41B8F1000F03DA00200146BDE8F08DE0
:1006600000204FF48011064684460EE0171B73EB02
:10067000050705D3121B63EB050306434CEA010C87
:1006800049084FEA300092185B4150EA0107EDD16A
:1006900052EA030012D082EA040083EA050108430B
:1006A00005D0101BAB4106D20122002306E0002238
:1006B0004FF0004302E06FF0010253101AEB060006
:1006C0004CEB085110EB0A0041EB0B01BDE8F04D7B
:1006D00000F054B8C1F30A52C1F3130140F2FF33E2
:1006E00041F480119A4202DA00200146704740F23C
:1006F00033439A42A2F2334202DC5242FFF752BE27
:10070000FFF741BE30B5041E71F1000404DB4FF069
:100710000044404264EB0101141E73F1000405DB48
:100720001C464FF00043524263EB0403994208BF5A
:10073000904230BD064C074D06E0E06840F00103F2
:1007400094E8070098471034AC42F6D3FFF7A8FDB1
:10075000785C0008985C0008202A06DBCB17203A5A
:1007600041FA02F043EAE07306E041FA02F3D040B6
:10077000C2F12002914008431946704710B5141E7B
:1007800073F1000408DA401C41F1000192185B414A
:100790001A4301D120F0010010BD2DE9F04D924621
:1007A0009B4611B1B1FA81F202E0B0FA80F2203238
:1007B0009046FFF7E8FD04460F4640EA0A0041EA8A
:1007C0000B0153465A46084313D0114653EA010021
:1007D00019D0C8F140025046FFF7E4FD05460E4629
:1007E000504659464246FFF7CEFD084305D001204A
:1007F00004E020463946BDE8F08D0020054346EA76
:10080000E0762C4337430A986305E40AA0EB08001E
:100810000022FD0A44EA47540A3002D5002001466E
:10082000E9E7010510196941DDE908450019694149
:10083000BDE8F04DA2E7000010B54FF0000408B18C
:10084000A41E06E004480A4402F0ACF808B16FF0B8
:100850000304204610BD000028000024044810B501
:1008600002F0E2F9042801D0012010BD002010BDE3
:100870002800002410B54FF0000408B1A41E13E0B6
:1008800000F016F8012802D06FF006040CE00748CB
:100890004FF4804101F0C2FF10B16FF0030403E098
:1008A0000248022101F058FF204610BD2800002414
:1008B00010B16FF0010070470120704738B5642512
:1008C0004FF00004002803FB05F001D0A41E06E051
:1008D0000090044802F04AFC08B16FF0030420467F
:1008E00038BD0000280000247047000038B564259A
:1008F0004FF00004002803FB05F001D0A41E06E021
:100900000090044802F02CFD08B16FF0030420466B
:1009100038BD0000280000247047FEE7704772B61B
:10092000FEE7000070B5044600F038F90546601C8B
:1009300002D004480078044400F030F9401BA04283
:10094000FAD370BD100000242DE9F84F03247D4D2B
:1009500000234FF001094FF0B04B4FF00F0AE9E0D0
:1009600009FA03F73A4076D00E7906F00306012E15
:1009700001D0022E18D1D0F808C04FEA430ECE683D
:1009800004FA0EF82CEA080C06FA0EF646EA0C06F3
:100990008660D0F804C00E792CEA070CC6F3001666
:1009A0009E4046EA0C0646600E79F643B6070BD029
:1009B000C6684FEA43088F6804FA08FC26EA0C066A
:1009C00007FA08F73743C7600E7906F00306022ED0
:1009D00012D1DE080F694FEA437C00EB8606B6466B
:1009E000366A4FEADC6C0AFA0CF807FA0CF726EACA
:1009F00008063743CEF820700F7906684FEA43089F
:100A000007F0030704FA08FC07FA08F726EA0C06C1
:100A1000374307604E6816F4403F1CD04A4E376893
:100A200047F00207376036689F0706F00206009617
:100A300023F0030606F1B046B6463F0FD6F8086429
:100A4000DFF808810AFA07FC404526EA0C0603D1C4
:100A50004FF0000C41E06CE0DFF8F4C0604502D1DB
:100A60004FF0010C39E0DFF8ECC0604502D14FF0E7
:100A7000020C32E0DFF8E0C0604502D14FF0030C19
:100A80002BE0DFF8D8C0604502D14FF0040C24E021
:100A9000DFF8CCC0604502D14FF0050C1DE0DFF857
:100AA000C4C0604502D14FF0060C16E0DFF8B8C0B4
:100AB000604502D14FF0070C0FE0DFF8B0C0604591
:100AC00002D14FF0080C08E0DFF8A4C0604502D165
:100AD0004FF0090C01E04FF00A0C0CFA07FC4CEA4D
:100AE000060CCEF808C44F68DBF80060FF0226EA67
:100AF000020600D516435F46CBF80060D1F804C06B
:100B0000DBF804605FEA8C2C26EA020600D5164367
:100B10007E606E684F6826EA0206BF0300D5164362
:100B20006E602E684F6826EA0206FF0300D5164362
:100B30002E605B1C0A6832FA03F67FF411AFBDE841
:100B4000F88F000080000058F4440258000002585A
:100B50000004025800080258000C02580010025805
:100B60000014025800180258001C025800200258B5
:100B700000240258426921EA02030A4043EA024182
:100B8000816170470AB1816170470904FBE7000089
:100B900001480068000C70470010005C0148806844
:100BA0007047000010000024024881680278114458
:100BB0008160704710000024032010B500F086F813
:100BC00001F068FA0F4A104914681368C4F303224D
:100BD00003F00F038A5CC95C02F01F0201F01F01E1
:100BE000D0400A4A20FA01F11160094908600F203B
:100BF00000F010F808B1012010BD00F02BF8002023
:100C000010BD000018440258685C00082000002451
:100C10001C00002470B50D4D04462878A0B14FF497
:100C20007A71B1FBF0F00A490968B1FBF0F002F00B
:100C300085FC48B9102C07D200222146501E00F036
:100C400025F800206C6070BD012070BD10000024EC
:100C50001C000024054808B5016841F0020101604C
:100C6000006800F00200009008BD0000F444025843
:100C7000002809DB410900F01F028900012001F171
:100C8000E0219040C1F80001704700000E4BF0B425
:100C90001B680D46C3F30223C3F10706042E00D9D7
:100CA0000426191D072901D2002300E0DB1E0124C0
:100CB00004FA06F19C40491E2940641E99401440E4
:100CC0002143F0BC04F0ACBA0CED00E0064900F0A2
:100CD000070210B54FF6FF040868044B204040EAB5
:100CE00002201843086010BD0CED00E00000FA057A
:100CF000134970B50A68D243520705D5096801F057
:100D00000701814213D118E00A6822F0070202436A
:100D10000A60FFF743FF0A4D4FF47A760446083D18
:100D200007E000BFFFF73AFF001BB04201D90120E6
:100D300070BD2868C0438004F4D4002070BD00005A
:100D40000C48025810B501F05FF905490968054AD9
:100D5000C1F30211515C01F01F01C84010BD000039
:100D600020440258685C00084A4930B5494C0B1DC4
:100D70000A680C3409681D68246802F0030305F052
:100D80000102C1F30511C4F3CC04002914FB02F2E3
:100D900000EE102AF8EE400A76D0414A9FED3E1A46
:100DA000DFED3E1AB7EE000A23B1012B5AD0022B19
:100DB00018D15CE0374C283C23689B0612D5394B90
:100DC000246801EE901A1168C4F3C104F8EE612A98
:100DD000E34001EE903AC1F30801F8EE611A81EEAA
:100DE000A22A07E002EE101A1168F8EE422A81EEFC
:100DF000A22A45E001EE901A1168F8EE611A40EE61
:100E0000811A71EE800A62EE200AC1F3462101EEDA
:100E1000101AB8EE411A31EE001AC0EE811ABCEE7B
:100E2000E11A80ED001A1168C1F3064101EE101AB3
:100E3000B8EE411A31EE001AC0EE811ABCEEE11A8A
:100E400080ED011A1168C1F3066101EE101AB8EEC7
:100E5000411A31EE000A80EE801ABCEEC10A80ED24
:100E6000020A30BD01EE901ADFED0F2A03E001EE19
:100E7000901ADFED0E2A1168F8EE611A82EEA12AAF
:100E8000C1F30801B6E7FFE700210160416081601E
:100E900030BD000028440258000000390024744C82
:100EA000304402580090D0030024744A20BCBE4B4A
:100EB000494930B5484C0B1D0A68143409681D684F
:100EC000246802F00303C5F30012C1F30531C4F333
:100ED000CC04002914FB02F200EE102AF8EE400ABE
:100EE00075D03F4A9FED3D1AB7EE000A6BB1DFEDBA
:100EF0003D1A012B01D0022B64D002EE101A1168AA
:100F0000F8EE422A81EEA22A21E0334C283C2368E5
:100F10009B0612D5344B246801EE901A1168C4F375
:100F2000C104F8EE612AE34001EE903AC1F30801F2
:100F3000F8EE611A81EEA22A0BE001EE901ADFEDC5
:100F40002B2A00BFF8EE611A116882EEA12AC1F3C4
:100F5000080101EE901A1168F8EE611A40EE811A4C
:100F600071EE800A62EE200AC1F3462101EE101AEA
:100F7000B8EE411A31EE001AC0EE811ABCEEE11A49
:100F800080ED001A1168C1F3064101EE101AB8EEA7
:100F9000411A31EE001AC0EE811ABCEEE11A80ED62
:100FA000011A1168C1F3066101EE101AB8EE411A78
:100FB00031EE000A80EE801ABCEEC10A80ED020A12
:100FC00030BD04E001EE901ADFED092ABAE70021F6
:100FD000016041608160F3E7284402580000003955
:100FE000384402580024744A0090D0030024744C02
:100FF00020BCBE4B494930B5484C0B1D0A681C3417
:1010000009681D68246802F00303C5F30022C1F3D8
:101010000551C4F3CC04002914FB02F200EE102A9F
:10102000F8EE400A75D03F4A9FED3D1AB7EE000A30
:101030006BB1DFED3D1A012B01D0022B64D002EE23
:10104000101A1168F8EE422A81EEA22A21E0334CF0
:10105000283C23689B0612D5344B246801EE901A75
:101060001168C4F3C104F8EE612AE34001EE903A3E
:10107000C1F30801F8EE611A81EEA22A0BE001EE3D
:10108000901ADFED2B2A00BFF8EE611A116882EE8C
:10109000A12AC1F3080101EE901A1168F8EE611A55
:1010A00040EE811A71EE800A62EE200AC1F34621F9
:1010B00001EE101AB8EE411A31EE001AC0EE811A94
:1010C000BCEEE11A80ED001A1168C1F3064101EE91
:1010D000101AB8EE411A31EE001AC0EE811ABCEEB9
:1010E000E11A80ED011A1168C1F3066101EE101AD0
:1010F000B8EE411A31EE000A80EE801ABCEEC10A49
:1011000080ED020A30BD04E001EE901ADFED092AFD
:10111000BAE70021016041608160F3E7284402588A
:1011200000000039404402580024744A0090D00363
:101130000024744C20BCBE4B2DE9F04FAC4A054650
:10114000DFF8A8A280F48070DFF8AC9289B01311A8
:10115000AA4C0843A748AAF104064FF0805C4FF060
:1011600000582CD085F400770F4357D0DFF87CB2BD
:1011700085F480670F430BF1080B61D085F400679D
:101180000F4374D085F480570F436ED085F4005719
:101190000F434FF480394FF4003E67D085F40027A9
:1011A0000F4371D085F480370F436ED085F48046AD
:1011B0000E436BD085F400420A4368D02AE0DAF887
:1011C000001001F00701052924D2DFE801F075BC09
:1011D0007D25B10006A8FFF7C7FD079809B0BDE857
:1011E000F08F6846FFF764FE0098F7E703A8FFF763
:1011F00001FF0398F2E72068C0F3C10022FA00F073
:10120000ECE72268D20571D561456FD11846E5E754
:101210004145E3D00020E1E74846DFE7DAF8001077
:1012200001F4E07180294FD004DC002944D040292A
:10123000F0D188E0C029EFD0B1F5807FEAD177E026
:10124000DBF8001001F46001B1F5800F3CD004DC44
:1012500091B3B1F5001FDDD175E0B1F5C00FDBD062
:10126000B1F5000FD6D163E001E018E030E0DBF823
:10127000001001F0E061B1F1007F25D008DCD9B1A8
:10128000B1F1807FC6D15EE049E06CE079E09CE09E
:10129000B1F1407FC0D0B1F1806FBBD148E0DAF846
:1012A000001001F4E041B1F5005F0DD005DC19B18B
:1012B000B1F5805FAED146E094E0B1F5405FABD0D0
:1012C000B1F5804FA6D133E020688000A2D58DE72C
:1012D000DAF8001001F4E021B1F5403F6CD006DCF3
:1012E00061B149457AD0714594D157E037E0B1F505
:1012F000802F65D0B1F5A02F8CD10CE000F0A6FEB8
:101300006CE76846FFF7D4FD019867E703A8FFF78D
:1013100071FE049862E721688903F1D47AE7DBF86B
:10132000001011F440310ED0494510D07145F5D16F
:101330003168256801F040516D077FF562AF0029E3
:101340007FF45FAF57E720680001E7D549E72068E1
:101350008000E3D503A8FFF74DFE05983EE722681D
:101360009203DBD554E7306810F480303AD048451A
:10137000D4D120680001D1D56846FFF799FD0298C5
:101380002CE7DBF8001001F0E041B1F1405F13D031
:1013900008DC71B1614521D04145BFD12068800092
:1013A000B4D437E7B1F1804F0AD0B1F1A04FB2D039
:1013B00030E7FFF7C7FC11E720684007AED51AE712
:1013C0002068C005AAD521E708E0DAF8001011F07E
:1013D0004051A0D0614505D041459FD12068000112
:1013E0008FD417E72068800198D5F3E6504402585F
:1013F0000090D00340787D010080BB00004402587B
:101400002DE9FE4F0546DFF8E48350F8081B002461
:10141000F64FC943019005F12800264608F124083B
:10142000009008011DD4A86E50B1B0F5801F0CD0FB
:10143000B0F5001F0ED0B0F5401F1ED001240FE004
:10144000386840F40030386017E00198022102F05B
:1014500027FA03E00098022102F0B2FA04000CD04F
:1014600026462888C043C00523D4A86D05281ED26F
:10147000DFE800F00C11161B1B00AA6ED8F8001054
:1014800021F440111143C8F80010EAE7386840F42D
:101490000030386009E00198002102F001FA03E011
:1014A0000098002102F08CFA044674B100E0012497
:1014B00026462888C043800528D4E86D80281ED0A1
:1014C0000CDC90B140280ED114E0AA6DD8F80010C1
:1014D00021F007011143C8F80010EAE7C02813D033
:1014E000B0F5807F10D001240FE0386840F4003060
:1014F000386009E00198002102F0D2F903E0009879
:10150000002102F05DFA04469CB126462888DFF8E7
:10151000DC92C04309F12C0940052CD4D5F8A80071
:10152000B0F5800F20D00DDCA0B1B0F5001F0FD1B9
:1015300015E0EA6DD8F8001021F4E0711143C8F805
:101540000010E3E7B0F5C00F13D0B0F5000F10D0D6
:1015500001240FE0386840F40030386009E0019859
:10156000002102F09DF903E00098002102F028FA22
:1015700004467CB126462888C04300052DD4D5F802
:10158000AC00B0F1007F21D00EDCA8B1B0F1807FBB
:1015900010D116E0D5F8A820D9F8001021F4600188
:1015A0001143C9F80010E6E7B0F1407F13D0B0F165
:1015B000806F10D001240FE0386840F400303860AC
:1015C00009E00198002102F06BF903E00098002186
:1015D00002F0F6F9044674B126462868C04380013B
:1015E0001FD4E86CD8B110280FD0202812D0302892
:1015F00015D0012414E0D5F8AC20D9F8001021F062
:10160000E0611143C9F80010E7E7386840F40030A2
:10161000386004E00198022102F042F9044674B1F6
:1016200026462888C043C0042BD4286EB0F5005F3E
:1016300020D00DDCA0B1B0F5805F0FD115E06B4874
:10164000EA6C2030016821F0300111430160E8E7C5
:10165000B0F5405F13D0B0F5804F10D001240FE0FB
:10166000386840F40030386009E00198002102F049
:1016700017F903E00098002102F0A2F904468CB1AA
:1016800026462888C043800429D4686EB0F5403FC0
:1016900023D010DC08B3B0F5803F14D0B0F5003F84
:1016A0000FD115E02A6ED8F8001021F4E041114363
:1016B000C8F80010E5E7B0F5802F0ED0B0F5A02FE8
:1016C0000BD001240AE00198012102F0E9F803E0BF
:1016D0000098012102F074F9044694B12646288846
:1016E000C04340042AD4D5F8B000B0F1405F23D005
:1016F00010DC08B3B0F1805F14D0B0F1005F0FD1FF
:1017000015E06A6ED8F8001021F4E0211143C8F802
:101710000010E4E7B0F1804F0ED0B0F1A04F0BD035
:1017200001240AE00198012102F0BAF803E00098D0
:10173000012102F045F9044674B126462888C043C9
:1017400000041FD4286FD8B1B0F1805F0ED0B0F183
:10175000005F10D0012414E0D5F8B020D9F80010B3
:1017600021F0E0411143C9F80010E7E7386840F480
:101770000030386004E00198012102F091F804463D
:1017800074B126462868C043C0011ED4A86CD0B1ED
:1017900001280ED0022811D0032814D0012413E010
:1017A0002A6FD8F8001021F040511143C8F80010FA
:1017B000E8E7386840F40030386004E0019802211E
:1017C00002F06EF80446ACB126462868DFF81CB07B
:1017D000C043ABF11C0B400252D40548016841F4F0
:1017E00080710160FFF7DAF9824611E02C4402585B
:1017F00000480258FA48AA6C016821F0030111431D
:101800000160E2E7FFF7CAF9A0EB0A00642835D8C7
:10181000F4480068C005F5D58CBBDFF8C4A3B5F863
:10182000B4100AF1240ADAF8000001F4407100F45F
:101830004070884211D0DAF80010DAF8002021F464
:10184000407142F48032CAF80020DAF8002022F415
:101850008032CAF80020CAF80010D5F8B400B0F5FC
:10186000807F1AD1FFF79AF9029012E0FFF796F9FC
:101870000299411A41F2883081420AD9032426464E
:101880002878DFF85CA3C0430AF1080AC00721D01A
:101890003CE0DAF800008007E8D5D5F8B410C1F3D1
:1018A0000120032858460DD0016821F47C510160C5
:1018B000B5F8B420DAF80010C2F30B021143CAF8ED
:1018C0000010DDE7C84A036802EA111223F47C51D4
:1018D0001143ECE7E86F182816D005DCA0B1082802
:1018E00008D0102804D10AE020280DD028280BD0D9
:1018F00001240AE00198012101F0D2FF03E00098E1
:10190000012102F05DF8044664B126462878C04300
:1019100080071ED4A86F062819D2DFE800F0160C45
:1019200011161616EA6FDAF8001021F0380111438B
:10193000CAF80010EAE70198012101F0B1FF03E0C5
:101940000098012102F03CF804467CB100E001243B
:1019500026462878C04340071FD4D5F894000628AF
:1019600019D2DFE800F0160C11161616AA6FDAF875
:10197000001021F007011143CAF80010E9E70198AF
:10198000012101F08DFF03E00098012102F018F819
:101990000446A4B100E0012426462878C04380060E
:1019A0002BD4D5F89000B0F1405F24D011DC10B3F7
:1019B000B0F1805F15D0B0F1005F10D116E0D5F81E
:1019C0009420D9F8001021F007011143C9F8001044
:1019D000E3E7B0F1804F0ED0B0F1A04F0BD001245F
:1019E0000AE00198002101F05BFF03E0009802216A
:1019F00001F0E6FF044694B126462878C04340062D
:101A00002BD4D5F89C00B0F5406F24D011DC10B376
:101A1000B0F5806F15D0B0F5006F10D116E0D5F895
:101A20009020DAF8001021F0E0411143CAF80010CC
:101A3000E3E7B0F5805F0ED0B0F5A05F0BD00124D6
:101A40000AE00198002101F02BFF03E00098022139
:101A500001F0B6FF044694B126462878C04300063C
:101A60002BD4D5F8A000B0F5C04F24D011DC10B3B2
:101A7000B0F5005F15D0B0F5804F10D116E0D5F865
:101A80009C20D9F8001021F4E0511143C9F800104E
:101A9000E3E7B0F5004F0ED0B0F5204F0BD0012496
:101AA0000AE00198002101F0FBFE03E0009802210A
:101AB00001F086FF044654B126462878C04300074B
:101AC0001ED4D5F88400B0F5805F0AD00FE0D5F8B9
:101AD000A020D9F8001021F460411143C9F800108A
:101AE000EBE70098022101F06BFF00B10126D5F869
:101AF0008420DAF8001021F440511143CAF8001094
:101B00002878C043C00613D4D5F89800B0F5807F7C
:101B100005D10098022101F053FF00B10126D5F84C
:101B20009820D9F8001021F440711143C9F8001031
:101B30002868C043000316D4D5F8A40038B1B0F526
:101B4000803F09D0B0F5003F0BD001240AE0019896
:101B5000002101F0A5FE03E00098022101F030FF12
:101B600004468CB126462868C043400322D4D5F8E9
:101B70008800B0F5801F11D0B0F5001F13D0B0F56C
:101B8000401F15D0012414E0D5F8A420D9F8001086
:101B900021F440311143C9F80010E4E7386840F4FB
:101BA0000030386004E00098012101F009FF04468C
:101BB0005CB126462868C043C00323D4286DA8B171
:101BC000B0F5803F17D001241BE0D5F88820DAF863
:101BD000001021F440111143CAF80010EAE7000098
:101BE0004C44025800480258CFFFFF00386840F4C8
:101BF0000030386004E00198022101F051FE0446F3
:101C0000E4B126462868C043800005D4009802212C
:101C100001F0D6FE00B101262868C04380031BD422
:101C2000D5F88000B0B1B0F5807F0FD0B0F5007F5F
:101C300010D0B0F5407F0DD001240CE05A482A6D39
:101C4000016821F4803111430160DBE7386840F41A
:101C500000303860ECB326462868C043C00207D481
:101C60006A6FD8F8001021F000411143C8F8001045
:101C70002868C043C00008D4D5F8B820DBF80010AD
:101C800021F480411143CBF800102868C043800242
:101C900007D4EA6ED8F8001021F080711143C8F81B
:101CA00000102868C04340000CD4DBF8001021F479
:101CB0000041CBF80010DBF80010D5F8BC20114330
:101CC000CBF800102868C04308D437486A6D016813
:101CD00000E018E021F04051114301602868C04342
:101CE000000208D4D5F88C20DAF8001021F4400165
:101CF0001143CAF8001028790024C04300F0010005
:101D000020430AD00FE0D5F88020DAF8001021F443
:101D100040711143CAF800109EE70198002101F0BC
:101D2000BFFD00B106462879C04300F00200204301
:101D300005D10198012101F0B3FD00B106462879D3
:101D4000C04300F00400204305D10198022101F0B6
:101D5000A7FD00B106462879C04300F008002043E3
:101D600005D10098002101F02BFE00B1064628792C
:101D7000C04300F01000204305D10098012101F07C
:101D80001FFE00B106462879C04300F0200004433E
:101D900004D10098022101F013FE00B916B1012010
:101DA000BDE8FE8F0020FBE74C4402582DE9F05FB0
:101DB00004000F467ED0DFF83882D8F8000000F02B
:101DC0000F00B8420CD2D8F8001021F00F013943AF
:101DD000C8F80010D8F8000000F00F00B84269D130
:101DE0002078844D40070AD52069296801F07001E8
:101DF000884204D9296821F07001014329602078C4
:101E00007C4E361D00070AD56069316801F070010B
:101E1000884204D9316821F0700101433160207893
:101E2000C0060AD5A069316801F4E061884204D98E
:101E3000316821F4E061014331602078DFF8B4B10A
:101E400080060BF1080B0CD5E1695846DBF8002041
:101E500002F07002914204D9026822F070020A4333
:101E60000260207880070AD5E068296801F00F0138
:101E7000884204D9296821F00F01014329602078A4
:101E8000C0073ED05B49A2682868183920F470600A
:101E9000104328606068022818D0032819D0096808
:101EA000012819D0490700294ADADFF848A1AAF128
:101EB000080A00E044E0DAF8002022F007020243BA
:101EC000CAF80020FEF76AFE814612E0096889031D
:101ED000E9E709688901E6E7C905E4E7FEF75EFE80
:101EE000A0EB090141F28830814202D90320BDE80C
:101EF000F09F6168DAF8000000F03800B0EBC10F25
:101F0000ECD1207880070AD5E068296801F00F013C
:101F1000884204D2296821F00F0101432960D8F8D2
:101F20000010404601F00F01B9420BD9016821F0C1
:101F30000F0139430160006800F00F00B84201D082
:101F40000120D4E7207840070AD52069296801F0EC
:101F50007001884204D2296821F070010143296090
:101F6000207800070AD56069316801F07001884265
:101F700004D2316821F07001014331602078C0063D
:101F80000AD5A069316801F4E061884204D2316861
:101F900021F4E06101433160207880060CD5E169CD
:101FA0005846DBF8002002F07002914204D2026829
:101FB00022F070020A43026000F06CF80E492A68B1
:101FC0002B68C2F3032203F00F038A5CC95C02F0A2
:101FD0001F0201F01F01D040084A20FA01F11160F0
:101FE0000749086007480068BDE8F05FFEF712BEC9
:101FF0000020005218440258685C000820000024A9
:102000001C0000241400002430B500F043F80B4AF3
:102010000B490C4B15681468C5F3032204F00F0438
:102020008A5C095D02F01F0201F01F01D040064AE0
:1020300020FA01F119601060084630BD18440258BA
:10204000685C0008200000241C00002400B5FFF795
:10205000DBFF05490968054AC1F30211515C01F033
:102060001F01C84000BD00001C440258685C000805
:1020700000B5FFF7C9FF05490968054AC1F3022108
:10208000515C01F01F01C84000BD00001C44025813
:10209000685C0008454970B545480968434B103BEA
:1020A00011F0380208D00111082A03D0102A0BD0F1
:1020B000182A0BD0084670BD19688906FBD5196827
:1020C000C1F3C101C84070BD3A4870BD3749374DB2
:1020D00018310C1D24350A68096826682D6802F03D
:1020E000030406F00102C1F30511C5F3CC0515FB8D
:1020F00002F200EE102AB8EE400AE9B32F4ADFEDF3
:102100002E0AB7EE001A6CB1DFED2D1A012C01D0AA
:10211000022C43D002EE101A1068F8EE422A81EE2B
:10212000A22A1EE01C68A40611D51B6801EE901AB5
:102130001168C3F3C103F8EE612AD84001EE900A9A
:10214000C1F30800F8EE611A81EEA22A0BE001EE5D
:10215000901ADFED1C2A00BFF8EE611A106882EEBB
:10216000A12AC0F3080001EE900AF8EE611A40EED1
:10217000201A31EE810A00E015E022EE000A106814
:10218000C0F34620401C00EE900AF8EE600A80EE94
:10219000201ABCEEC10A10EE100A70BD01EE901AB2
:1021A000DFED092AD8E7002070BD00001044025876
:1021B0000090D00340787D0100000039304402587F
:1021C0000024744A0024744C20BCBE4B2DE9F05FFF
:1021D00004007DD0FF4F2078FE4D1837DFF8F493D0
:1021E000103DC00748D0D9F80000396800F0380029
:1021F000102815D0182803D101F0030002280FD0B1
:102200006068B0F5803F12D010B1B0F5A02F18D0A3
:10221000286820F480302860286820F4802009E0B5
:102220002868800328D560680028D2D024E0286878
:1022300040F480302860606888B1FEF7AFFC064645
:1022400009E0286840F480202860F0E7FEF7A6FC4B
:10225000801B64286FD828688003F7D50CE0FEF750
:102260009DFC064605E000BFFEF798FC801B642835
:10227000F0D828688003F7D4207841F20308D54EBF
:102280000C3E800769D5D9F80000396810F0380095
:102290000ED0182801D188070AD0E06890B32968C9
:1022A00021F0190101432960FEF778FC824631E0F4
:1022B0002868400702D5E06800288AD0E1682868CD
:1022C00020F0190008432860FEF768FC824607E00A
:1022D000DFE000BFFEF762FCA0EB0A000228B9D8DD
:1022E00028684007F6D500BFFEF752FC40451BD8D2
:1022F0002069402812D0316821F47C3141EA003055
:1023000030602AE018E000BFFEF748FCA0EB0A00AE
:1023100002289FD828684007F6D5E5E7306820F402
:102320007C3040F40030EBE7207C316821F0FE4146
:1023300041EA0060E4E70DE1286820F00100286030
:10234000FEF72CFC824605E0FEF728FCA0EB0A0015
:1023500002288DD828684007F6D42078C0065DD5BD
:10236000D9F80000DFF86CB2396800F03800ABF142
:10237000040B082810D0182803D101F0030001280D
:102380000AD0E0690028286838D040F08000286032
:10239000FEF704FC824623E02868C00523D5E069E7
:1023A000802876D11FE0206A202821D0316821F0D2
:1023B000F84141EA8060306030E000BF94F82010BE
:1023C000DBF8002022F07C5242EA0161CBF80010D9
:1023D00024E000BFFEF7E2FBA0EB0A00022898D839
:1023E0002868C005F6D5FEF7D3FB4045E6D8DAE706
:1023F000306820F0F84040F08040DCE720F08000BA
:102400002860FEF7CBFB064605E000BFFEF7C6FBE3
:10241000801B02289DD82868C005F7D420780007C3
:1024200029D56C486169643000298046016811D063
:1024300041F001010160FEF7B1FB064605E000BF77
:10244000FEF7ACFB801B0228C9D8D8F80000800733
:10245000F6D510E021F001010160FEF79FFB064672
:1024600005E000BFFEF79AFB801B022872D8D8F85F
:1024700000008007F6D42078800623D5A0690028C4
:10248000286810D040F480502860FEF787FB06468D
:1024900005E036E1FEF782FB801B02285AD8286847
:1024A0008004F7D50EE020F480502860FEF776FB1C
:1024B000064604E0FEF772FB801B02284AD8286813
:1024C0008004F7D4207840074FD5DFF80C81D8F886
:1024D000001041F48071C8F80010FEF75FFB06465B
:1024E00005E000BFFEF75AFB801B642832D8D8F8FD
:1024F0000000C005F6D5374EA068603601280AD026
:1025000008B1052813D0306820F001003060306831
:1025100020F0040002E0306840F001003060A06864
:1025200041F2883A90B1FEF739FB80460AE0306804
:1025300040F004003060EEE7FEF730FBA0EB08014E
:10254000514507D830688007F6D50EE0FEF726FB28
:10255000804607E084E000BFFEF720FBA0EB080107
:1025600051457DD830688007F6D4606AB0B3DFF893
:102570006480D9F8001008F120084FF6F87B08F1C4
:102580000409C1F3C2010329A8F1040A69D0022891
:10259000286820F08070286003D0FEF7FFFA044618
:1025A00084E0FEF7FBFA064605E000BFFEF7F6FA08
:1025B000801B022877D828688001F7D4E26A40F2AD
:1025C000F331386854F8283F884340EA0210184332
:1025D000386004E01044025800480258B5E0217BFE
:1025E000434622894FF4FE0C208A4FF0FE474902F1
:1025F000267D521E401EA1F50071C2F308088AB262
:10260000761E0CEA004042EA08020243504607EAFE
:1026100006610A431A60DAF8002022F00102CAF8C3
:102620000020D9F80020266A22EA0B0242EAC602FC
:10263000C9F80020DAF80010A26921F00C0111435A
:10264000CAF800100168E26921F00201114301603B
:10265000016841F480310160016841F4003101E01A
:1026600021E027E00160016841F4802101600168F8
:1026700041F001010160286840F080702860FEF799
:102680008DFA044605E000BFFEF788FA001B022819
:1026900009D828688001F7D557E000BFFEF77EFA19
:1026A000001B022802D90320BDE8F09F28688001A2
:1026B000F4D44AE039680128D8F8000021D0A26A91
:1026C00001F0030393421CD1E26AC1F305118A426F
:1026D00017D1216BC0F30802491E8A4211D1616BE8
:1026E000C0F34622491E91420BD1A16BC0F30642B2
:1026F000491E914205D1E16BC0F30660491E81423B
:1027000001D00120D0E7A16C4E46D9F80000C0F3FB
:10271000CC00814219D0DAF80000554620F00100C3
:10272000CAF80000FEF73AFA4FEA0007FEF736FA59
:10273000B842FBD0A26C306820EA0B0040EAC2002D
:102740003060286840F0010028600020ACE7704746
:1027500070477047704700002DE9F04104460320A0
:1027600084F830004FF480732A4A4FF400784FF019
:10277000000541B1012927D002290ED0606B012547
:1027800040F000601AE0A06D404504D0984202D0AD
:10279000A06B012813D1114608E0A06D4045FAD086
:1027A0009842F8D0A06B0128F5D003E0204602F053
:1027B000ABF820B1606B012540F080506063FEF7FC
:1027C000EDF90126074608E01249491EEEE700BF71
:1027D000FEF7E4F9C01B401C15D0204600F024FA97
:1027E0000428F5D12068414601F01BFB30B1226876
:1027F000012509499163616B0143616384F830608D
:102800002846BDE8F0814FF00040606384F83060F6
:102810000320F6E701FFFF80FF0FE01F2DE9FC5FBB
:102820000446806B0E46032184F8301000270328ED
:102830005CD0B6F5004F59D0B6F5804F4FF000058B
:102840004FF400684FF0806904D006B3606B40F02D
:1028500000603FE0009500210195206801F062FED4
:1028600080011CD46946204601F094FE70BB01989B
:1028700040032DD5B4F844102068090401F0A0FAF3
:1028800020BB206802211DE0606B284322E00095F8
:1028900000210195206801F045FE800101D54546E3
:1028A000F2E76946204601F075FE78B90198C00349
:1028B0000ED5B4F844102068090401F081FA28B953
:1028C0002068002101F0C6FA0028DDD00546DBE7CC
:1028D0004D46D9E76063606B4FF4007BDFF8B8A02A
:1028E00040B121680127C1F838A042E0606B40F098
:1028F0008050EFE700214FF48030FEF71DFC01000F
:1029000032D0264D3346D4E904C0B1FBF5F8D4E902
:102910000192804510D9A66D5E450DD0B6F5807F39
:1029200011D04FEA6506E0B14FEA4008B1FBF8F874
:10293000B04501D9B1FBF5F04946CDE900C02068AA
:1029400001F0F4FD15E0164E30B14FEA4008B1FB3E
:10295000F8F8A84502D8EFE7A942EDD9B1FBF6F0A7
:10296000EAE7B142E6D8E7E7606B012740F0006094
:1029700060632068594601F054FA30B1226801279B
:10298000C2F838A0616B01436163012084F8300014
:102990003846BDE8FC9F0000FF0FE01F80F0FA0200
:1029A00000E1F5052DE9F041044690F830000E46AF
:1029B0001546012802D00220BDE8F08100206063A6
:1029C000B54203D2606B40F0006005E0206DA84284
:1029D00004D2606B40F0007060633CE094F84010FB
:1029E0000320012784F83000DFF87880880606D4B9
:1029F0002168C1F83880606B40F080600BE020688F
:102A0000002101F08FFD800107D52168C1F83880D1
:102A1000606B40F4006060631BE0A06B012803D092
:102A200076026D02032809D02068314601F0D2FAFF
:102A300048B92068294601F0B3FA20B9206800217E
:102A400001F022FA48B12268C2F83880616B014374
:102A5000616384F830700120AEE784F830700020A4
:102A6000AAE70000FF0FE01F70470000F0B5C26D3D
:102A7000920F0A70C26DC2F383624A70C26DC2F3D4
:102A800001628A70C26D120CCA70B0F85C20120A22
:102A90000A7190F85C204A71026E120DCA80026EB3
:102AA000C2F303420A72B0F86020C2F3C0324A7225
:102AB000B0F86020C2F380328A72B0F86020C2F3AE
:102AC0004032CA72B0F860200026C2F300320A73A6
:102AD0004E730122836B4FF4007463B1012B3AD023
:102AE000036850499963416B41F08051416380F81C
:102AF00030200120F0BDB0F86030456E9B051B0D05
:102B000043EA95730B61436EC3F3C2630B75436E67
:102B1000C3F302634B75436EC3F342538B75436E2D
:102B2000C3F38243CB75436EC3F3C2330B760D6997
:102B30006D1C85640B7E03F007039B1C9D40856420
:102B40000B7A446503F00F0302FA03F35F0A7D4337
:102B5000C0E913350EE090F86050436EAD06AD0A43
:102B600045EA13430B610B695B1C9B028364C0E95C
:102B700013434465B0F86430C3F380334B76B0F848
:102B80006430C3F3C6138B7690F8643003F07F0390
:102B9000CB76836EDB0F0B77836EC3F341734B777A
:102BA000836EC3F382638B77836EC3F38353CB77D8
:102BB000836EC3F3405381F8203081F82160836E27
:102BC000C3F3004381F82230B0F86830C3F3C03358
:102BD00081F82330B0F86830C3F3803381F82430B3
:102BE000B0F86830C3F3403381F82530B0F868306E
:102BF000C3F3003381F82630B0F86830C3F3812383
:102C000081F82730B0F86830C3F3012381F8283009
:102C100090F86800C0F3460081F8290081F82A2066
:102C20000020F0BDFF0FE01F70B5B0F84410002584
:102C300004460068090401F047FA18B1616B0143CA
:102C4000616304E02068002101F06CFC0546C5F3D7
:102C5000432070BD2DE9F041054690F8300090B05A
:102C60000C460026032810D06946284601F0DAFDFC
:102C70002A4F4FF0010860B12A68012697636A6BFA
:102C800002436A6385F8308039E0012010B0BDE866
:102C9000F08100994FF47F40C1F3811121700099B8
:102CA000C1F340116170009900EA112242EA1161FA
:102CB0006180019909BA6160029921720299090A39
:102CC00061720299C1F30351A172DDE9022100EAA8
:102CD0001240C9B20843A0810398C0F38520A073B5
:102CE0000398C0F30120E0730398C0F3031020742D
:102CF000039800F00F0060740498000EA074286818
:102D00004FF4007101F08DF828B12A68012697630D
:102D1000686385F830803046B8E70000FF0FE01F99
:102D20002DE9F84304460068E56A416B09041BD5A8
:102D3000290719D5D4E90950202813D30026206883
:102D400001F00AFC020A2870010C6A70030EA970D7
:102D5000761CEB70082E05F10405F0D3A06A20382C
:102D6000C4E90950BDE8F883416B0127DFF8EC8125
:102D70000026C90551D539024CF23A128163290760
:102D80002068C16B21EA0201C1632068C16B21F098
:102D90008051C1632068C16821F04001C16018D52D
:102DA00015F0220F09D0206801F0DAF928B1616B23
:102DB000014361632046FFF757FE2168AA07C1F867
:102DC000388084F83070E66223D1204600F0BCFAE7
:102DD000C8E72806C6D5206815F0220F866220684D
:102DE000C6622068066509D0206801F0B9F928B1EB
:102DF000616B014361632046FFF736FE15F0300F2B
:102E000084F83070E66202D0204600F09DFAA807F0
:102E1000A8D0204600F08CFAA4E7416B490421D5E4
:102E200029071FD5D4E9075020289BD300262878EE
:102E30000090697840EA01200090A97840EA0140BA
:102E40000090E9782D1D40EA0160009020686946F5
:102E500001F09AFB761C082EE9D3206A2038C4E9D9
:102E600007507FE7416B11F03A0F416B58D089074B
:102E700003D5616B41F002016163416B090703D522
:102E8000616B41F008016163416B890603D5616B99
:102E900041F020016163416BC90603D5616B41F0CC
:102EA00010016163C0F838802068C16B21F49D7106
:102EB000C1632068C16821F04001C1602068C16A17
:102EC00041F40051C1622068C16841F08001C160D5
:102ED000206801F045F9626B2B074FF4006140EA6E
:102EE000020060632068C26822F08002C26020682D
:102EF000816303D584F83070E6620DE028068BD537
:102F0000606B002888D02068C16B21F08051C163BC
:102F10002068066584F830702046FFF7A5FD21E79C
:102F2000C9009ED54FF0805181632068006D400735
:102F30004FEA856008D40028204602DAFFF70AFC31
:102F400010E7FFF705FC0DE70028204602DAFFF73F
:102F500000FC07E7FFF7FBFB04E700003A0F00184F
:102F6000F0B5040085B020D094F83000002518B9E1
:102F70002046257600F098F8042084F8300020469A
:102F800000F03CF888B969462046FFF763FE60B957
:102F90009DF81010A26B9DF81100012A08D0A565BC
:102FA0002046E168FFF73AFC58B1012005B0F0BDBA
:102FB000014302D04FF4007001E04FF48070A0652F
:102FC000EEE7FDF7EBFD0127064604E0FDF7E6FD21
:102FD000801B401C0AD02046FFF726FE0428F5D1AE
:102FE0006563E56284F830700020DFE74FF0004051
:102FF000606384F830700320D8E700002DE9FC41BD
:103000004FF0000804464FF480304146FEF794F834
:1030100005004FF0010723D0204843464246414671
:10302000B5FBF0F6CDE90086206801F07FFA206854
:1030300001F08CFA1EB17000B5FBF0F52DB1184807
:10304000B0FBF5F0401CFDF76DFC204601F090FB55
:1030500060B100BF84F83070616B0143616319E0B7
:103060004FF0006084F83070606313E0204601F098
:1030700003FB0028EED120684FF4007100F0D1FE70
:10308000002808D0226807499163616B014361639E
:1030900084F830700120BDE8FC81000000350C0090
:1030A00010210100FF0FE01FF0B5B7B00446142156
:1030B00030A8FDF747F9C0216846FDF743F92749D5
:1030C0002068884247D1002014904FF48031044694
:1030D000CDE900106846FEF793F908B1FDF71FFC33
:1030E0001F48016841F480310160006800F48030BD
:1030F00035901B480C30016841F004010160016803
:1031000001F004013591016841F008010160006897
:10311000022532AA00F0080035904FF4F850CDE9AE
:10312000300503260F480C2782E8D00030A9FDF7B0
:103130000BFC042032AACDE930050B4830A982E807
:10314000D000FDF701FC00220E213120FDF79EFD8D
:103150003120FDF78DFD37B0F0BD0000007000524A
:10316000D444025800080258000C02582DE9F04FD0
:1031700087B0994617460D460446FDF70FFD0690A9
:103180003DB194F83000012807D0606B40F000504A
:103190000DE0606B40F0006009E0226D002007EB5D
:1031A00009016063914204D9606B40F00070606374
:1031B000A8E0032184F830102168C862A16B0129BE
:1031C00000D07F024FF0020ACDE903A090264FF015
:1031D000FF324FEA492305908DE84C008046206875
:1031E000694601F035F82068B9F1010F4FF001068A
:1031F000C16841F04001C16006D9C4F82CA039462D
:10320000206800F099FE04E0E6623946206800F08C
:10321000ADFEDFF814A150B12368C3F838A0616B8C
:103220000143616384F83060C4F82C806AE0DDF803
:1032300004B01FE0406B000414D5BBF1200F11D384
:103240000027206801F088F9020A2870010C6A70D2
:10325000030EA9707F1CEB70082F05F10405F0D355
:10326000ABF1200BFDF79AFC0699411A10988142A8
:1032700021D200B32068416B11F4957FDAD0C16888
:1032800021F04001C1602068416BC90522D5B9F128
:10329000010F1FD9A16B03291CD000F061FFC8B139
:1032A0002368C3F838A0626B0243626384F830601D
:1032B000C4F82C8026E02268C2F838A0606B40F089
:1032C0000040606384F83060C4F82C80032007B0AD
:1032D000BDE8F08F2068416B090706D5C0F838A01B
:1032E000616B404641F0080108E0416B89070BD54E
:1032F000C0F838A0616B404641F00201616384F878
:103300003060E0620120E2E7416B890606D5C0F833
:1033100038A0616B404641F02001EFE7034981632B
:1033200084F830600020D2E7FF0FE01F3A0F00184A
:10333000044910B5884201D0012000E00020FDF7CB
:10334000D3FA10BD28000024044910B5884201D0EA
:10335000012000E00020FDF7DFFA10BD2800002466
:103360002DE9F04F89B09A4616460D460446FDF702
:1033700015FC06903DB194F83000012807D0606B31
:1033800040F000500DE0606B40F0006009E0226DFD
:10339000002006EB0A016063914204D9606B40F0A3
:1033A00000706063B2E0032184F830102168C862C5
:1033B000A16B012900D076024FF0FF314FEA4A227B
:1033C000059090230490CDE90230CDE900128046AB
:1033D0002068694600F03CFF2068C168BAF1010F1F
:1033E00041F04002C26006D92020E06220683146E8
:1033F00000F0FAFE05E01020E0622068314600F09F
:103400000DFFDFF830B106004FF001090AD0236844
:10341000C3F838B0606B3043606384F83090C4F810
:103420002C8073E00198089027E0406B40041CD585
:103430000898202819D3002728780790697840EA4F
:1034400001200790A97840EA01400790E9782D1DF6
:1034500040EA01600790206807A901F095F87F1CF9
:10346000082FE9D3089820380890FDF797FB0699B4
:10347000411A1298814221D200B32068416B11F4A5
:103480008D7FD2D0C16821F04001C1602068416BBE
:10349000C90521D5BAF1010F1ED9A16B03291BD093
:1034A00000F05EFEC0B12568C5F838B0616B01431D
:1034B000616384F83090C4F82C8027E02368C3F857
:1034C00038B0626B3243626384F83090C4F82C8069
:1034D000032009B0BDE8F08F2068416B090707D5CC
:1034E0004946C0F838B0626B404642F0080209E035
:1034F000416B89070CD54946C0F838B0626B40462D
:1035000042F00202626384F83010E0620120E0E7DA
:10351000416BC90607D54946C0F838B0626B4046D2
:1035200042F01002EEE7044A826384F830900020F3
:10353000CFE70000FF0FE01F3A0F0018401EB0F168
:10354000807F10B501D3012010BD4FF0E0246061F1
:103550000F21601701F064FE0020A06107212161A6
:1035600010BD30B590F88410012918D0012280F8E0
:1035700084202421C0F888100022202401680B68D0
:103580000D6823F0005325F001050D6042660168C7
:103590000B60C0F8884080F88420104630BD0220BF
:1035A00030BD70B5044690F8840001281DD001227A
:1035B00084F884202420C4F8880020680568026804
:1035C00022F0010202602068826822F060620A43F1
:1035D0008260204601F0F0FA226820210020156068
:1035E000C4F8881084F8840070BD022070BD70B5E6
:1035F000044690F8840001281DD0012284F884201C
:103600002420C4F8880020680568026822F00102BE
:1036100002602068826822F060420A43826020468D
:1036200001F0CAFA2268202100201560C4F8881031
:1036300084F8840070BD022070BD10B5040003D072
:10364000D4F8880010B107E0012010BD002084F8F4
:103650008400204600F026F82420C4F88800206862
:10366000016821F001010160204601F0ABFB012857
:10367000EBD0A06A10B1204601F0C0FA2068416882
:1036800021F4904141602068816821F02A01816025
:103690002068016841F0010101602046BDE810404A
:1036A00001F010BB10B5B6B00446142130A8FCF7E9
:1036B00049FEC0216846FCF745FE1A492068884249
:1036C0002DD100201F9001210446CDE9001068464D
:1036D000FDF796FE08B1FDF722F91348016841F0A5
:1036E00010010160006800F0100035900E4810389D
:1036F000016841F00101016000680DF1C00C022178
:1037000000F0010035904FF4C06007238CE81300EF
:1037100003220648CDE9332330A9FDF715F936B069
:1037200010BD000000100140F04402580000025893
:103730002DE9F8430446D0F88800984616460D4611
:10374000202802D00220BDE8F883A5B19EB1002157
:10375000C4F890102120C4F888001834FDF71EFA30
:10376000814654F8100CA687E6872027183CB0F550
:10377000805F02D003E00120E5E7206910B12E460A
:10378000002510E000260EE08021204601F0F0FC2C
:10379000C0B9DEB116F8010B21688862B4F8560092
:1037A000401EA4F85600B4F856004B464FF00002F5
:1037B000CDF800800028E7D14FF04001204601F00D
:1037C000D7FC48B1C4F888700320BCE735F8020B79
:1037D0002168C0F30800E0E7C4F888700020B2E771
:1037E000FEE7000030B587B014216846FCF7AAFD5B
:1037F0000E48016841F00401016000684FF4005474
:103800000B4D002200F00400214605902846FDF7EC
:10381000B9F9002100940120CDE901012846039166
:103820006946FDF791F807B030BD0000E04402584A
:10383000000802581748002110B5154C0C224FF40F
:10384000E1330460C0E90131C160C0E90412816163
:10385000C161016241628162FFF7EFFE08B172B699
:10386000FEE70C480021FFF7C2FE08B172B6FEE782
:1038700008480021FFF795FE08B172B6FEE705483B
:10388000FFF76FFE002801D072B6FEE710BD000002
:1038900000100140A4000024FEE7FEE7704700008E
:1038A0002DE9F047454D044689464FF0000A286847
:1038B000C04380070AD0414E283E306820F0806027
:1038C0003060FDF76BF90746B04608E00120BDE81F
:1038D000F08700BFFDF762F9C01B022867D8D8F84F
:1038E00000000001F6D4206829684FF4FE0721F497
:1038F0007C313E0241EA00302860207AA389B4F886
:1039000004C040022D4D2D495B1E227CACF1010C00
:103910001035091DA0F5007080B2521ECCF3080CC2
:1039200007EA034340EA0C00184306EA0262104328
:1039300028600868626920F0C000104308600A68C7
:10394000A06922F0200202430A60281D0A6822F0C2
:1039500010020A6002684FF6F873E4699A4342EA7B
:10396000C40202600868B9F1000F40F010020A605A
:1039700011D00868B9F1010F11D040F400100860AF
:10398000D8F80000444640F08060C8F80000FDF719
:1039900005F905460DE0086840F40020EFE740F423
:1039A0008010ECE7FDF7FAF8401B022801D903204C
:1039B0008DE720680001F5D5504688E72844025875
:1039C0002DE9F047454D044689464FF0000A286826
:1039D000C04380070AD0414E283E306820F0805016
:1039E0003060FDF7DBF80746B04608E00120BDE88F
:1039F000F08700BFFDF7D2F8C01B022867D8D8F8BF
:103A000000008000F6D4208829684FF4FE0721F0DA
:103A10007C713E0241EA00502860207AA389B4F804
:103A200004C040022D4D2D495B1E227CACF1010CDF
:103A30001835091DA0F5007080B2521ECCF3080C99
:103A400007EA034340EA0C00184306EA0262104307
:103A500028600868626920F44060104308600A68C2
:103A6000A06922F4007202430A60281D0A6822F449
:103A700080720A6002684FF6F873E4699A4342EA7A
:103A8000C40202600868B9F1000F40F480720A6055
:103A900011D00868B9F1010F11D040F080700860B2
:103AA000D8F80000444640F08050C8F80000FDF708
:103AB00075F805460DE0086840F48000EFE740F433
:103AC0000000ECE7FDF76AF8401B022801D903204B
:103AD0008DE720688000F5D5504688E728440258D5
:103AE00010B50020FCF7C6FE064A011E516004D046
:103AF000BDE8104004A001F083BBBDE8104009A060
:103B000001F07EBB00000024BCECB2E2B2BBB5BD4C
:103B10005344BFA8A3AC4552524F523A2025640DDE
:103B20000A0000005344BFA8B3F5CABCBBAFB3C979
:103B3000B9A6200D0A000000F0B52DED028B83B070
:103B4000FDF72CF80021044640220846FCF774FEDD
:103B5000444E70600020FCF781FE0028FAD1FDF78A
:103B60001DF87168001B19B13FA001F049FBFEE789
:103B7000014645A001F044FB4C4C00204FF4005599
:103B800044F82000401CA842FAD3FDF707F80022B1
:103B90004649402307461046FCF7A8FE7060002007
:103BA000FCF75CFE0028FAD1FCF7F8FFC21B716835
:103BB00000EE102A9FED3E8ADFED3E8AB8EE400A05
:103BC000C8EE000A20EEA80A19B13BA001F018FBCC
:103BD000FEE7B7EEC00A20213FA08DED000B01F0FB
:103BE0000FFBFCF7DBFF00224B4940230746104642
:103BF000FCF764FE70600020FCF730FE0028FAD16C
:103C0000FCF7CCFFC21B716800EE102AB8EE400A28
:103C1000C8EE000A20EEA80A19B140A001F0F0FA9F
:103C2000FEE7B7EEC00A202144A08DED000B01F0A5
:103C3000E7FA39495FF0000054F8202051F82030AD
:103C40009A4203D04DA001F0DBFAFEE7401CA842E7
:103C5000F2D350A001F0D4FA03B00020BDEC028BE7
:103C6000F0BD0000000000240D0A20B2C1B3FDCA5F
:103C7000A7B0DC21212121212020B4EDCEF3B4FA1C
:103C8000C2EB3A25640D0A000D0A20B2C1B3FDB3A0
:103C9000C9B9A62C20B2C1B3FDCBF9D0E8CAB1BCDA
:103CA000E43A202564206D730D0A000038010024D9
:103CB000000000470000803A0D0AD0B4C8EBB4ED14
:103CC000CEF321212121212020B4EDCEF3B4FAC27C
:103CD000EB3A25640D0A00000D0AD0B4C8EBB3C955
:103CE000B9A62CCAFDBEDDB4F3D0A1A3BA256420C9
:103CF0004B422C20BAC4CAB13A202564206D732CE3
:103D000020D0B4C8EBCBD9B6C8A3BA252E326620D2
:103D10004D422F730D0A0000388100240D0AB6C1F0
:103D2000C8A1B4EDCEF321212121212020B4EDCE74
:103D3000F3B4FAC2EB3A25640D0A00000D0AB6C1CD
:103D4000C8A1B3C9B9A62CCAFDBEDDB4F3D0A1A3E6
:103D5000BA2564204B422C20BAC4CAB13A2025644B
:103D6000206D732C20B6C1C8A1CBD9B6C8A3BA2583
:103D70002E3266204D422F73200D0A000D0ACAFD17
:103D8000BEDDD0A3D1E9CAA7B0DC21212121210DBC
:103D90000A0000000D0AD0A3D1E9CDA8B9FD212168
:103DA0002121215344BFA8B2E2CAD4D5FDB3A30D4B
:103DB0000A0000000148FEF7B3BF000028000024FD
:103DC00030B585B0044637204FF480720DF1080CF1
:103DD000CDE9001000236946150120468CE82C002F
:103DE00000F0BEFB372141F28832204600F044FA51
:103DF00005B030BD30B585B0044629204FF480723F
:103E00000DF1080CCDE9001000236946150120468C
:103E10008CE82C0000F0A4FB204600F0E9FA05B085
:103E200030BD30B50446102085B00DF1080C0201FC
:103E30000502CDE90010002369468CE82C002046DD
:103E400000F08EFB102141F28832204600F014FA77
:103E500005B030BD30B585B0044606204FF4807201
:103E60000DF1080CCDE9001000236946150120462C
:103E70008CE82C0000F074FB062141F288322046C9
:103E800000F0FAF905B030BD30B585B00446262003
:103E90004FF480720DF1080CCDE900100023694643
:103EA000150120468CE82C0000F05AFB26214FF229
:103EB0001862204600F0E0F905B030BD30B585B09D
:103EC0000546002469464FF4805000940194029402
:103ED000CDE90340284600F043FB0B4A4FF4FA506B
:103EE00041F288311268B2FBF0F04843401E03D221
:103EF0004FF0004005B030BD696B0906F6D50349A7
:103F00002046A963F6E700001C000024C50020003D
:103F100030B50821044685B04FF4D5704A0100231E
:103F20004D028DE82F006946204600F019FB20461F
:103F300000F0C8FA05B030BD30B585B00446122097
:103F40004FF480720DF1080CCDE900100023694692
:103F5000150120468CE82C0000F002FB122141F2F2
:103F60008832204600F088F905B030BD30B585B004
:103F7000044611204FF480720DF1080CCDE90010B9
:103F800000236946150120468CE82C0000F0E8FA71
:103F9000112141F28832204600F06EF905B030BDA3
:103FA00030B585B0044621204FF480720DF1080C25
:103FB000CDE9001000236946150120468CE82C004D
:103FC00000F0CEFA212141F28832204600F054F967
:103FD00005B030BD30B50446202085B00DF1080C89
:103FE000C200C501CDE90010002369468CE82C0011
:103FF000204600F0B5FA202141F28832204600F038
:104000003BF905B030BD30B585B0044607204FF40C
:1040100080720DF1080CCDE90010002369461501EE
:1040200020468CE82C0000F09BFA072141F28832F0
:10403000204600F021F905B030BD10B585B004462A
:10404000002102204FF44072C3020493CDE9001016
:10405000CDE902216946204600F082FA204600F0B0
:104060009DF905B010BD30B585B0044609200DF1AD
:10407000080C0023CDE900104FF4407269464FF45C
:10408000805520468CE82C0000F06AFA204600F0AB
:1040900085F905B030BD10B585B004460021332048
:1040A0004FF48072CDE90221CDE900101301694679
:1040B0002046049300F054FA332141F2883220461E
:1040C00000F0DAF805B010BD30B585B004460D201B
:1040D0004FF480720DF1080CCDE900100023694601
:1040E000150120468CE82C0000F03AFA0D2141F22F
:1040F0008832204600F0C0F805B030BD30B585B03C
:104100000C460021054603204FF48072CDE90221C0
:10411000CDE90010130169462846049300F020FA07
:1041200003212246284600F087F905B030BD10B5BE
:1041300085B0044600210D204FF48072CDE90221A4
:10414000CDE90010130169462046049300F008FAF7
:104150000D2141F28832204600F08EF805B010BDE6
:1041600010B585B004464FF4807200200C21130175
:104170008DE80700CDE90303E06840F08000E060CF
:10418000E06820F04000E0606946204600F0E8F971
:10419000074A0C21204600F06FF8E168B0F1007F7B
:1041A00021F08001E16000D1002005B010BD0000C9
:1041B00000E1F50530B585B0044606204FF4807265
:1041C0000DF1080CCDE900100023694615012046C9
:1041D0008CE82C0000F0C4F9062141F28832204618
:1041E00000F04AF805B030BD30B585B0044619205E
:1041F0004FF480720DF1080CCDE9001000236946E0
:10420000150120468CE82C0000F0AAF9192141F292
:104210008832204600F030F805B030BD30B585B0AA
:10422000044618204FF480720DF1080CCDE90010FF
:1042300000236946150120468CE82C0000F090F917
:10424000182141F28832204600F016F805B030BD42
:1042500070B50A6842624A688262C46AD1E902257E
:10426000D1E9043624F0FF012A4333431A431143B2
:10427000C162002070BD000030B5464D4FF4FA53C6
:10428000434C2D68B5FBF3F353435B1E02D24FF052
:10429000004030BD426B2242F7D09204F5D4426B0D
:1042A000520703D504218163084630BD426BD20713
:1042B00002D00121816306E0354A803282630269BF
:1042C000D2B28A4201D0012030BD002100F02AF98B
:1042D0003149084201D1002030BD002802DA4FF0F8
:1042E000007030BD410001D5402030BD810001D5B6
:1042F000802030BDC10002D54FF4807030BD010177
:1043000002D54FF4007030BD410102D54FF48060FA
:1043100030BDC10102D54FF4006030BD010202D5AD
:104320004FF4805030BD410202D54FF4005030BDF3
:10433000810202D54FF4804030BDC10202D54FF456
:10434000004030BD410302D54FF4003030BD810341
:1043500002D54FF4802030BDC10302D54FF40020B8
:1043600030BD010402D54FF4801030BD410402D5A8
:104370004FF4001030BD810402D54FF4800030BDF1
:10438000000702D54FF4000030BD4FF4803030BD3F
:10439000450020001C00002408E0FFFD124B4FF4F4
:1043A000FA5141F288321B68B3FBF1F15143491EC7
:1043B00002D24FF000407047426B12F0450FF6D02A
:1043C0009204F4D4416B490703D504218163084664
:1043D0007047416BC90703D00121816308467047CC
:1043E00002498163002070471C000024C5002000A2
:1043F0000F4B4FF4FA5141F288321B68B3FBF1F1D5
:104400005143491E02D24FF000407047426B12F0F8
:10441000450FF6D09204F4D4416B490703D504212B
:10442000816308467047034981630020704700009C
:104430001C000024C500200030B5204D4FF4FA5375
:1044400041F288342D68B5FBF3F363435B1E02D25F
:104450004FF0004030BD446B14F0450FF6D0A4047B
:10446000F4D4436B5B0703D504218163084630BD58
:10447000436BDB0702D00121816303E00369DBB2F8
:104480008B4201D0012030BD0D498163002100F035
:1044900049F810F4604F04D0410406D54FF40050A1
:1044A00030BD000C1080002030BD000402D54FF458
:1044B000805030BD4FF4803030BD00001C0000241F
:1044C000C5002000144B4FF4FA5141F288321B68AA
:1044D000B3FBF1F15143491E02D24FF00040704747
:1044E000426B12F0450FF6D09204F4D4416B4907A9
:1044F00003D50421816308467047416BC90703D087
:104500000121816308467047416B490601D540216E
:1045100081630020704700001C000024006800F048
:1045200003007047084440697047000030B51143EC
:104530004268DDE903542B43034D194321432A40CC
:104540000A434260002030BD002CC0FF016841F0EA
:104550000301016000207047D0F880007047000020
:1045600070B5084D0A688260C368D1E90126D1E9B7
:1045700003412B4032430C4322431343C3600020CA
:1045800070BD0000C0E0FEFF0968C0F88010002088
:10459000704770472DE9F04F87B00D460446FCF791
:1045A000FDFA0026069020680821B3463746FFF73B
:1045B00038FC002833D1B4F8441020680904FFF710
:1045C000FFFB00282BD1431E4FF008094FF0020AD1
:1045D0004FF0300C4FF00108CDF80CA08DE8081218
:1045E000CDE9046820686946FFF732FE2068FFF7CE
:1045F00052FD002813D140F22A582068416B11EA7D
:10460000080F06D1416B090315D4BBF1000F09D087
:1046100011E0416B090717D5C0F83890082007B0A2
:10462000BDE8F08FFFF798FF06462068FFF794FF7C
:1046300007464FF0010BFCF7B1FA0699401A401CEF
:10464000DBD14FF00040EAE7416B890703D5C0F8A2
:1046500038A00220E3E7416B890603D5202181635E
:104660000846DCE7034A39BA33BA82630020C5E959
:104670000013D4E73A0F001870B58CB00446002040
:10468000ADF82C00FCF78AFA05462068FFF746FFD4
:10469000002853D0A06B032841D02068FFF7CDFC41
:1046A000002849D120680021FFF73CFFE066042183
:1046B0002068FFF737FF206708212068FFF732FFE7
:1046C00060670C212068FFF72DFFA16BA06703290D
:1046D00025D041F2883600BFBDF82C0088B3A06B0E
:1046E00003281CD0BDF82C10616420680904FFF772
:1046F000BAFC002820D120680021FFF713FFE065F5
:1047000004212068FFF70EFF206608212068FFF7CC
:1047100009FF60660C212068FFF704FFA0660421F2
:104720002068FFF7FFFE000D694620642046FEF773
:104730009DF9A8B14FF080500CB070BD4FF0806073
:10474000FAE7FFE720680BA9FFF7D8FC0028F3D1B0
:10475000FCF724FA401BB042BED34FF00040EBE719
:10476000B4F8441020680904FFF74DFCE4E70000AA
:104770002DE9F84F002604463546B04600960068FD
:10478000FFF79CFB002829D12068FFF7C1FBB0F19F
:10479000004F4FF001094FF0805B4FF6FF7702D0DA
:1047A000C4F83C9008E0E6632068FFF787FB002828
:1047B00014D1E06B01281ED120680021FFF700FB17
:1047C00058B918E020680021FFF7FAFA002805D14F
:1047D00020685146FFF70EFB10B15846BDE8F88F30
:1047E00020680021FFF79EFE4FEAD078054600982A
:1047F000401C009002E0DFF828A00098B84202D2E6
:10480000B8F1000FDED00098B84202D34FF08070AC
:10481000E4E76800A66301D5C4F838900020DDE71E
:10482000000010C12DE9F04186B00D460446FCF7AA
:10483000B5F9002107462068FFF774FE800104D512
:104840004FF4006006B0BDE8F08120684021FFF71A
:10485000E8FAC0B9B4F8441020680904FFF7B0FAC8
:1048600088B940214FF0FF3060224FF0010C022345
:1048700000268DE84F1020686946FFF7E9FC2068A4
:10488000FFF755FC98B1616B6163DBE7406B000497
:1048900007D500262068FFF75FFE761C082E01C5AD
:1048A000F8D3FCF77BF9C01B401C02D127E04FF086
:1048B00000482068416B11F4957FE7D0416B0907F0
:1048C00001D50820BEE7416B890701D50220B9E771
:1048D000406B80060AD52020B4E700BFFFF73CFEFE
:1048E00001C5FCF75BF9C01B401C08D02068416B78
:1048F000C904F3D40146034888630020A2E7404678
:10490000A0E700003A0F00182DE9F04F9BB00F46CA
:104910000025044640216846FBF714FD0026FCF7FD
:104920003DF98046A06DE0B3FF285FD92068C562DD
:1049300040212068FFF775FA002838D112AB4FF0FC
:104940000209401E4FF0010A4021602283E807025D
:10495000CDE9165A206812A9FFF77AFC206839467B
:10496000FFF728FC050022D140F22A5B21684A6B40
:1049700012EA0B0F1ED1486B00040BD500272068EC
:10498000FFF7EAFD07EBC6027F1C082F4DF8220057
:10499000F5D3761CFCF702F9A0EB0800401CE5D12A
:1049A00000E00DE04FF00040606384F830A01BB0E1
:1049B000BDE8F08F486B000705D50820886315E037
:1049C0004FF08060F3E7486B800701D5484603E06D
:1049D000486B800602D520208863E8E70448886396
:1049E0009DF80D00800701D44FF080552846DEE782
:1049F0003A0F00187047FCF7D7B8000070B59CB0AC
:104A00004C216846FBF79EFC202113A8FBF79AFC7B
:104A10000220FCF76DF92E4900242E480A6822F086
:104A200001020A600A68026842F4404202600268B9
:104A300002F440421B9202689204FCD5264A136895
:104A400043F002031360126802F002021B92026834
:104A500042F44042026002680A6842F001020A60C1
:104A6000096801F001011B9101688904FCD502204D
:104A700009900DF1280C01260096C1030191052231
:104A8000C02304268CE80D00CDE90D0608250F9003
:104A9000CDE9105468461294FDF798FB08B172B640
:104AA000FEE740201A903F210301CDE91650032272
:104AB000CDE9180313AB13A883E816000421FDF712
:104AC00075F9002801D072B6FEE71CB070BD000079
:104AD0002C04005818480258F44402582C48F0B5E9
:104AE0002C4A016841F470010160106800F00F0069
:104AF000072804D2106820F00F00C01D106026495E
:104B00000020254C10340B68244D43F001030B604A
:104B100020600B682B400B60136803F00F03072B1A
:104B200004D9136823F00F03DB1D13601A4C1C4AD1
:104B300018341C4B261D371D2060174C1A4D283485
:104B40003060261D3860371D23603B1D35601C1DFD
:104B50003A60251D2E1D1860331D226028603260CA
:104B600018600A680C4B114C22F4802260330A60F2
:104B7000186020686FF30F00B0F1005F03D20C499A
:104B80000120C1F8080143F2D2000A490860F0BDD3
:104B900088ED00E000200052004402587FEDF6EA64
:104BA00080020101000202020000FF010010005C0F
:104BB000008000510040005230B5416EB9B101682B
:104BC0000D4B03F108048A688968C2F34262490FF9
:104BD0005D5C615C2D01B5FBF1F1A0F86A10995C98
:104BE000A25C0901B1FBF2F1A0F8681030BD01210F
:104BF000A0F86A10F8E70000585C000890F8281048
:104C0000C90706D00168C36A4A6822F400321A4311
:104C10004A6090F82810890706D50168036B4A6836
:104C200022F480321A434A6090F82810490706D5CA
:104C30000168436B4A6822F480221A434A6090F864
:104C40002810090706D50168836B4A6822F40042E0
:104C50001A434A6090F82810C90606D50168C36B4C
:104C60008A6822F480521A438A6090F828108906D4
:104C700006D50168036C8A6822F400521A438A60E0
:104C800090F82810490611D50168436C4A6822F44F
:104C900080121A434A60416CB1F5801F06D1016849
:104CA000836C4A6822F4C0021A434A6090F82810C4
:104CB000090606D50168C26C486820F4002010433C
:104CC000486070472DE9F84300250446C0F890502D
:104CD000FBF764FF8046206820266FF07E4700685F
:104CE000000713D50022434631042046009700F008
:104CF0003FFA58B1216851E8000F20F0800041E8E8
:104D00000002002AF6D1C4F8886021E0206800681B
:104D1000400722D5002243464FF4800120460097E9
:104D200000F026FAC8B1206850E8001F21F4907105
:104D300040E80012002AF6D12068083050E8001F31
:104D400021F0010140E80012002AF5D1C4F88C607E
:104D5000032084F88450BDE8F883C4F88860C4F860
:104D60008C60E5662567002084F88450F3E7000036
:104D700010B5026852E8001F21F4907142E8001358
:104D8000002BF6D10E4B0268083252E8001F194082
:104D900042E80014002CF6D1C16E012908D1026846
:104DA00052E8001F21F0100142E80013002BF6D159
:104DB00000212022C0F88C20C166416710BD000090
:104DC000FEFFFFEF2DE9F04304468068D84E87B020
:104DD000D84B2168D4E90427D4F81CC010430A68D2
:104DE000002547EA0C073843324002430A60206836
:104DF000E268416821F44051114341602268A16991
:104E00009A4201D0206A01439768DFF82CC3CB4E49
:104E1000CB4807EA0C070F4397602168676ACA6AA4
:104E200022F00F023A43CA622268B2420ED10068F1
:104E300000F03800182873D047DCB8B3082879D0C0
:104E400010286FD178E028287ED17BE0BD498A42C6
:104E500009D1006800F00700062875D2DFE800F0ED
:104E6000546A6C6E7072B8498A4209D1006800F0C9
:104E70000700062868D2DFE800F0475D5F616365E0
:104E8000B2498A4209D1006800F0070006285BD2C7
:104E9000DFE800F03A5052545658AD498A420BD1DF
:104EA000006800F0070006284ED200E010E0DFE8BE
:104EB00000F02B4143454749A6498A420AD1006880
:104EC00000F03800182839D0B7DD2028BBD13CE0ED
:104ED00001203AE0A0498A4209D1006800F00700A9
:104EE000062831D2DFE800F01026282A2C2E9B4914
:104EF0008A420BD1006800F00700062824D2DFE8C0
:104F000000F003191B1D1F2100201EE09A421BD137
:104F10008B48001D006800F00700062814D202E04C
:104F20000CE007E010E0DFE800F0030507090B0DD7
:104F300002200AE0042008E0082006E0102004E037
:104F4000202002E0402000E080208549DFF8148224
:104F50009A42854A4FF400434FEA21174FF000066A
:104F60004ED110281AD006DC022809D004280BD014
:104F700008287CD10DE020283ED0402877D13DE0A4
:104F8000FBF7E0FE014610E06846FBF791FF019950
:104F90000BE003A8FCF72EF8049906E010688006E1
:104FA00005D51068C0F3C100C140002970D0606A07
:104FB000676838F8102007EB4703B1FBF2F0834233
:104FC00055D8B0EB073F52D8002308461946FBF7E7
:104FD00081F902467808130E120243EA01211018E3
:104FE0003A4671410023FBF775F9604AA0F540711C
:104FF00091423CD821688FE03946D8E71946D6E778
:10500000D4F81CC04FF6EF799C4546D1082819D03A
:1050100005DC58B101280CD0042875D10DE010280A
:1050200015D0202835D040286ED134E0FDF70EF899
:1050300001E0FDF71DF8014610E06846FBF738FF78
:1050400001990BE003A8FBF7D5FF049906E010686F
:10505000800604D51068C0F3C100C140C1B1636AC5
:10506000606838F81330B1FBF3F1490000E04BE021
:1050700001EB5001B1FBF0F0A0F11001494543D81C
:105080004FF6F0732168C0F342021840104343E02A
:1050900043E03946E3E71946E1E7082819D005DC83
:1050A00058B101280CD004282ED10DE0102815D0BD
:1050B00020282BD0402827D12AE0FCF7C7FF01E0A9
:1050C000FCF7D6FF014610E06846FBF7F1FE0199B8
:1050D0000BE003A8FBF78EFF049906E0106880063A
:1050E00004D51068C0F3C100C140B1B1636A606803
:1050F00038F81330B1FBF3F101EB5001B1FBF0F0E4
:10510000A0F11001494505D9012506E03946EDE732
:105110001946EBE7216880B2C8600120A4F86A0054
:10512000A4F8680028466667A66707B0BDE8F08364
:10513000F369FFCF000C0058FFF4FF11001001408D
:10514000544402580044004000480040004C0040D5
:10515000005000400014014000780040007C0040F6
:105160000090D003405C000800440258FFFC0F0090
:105170002DE9F047994617460E460446089D4FF024
:1051800000082FE0681C2DD0FBF708FDA0EB0900FC
:10519000A84214D89DB120680168490722D5C16989
:1051A000C94309070DD4082505622046FFF7E0FD35
:1051B000C4F89050012084F88480BDE8F087032073
:1051C000FBE7C069C04300050CD421684FF40060C0
:1051D00008622046FFF7CCFD2021C4F8901084F827
:1051E0008480ECE72068C06936EA000004D0002023
:1051F000B842C7D00020E0E70120F9E7FEE7000051
:105200000FB4054B10B503A9044A029800F0EAF860
:1052100010BC5DF814FB0000ED5A000824000024C7
:10522000090700284FEA116104DB00F1E02080F853
:105230000014704700F00F0000F1E02080F8141D0A
:10524000704702E008C8121F08C1002AFAD170474F
:105250007047002001E001C1121F002AFBD17047F6
:105260002DE9FF5F82B00021DDE90430020DDDF899
:1052700040B0034318D044F61050A2F2FF3242432C
:105280001514119801281FD0A5EB0B00401C5FEAF4
:10529000000A4FF000064E4FDFF83891B0465046F6
:1052A00015D5CAF1000413E0119801244AA301287E
:1052B00001D16FEA0B010298119AC0E90031C0E9EF
:1052C000024206B0BDE8F09FCBF10000DFE70446E4
:1052D0000021404A491842EB0450CDE9001012E089
:1052E000E00707D032463B4640464946FBF711F9F6
:1052F0008046894632463B4610461946FBF709F977
:1053000006460F466410002CEAD1DDE90401DDE910
:105310000023BAF1000F06DAFBF7FBF842464B46D2
:10532000FBF7F7F805E0FBF766F942464B46FBF75B
:1053300062F904460E460022284BFBF7E3F903D836
:105340004FF0FF30014607E00022254B2046314652
:10535000FBF738F8FBF7BEF9102409E0002C0ADB54
:105360000A220023FAF7B6FF039B30321A55641E57
:1053700050EA0102F2D1641C039AC4F111031444EF
:10538000119A012A03D0012208430DD10AE00843F3
:1053900004D000204FF0110B119072E7A3EB0B0526
:1053A0006D1E0DE05B4504DD4FF0000205F10105C7
:1053B00004E003DA4FF00002A5F10105002AECD069
:1053C00002981199C0E90231C0E9004579E700006F
:1053D000000014400000F03F300000000000F043E7
:1053E0000000E03F2DE9FF4F95B09A4688460646FB
:1053F0000025EEE1252877D100242746F94A01212E
:10540000039400E0044316F8013F203B01FA03F047
:105410001042F7D130782A2811D06FF02F0330785E
:10542000A0F13002092A16D8039A44F0020402EBD4
:10543000820203EB42021044761C0390EFE758F817
:10544000042B0392002A03DA504244F400540390E0
:1054500044F00204761C30782E2816D116F8010F7D
:1054600044F004042A280DD06FF02F023078A0F108
:105470003003092B09D807EB870302EB4303C71856
:10548000761CF3E758F8047B761C30786C280FD034
:1054900006DC4C2817D068280DD06A2814D104E007
:1054A000742810D07A280FD10DE044F400140AE0DB
:1054B00044F4801401E044F440147278824202D132
:1054C00004F58014761C761C307866280BD013DC2B
:1054D000582877D009DC002875D04528F6D0462812
:1054E000F4D047281AD193E118E0632835D0642816
:1054F00079D0652812D18BE1702873D008DC672839
:10550000F1D069286FD06E280DD06F2806D1ACE09D
:1055100073282CD0752874D0782853D05246179908
:1055200090476D1C54E1C4F30250022809D00328AF
:105530000DD0D8F8001004280DD00D6008F1040833
:1055400046E1D8F80010EA17C1E90052F6E7D8F8AA
:1055500000100D80F2E70D70F0E718F8041B8DF8CD
:10556000001000208DF80100EB46012003E058F800
:1055700004BB4FF0FF3061074FF0000102D40DE093
:1055800009F101018946B9420FDA8145F8DB1BF8C0
:1055900009100029F4D108E009F10101894681428E
:1055A000FADB1BF809100029F6D103985346A0EB4B
:1055B000090721463846179A00F080FA284400EB84
:1055C000090507E044E008E10DE01BF8010B524635
:1055D00017999047B9F10109F7D253462146384649
:1055E000179AF2E039E00A21C4F302524FF0000B9F
:1055F0000091022A06D058F8040BC117032A09D0DB
:105600000AE023E008F1070020F00702F2E80201B7
:10561000904605E000B2C117042A01D140B2C1177B
:10562000002906DA0A460021404261EB02012D22E0
:1056300002E0220504D52B228DF80420012203E08C
:10564000E20701D02022F7E7914657E00A2100E067
:1056500010214FF0000B00910BE010214FF0000BD8
:1056600044F004040827009103E008204FF0000BE9
:105670000090C4F30252022A05D058F8040B00210E
:10568000032A08D008E008F1070020F00702F2E83A
:105690000201904603E080B2042A00D1C0B24FF06C
:1056A000000922072AD53278702A07D0DDF800C019
:1056B0008CF0100C5CEA0B0C05D00EE040228DF84B
:1056C0000420012208E050EA010306D030238DF8BF
:1056D00004308DF8052002229146009B83F00803D8
:1056E00053EA0B030AD150EA010201D1620705D542
:1056F00030228DF804204FF001097F1E3278582A9D
:1057000004D039A20C920CAA02920BE03BA2F9E75A
:105710005B46009AFAF7DEFD0C9B9B5C029A521ED8
:105720000292137050EA0102F2D1029804A9081AF9
:1057300000F1200B600702D524F4803400E001273B
:105740005F4502DDA7EB0B0000E0002000EB0B0142
:10575000009003984944401A0390E00306D453464E
:105760002146179A039800F0A9F90544002706E09E
:1057700001A85246C05D179990476D1C7F1C4F458C
:10578000F6DBE0030CD553462146179A039800F048
:1057900095F9054404E030205246179990476D1C56
:1057A0000099481E00900029F5DC08E00298029953
:1057B00052460078491C0291179990476D1CBBF125
:1057C0000001ABF1010BF1DC5BE100F065F9054490
:1057D000761C307800287FF40DAE19B02846BDE85D
:1057E000F08F00000928010030313233343536376C
:1057F000383961626364656600000000303132331D
:1058000034353637383941424344454600000000BC
:10581000600700D4062708F1070020F00700F0E831
:105820000223804603F0004C5FEA0C0001D097A0F1
:1058300009E0200501D596A005E0E00701D095A07C
:1058400001E0AFF24C001390307823F0004365285C
:105850000CD006DC452809D046281DD047287FD12A
:105860003BE0662818D067287AD136E00021112F56
:1058700001DB112000E0781CCDE9000104A90CA88F
:10588000FFF7EEFCDDE90D010C9A4FF0000B07F17C
:105890000109109200914EE04FF000400097CDE9D1
:1058A000011004A90CA8FFF7DBFCDDE90D020C9B3D
:1058B0000F994FF0000B91461093009211B9791C8B
:1058C00000EB0109B7EB090003D4C0F1FF3B07F17E
:1058D0000109A9EB0700019042E0012F00DA01273E
:1058E0000021112F01DD112000E03846CDE9000133
:1058F00004A90CA8FFF7B4FCDDE90D010C9A009196
:105900004FF0000BB946109221070FD4009A4A4578
:1059100003DA914601E0A9F10109B9F1010F05DDB2
:10592000109AA9F10101515C3029F4D0B84202DA91
:1059300010F1040F03DA0121CDE9011010E0002875
:1059400003DC8344A9EB000102E0411C494500DD72
:105950008946A0EB0B00401C01904FF000400290E4
:10596000200705D40198484502DB4FF0FF30019035
:1059700000208DF84B0002980DF14B07B0F1004F5D
:1059800025D002200C902B200D90029800280CDAD4
:10599000404202902D200D9007E00A210298FAF76C
:1059A000DCFC3031029007F8011D0C99481E0C9068
:1059B0000029F2DC02980028EFD1791E0D980870BA
:1059C000307800F0200040F0450007F8020D11A8E3
:1059D000C01BC01D02901398007800B1012000EB9D
:1059E0000901019801EBE071029801440398401A03
:1059F000401E0390E00306D453462146179A0398AD
:105A000000F05CF805441398007818B152461799D5
:105A100090476D1CE00323D553462146179A0398FF
:105A200000F04CF805441BE0BBF1000F07DB0098C9
:105A3000584504DD1098179910F80B0001E01799EC
:105A400030205246904701980BF1010B401E05F1A2
:105A50000105019004D12E205246179990476D1CE4
:105A6000B9F10001A9F10109DEDC05E017F8010B2D
:105A70005246179990476D1C0299481E02900029C2
:105A8000F4DC53462146179A03989EE62D00000049
:105A90002B000000200000002DE9F0410446002505
:105AA0001E461746880404D405E039462020B04736
:105AB0006D1C641EF9D52846BDE8F0812DE9F04142
:105AC000044600251E469046C80301D5302700E055
:105AD0002027880404D505E041463846B0476D1CB0
