:020000040800F2
:1000000080060024B1020008D3360008792D0008CC
:10001000D13600085B080008A14700080000000076
:10002000000000000000000000000000253A000869
:100030005D0800080000000061370008273A00084A
:10004000CB020008CB020008CB020008CB0200085C
:10005000CB020008CB020008CB020008CB0200084C
:10006000CB020008CB020008CB020008CB0200083C
:10007000CB020008CB020008CB020008CB0200082C
:10008000CB020008CB020008CB020008CB0200081C
:10009000CB020008CB020008CB020008CB0200080C
:1000A000CB020008CB020008CB020008CB020008FC
:1000B000CB020008CB020008CB020008CB020008EC
:1000C000CB020008CB020008CB020008CB020008DC
:1000D000CB020008CB020008CB020008CB020008CC
:1000E000CB020008CB02000800000000CB02000891
:1000F000CB020008CB020008CB020008CB020008AC
:10010000CB020008CB020008CB020008CB0200089B
:10011000CB020008CB020008CB020008CB0200088B
:10012000CB020008CB020008CB020008CB0200087B
:10013000CB020008CB020008CB020008CB0200086B
:1001400000000000000000000000000000000000AF
:10015000CB020008CB020008CB020008CB0200084B
:10016000CB020008CB020008CB020008CB0200083B
:10017000CB020008CB020008CB020008CB0200082B
:10018000CB020008CB020008CB020008CB0200081B
:10019000CB020008CB020008CB020008CB0200080B
:1001A000CB020008CB020008CB020008CB020008FB
:1001B000CB020008CB020008CB020008CB020008EB
:1001C000CB020008CB020008CB020008CB020008DB
:1001D000CB020008CB020008CB020008CB020008CB
:1001E000CB020008CB020008CB020008CB020008BB
:1001F000CB020008CB020008CB020008CB020008AB
:10020000CB020008CB020008CB020008CB0200089A
:10021000CB020008CB020008CB020008CB0200088A
:10022000CB020008CB020008CB020008000000004F
:10023000CB020008CB02000800000000CB0200083F
:10024000CB020008CB020008CB020008CB0200085A
:10025000CB020008CB020008CB020008CB0200084A
:10026000CB020008CB020008CB020008CB0200083A
:10027000CB020008CB020008CB02000800000000FF
:10028000CB020008CB020008CB02000800000000EF
:1002900000000000CB020008DFF810D000F05CFA8C
:1002A00000480047D9500008AFF3008080060024C2
:1002B0000648804706480047FEE7FEE7FEE7FEE700
:1002C000FEE7FEE7FEE7FEE7FEE7FEE7093B000884
:1002D000990200082DE9F05F0546002092469B46F2
:1002E00088460646814640241BE02846414647464C
:1002F000224600F069F853465A46C01A914110D37D
:1003000011461846224600F050F82D1A67EB0108F6
:100310004F4622460120002100F047F817EB000964
:100320004E41201EA4F10104DFDC484631462A4636
:100330004346BDE8F09F40EA01039B0703D009E074
:1003400008C9121F08C0042AFAD203E011F8013BC1
:1003500000F8013B521EF9D27047D2B201E000F81A
:10036000012B491EFBD270470022F6E710B5134659
:100370000A4604461946FFF7F0FF204610BD30B587
:100380000B46014600202022012409E021FA02F553
:100390009D4205D303FA02F5491B04FA02F52844ED
:1003A000151EA2F10102F1DC30BD202A04DB203A47
:1003B00000FA02F1002070479140C2F1200320FAB8
:1003C00003F3194390407047202A04DB203A21FAB6
:1003D00002F00021704721FA02F3D040C2F120025E
:1003E00091400843194670472DE9FE4F804681EA47
:1003F0000300C00F0C46009021F0004123F000459F
:10040000B8EB0200A94105D24046214690461C4661
:100410000B46024623F00040104347D0270DC7F398
:100420000A00C3F30A510290401A019040286BDA87
:10043000C3F3130040F4801B0098924620B10023C0
:10044000D2EB030A63EB0B0B01985946C0F1400253
:100450005046FFF7AAFF06460D4650465946019AF8
:1004600000F08CF910EB08006141002487EA11527A
:1004700084EAE7731A4340D0009A62B3019A012AD2
:100480004FEA075215DC001B61EB02014FF00042FE
:1004900002EA0752CDE90042001C41F580113246C4
:1004A0002B4600F08CF903B0BDE8F08F40462146A2
:1004B000F9E7001B61EB0201001C41F580130018F5
:1004C0005B412018A2F5001747EB030140EAD57005
:1004D000B6196D4111E06D084FEA360645EAC07560
:1004E0004FEA0752001B61EB0201001C41F580112D
:1004F00049084FEA30000019514132462B4603B0FB
:10050000BDE8F04F00F04CB90098012240000023F4
:10051000D0EB020263EBE073009821464FEAE074EF
:10052000B8EB000061EB0401E9E783F000435BE70F
:1005300081F0004158E72DE9FE4F81EA030404F001
:10054000004421F0004100944FF0000B23F00043E1
:1005500050EA01045ED052EA03045BD0C3F30A54AC
:10056000C1F30A552C44A4F2F3340194A0FB0254C5
:10057000C1F3130141F48011C3F3130343F4801357
:1005800001FB024400FB034E840A970A44EA8154AB
:1005900047EA8357A4FB076802958D0A05FB078588
:1005A0004FEA932C04FB0C542705029D4FEA065892
:1005B00047EA1637B5EB08056EEB070C870E920E6F
:1005C00047EA811742EA8312A7FB0201B6EB0B014F
:1005D00064EB00042B0D43EA0C335E1844EB1C5013
:1005E000DA465146E7FB0201C5F313044FEA0B3329
:1005F00043EA14534FEA0432019C43EA0603A4F190
:100600000C040294009CCDE900B400F0D8F803B0CB
:10061000BDE8F08F00200146F9E72DE9F04D81EAB1
:10062000030404F0004B21F0004514464FF0000A8B
:1006300023F0004150EA050220D054EA01021DD007
:10064000C5F30A570246C5F31303C1F31300C1F300
:100650000A5640F4801543F48013A7EB0608101BDC
:10066000D64608F2FD3873EB050002D308F1010805
:1006700001E092185B41B8F1000F03DA0020014657
:10068000BDE8F08D00204FF48011064684460EE050
:10069000171B73EB050705D3121B63EB050306431A
:1006A0004CEA010C49084FEA300092185B4150EACD
:1006B0000107EDD152EA030012D082EA040083EA76
:1006C0000501084305D0101BAB4106D201220023CF
:1006D00006E000224FF0004302E06FF001025310E9
:1006E0001AEB06004CEB085110EB0A0041EB0B0132
:1006F000BDE8F04D00F054B8C1F30A52C1F3130144
:1007000040F2FF3341F480119A4202DA00200146A0
:10071000704740F233439A42A2F2334202DC524223
:10072000FFF752BEFFF741BE30B5041E71F1000461
:1007300004DB4FF00044404264EB0101141E73F1EE
:10074000000405DB1C464FF00043524263EB0403F8
:10075000994208BF904230BD064C074D06E0E06864
:1007600040F0010394E8070098471034AC42F6D3F8
:10077000FFF796FD90E10008B0E10008202A06DBB3
:10078000CB17203A41FA02F043EAE07306E041FA5F
:1007900002F3D040C2F1200291400843194670474D
:1007A00010B5141E73F1000408DA401C41F1000179
:1007B00092185B411A4301D120F0010010BD2DE9D0
:1007C000F04D92469B4611B1B1FA81F202E0B0FAC7
:1007D00080F220329046FFF7E8FD04460F4640EADB
:1007E0000A0041EA0B0153465A46084313D011460A
:1007F00053EA010019D0C8F140025046FFF7E4FD6A
:1008000005460E46504659464246FFF7CEFD084380
:1008100005D0012004E020463946BDE8F08D0020D7
:10082000054346EAE0762C4337430A986305E40A19
:10083000A0EB08000022FD0A44EA47540A3002D522
:1008400000200146E9E7010510196941DDE9084585
:1008500000196941BDE8F04DA2E7FEE7704772B6A6
:10086000FEE7F0B5D1E90843CD690A68C2B1026874
:10087000254322F4F84213431D430560D1E90125C5
:10088000D1E903364C692A434568334389691A43E1
:10089000EB0B2243DB030A431A4342600020F0BD06
:1008A000D1E9012ED1E9036CD1E9057142EA0E02CA
:1008B00046EA0C0632433A430A4301682A4322437C
:1008C0001A436FF30E010A430260E7E7426943F6F9
:1008D000FE739A4342EA410141610020704770B5BE
:1008E00091E81C00C9686FF01F0506691A4305EB03
:1008F000441444EA41210A4306EA45431A4302618B
:10090000002070BD2DE9F04F8B8A6FF00F05264C4B
:100910004FF07F4BD1F80C9004EB03536FF0FF04C2
:100920004FEA042A1AB386684FEA09321F4FA2F52C
:1009300080521A433E4032438260D1E900278E68DC
:10094000521E05EB07150F8A2A43C56804EB0624DF
:100950000E7E0AEB074322431A430BEB06610A4360
:1009600005F070431A43C2600020BDE8F08F91E8A3
:1009700004110F4E521E0F8A05EB08152A4304EB93
:100980000C2C06EB09350E7E42EA0C022A438568E0
:100990000AEB074422431A430BEB06610A4305F0B6
:1009A00070431A438260DFE70000F0FFFF0F0FFF84
:1009B00000F0FFFF2DE9F041012417460D460646E1
:1009C00003F00CFA304600F061F8C0B903F006FA03
:1009D000BB2003F07BFA012811D16E1E002409E030
:1009E000B44201D1002000E0012003F0C7F93855DE
:1009F000641CE4B2AC42F3D303F014FA002403F015
:100A000011FA2046BDE8F08170B503F0A5FA144C48
:100A100000224FF40061204600F0C1FA0122204676
:100A20001502294600F0BBFA42F2107003F006F9F5
:100A300000222946204600F0B2FA0A4803F0FEF8E8
:100A400001222946204600F0AAFA074803F0F6F8EA
:100A500003F06CFABDE8704044F6206003F0EEB895
:100A600000200258F04902003057050070B50D46CD
:100A7000044603F0B3F9204600F008F810B9284600
:100A800003F024FA03F0CEF9002070BD10B504463F
:100A900003F0A4F9BA2003F019FA012807D1200ABB
:100AA00003F014FA012802D1E0B203F00FFA00209B
:100AB00010BD0000F0B590F86020012A22D0C1EBF3
:100AC000C102012780F86070022380F8613000EBDA
:100AD0008202284D138F168EB2F83CC0D46A1B05D3
:100AE000283244EA064643EA4C530A2C46EA0306F7
:100AF0000AD0092C08D0137B46EA036349B10B2CBA
:100B00001AD01DE00220F0BDD36803F07F433343C9
:100B1000F4E701684C6AAC431C434C6201681368FB
:100B20008B6151680A2901D009291BD1D16802685B
:100B300021F07F41916215E0118B0F4D43EA814313
:100B40000168CC69AC431C43CC61016813680B613C
:100B500051680A2901D0092904D1D168026821F01D
:100B60007F411162002180F8617080F860100846B2
:100B7000F0BD00000F0033FF0F003FFF2DE9F041F3
:100B8000040004D094F86100002518B107E00120AA
:100B9000BDE8F081204684F8605000F033F8184E2C
:100BA000022084F861000123D4E90010D4F81CC0AD
:100BB00040F207120F6840EA0C00374038430860E3
:100BC0002068A769A168466B394396433143416366
:100BD0002068E268016C6FF30F0111430164206823
:100BE000218AA28A466B090541EA425126F4401245
:100BF00011434163656684F861300020C8E7000056
:100C0000BFFFF8FF08B500680649884208D10648CA
:100C1000016841F010010160006800F010000090D0
:100C200008BD000000100052D444025870B50446BC
:100C300000F0C0F90546601C02D004480078044466
:100C400000F0B8F9401BA042FAD370BD6000002448
:100C50002DE9F041B6B014216846FFF785FB39480D
:100C6000016800296BD14FF00108C0F80080C02155
:100C700006A8FFF779FB002018904FF0807104461A
:100C8000CDE9061006A800F01DFD08B1FFF7E7FD4D
:100C90002D48016841F4805101600068022502AAD4
:100CA000694600F48050059040F2FF60CDE90005F0
:100CB000032626480C2782E8D00000F055F802AA47
:100CC0004FF68370CDE900052148694682E8D000DF
:100CD00000F04AF802AA4FF60C70CDE900051D4855
:100CE000694682E8D00000F03FF802AA48F23310CB
:100CF000CDE900051848694682E8D00000F034F8D4
:100D000002AA4CF20370CDE900051448694682E856
:100D1000D00000F029F802AA4FF63F00CDE9000507
:100D20000F48694682E8D00000F01EF802AA0D487C
:100D3000694682E8D000CDE9008500F015F836B0AC
:100D4000BDE8F08100000024D4440258002002587D
:100D500000100258001C025800180258000C0258DB
:100D600000140258000802582DE9F84F03247D4D65
:100D700000234FF001094FF0B04B4FF00F0AE9E0AC
:100D800009FA03F73A4076D00E7906F00306012EF1
:100D900001D0022E18D1D0F808C04FEA430ECE6819
:100DA00004FA0EF82CEA080C06FA0EF646EA0C06CF
:100DB0008660D0F804C00E792CEA070CC6F3001642
:100DC0009E4046EA0C0646600E79F643B6070BD005
:100DD000C6684FEA43088F6804FA08FC26EA0C0646
:100DE00007FA08F73743C7600E7906F00306022EAC
:100DF00012D1DE080F694FEA437C00EB8606B64647
:100E0000366A4FEADC6C0AFA0CF807FA0CF726EAA5
:100E100008063743CEF820700F7906684FEA43087A
:100E200007F0030704FA08FC07FA08F726EA0C069D
:100E3000374307604E6816F4403F1CD04A4E37686F
:100E400047F00207376036689F0706F002060096F3
:100E500023F0030606F1B046B6463F0FD6F8086405
:100E6000DFF808810AFA07FC404526EA0C0603D1A0
:100E70004FF0000C41E06CE0DFF8F4C0604502D1B7
:100E80004FF0010C39E0DFF8ECC0604502D14FF0C3
:100E9000020C32E0DFF8E0C0604502D14FF0030CF5
:100EA0002BE0DFF8D8C0604502D14FF0040C24E0FD
:100EB000DFF8CCC0604502D14FF0050C1DE0DFF833
:100EC000C4C0604502D14FF0060C16E0DFF8B8C090
:100ED000604502D14FF0070C0FE0DFF8B0C060456D
:100EE00002D14FF0080C08E0DFF8A4C0604502D141
:100EF0004FF0090C01E04FF00A0C0CFA07FC4CEA29
:100F0000060CCEF808C44F68DBF80060FF0226EA42
:100F1000020600D516435F46CBF80060D1F804C046
:100F2000DBF804605FEA8C2C26EA020600D5164343
:100F30007E606E684F6826EA0206BF0300D516433E
:100F40006E602E684F6826EA0206FF0300D516433E
:100F50002E605B1C0A6832FA03F67FF411AFBDE81D
:100F6000F88F000080000058F44402580000025836
:100F70000004025800080258000C025800100258E1
:100F80000014025800180258001C02580020025891
:100F9000002402580069084000D0012070470AB1BF
:100FA000816170470904FBE701480068000C704745
:100FB0000010005C01488068704700006000002459
:100FC0000248816802781144816070476000002403
:100FD000032010B500F0E4F901F0BEF90F4A104902
:100FE00014681368C4F3032203F00F038A5CC95C1E
:100FF00002F01F0201F01F01D0400A4A20FA01F15D
:101000001160094908600F2000F010F808B10120B4
:1010100010BD00F097F9002010BD000018440258E0
:1010200080E10008700000246C00002470B50D4DB4
:1010300004462878A0B14FF47A71B1FBF0F00A4968
:101040000968B1FBF0F001F045FD48B9102C07D25A
:1010500000222146501E00F083F900206C6070BD14
:10106000012070BD600000246C0000242DE9F041D7
:10107000044690F8A00016460F4601281DD0012511
:1010800084F8A050022084F8A10006EB860000EB53
:10109000C600342204EB80003830FFF74CF93246AA
:1010A0003946204602F0FAF8216800204D6284F8A3
:1010B000A15084F8A000BDE8F0810220FBE7000009
:1010C0002DE9F041040004D094F8A100002518B1E6
:1010D00007E00120BDE8F081204684F8A05000F030
:1010E0006BF83448022184F8A110012202CC8B69EC
:1010F00023F070438B6194E84A001943E3681E4370
:1011000054F8043D31439E693143996121688B68ED
:1011100003408B602168A68AA7698B683B4343EA3A
:1011200006438B602168CB680340CB602168A38BAA
:10113000276ACE683E4346EA0346CE6021680B69C3
:1011400003400B612368A68CA76A1969394341EAF9
:101150000641196121684B6903404B612068A38DEA
:10116000266B4169314341EA03414161236894F8A8
:10117000351094F83600DE6A000406F07F46DE6221
:10118000236840EA012094F83460D96A314301436E
:10119000D9622068416B41F0060141632068816992
:1011A00041F001018161C4F8A45084F8A12000201D
:1011B00090E7000000F800F0F0B5B7B00446142145
:1011C00030A8FFF7D1F8C0216846FFF7CDF83149C4
:1011D000206888425CD10AAF4FF4A573022519221A
:1011E00087E82C00002110910A260C4640040D953A
:1011F000CDE90E61CDE900016846119100F062FA77
:1012000008B1FFF72CFB2448016841F00801016098
:10121000006800F0080035901F48001F016841F485
:1012200080610160016801F480613591016841F4D9
:1012300000710160016801F400713591016841F4A9
:1012400080710160006832AA032600F48070359036
:10125000FF20CDE930050E27104882E8D00030A9E4
:10126000FFF782FD32AA4FF6FF70CDE930050C483A
:1012700030A982E8D000FFF777FD4FF4704032AA22
:10128000CDE93005074830A982E8D000FFF76CFDB2
:1012900037B0F0BD00100050E44402580028025856
:1012A0000024025800200258F0B5154C4378211D47
:1012B0000A1D23600378F3B143680B60057BC67A8F
:1012C000817A437B2D07847B45EA0665C77B90F8CE
:1012D00009C0067A90F800E045EAC14040EA834040
:1012E00040EA444040EA074040EA0C2040EA460019
:1012F00040EA0E0001E0002008601060F0BD000030
:1013000098ED00E0BFF35F8F044800210368034AB3
:1013100023F48033036070321160704724ED00E0E5
:10132000074A40F00100064970321060086840F436
:1013300080300860BFF34F8FBFF36F8F704700009E
:1013400024ED00E0054808B5016841F002010160A4
:10135000006800F00200009008BD0000F44402584C
:101360000E4BF0B41B680D46C3F30223C3F107060E
:10137000042E00D90426191D072901D2002300E0FC
:10138000DB1E012404FA06F19C40491E2940641E1C
:10139000994014402143F0BC03F028BA0CED00E062
:1013A000064900F0070210B54FF6FF040868044B29
:1013B000204040EA02201843086010BD0CED00E018
:1013C0000000FA05134970B50A68D243520705D5E3
:1013D000096801F00701814213D118E00A6822F080
:1013E000070202430A60FFF7E5FD0A4D4FF47A76E3
:1013F0000446083D07E000BFFFF7DCFD001BB042DC
:1014000001D9012070BD2868C0438004F4D40020B5
:1014100070BD00000C48025810B500F057FF054998
:101420000968054AC1F30211515C01F01F01C8406F
:1014300010BD00002044025880E10008494930B541
:10144000484C0B1D0A68143409681D68246802F0B2
:101450000303C5F30012C1F30531C4F3CC04002922
:1014600014FB02F200EE102AF8EE400A75D03F4A53
:101470009FED3D1AB7EE000A6BB1DFED3D1A012B6F
:1014800001D0022B64D002EE101A1168F8EE422A45
:1014900081EEA22A21E0334C283C23689B0612D51A
:1014A000344B246801EE901A1168C4F3C104F8EEBD
:1014B000612AE34001EE903AC1F30801F8EE611AA7
:1014C00081EEA22A0BE001EE901ADFED2B2A00BF7D
:1014D000F8EE611A116882EEA12AC1F3080101EE4B
:1014E000901A1168F8EE611A40EE811A71EE800AC6
:1014F00062EE200AC1F3462101EE101AB8EE411A3D
:1015000031EE001AC0EE811ABCEEE11A80ED001A2D
:101510001168C1F3064101EE101AB8EE411A31EE1E
:10152000001AC0EE811ABCEEE11A80ED011A1168B2
:10153000C1F3066101EE101AB8EE411A31EE000A4D
:1015400080EE801ABCEEC10A80ED020A30BD04E0D4
:1015500001EE901ADFED092ABAE70021016041602F
:101560008160F3E7284402580000003938440258EB
:101570000024744A0090D0030024744C20BCBE4B5D
:10158000494930B5484C0B1D0A681C3409681D6870
:10159000246802F00303C5F30022C1F30551C4F32C
:1015A000CC04002914FB02F200EE102AF8EE400AE7
:1015B00075D03F4A9FED3D1AB7EE000A6BB1DFEDE3
:1015C0003D1A012B01D0022B64D002EE101A1168D3
:1015D000F8EE422A81EEA22A21E0334C283C23680F
:1015E0009B0612D5344B246801EE901A1168C4F39F
:1015F000C104F8EE612AE34001EE903AC1F308011C
:10160000F8EE611A81EEA22A0BE001EE901ADFEDEE
:101610002B2A00BFF8EE611A116882EEA12AC1F3ED
:10162000080101EE901A1168F8EE611A40EE811A75
:1016300071EE800A62EE200AC1F3462101EE101A13
:10164000B8EE411A31EE001AC0EE811ABCEEE11A72
:1016500080ED001A1168C1F3064101EE101AB8EED0
:10166000411A31EE001AC0EE811ABCEEE11A80ED8B
:10167000011A1168C1F3066101EE101AB8EE411AA1
:1016800031EE000A80EE801ABCEEC10A80ED020A3B
:1016900030BD04E001EE901ADFED092ABAE700211F
:1016A000016041608160F3E728440258000000397E
:1016B000404402580024744A0090D0030024744C23
:1016C00020BCBE4B2DE9FE4F0546DFF8E48350F801
:1016D000081B0024F64FC943019005F12800264657
:1016E00008F12408009008011DD4A86E50B1B0F58F
:1016F000801F0CD0B0F5001F0ED0B0F5401F1ED0DB
:1017000001240FE0386840F40030386017E0019899
:10171000022102F027F803E00098022102F0B2F85B
:1017200004000CD026462888C043C00523D4A86DE9
:1017300005281ED2DFE800F00C11161B1B00AA6E54
:10174000D8F8001021F440111143C8F80010EAE75E
:10175000386840F40030386009E00198002102F058
:1017600001F803E00098002102F08CF8044674B1FF
:1017700000E0012426462888C043800528D4E86D6F
:1017800080281ED00CDC90B140280ED114E0AA6D48
:10179000D8F8001021F007011143C8F80010EAE75B
:1017A000C02813D0B0F5807F10D001240FE0386836
:1017B00040F40030386009E00198002101F0D2FFC8
:1017C00003E00098002102F05DF804469CB1264633
:1017D0002888DFF8DC92C04309F12C0940052CD49D
:1017E000D5F8A800B0F5800F20D00DDCA0B1B0F581
:1017F000001F0FD115E0EA6DD8F8001021F4E07158
:101800001143C8F80010E3E7B0F5C00F13D0B0F5EE
:10181000000F10D001240FE0386840F40030386029
:1018200009E00198002101F09DFF03E000980021EC
:1018300002F028F804467CB126462888C0430005FB
:101840002DD4D5F8AC00B0F1007F21D00EDCA8B1CA
:10185000B0F1807F10D116E0D5F8A820D9F800109B
:1018600021F460011143C9F80010E6E7B0F1407FB0
:1018700013D0B0F1806F10D001240FE0386840F42D
:101880000030386009E00198002101F06BFF03E0AF
:101890000098002101F0F6FF044674B1264628683E
:1018A000C04380011FD4E86CD8B110280FD0202885
:1018B00012D0302815D0012414E0D5F8AC20D9F886
:1018C000001021F0E0611143C9F80010E7E7386823
:1018D00040F40030386004E00198022101F042FF3A
:1018E000044674B126462888C043C0042BD4286E11
:1018F000B0F5005F20D00DDCA0B1B0F5805F0FD156
:1019000015E06B48EA6C2030016821F0300111438A
:101910000160E8E7B0F5405F13D0B0F5804F10D01C
:1019200001240FE0386840F40030386009E0019885
:10193000002101F017FF03E00098002101F0A2FF51
:1019400004468CB126462888C043800429D4686E9A
:10195000B0F5403F23D010DC08B3B0F5803F14D081
:10196000B0F5003F0FD115E02A6ED8F8001021F431
:10197000E0411143C8F80010E5E7B0F5802F0ED024
:10198000B0F5A02F0BD001240AE00198012101F04D
:10199000E9FE03E00098012101F074FF044694B1D0
:1019A00026462888C04340042AD4D5F8B000B0F1B8
:1019B000405F23D010DC08B3B0F1805F14D0B0F1E9
:1019C000005F0FD115E06A6ED8F8001021F4E02115
:1019D0001143C8F80010E4E7B0F1804F0ED0B0F129
:1019E000A04F0BD001240AE00198012101F0BAFEBA
:1019F00003E00098012101F045FF044674B126463A
:101A00002888C04300041FD4286FD8B1B0F1805F8C
:101A10000ED0B0F1005F10D0012414E0D5F8B02052
:101A2000D9F8001021F0E0411143C9F80010E7E7B0
:101A3000386840F40030386004E00198012101F07A
:101A400091FE044674B126462868C043C0011ED4E6
:101A5000A86CD0B101280ED0022811D0032814D0D0
:101A6000012413E02A6FD8F8001021F040511143EF
:101A7000C8F80010E8E7386840F40030386004E047
:101A80000198022101F06EFE0446ACB1264628689A
:101A9000DFF81CB0C043ABF11C0B400252D4054828
:101AA000016841F480710160FFF784FA824611E019
:101AB0002C44025800480258FA48AA6C016821F0E8
:101AC000030111430160E2E7FFF774FAA0EB0A009B
:101AD000642835D8F4480068C005F5D58CBBDFF81C
:101AE000C4A3B5F8B4100AF1240ADAF8000001F42E
:101AF000407100F44070884211D0DAF80010DAF832
:101B0000002021F4407142F48032CAF80020DAF853
:101B1000002022F48032CAF80020CAF80010D5F85C
:101B2000B400B0F5807F1AD1FFF744FA029012E0BA
:101B3000FFF740FA0299411A41F2883081420AD9EE
:101B4000032426462878DFF85CA3C0430AF1080A7C
:101B5000C00721D03CE0DAF800008007E8D5D5F8CE
:101B6000B410C1F30120032858460DD0016821F4B8
:101B70007C510160B5F8B420DAF80010C2F30B0212
:101B80001143CAF80010DDE7C84A036802EA1112DF
:101B900023F47C511143ECE7E86F182816D005DCDC
:101BA000A0B1082808D0102804D10AE020280DD0C0
:101BB00028280BD001240AE00198012101F0D2FD70
:101BC00003E00098012101F05DFE044664B1264661
:101BD0002878C04380071ED4A86F062819D2DFE8F2
:101BE00000F0160C11161616EA6FDAF8001021F044
:101BF00038011143CAF80010EAE70198012101F009
:101C0000B1FD03E00098012101F03CFE04467CB1E7
:101C100000E0012426462878C04340071FD4D5F8A9
:101C20009400062819D2DFE800F0160C11161616DB
:101C3000AA6FDAF8001021F007011143CAF800106A
:101C4000E9E70198012101F08DFD03E000980121F1
:101C500001F018FE0446A4B100E0012426462878CD
:101C6000C04380062BD4D5F89000B0F1405F24D05B
:101C700011DC10B3B0F1805F15D0B0F1005F10D16E
:101C800016E0D5F89420D9F8001021F0070111438F
:101C9000C9F80010E3E7B0F1804F0ED0B0F1A04FCB
:101CA0000BD001240AE00198002101F05BFD03E064
:101CB0000098022101F0E6FD044694B126462878FA
:101CC000C04340062BD4D5F89C00B0F5406F24D01B
:101CD00011DC10B3B0F5806F15D0B0F5006F10D1E6
:101CE00016E0D5F89020DAF8001021F0E041114319
:101CF000CAF80010E3E7B0F5805F0ED0B0F5A05F42
:101D00000BD001240AE00198002101F02BFD03E033
:101D10000098022101F0B6FD044694B126462878C9
:101D2000C04300062BD4D5F8A000B0F5C04F24D096
:101D300011DC10B3B0F5005F15D0B0F5804F10D1B5
:101D400016E0D5F89C20D9F8001021F4E051114399
:101D5000C9F80010E3E7B0F5004F0ED0B0F5204F02
:101D60000BD001240AE00198002101F0FBFC03E004
:101D70000098022101F086FD044654B126462878D9
:101D8000C04300071ED4D5F88400B0F5805F0AD0A8
:101D90000FE0D5F8A020D9F8001021F460411143DC
:101DA000C9F80010EBE70098022101F06BFD00B1CB
:101DB0000126D5F88420DAF8001021F440511143AF
:101DC000CAF800102878C043C00613D4D5F898008C
:101DD000B0F5807F05D10098022101F053FD00B1DC
:101DE0000126D5F89820D9F8001021F4407111434C
:101DF000C9F800102868C043000316D4D5F8A40021
:101E000038B1B0F5803F09D0B0F5003F0BD00124C8
:101E10000AE00198002101F0A5FC03E000980221EE
:101E200001F030FD04468CB126462868C0434003CB
:101E300022D4D5F88800B0F5801F11D0B0F5001F6E
:101E400013D0B0F5401F15D0012414E0D5F8A4201C
:101E5000D9F8001021F440311143C9F80010E4E72B
:101E6000386840F40030386004E00098012101F047
:101E700009FD04465CB126462868C043C00323D44C
:101E8000286DA8B1B0F5803F17D001241BE0D5F82C
:101E90008820DAF8001021F440111143CAF800102C
:101EA000EAE700004C44025800480258CFFFFF0008
:101EB000386840F40030386004E00198022101F0F5
:101EC00051FC0446E4B126462868C043800005D48E
:101ED0000098022101F0D6FC00B101262868C04319
:101EE00080031BD4D5F88000B0B1B0F5807F0FD04F
:101EF000B0F5007F10D0B0F5407F0DD001240CE08C
:101F00005A482A6D016821F4803111430160DBE7F2
:101F1000386840F400303860ECB326462868C04387
:101F2000C00207D46A6FD8F8001021F000411143B5
:101F3000C8F800102868C043C00008D4D5F8B820FD
:101F4000DBF8001021F480411143CBF80010286821
:101F5000C043800207D4EA6ED8F8001021F08071E7
:101F60001143C8F800102868C04340000CD4DBF8C7
:101F7000001021F40041CBF80010DBF80010D5F878
:101F8000BC201143CBF800102868C04308D4374860
:101F90006A6D016800E018E021F0405111430160D2
:101FA0002868C043000208D4D5F88C20DAF8001065
:101FB00021F440011143CAF8001028790024C043DD
:101FC00000F0010020430AD00FE0D5F88020DAF8B5
:101FD000001021F440711143CAF800109EE70198E7
:101FE000002101F0BFFB00B106462879C04300F094
:101FF0000200204305D10198012101F0B3FB00B19B
:1020000006462879C04300F00400204305D101981A
:10201000022101F0A7FB00B106462879C04300F079
:102020000800204305D10098002101F02BFC00B1ED
:1020300006462879C04300F01000204305D10098DF
:10204000012101F01FFC00B106462879C04300F0D1
:102050002000044304D10098022101F013FC00B9D0
:1020600016B10120BDE8FE8F0020FBE74C4402586A
:102070002DE9F05F04000F467ED0DFF83882D8F8F3
:10208000000000F00F00B8420CD2D8F8001021F088
:102090000F013943C8F80010D8F8000000F00F0015
:1020A000B84269D12078844D40070AD52069296853
:1020B00001F07001884204D9296821F070010143C0
:1020C000296020787C4E361D00070AD5606931688A
:1020D00001F07001884204D9316821F07001014398
:1020E00031602078C0060AD5A069316801F4E0614A
:1020F000884204D9316821F4E061014331602078DD
:10210000DFF8B4B180060BF1080B0CD5E169584635
:10211000DBF8002002F07002914204D9026822F03C
:1021200070020A430260207880070AD5E0682968B7
:1021300001F00F01884204D9296821F00F01014301
:1021400029602078C0073ED05B49A268286818390A
:1021500020F47060104328606068022818D00328BB
:1021600019D00968012819D0490700294ADADFF88F
:1021700048A1AAF1080A00E044E0DAF8002022F0C1
:1021800007020243CAF80020FEF714FF814612E05E
:1021900009688903E9E709688901E6E7C905E4E711
:1021A000FEF708FFA0EB090141F28830814202D915
:1021B0000320BDE8F09F6168DAF8000000F0380005
:1021C000B0EBC10FECD1207880070AD5E068296810
:1021D00001F00F01884204D2296821F00F01014368
:1021E0002960D8F80010404601F00F01B9420BD920
:1021F000016821F00F0139430160006800F00F0011
:10220000B84201D00120D4E7207840070AD52069E0
:10221000296801F07001884204D2296821F0700118
:1022200001432960207800070AD56069316801F010
:102230007001884204D2316821F07001014331609D
:102240002078C0060AD5A069316801F4E0618842AF
:1022500004D2316821F4E0610143316020788006C6
:102260000CD5E1695846DBF8002002F0700291427B
:1022700004D2026822F070020A43026000F06CF897
:102280000E492A682B68C2F3032203F00F038A5C0D
:10229000C95C02F01F0201F01F01D040084A20FA79
:1022A00001F111600749086007480068BDE8F05F68
:1022B000FEF7BCBE002000521844025880E100081E
:1022C000700000246C0000246400002430B500F08D
:1022D00043F80B4A0B490C4B15681468C5F30322ED
:1022E00004F00F048A5C095D02F01F0201F01F0177
:1022F000D040064A20FA01F119601060084630BD4E
:102300001844025880E10008700000246C0000248A
:1023100000B5FFF7DBFF05490968054AC1F3021163
:10232000515C01F01F01C84000BD00001C44025870
:1023300080E1000800B5FFF7C9FF05490968054AB3
:10234000C1F30221515C01F01F01C84000BD000033
:102350001C44025880E10008454970B545480968A9
:10236000434B103B11F0380208D00111082A03D06A
:10237000102A0BD0182A0BD0084670BD19688906A0
:10238000FBD51968C1F3C101C84070BD3A4870BDA2
:102390003749374D18310C1D24350A6809682668FD
:1023A0002D6802F0030406F00102C1F30511C5F324
:1023B000CC0515FB02F200EE102AB8EE400AE9B394
:1023C0002F4ADFED2E0AB7EE001A6CB1DFED2D1AA1
:1023D000012C01D0022C43D002EE101A1068F8EE46
:1023E000422A81EEA22A1EE01C68A40611D51B68B1
:1023F00001EE901A1168C3F3C103F8EE612AD840C8
:1024000001EE900AC1F30800F8EE611A81EEA22AEB
:102410000BE001EE901ADFED1C2A00BFF8EE611A06
:10242000106882EEA12AC0F3080001EE900AF8EECF
:10243000611A40EE201A31EE810A00E015E022EE2A
:10244000000A1068C0F34620401C00EE900AF8EE27
:10245000600A80EE201ABCEEC10A10EE100A70BDB0
:1024600001EE901ADFED092AD8E7002070BD0000C8
:10247000104402580090D00340787D0100000039DC
:10248000304402580024744A0024744C20BCBE4BD3
:102490002DE9F05F04007DD0FF4F2078FE4D183706
:1024A000DFF8F493103DC00748D0D9F80000396830
:1024B00000F03800102815D0182803D101F00300CF
:1024C00002280FD06068B0F5803F12D010B1B0F58F
:1024D000A02F18D0286820F480302860286820F4C5
:1024E000802009E02868800328D560680028D2D0C1
:1024F00024E0286840F480302860606888B1FEF7E6
:1025000059FD064609E0286840F480202860F0E77D
:10251000FEF750FD801B64286FD828688003F7D52C
:102520000CE0FEF747FD064605E000BFFEF742FD62
:10253000801B6428F0D828688003F7D4207841F203
:102540000308D54E0C3E800769D5D9F800003968DC
:1025500010F038000ED0182801D188070AD0E068A2
:1025600090B3296821F0190101432960FEF722FD8B
:10257000824631E02868400702D5E06800288AD00A
:10258000E168286820F0190008432860FEF712FD72
:10259000824607E0DFE000BFFEF70CFDA0EB0A007B
:1025A0000228B9D828684007F6D500BFFEF7FCFC22
:1025B00040451BD82069402812D0316821F47C3175
:1025C00041EA003030602AE018E000BFFEF7F2FC7C
:1025D000A0EB0A0002289FD828684007F6D5E5E757
:1025E000306820F47C3040F40030EBE7207C316828
:1025F00021F0FE4141EA0060E4E70DE1286820F0A7
:1026000001002860FEF7D6FC824605E0FEF7D2FC0A
:10261000A0EB0A0002288DD828684007F6D420785D
:10262000C0065DD5D9F80000DFF86CB2396800F05B
:102630003800ABF1040B082810D0182803D101F0A2
:10264000030001280AD0E0690028286838D040F04B
:1026500080002860FEF7AEFC824623E02868C005B3
:1026600023D5E069802876D11FE0206A202821D078
:10267000316821F0F84141EA8060306030E000BF0D
:1026800094F82010DBF8002022F07C5242EA01612D
:10269000CBF8001024E000BFFEF78CFCA0EB0A0092
:1026A000022898D82868C005F6D5FEF77DFC40457D
:1026B000E6D8DAE7306820F0F84040F08040DCE708
:1026C00020F080002860FEF775FC064605E000BF9C
:1026D000FEF770FC801B02289DD82868C005F7D43F
:1026E0002078000729D56C4861696430002980464C
:1026F000016811D041F001010160FEF75BFC064664
:1027000005E000BFFEF756FC801B0228C9D8D8F8A8
:1027100000008007F6D510E021F001010160FEF70E
:1027200049FC064605E000BFFEF744FC801B02287A
:1027300072D8D8F800008007F6D42078800623D518
:10274000A0690028286810D040F480502860FEF767
:1027500031FC064605E036E1FEF72CFC801B022822
:102760005AD828688004F7D50EE020F480502860FD
:10277000FEF720FC064604E0FEF71CFC801B022846
:102780004AD828688004F7D4207840074FD5DFF86E
:102790000C81D8F8001041F48071C8F80010FEF7E1
:1027A00009FC064605E000BFFEF704FC801B642818
:1027B00032D8D8F80000C005F6D5374EA06860368C
:1027C00001280AD008B1052813D0306820F0010094
:1027D0003060306820F0040002E0306840F0010012
:1027E0003060A06841F2883A90B1FEF7E3FB804682
:1027F0000AE0306840F004003060EEE7FEF7DAFBF4
:10280000A0EB0801514507D830688007F6D50EE0E7
:10281000FEF7D0FB804607E084E000BFFEF7CAFB6E
:10282000A0EB080151457DD830688007F6D4606A76
:10283000B0B3DFF86480D9F8001008F120084FF633
:10284000F87B08F10409C1F3C2010329A8F1040AC5
:1028500069D00228286820F08070286003D0FEF735
:10286000A9FB044684E0FEF7A5FB064605E000BF91
:10287000FEF7A0FB801B022877D828688001F7D4D8
:10288000E26A40F2F331386854F8283F884340EA5E
:1028900002101843386004E01044025800480258FF
:1028A000B5E0217B434622894FF4FE0C208A4FF08D
:1028B000FE474902267D521E401EA1F50071C2F35B
:1028C00008088AB2761E0CEA004042EA0802024377
:1028D000504607EA06610A431A60DAF8002022F03F
:1028E0000102CAF80020D9F80020266A22EA0B0269
:1028F00042EAC602C9F80020DAF80010A26921F005
:102900000C011143CAF800100168E26921F00201CC
:1029100011430160016841F480310160016841F4B4
:10292000003101E021E027E00160016841F48021ED
:102930000160016841F001010160286840F0807089
:102940002860FEF737FB044605E000BFFEF732FBC8
:10295000001B022809D828688001F7D557E000BF7E
:10296000FEF728FB001B022802D90320BDE8F09FD8
:1029700028688001F4D44AE039680128D8F80000BA
:1029800021D0A26A01F0030393421CD1E26AC1F391
:1029900005118A4217D1216BC0F30802491E8A42F1
:1029A00011D1616BC0F34622491E91420BD1A16B3C
:1029B000C0F30642491E914205D1E16BC0F30660A7
:1029C000491E814201D00120D0E7A16C4E46D9F8C2
:1029D0000000C0F3CC00814219D0DAF8000055465F
:1029E00020F00100CAF80000FEF7E4FA4FEA000701
:1029F000FEF7E0FAB842FBD0A26C306820EA0B0088
:102A000040EAC2003060286840F0010028600020E1
:102A1000ACE7000070B504000D4603D094F82C001C
:102A200010B107E0012070BD002084F82D00204681
:102A300000F018F8022084F82C002068211DFDF712
:102A400010FFD4E900022946FDF75CFF044801218C
:102A5000026842F00042026084F82C10002070BD31
:102A600000400052FEF7F4B810B5044690F82C0070
:102A7000022804D094F82C00012801D0012010BDB8
:102A8000022084F82C002068FDF720FF012084F844
:102A90002C00002010BD000070B5044690F82C00FA
:102AA0000D46022804D0012803D0052801D00120BA
:102AB00070BD022084F82C002068FDF710FF286804
:102AC000022805D05FF0010084F82C00002070BDC2
:102AD0000520F9E7401EB0F1807F10B501D3012039
:102AE00010BD4FF0E02460610F21601701F07EFE01
:102AF0000020A0610721216110BD30B590F884103D
:102B0000012918D0012280F884202421C0F88810DF
:102B10000022202401680B680D6823F0005325F083
:102B200001050D60426601680B60C0F8884080F8BE
:102B30008420104630BD022030BD70B5044690F8A8
:102B4000840001281DD0012284F884202420C4F8A8
:102B5000880020680568026822F00102026020688F
:102B6000826822F060620A438260204601F0F6FA31
:102B70002268202100201560C4F8881084F88400A1
:102B800070BD022070BD70B5044690F88400012825
:102B90001DD0012284F884202420C4F888002068F5
:102BA0000568026822F0010202602068826822F053
:102BB00060420A438260204601F0D0FA2268202158
:102BC00000201560C4F8881084F8840070BD0220CD
:102BD00070BD10B5040003D0D4F8880010B107E030
:102BE000012010BD002084F88400204600F026F863
:102BF0002420C4F888002068016821F001010160E8
:102C0000204601F0B1FB0128EBD0A06A10B12046AC
:102C100001F0C6FA2068416821F4904141602068C3
:102C2000816821F02A0181602068016841F001017A
:102C300001602046BDE8104001F016BB10B5B6B0EB
:102C40000446142130A8FDF78FFBC0216846FDF72C
:102C50008BFB1A49206888422DD100201F9001214A
:102C60000446CDE900106846FEF72CFD08B1FDF7DB
:102C7000F6FD1348016841F010010160006800F0A2
:102C8000100035900E481038016841F001010160D4
:102C900000680DF1C00C022100F0010035904FF4E6
:102CA000C06007238CE8130003220648CDE93323D4
:102CB00030A9FEF759F836B010BD000000100140F1
:102CC000F0440258000002582DE9F8430446D0F8B9
:102CD0008800984616460D46202802D00220BDE8FE
:102CE000F883A5B19EB10021C4F890102120C4F84A
:102CF00088001834FEF75EF9814654F8100CA68758
:102D0000E6872027183CB0F5805F02D003E0012061
:102D1000E5E7206910B12E46002510E000260EE000
:102D20008021204601F0F6FCC0B9DEB116F8010B97
:102D300021688862B4F85600401EA4F85600B4F822
:102D400056004B464FF00002CDF800800028E7D136
:102D50004FF04001204601F0DDFC48B1C4F8887016
:102D60000320BCE735F8020B2168C0F30800E0E758
:102D7000C4F888700020B2E7FEE700000D48002389
:102D800010B50D494FF44034026822F00102026090
:102D900004600A4C8A6842630364CA68C26344647C
:102DA00049688163016841F0010101600168C90758
:102DB000FCD110BD0010005250020024E00120039D
:102DC0002DE9F74F203A8046DFF868900025DFF8BC
:102DD00068A002F0FF0B444625E0136800260BFBB9
:102DE00001316F5CF80702D0DAF8002001E0DAF870
:102DF00004202046019900F0D5F8D9F80000641CA1
:102E0000A4B27F088188A4EB0800884205D101980C
:102E10004446401C80B2019003E0761CB6B2082EF6
:102E2000E0D36D1CADB2D9F800201189A942D4D8E5
:102E3000BDE8FE8F54000024500200242DE9F74F16
:102E4000DFF8A0C08146044617780021DCF80400B2
:102E5000038906684D1C03FB05F816F80880B84581
:102E600008D105FB036592F801806D78454501D1D5
:102E70008B4604E04589891C89B28D42EAD8DFF887
:102E800068A00025E04625E0136800260BFB013111
:102E90006F5CF80702D0DAF8002001E0DAF80420CD
:102EA0002046019900F07EF8D8F80400641CA4B212
:102EB0007F088188A4EB0900884205D101984C461F
:102EC000401C80B2019003E0761CB6B2082EE0D31D
:102ED0006D1CADB2D8F804201189A942D4D8BDE840
:102EE000FE8F000054000024500200247FB51E46CF
:102EF000094B05460C46D87C1346324648B107A11B
:102F0000684601F05FFC6A462146284600F00CF84E
:102F10007FBD03A1F4E7000050020024252A6400CD
:102F200025302E2A640000002DE9F0410B4E4FF4AD
:102F3000487715468846044608E041462046FFF794
:102F40003FFF30686D1C8088204484B2BC4202D2AE
:102F50002A78002AF1D1BDE8F08100005400002455
:102F6000F0B50F4E14460F46054615E07F2A09D8E6
:102F700039462846FFF724FF3068641C80882844BF
:102F800085B209E0224639462846FFF757FF7068A8
:102F9000A41C8088284485B22278002AE6D1F0BD9E
:102FA00054000024F0B51C4BA0F2DF1C6FF0180693
:102FB0001C460CFB06FC01EBC1059F6805EB0116E6
:102FC000E568647C01EB4C1100EB461647B190B20A
:102FD000012F0ED0E4B1012C01D125F81100F0BD74
:102FE00024B1012CFBD145F82120F0BD45F8262065
:102FF000F0BDC2F3074244B1012CF9D101EB41010C
:103000006852D868891C4254F0BD06EB4601F7E7C8
:1030100025F81600F0BD00005002002410B586B05F
:1030200014216846FDF7A0F90D48016841F08001C0
:103030000160006840210B4C012200F080000590E7
:10304000002000916946CDE9012003902046FDF75C
:103050008BFE002220464021FDF7A1FF06B010BDE7
:10306000E0440258001C0258F0B58DB03421684687
:10307000FDF77AF94FF4487700244FF4F0760DF11C
:10308000100C0220CDE90047FF210B96CDE9024646
:103090008CE81300420207A805238D07694680E8E3
:1030A000AC008DF8304000228DF831400F488DF88B
:1030B0003240FDF7DBFFFFF7B1FF0D480E4A0D4927
:1030C000447411600121C174002000F08DF8A81132
:1030D00000F016F8601E00F04DF8FFF74FFE0748AD
:1030E00001224021FDF75BFF0DB0F0BDE0000024A0
:1030F000500200242400002454000024001C025824
:103100001B4A002330B5C0F3C4019468022C05D0DB
:10311000032C0CD0042C1AD0506030BD4FF47843EF
:103120004FF4FC6403EA102304EA50100BE0040E91
:1031300001D04FF400434FF4F844651104EA5024E1
:10314000234305EA901003430B43536030BD4FF413
:103150007041F0250B1103EA103401EA1041C0F36D
:103160000313214305EA102001431943516030BD88
:10317000500200241B4A002330B5C0F3C4019468F8
:10318000022C05D0032C0CD0042C1AD0106030BDBA
:103190004FF478434FF4FC6403EA102304EA501020
:1031A0000BE0040E01D04FF400434FF4F8446511D6
:1031B00004EA5024234305EA901003430B431360B1
:1031C00030BD4FF47041F0250B1103EA103401EAD1
:1031D0001041C0F30313214305EA102001431943B2
:1031E000116030BD5002002404484FF040430221DA
:1031F0000022C0E902138174027470475002002457
:103200000C494860808814280FD005DC0C280AD0AF
:10321000102807D1084804E0182808D0202801D138
:103220000648086070470648FBE70648F9E7064885
:10323000F7E70000540000243C000024180000249C
:1032400048000024300000242400002430B587B05A
:1032500014216846FDF788F80E48016841F0040122
:10326000016000684FF400540B4D002200F0040090
:10327000214605902846FDF792FE0021009401208A
:10328000CDE90101284603916946FDF76DFD07B0C0
:1032900030BD0000E0440258000802582DE9FE4FFE
:1032A00081460068882493468D888C2204EBCB17D6
:1032B0008A46C3689421BE46C459C3F30B432B44CA
:1032C00004F470441F04019702EBCB1240F80E4047
:1032D00001EBCB13DAF800709C214FF0AC0C01EB42
:1032E000CB1440F2077102910CEBCB11D9F800C05E
:1032F00098250020CDF800C0A02605EBCB15DCF802
:103300000CC006EBCB16CCF30B4C0CF1010C07EB0D
:103310000C08DDF800C0019F48EA07084CF80E8051
:10332000D9F80070BAF80CC0B846FF68C7F30A07AE
:1033300067444FEA074E58F8027007F4704C48F89B
:1033400002C0D9F800C0DAF80870DCF80C80C8F3C5
:103350000A0808F10108B84448EA0E084CF802804F
:10336000D9F80020D75827F00707D750D9F80070B0
:10337000DAF81020FA509AF831209AF818304FEA0B
:10338000022C9AF83220120442EA0362D9F8003083
:103390001F5918519AF8303043EA0C031343D9F8F7
:1033A00000201351D9F80020535923F0FF03535143
:1033B000D9F80020DAF814305351D9F80020935985
:1033C000029CA3439351D9F80030DAE90724224341
:1033D0009A51D9F8002053585050D9F80020DAF803
:1033E00024005050DAF81000C8B301283AD004285D
:1033F0003AD0022838D0032836D0072834D001200C
:10340000D9F80030B02505EBCB11B42284245D58E7
:1034100002EBCB1205F0E0255D50DAE9003504EB54
:10342000CB14EB1ABAF8285043434543D9F80000AF
:10343000DB1D43EA05434350D9F8000081586FF380
:103440000A018150D9F80000DAF82C108150D9F81F
:103450000000015941F001010151BDE8FE8FFFE775
:103460000420CDE70320CBE70220C9E70F48022262
:103470000D4B002110B50360C0E90112C160C0E925
:103480001112C164016541658165C165FDF776FB77
:1034900008B172B6FEE705480121FDF70BFB0028D5
:1034A00001D072B6FEE710BD001000527800002473
:1034B000F0B587B01C216846FCF756FF154800217F
:1034C000134E042300F1080E202506604FF4C07748
:1034D000416040268EE82A004FF4006C0222C0E9C9
:1034E00005670724D502C0E9071CC0E90951CDE9E9
:1034F000002403266946CDE90462CDE90234069230
:10350000FFF788FA002801D072B6FEE707B0F0BDD9
:10351000404100521C020024294808B5016841F4CA
:1035200080710160016801F480710091016841F4CB
:1035300080610160016801F480610091016841F0DF
:1035400010010160016801F010010091016841F46F
:1035500000710160016801F400710091016841F09F
:1035600080010160016801F080010091016841F073
:1035700040010160016801F040010091016841F0E3
:1035800008010160016801F008010091016841F043
:1035900001010160016801F001010091016841F041
:1035A00020010160016801F020010091016841F0F3
:1035B00004010160006800F00400009008BD0000F4
:1035C000E0440258F0B58DB034216846FCF7CCFEDB
:1035D00025480024234B502100F11C0C4FF4876632
:1035E000282240F21E27C0E9003484604FF45C7347
:1035F000C4604FF402750461446184618CE8EE009C
:1036000080F8344080F8354080F83640FDF758FDAA
:1036100008B172B6FEE74FF448704FF4F07102271C
:103620000497CDE90040CDE90A0107A87A020523F5
:103630004D06CDE9024180E82C00FF260A48CDE97D
:1036400005648DF8304000228DF8314069468DF8D0
:103650003240FDF70BFD002801D072B6FEE70DB039
:10366000F0BD000000100050E000002417480021C9
:1036700010B5154C0C224FF4E1330460C0E9013160
:10368000C160C0E904128161C1610162416281626D
:10369000FFF79FFA08B172B6FEE70C480021FFF76A
:1036A00072FA08B172B6FEE708480021FFF745FA42
:1036B00008B172B6FEE70548FFF71FFA002801D0EF
:1036C00072B6FEE710BD0000001001408801002422
:1036D000FEE7FEE770B586B014216846FCF744FEAD
:1036E0001C48016841F480710160016801F4807137
:1036F0000591016841F48071016000680221164E55
:103700004FF4006500F4807005900020CDE90101C0
:103710006946009503903046FDF726FBEC1069469C
:1037200030460094FDF720FB4FF47A6000F086FAF3
:1037300021463046FDF72EFC012808D029463046A8
:10374000FDF728FC012802D004490120087006B0CA
:1037500070BD0000E0440258002002585C000024C4
:10376000704700002DE9F047454D044689464FF06B
:10377000000A2868C04380070AD0414E283E3068BE
:1037800020F080603060FDF715FC0746B04608E089
:103790000120BDE8F08700BFFDF70CFCC01B02282C
:1037A00067D8D8F800000001F6D4206829684FF4E3
:1037B000FE0721F47C313E0241EA00302860207A85
:1037C000A389B4F804C040022D4D2D495B1E227C14
:1037D000ACF1010C1035091DA0F5007080B2521E2D
:1037E000CCF3080C07EA034340EA0C00184306EA4E
:1037F0000262104328600868626920F0C00010432C
:1038000008600A68A06922F0200202430A60281DAD
:103810000A6822F010020A6002684FF6F873E46941
:103820009A4342EAC40202600868B9F1000F40F00E
:1038300010020A6011D00868B9F1010F11D040F4EC
:1038400000100860D8F80000444640F08060C8F8D6
:103850000000FDF7AFFB05460DE0086840F40020CE
:10386000EFE740F48010ECE7FDF7A4FB401B0228D3
:1038700001D903208DE720680001F5D5504688E77F
:10388000284402582DE9F047454D044689464FF03B
:10389000000A2868C04380070AD0414E283E30689D
:1038A00020F080503060FDF785FB0746B04608E009
:1038B0000120BDE8F08700BFFDF77CFBC01B02289C
:1038C00067D8D8F800008000F6D4208829684FF423
:1038D000FE0721F07C713E0241EA00502860207A08
:1038E000A389B4F804C040022D4D2D495B1E227CF3
:1038F000ACF1010C1835091DA0F5007080B2521E04
:10390000CCF3080C07EA034340EA0C00184306EA2C
:103910000262104328600868626920F44060104326
:1039200008600A68A06922F4007202430A60281D38
:103930000A6822F480720A6002684FF6F873E4693C
:103940009A4342EAC40202600868B9F1000F40F4E9
:1039500080720A6011D00868B9F1010F11D040F0EF
:1039600080700860D8F80000444640F08050C8F8E5
:103970000000FDF71FFB05460DE0086840F48000DD
:10398000EFE740F40000ECE7FDF714FB401B0228D2
:1039900001D903208DE720688000F5D5504688E7DF
:1039A000284402582DE9F8431D4E00241027814673
:1039B000009401254FF4805831684246C1E9005710
:1039C000C1E90254FFF768F80120FDF72FF93168CB
:1039D00002204246C1E90007C1E902544846FFF708
:1039E0005BF8316803204246086008204F60C1E957
:1039F00002044846FFF750F84FF40C70009031680D
:103A00000422C1E90027C1E9025042464846FFF7B7
:103A100043F8484640F20761BDE8F843FFF724B891
:103A2000080000247047FDF7CBBA000070B59CB0C9
:103A30004C216846FCF798FC202113A8FCF794FC65
:103A40000220FDF7BFFC2D4900242D480A6822F012
:103A500001020A600A68026842F440420260026899
:103A600002F440421B9202689204FCD5254A136876
:103A700043F002031360126802F002021B92026814
:103A800042F44042026002680A6842F001020A60A1
:103A9000096801F001011B9101688904FCD50DF151
:103AA000280C022009900521C0228CE80700C303DE
:103AB0000F9008250D9001260E90CDE91054CDE908
:103AC000006368461294FEF7E3FC08B172B6FEE7A5
:103AD00040201A903F210301CDE916500322CDE981
:103AE000180313AB13A883E816000421FEF7C0FAED
:103AF000002801D072B6FEE71CB070BD2C0400583F
:103B000018480258F44402582C48F0B52C4A016871
:103B100041F470010160106800F00F00072804D222
:103B2000106820F00F00C01D106026490020254CB1
:103B300010340B68244D43F001030B6020600B68C8
:103B40002B400B60136803F00F03072B04D9136895
:103B500023F00F03DB1D13601A4C1C4A18341C4B56
:103B6000261D371D2060174C1A4D28343060261D45
:103B70003860371D23603B1D35601C1D3A60251DD4
:103B80002E1D1860331D22602860326018600A689C
:103B90000C4B114C22F4802260330A6018602068BC
:103BA0006FF30F00B0F1005F03D20C490120C1F8A0
:103BB000080143F2D2000A490860F0BD88ED00E038
:103BC00000200052004402587FEDF6EA8002010115
:103BD000000202020000FF010010005C00800051A2
:103BE0000040005210B5144C002210212046FDF771
:103BF000D6F9142000F022F8002220462021FDF7FB
:103C0000CEF9142000F01AF8012220461021FDF709
:103C1000C6F9142000F012F8002220461021FDF70A
:103C2000BEF9012220462021FDF7B9F9BDE8104078
:103C3000142000F003B80000001C0258002208B550
:103C40000DE000BFADF8002005E000BFBDF800109A
:103C5000491CADF80010BDF800100829F6D3401E2D
:103C6000F0D208BDF0B587B014216846FCF77CFBA4
:103C70002C48016841F080010160016801F0800179
:103C80000591016841F080010160016801F0800147
:103C90000591016841F480710160016801F480714F
:103CA0000591016841F480710160006810211E4E89
:103CB000112200F480700590002000916946CDE942
:103CC000012003903046FDF74FF820206946009010
:103CD0003046FDF749F80121144F0191CC023846D6
:103CE000009402916946FDF73FF8E51069463846B1
:103CF0000095FDF739F8012230461021FDF74FF904
:103D0000012230462021FDF74AF90022214638469B
:103D1000FDF745F9012229463846FDF740F907B07D
:103D2000F0BD0000E0440258001C02580020025878
:103D300010B5114C002210212046FDF730F9142057
:103D4000FFF77CFF012220462021FDF728F91420EF
:103D5000FFF774FF012220461021FDF720F91420FF
:103D6000FFF76CFF002220461021FDF718F9BDE88F
:103D700010401420FFF762BF001C02582DE9F041EB
:103D8000154E002580462C4668060122070E304657
:103D90001021FDF704F91420FFF750FF20213046D1
:103DA000FDF7F8F800F0010530463D4300221021F0
:103DB000FDF7F5F81420FFF741FF641CE4B2082C6E
:103DC000E2D3B8F1010F04D0FFF7B2FF2846BDE8F7
:103DD000F081FFF707FFF9E7001C025810B5104CFF
:103DE000012220212046FDF7DAF801222046102189
:103DF000FDF7D5F81420FFF721FF002220462021EF
:103E0000FDF7CDF81420FFF719FF002220461021FE
:103E1000FDF7C5F8BDE810401420FFF70FBF000004
:103E2000001C025810B5114C002210212046FDF74D
:103E3000B6F81420FFF702FF002220462021FDF7EC
:103E4000AEF81420FFF7FAFE012220461021FDF7FC
:103E5000A6F81420FFF7F2FE012220462021FDF7EC
:103E60009EF8BDE810401420FFF7E8BE001C025881
:103E700010B5154C012220212046FDF790F81420A2
:103E8000FFF7DCFE012220461021FDF788F8142000
:103E9000FFF7D4FE20212046FDF77CF800284FF0E4
:103EA00000024FF01001204606D0FDF778F81420EC
:103EB000FFF7C4FE002010BDFDF771F81420FFF7D6
:103EC000BDFE012010BD0000001C025870B5164E4A
:103ED00000240546280601D5012200E000223046D4
:103EE0002021FDF75CF81420FFF7A8FE01223046E0
:103EF0001021FDF754F81420FFF7A0FE00223046F1
:103F00001021FDF74CF8072C04D101223046202166
:103F1000FDF745F86806641C050EE4B2082CD9D3F9
:103F2000BDE87040FFF7A4BF001C025800B585B083
:103F300014216846FCF718FA002001904FF4006144
:103F400002900390034800916946FCF70DFF05B00D
:103F500000BD00000020025800B585B0142168465D
:103F6000FCF702FA01200021C202CDE90020CDE9D0
:103F7000020103486946FCF7F7FE05B000BD0000EA
:103F8000002002581FB500248DF80C40FFF7A2FB5B
:103F9000FFF768FEFCF738FD0B216A4648F2401037
:103FA000FCF708FD012148F2470003AAFCF702FDD7
:103FB0009DF80000392805D01DA000F0F3FB01207A
:103FC00004B010BD1EA0694600F0ECFB9DF8051082
:103FD0009DF8040000EB01211EA000F0E3FB9DF81A
:103FE00007109DF809309DF806009DF8082000EBA9
:103FF000012102EB03221CA000F0D4FB9DF80C1061
:104000001FA000F0CFFB9DF807209DF80600244973
:1040100000EB0220B0F5806F03D0B0F5487F03D0ED
:1040200003E00120087000E00C700020C8E70000E9
:10403000546F756368204572726F720D0A0000003C
:10404000546F7563682049443A204754252E3473D1
:10405000200D0A00B9CCBCFEB0E6B1BEA3BA203038
:1040600058252E34780D0A00B4A5C3FEB7D6B1E6A4
:10407000C2CAA3BA2564202A2025640D0A000000C4
:10408000B4A5C3FEB2CECAFDC5E4D6C3B0E6B1BE88
:10409000A3BA203058252E3278200D0A00000000E7
:1040A0005C00002430B58BB048F24E1500246A46FF
:1040B0002A212846FCF77EFC00212846FCF7D6FC86
:1040C00020499DF8000000F00F0048704878A8B320
:1040D000487805282BD932E0684600EBC40201EB92
:1040E00044009388838152884280174A1278012ABB
:1040F0001BD182899FED152B00EE102A9FED151B19
:10410000B8EE400B20EE020BBCEEC00B10EE102AF6
:104110008281428800EE102AB8EE400B20EE010B9F
:10412000BCEEC00B10EE102A4280641CE4B248784A
:10413000A042D1D8012008700BB030BDFFE70020AD
:10414000F9E70000640200245C0000249A99999920
:104150009999E93FF6285C8FC2F5E83F30B5416E8A
:10416000B9B101680D4B03F108048A688968C2F38C
:104170004262490F5D5C615C2D01B5FBF1F1A0F875
:104180006A10995CA25C0901B1FBF2F1A0F8681019
:1041900030BD0121A0F86A10F8E7000070E10008C6
:1041A00090F82810C90706D00168C36A4A6822F44B
:1041B00000321A434A6090F82810890706D5016832
:1041C000036B4A6822F480321A434A6090F8281040
:1041D000490706D50168436B4A6822F480221A43D6
:1041E0004A6090F82810090706D50168836B4A6871
:1041F00022F400421A434A6090F82810C90606D5F6
:104200000168C36B8A6822F480521A438A6090F86E
:104210002810890606D50168036C8A6822F40052CA
:104220001A438A6090F82810490611D50168436C3A
:104230004A6822F480121A434A60416CB1F5801F2B
:1042400006D10168836C4A6822F4C0021A434A60AE
:1042500090F82810090606D50168C26C486820F459
:1042600000201043486070472DE9F84300250446BC
:10427000C0F89050FCF79EFE8046206820266FF024
:104280007E470068000713D50022434631042046CC
:10429000009700F03FFA58B1216851E8000F20F074
:1042A000800041E80002002AF6D1C4F8886021E0CD
:1042B00020680068400722D5002243464FF4800161
:1042C0002046009700F026FAC8B1206850E8001F89
:1042D00021F4907140E80012002AF6D120680830DD
:1042E00050E8001F21F0010140E80012002AF5D13A
:1042F000C4F88C60032084F88450BDE8F883C4F8C7
:104300008860C4F88C60E5662567002084F88450D6
:10431000F3E7000010B5026852E8001F21F4907125
:1043200042E80013002BF6D10E4B0268083252E827
:10433000001F194042E80014002CF6D1C16E01297B
:1043400008D1026852E8001F21F0100142E8001372
:10435000002BF6D100212022C0F88C20C1664167D5
:1043600010BD0000FEFFFFEF2DE9F043044680681A
:10437000D84E87B0D84B2168D4E90427D4F81CC0A4
:1043800010430A68002547EA0C07384332400243CD
:104390000A602068E268416821F44051114341609D
:1043A0002268A1699A4201D0206A01439768DFF828
:1043B0002CC3CB4ECB4807EA0C070F43976021680C
:1043C000676ACA6A22F00F023A43CA622268B2429E
:1043D0000ED1006800F03800182873D047DCB8B35D
:1043E000082879D010286FD178E028287ED17BE08A
:1043F000BD498A4209D1006800F00700062875D23D
:10440000DFE800F0546A6C6E7072B8498A4209D1D4
:10441000006800F00700062868D2DFE800F0475D7A
:104420005F616365B2498A4209D1006800F0070004
:1044300006285BD2DFE800F03A5052545658AD4996
:104440008A420BD1006800F0070006284ED200E037
:1044500010E0DFE800F02B4143454749A6498A4276
:104460000AD1006800F03800182839D0B7DD2028BC
:10447000BBD13CE001203AE0A0498A4209D1006862
:1044800000F00700062831D2DFE800F01026282AC5
:104490002C2E9B498A420BD1006800F007000628A9
:1044A00024D2DFE800F003191B1D1F2100201EE0AD
:1044B0009A421BD18B48001D006800F007000628B7
:1044C00014D202E00CE007E010E0DFE800F00305A2
:1044D00007090B0D02200AE0042008E0082006E08E
:1044E000102004E0202002E0402000E080208549E8
:1044F000DFF814829A42854A4FF400434FEA2117AD
:104500004FF000064ED110281AD006DC022809D040
:1045100004280BD008287CD10DE020283ED040286C
:1045200077D13DE0FCF778FF014610E06846FCF7E4
:1045300085FF01990BE003A8FDF722F8049906E036
:104540001068800605D51068C0F3C100C14000297D
:1045500070D0606A676838F8102007EB4703B1FB3A
:10456000F2F0834255D8B0EB073F52D800230846FB
:104570001946FBF7AFFE02467808130E120243EA13
:10458000012110183A4671410023FBF7A3FE604A4F
:10459000A0F5407191423CD821688FE03946D8E7B8
:1045A0001946D6E7D4F81CC04FF6EF799C4546D1A2
:1045B000082819D005DC58B101280CD0042875D181
:1045C0000DE0102815D0202835D040286ED134E0D9
:1045D000FDF79EFE01E0FDF7ADFE014610E06846E6
:1045E000FCF72CFF01990BE003A8FCF7C9FF049925
:1045F00006E01068800604D51068C0F3C100C14011
:10460000C1B1636A606838F81330B1FBF3F1490057
:1046100000E04BE001EB5001B1FBF0F0A0F1100124
:10462000494543D84FF6F0732168C0F34202184061
:10463000104343E043E03946E3E71946E1E7082841
:1046400019D005DC58B101280CD004282ED10DE07A
:10465000102815D020282BD0402827D12AE0FDF79C
:1046600057FE01E0FDF766FE014610E06846FCF7E4
:10467000E5FE01990BE003A8FCF782FF049906E030
:104680001068800604D51068C0F3C100C140B1B104
:10469000636A606838F81330B1FBF3F101EB500145
:1046A000B1FBF0F0A0F11001494505D9012506E064
:1046B0003946EDE71946EBE7216880B2C860012072
:1046C000A4F86A00A4F8680028466667A66707B0E1
:1046D000BDE8F083F369FFCF000C0058FFF4FF1131
:1046E000001001405444025800440040004800407B
:1046F000004C004000500040001401400078004091
:10470000007C00400090D00358E1000800440258AB
:10471000FFFC0F002DE9F047994617460E46044668
:10472000089D4FF000082FE0681C2DD0FCF742FCDC
:10473000A0EB0900A84214D89DB120680168490780
:1047400022D5C169C94309070DD408250562204651
:10475000FFF7E0FDC4F89050012084F88480BDE8A4
:10476000F0870320FBE7C069C04300050CD4216833
:104770004FF4006008622046FFF7CCFD2021C4F80A
:10478000901084F88480ECE72068C06936EA000065
:1047900004D00020B842C7D00020E0E70120F9E7AC
:1047A000FEE700000FB4054B10B503A9044A0298B8
:1047B00000F0FEF810BC5DF814FB0000C1500008CA
:1047C000740000240FB4084B10B504A902AA039882
:1047D00000F0EEF8044602A9002000F06CFC204630
:1047E00010BC5DF814FB0000B75000080907002852
:1047F0004FEA116104DB00F1E02080F800147047FB
:1048000000F00F0000F1E02080F8141D704702E076
:1048100008C8121F08C1002AFAD17047704700204B
:1048200001E001C1121F002AFBD170472DE9FF5F93
:1048300082B00021DDE90430020DDDF840B0034311
:1048400018D044F61050A2F2FF32424315141198CA
:1048500001281FD0A5EB0B00401C5FEA000A4FF0B7
:1048600000064E4FDFF83891B046504615D5CAF1D4
:10487000000413E0119801244AA3012801D16FEA32
:104880000B010298119AC0E90031C0E9024206B05A
:10489000BDE8F09FCBF10000DFE704460021404A6D
:1048A000491842EB0450CDE9001012E0E00707D0B0
:1048B00032463B4640464946FBF73DFE8046894628
:1048C00032463B4610461946FBF735FE06460F4674
:1048D0006410002CEAD1DDE90401DDE90023BAF11E
:1048E000000F06DAFBF727FE42464B46FBF723FE96
:1048F00005E0FBF792FE42464B46FBF78EFE044670
:104900000E460022284BFBF70FFF03D84FF0FF3075
:10491000014607E00022254B20463146FBF764FDA7
:10492000FBF7EAFE102409E0002C0ADB0A22002330
:10493000FBF7D0FC039B30321A55641E50EA01028B
:10494000F2D1641C039AC4F111031444119A012A90
:1049500003D0012208430DD10AE0084304D000200F
:104960004FF0110B119072E7A3EB0B056D1E0DE0DC
:104970005B4504DD4FF0000205F1010504E003DAB8
:104980004FF00002A5F10105002AECD00298119920
:10499000C0E90231C0E9004579E700000000144099
:1049A0000000F03F300000000000F0430000E03F56
:1049B0002DE9FF4F95B09A46884606460025EEE160
:1049C000252877D100242746F94A0121039400E0E5
:1049D000044316F8013F203B01FA03F01042F7D1DF
:1049E00030782A2811D06FF02F033078A0F13002F0
:1049F000092A16D8039A44F0020402EB820203EB60
:104A000042021044761C0390EFE758F8042B0392FF
:104A1000002A03DA504244F40054039044F00204A4
:104A2000761C30782E2816D116F8010F44F00404B5
:104A30002A280DD06FF02F023078A0F13003092B17
:104A400009D807EB870302EB4303C718761CF3E78B
:104A500058F8047B761C30786C280FD006DC4C2884
:104A600017D068280DD06A2814D104E0742810D01B
:104A70007A280FD10DE044F400140AE044F48014C5
:104A800001E044F440147278824202D104F58014AB
:104A9000761C761C307866280BD013DC582877D02B
:104AA00009DC002875D04528F6D04628F4D04728E0
:104AB0001AD193E118E0632835D0642879D06528AD
:104AC00012D18BE1702873D008DC6728F1D06928F7
:104AD0006FD06E280DD06F2806D1ACE073282CD093
:104AE000752874D0782853D05246179990476D1C7A
:104AF00054E1C4F30250022809D003280DD0D8F89D
:104B0000001004280DD00D6008F1040846E1D8F823
:104B10000010EA17C1E90052F6E7D8F800100D803E
:104B2000F2E70D70F0E718F8041B8DF80010002074
:104B30008DF80100EB46012003E058F804BB4FF06C
:104B4000FF3061074FF0000102D40DE009F10101CF
:104B50008946B9420FDA8145F8DB1BF809100029B4
:104B6000F4D108E009F1010189468142FADB1BF822
:104B700009100029F6D103985346A0EB09072146F6
:104B80003846179A00F080FA284400EB090507E040
:104B900044E008E10DE01BF8010B524617999047DD
:104BA000B9F10109F7D2534621463846179AF2E087
:104BB00039E00A21C4F302524FF0000B0091022A9F
:104BC00006D058F8040BC117032A09D00AE023E0E5
:104BD00008F1070020F00702F2E80201904605E024
:104BE00000B2C117042A01D140B2C117002906DA68
:104BF0000A460021404261EB02012D2202E022051B
:104C000004D52B228DF80420012203E0E20701D015
:104C10002022F7E7914657E00A2100E010214FF0EB
:104C2000000B00910BE010214FF0000B44F0040446
:104C30000827009103E008204FF0000B0090C4F318
:104C40000252022A05D058F8040B0021032A08D08A
:104C500008E008F1070020F00702F2E802019046A0
:104C600003E080B2042A00D1C0B24FF0000922074D
:104C70002AD53278702A07D0DDF800C08CF0100CED
:104C80005CEA0B0C05D00EE040228DF804200122D6
:104C900008E050EA010306D030238DF804308DF887
:104CA000052002229146009B83F0080353EA0B0380
:104CB0000AD150EA010201D1620705D530228DF8F0
:104CC00004204FF001097F1E3278582A04D039A2FF
:104CD0000C920CAA02920BE03BA2F9E75B46009A09
:104CE000FBF7F8FA0C9B9B5C029A521E029213701F
:104CF00050EA0102F2D1029804A9081A00F1200B2F
:104D0000600702D524F4803400E001275F4502DD0E
:104D1000A7EB0B0000E0002000EB0B0100900398D4
:104D20004944401A0390E00306D453462146179A9B
:104D3000039800F0A9F90544002706E001A85246AF
:104D4000C05D179990476D1C7F1C4F45F6DBE00353
:104D50000CD553462146179A039800F095F905445F
:104D600004E030205246179990476D1C0099481E68
:104D700000900029F5DC08E002980299524600787C
:104D8000491C0291179990476D1CBBF10001ABF1D2
:104D9000010BF1DC5BE100F065F90544761C30782D
:104DA00000287FF40DAE19B02846BDE8F08F000052
:104DB00009280100303132333435363738396162F1
:104DC00063646566000000003031323334353637B5
:104DD000383941424344454600000000600700D492
:104DE000062708F1070020F00700F0E802238046BC
:104DF00003F0004C5FEA0C0001D097A009E0200509
:104E000001D596A005E0E00701D095A001E0AFF242
:104E10004C001390307823F0004365280CD006DC5A
:104E2000452809D046281DD047287FD13BE0662879
:104E300018D067287AD136E00021112F01DB11202C
:104E400000E0781CCDE9000104A90CA8FFF7EEFCF6
:104E5000DDE90D010C9A4FF0000B07F101091092EA
:104E600000914EE04FF000400097CDE9011004A9F9
:104E70000CA8FFF7DBFCDDE90D020C9B0F994FF04E
:104E8000000B91461093009211B9791C00EB0109B7
:104E9000B7EB090003D4C0F1FF3B07F10109A9EB0F
:104EA0000700019042E0012F00DA01270021112FB5
:104EB00001DD112000E03846CDE9000104A90CA86D
:104EC000FFF7B4FCDDE90D010C9A00914FF0000BE7
:104ED000B946109221070FD4009A4A4503DA914649
:104EE00001E0A9F10109B9F1010F05DD109AA9F15D
:104EF0000101515C3029F4D0B84202DA10F1040FFC
:104F000003DA0121CDE9011010E0002803DC83441D
:104F1000A9EB000102E0411C494500DD8946A0EBF8
:104F20000B00401C01904FF000400290200705D478
:104F30000198484502DB4FF0FF30019000208DF8CA
:104F40004B0002980DF14B07B0F1004F25D0022025
:104F50000C902B200D90029800280CDA4042029011
:104F60002D200D9007E00A210298FBF708FA303156
:104F7000029007F8011D0C99481E0C900029F2DCE4
:104F800002980028EFD1791E0D980870307800F053
:104F9000200040F0450007F8020D11A8C01BC01DFD
:104FA00002901398007800B1012000EB09010198EC
:104FB00001EBE071029801440398401A401E0390EF
:104FC000E00306D453462146179A039800F05CF894
:104FD00005441398007818B15246179990476D1CF4
:104FE000E00323D553462146179A039800F04CF866
:104FF00005441BE0BBF1000F07DB0098584504DDBA
:105000001098179910F80B0001E0179930205246BC
:10501000904701980BF1010B401E05F1010501902D
:1050200004D12E205246179990476D1CB9F100010A
:10503000A9F10109DEDC05E017F8010B52461799CA
:1050400090476D1C0299481E02900029F4DC5346DB
:105050002146179A03989EE62D0000002B000000C1
:10506000200000002DE9F041044600251E461746A9
:10507000880404D405E039462020B0476D1C641E26
:10508000F9D52846BDE8F0812DE9F0410446002518
:105090001E469046C80301D5302700E0202788042B
:1050A00004D505E041463846B0476D1C641EF9D56D
:1050B0002846BDE8F0810A68531C0B6010707047E9
:1050C00013B50448642301226946FDF7FDFD0098ED
:1050D0001CBD0000880100241FB500240094019429
:1050E00002940394FCF70EF901208DF80C4017226E
:1050F0008DF808208DF8094003238DF80D404FF0FE
:1051000040418DF800008DF80A408DF80E008DF8B2
:10511000014001918DF80B308DF80F006846FCF7C7
:10512000C3F80420FCF7FCF86C490868800311D42C
:10513000BFF34F8FBFF36F8F69480460BFF34F8F8A
:10514000BFF36F8F086840F400300860BFF34F8FE3
:10515000BFF36F8F0868C00323D4604870300460C9
:10516000BFF34F8F001F43F6FF7400685C4D10358E
:10517000C0F34E32C0F3C90304EA4216184600BF1A
:1051800046EA80772F60401EFAD2521EF4D2BFF357
:105190004F8F086840F480300860BFF34F8FBFF333
:1051A0006F8FFBF715FFFEF741FCFEF7B5F9FEF731
:1051B0005DFAFEF77DF9FEF759F9FEF703FAFEF7FF
:1051C00045F84848FEF7EEFBFDF74EFFFEF7DAFE26
:1051D0004548FDF7CFFF4548FDF792FFFDF7CEFDAF
:1051E0004348FEF70DF814212A2042A2FDF7B8FE2D
:1051F00046212A2043A2FDF7B3FE78212A2048A2A7
:10520000FDF7AEFEAA212C204AA2FDF78DFEDC217F
:105210002C204CA2FDF788FE4FF487752C202946E0
:105220004CA2FDF781FE4FF4A0762C2031464DA212
:10523000FDF77AFE4FF4B9772C2039464DA2FDF7E1
:1052400073FE5048FDF796FF4F4C00BFFEF72AFF54
:10525000207801283DD162880423AA216E20FDF721
:1052600045FEA2894FF4827804234046AA21FDF727
:105270003DFEA2880423DC216E20FDF737FEE28983
:105280000423DC214046FDF731FEE28804236E2032
:105290002946FDF72BFE228A042329464046FDF7C6
:1052A00025FE228904236E203146FDF71FFE628A07
:1052B000042331464046FDF719FE628904236E201F
:1052C0003946FDF713FEA28A042339464046FDF70E
:1052D0000DFE1420FBF7AAFCB8E7000014ED00E077
:1052E00050EF00E01C020024333333FFF8EDB9FF28
:1052F0000C000024B5E7C8DDB4A5C3FEB2E2CAD4F1
:1053000000000000BACBD0C4B0E5D0CDBAC5A3BA76
:10531000464B3735304D362D584248360000000098
:10532000C6C1C4BBB7D6B1E6C2CAA3BA3830302AA8
:105330003438300058313A202020202020205931A4
:105340003A00000058323A202020202020205932F4
:105350003A00000058333A202020202020205933E2
:105360003A00000058343A202020202020205934D0
:105370003A00000058353A202020202020205935BE
:105380003A0000000000FFFF64020024000000005B
:10539000000000000000000000000000000000000D
:1053A00000C0000000C0000000C00000FCFFFF1FA4
:1053B000FCFFFF1F0CC000180CC000180CC0001828
:1053C0000CC00018FCFFFF1FFCFFFF1F0CC00018E3
:1053D0000CC000180CC000180CC00018FCFFFF1F08
:1053E000FCFFFF1F0CC000800CC0008000C00080CC
:1053F00000C000C000C001C00080FFFF0000FF3FF0
:10540000000000000000000000000000B5E7000000
:10541000000000000000000000000000000000008C
:10542000000000000000000000000000000000007C
:10543000000000000000000000000000000000006C
:10544000000000000000000000000000000000005C
:10545000000000000000000000000000000000004C
:10546000000000000000000000000000000000003C
:10547000000000000000000000000000000000002C
:10548000000000000000000000000000000000001C
:10549000000000000000000000000000000000000C
:1054A0000080000000C0010000800300FCFFFF7FBF
:1054B000FCFFFF7F0C0000600C183060003EF8001D
:1054C000800FE007F083031FFCC0077C18F00C304E
:1054D000003C78000007C001E001001FFCFFFFFF57
:1054E000DFFFFF67C6000006C0000006C000000620
:1054F000C0000006C0FFFF07C0FFFF07C000000696
:10550000000000000000000000000000C8DD0000F6
:10551000000000000000000000000000000000008B
:10552000000000000000000000000000000000007B
:10553000000000000000000000000000000000006B
:10554000000000000000000000000000000000005B
:10555000000000000000000000000000000000004B
:10556000000000000000000000000000000000003B
:10557000000000000000000000000000000000002B
:10558000000000000000000000000000000000001B
:10559000000000000000000000000000000000000B
:1055A00080010003C0000003E03F00033018000347
:1055B0001C0C00030E06FCFFFEFFFCFF0CC30CC31B
:1055C0000CC30CC30CC30CC30CC30CC3FCFF0CC337
:1055D0000CC30CC30CC3FCFF0CC3FCFFFCFF0C038F
:1055E0000CC300030CC300230CC300630CC300C333
:1055F00006C300FF06C3FEFF07FEFE80027E00001A
:10560000000000000000000000000000B4A5000041
:10561000000000000000000000000000000000008A
:10562000000000000000000000000000000000007A
:10563000000000000000000000000000000000006A
:10564000000000000000000000000000000000005A
:10565000000000000000000000000000000000004A
:10566000000000000000000000000000000000003A
:10567000000000000000000000000000000000002A
:10568000000000000000000000000000000000001A
:10569000000000000000000000000000000000000A
:1056A000600003036000030360F8FFFF60F8FFFF82
:1056B00060000303FE070000FEE7FF3F60E0FF3FDE
:1056C0006060003060E0FF3F60E0FF3FE067003077
:1056D000F86700307EE0FF3F66E0FF3F60603030FB
:1056E0006000300060FCFFFF60FCFFFF60007C009A
:1056F0006000CE0160E0071F7EFE00FC3E1C00E063
:10570000000000000000000000000000C3FE0000D8
:105710000000000000000000000000000000000089
:105720000000000000000000000000000000000079
:105730000000000000000000000000000000000069
:105740000000000000000000000000000000000059
:105750000000000000000000000000000000000049
:105760000000000000000000000000000000000039
:105770000000000000000000000000000000000029
:105780000000000000000000000000000000000019
:105790000000000000000000000000000000000009
:1057A000000000000C0000C01EFE1FC078FE1FC6D7
:1057B000F00618C6600618C600C618C602C618C687
:1057C0000EC618C61CC618C638C618C610C618C6D7
:1057D00000C618C600C618C610C618C630C618C6F9
:1057E000186618C6186000C618F001C00CB807C0CB
:1057F0000C1E0EC08E0F38C0C60330FEC000007EE7
:10580000000000000000000000000000B2E2000004
:105810000000000000000000000000000000000088
:105820000000000000000000000000000000000078
:105830000000000000000000000000000000000068
:105840000000000000000000000000000000000058
:105850000000000000000000000000000000000048
:105860000000000000000000000000000000000038
:105870000000000000000000000000000000000028
:105880000000000000000000000000000000000018
:105890000000000000000000000000000000000008
:1058A0000000C0000800C00C3C00C07C7000C0308C
:1058B000E000C000C0FCFFFF00FCFFFF0000C000D4
:1058C0003E00C0003E00C0003000C00030FCDF00E1
:1058D00030FC9F0130808101308081013080810166
:1058E0003084810130878183B0870183F0813987DB
:1058F000F0E03F8678FE07CE101C00FC0000007030
:10590000000000000000000000000000CAD40000F9
:105910000000000000000000000000000000000087
:105920000000000000000000000000000000000077
:105930000000000000000000000000000000000067
:105940000000000000000000000000000000000057
:105950000000000000000000000000000000000047
:105960000000000000000000000000000000000037
:105970000000000000000000000000000000000027
:105980000000000000000000000000000000000017
:105990000000000000000000000000000000000007
:1059A00000002000600070006000E0006000C000A7
:1059B00060F0FFFFFFF7FFFFFF07180060000C100B
:1059C000700003387080011E70C1FF0FF8F3FF876D
:1059D00068EFC1C16C04F0F06600783867001E1CE7
:1059E0006380070F60E08303607CE00F6018783C01
:1059F00060001F7860E007F060F801C06030008050
:105A0000000000000000000000000000BACB000011
:105A10000000000000000000000000000000000086
:105A20000000000000000000000000000000000076
:105A30000000000000000000000000000000000066
:105A40000000000000000000000000000000000056
:105A50000000000000000000000000000000000046
:105A60000000000000000000000000000000000036
:105A70000000000000000000000000000000000026
:105A80000000000000000000000000000000000016
:105A90000000000000000000000000000000000006
:105AA00000000000000001000000030000000600EC
:105AB00000000E0000001C00000C3800000C100854
:105AC000600C001C700C0038300C0030300C006092
:105AD000380C00E0180C00C01C0C00800C0C00807E
