:020000040800F2
:10000000C00D0024B102000833420008B5280008E2
:100010003142000837080008394F0008000000008E
:10002000000000000000000000000000374700084A
:100030003908000800000000354200083947000870
:10004000CB020008CB020008CB020008CB0200085C
:10005000CB020008CB020008CB020008CB0200084C
:10006000CB020008CB020008CB020008CB0200083C
:10007000CB020008CB020008CB020008CB0200082C
:10008000CB020008CB020008CB020008CB0200081C
:10009000CB020008CB020008CB020008CB0200080C
:1000A000CB020008CB020008CB020008CB020008FC
:1000B000CB020008CB020008CB020008CB020008EC
:1000C000CB020008CB020008CB020008CB020008DC
:1000D000CB020008CB020008CB020008CB020008CC
:1000E000CB020008CB02000800000000CB02000891
:1000F000CB020008CB020008CB020008CB020008AC
:10010000CB020008CB020008CB020008CB0200089B
:10011000CB020008CB020008CB020008CB0200088B
:10012000CB020008CB020008CB020008CB0200087B
:10013000CB020008CB020008CB020008CB0200086B
:1001400000000000000000000000000000000000AF
:10015000CB020008CB020008CB020008CB0200084B
:10016000CB020008CB020008CB020008CB0200083B
:10017000CB020008CB020008CB020008CB0200082B
:10018000CB020008CB020008CB020008CB0200081B
:10019000CB020008CB020008CB020008CB0200080B
:1001A000CB020008CB020008CB020008CB020008FB
:1001B000CB020008CB020008CB020008CB020008EB
:1001C000CB020008CB020008CB020008CB020008DB
:1001D000CB020008CB020008CB020008CB020008CB
:1001E000CB020008CB020008CB020008CB020008BB
:1001F000CB020008CB020008CB020008CB020008AB
:10020000CB020008CB020008CB020008CB0200089A
:10021000CB020008CB020008CB020008CB0200088A
:10022000CB020008CB020008CB020008000000004F
:10023000CB020008CB02000800000000CB0200083F
:10024000CB020008CB020008CB020008CB0200085A
:10025000CB020008CB020008CB020008CB0200084A
:10026000CB020008CB020008CB020008CB0200083A
:10027000CB020008CB020008CB02000800000000FF
:10028000CB020008CB020008CB02000800000000EF
:1002900000000000CB020008DFF810D000F04AFA9E
:1002A0000048004739580008AFF30080C00D002413
:1002B0000648804706480047FEE7FEE7FEE7FEE700
:1002C000FEE7FEE7FEE7FEE7FEE7FEE71948000867
:1002D000990200082DE9F05F0546002092469B46F2
:1002E00088460646814640241BE02846414647464C
:1002F000224600F057F853465A46C01A914110D38F
:1003000011461846224600F03EF82D1A67EB010808
:100310004F4622460120002100F035F817EB000976
:100320004E41201EA4F10104DFDC484631462A4636
:100330004346BDE8F09FD2B201E000F8012B491E10
:10034000FBD270470022F6E710B513460A46044672
:100350001946FFF7F0FF204610BD30B50B460146A9
:1003600000202022012409E021FA02F59D4205D354
:1003700003FA02F5491B04FA02F52844151EA2F1FE
:100380000102F1DC30BD202A04DB203A00FA02F140
:10039000002070479140C2F1200320FA03F3194373
:1003A00090407047202A04DB203A21FA02F0002115
:1003B000704721FA02F3D040C2F120029140084375
:1003C000194670472DE9FE4F804681EA0300C00FB1
:1003D0000C46009021F0004123F00045B8EB0200EC
:1003E000A94105D24046214690461C460B4602468E
:1003F00023F00040104347D0270DC7F30A00C3F392
:100400000A510290401A019040286BDAC3F313009E
:1004100040F4801B0098924620B10023D2EB030ADF
:1004200063EB0B0B01985946C0F140025046FFF7B1
:10043000AAFF06460D4650465946019A00F08CF92F
:1004400010EB08006141002487EA115284EAE77347
:100450001A4340D0009A62B3019A012A4FEA075228
:1004600015DC001B61EB02014FF0004202EA07526B
:10047000CDE90042001C41F5801132462B4600F0C8
:100480008CF903B0BDE8F08F40462146F9E7001B28
:1004900061EB0201001C41F5801300185B4120183C
:1004A000A2F5001747EB030140EAD570B6196D417C
:1004B00011E06D084FEA360645EAC0754FEA07526B
:1004C000001B61EB0201001C41F5801149084FEA55
:1004D00030000019514132462B4603B0BDE8F04FC1
:1004E00000F04CB90098012240000023D0EB02023A
:1004F00063EBE073009821464FEAE074B8EB00002C
:1005000061EB0401E9E783F000435BE781F0004120
:1005100058E72DE9FE4F81EA030404F0004421F07E
:10052000004100944FF0000B23F0004350EA010417
:100530005ED052EA03045BD0C3F30A54C1F30A55F8
:100540002C44A4F2F3340194A0FB0254C1F3130130
:1005500041F48011C3F3130343F4801301FB0244FD
:1005600000FB034E840A970A44EA815447EA835702
:10057000A4FB076802958D0A05FB07854FEA932CBB
:1005800004FB0C542705029D4FEA065847EA16372C
:10059000B5EB08056EEB070C870E920E47EA811744
:1005A00042EA8312A7FB0201B6EB0B0164EB0004E5
:1005B0002B0D43EA0C335E1844EB1C50DA465146CF
:1005C000E7FB0201C5F313044FEA0B3343EA14536C
:1005D0004FEA0432019C43EA0603A4F10C0402949E
:1005E000009CCDE900B400F0D8F803B0BDE8F08F6E
:1005F00000200146F9E72DE9F04D81EA030404F0FB
:10060000004B21F0004514464FF0000A23F0004152
:1006100050EA050220D054EA01021DD0C5F30A5762
:100620000246C5F31303C1F31300C1F30A5640F4A5
:10063000801543F48013A7EB0608101BD64608F27A
:10064000FD3873EB050002D308F1010801E09218B0
:100650005B41B8F1000F03DA00200146BDE8F08DE0
:1006600000204FF48011064684460EE0171B73EB02
:10067000050705D3121B63EB050306434CEA010C87
:1006800049084FEA300092185B4150EA0107EDD16A
:1006900052EA030012D082EA040083EA050108430B
:1006A00005D0101BAB4106D20122002306E0002238
:1006B0004FF0004302E06FF0010253101AEB060006
:1006C0004CEB085110EB0A0041EB0B01BDE8F04D7B
:1006D00000F054B8C1F30A52C1F3130140F2FF33E2
:1006E00041F480119A4202DA00200146704740F23C
:1006F00033439A42A2F2334202DC5242FFF752BE27
:10070000FFF741BE30B5041E71F1000404DB4FF069
:100710000044404264EB0101141E73F1000405DB48
:100720001C464FF00043524263EB0403994208BF5A
:10073000904230BD064C074D06E0E06840F00103F2
:1007400094E8070098471034AC42F6D3FFF7A8FDB1
:10075000E0CF000800D00008202A06DBCB17203AA3
:1007600041FA02F043EAE07306E041FA02F3D040B6
:10077000C2F12002914008431946704710B5141E7B
:1007800073F1000408DA401C41F1000192185B414A
:100790001A4301D120F0010010BD2DE9F04D924621
:1007A0009B4611B1B1FA81F202E0B0FA80F2203238
:1007B0009046FFF7E8FD04460F4640EA0A0041EA8A
:1007C0000B0153465A46084313D0114653EA010021
:1007D00019D0C8F140025046FFF7E4FD05460E4629
:1007E000504659464246FFF7CEFD084305D001204A
:1007F00004E020463946BDE8F08D0020054346EA76
:10080000E0762C4337430A986305E40AA0EB08001E
:100810000022FD0A44EA47540A3002D5002001466E
:10082000E9E7010510196941DDE908450019694149
:10083000BDE8F04DA2E7FEE7704772B6FEE70000A4
:1008400070B5044600F038F90546601C02D0044833
:100850000078044400F030F9401BA042FAD370BD88
:10086000800000242DE9F84F03247D4D00234FF034
:1008700001094FF0B04B4FF00F0AE9E009FA03F716
:100880003A4076D00E7906F00306012E01D0022EF2
:1008900018D1D0F808C04FEA430ECE6804FA0EF81B
:1008A0002CEA080C06FA0EF646EA0C068660D0F82A
:1008B00004C00E792CEA070CC6F300169E4046EAE7
:1008C0000C0646600E79F643B6070BD0C6684FEAB1
:1008D00043088F6804FA08FC26EA0C0607FA08F7B2
:1008E0003743C7600E7906F00306022E12D1DE08E8
:1008F0000F694FEA437C00EB8606B646366A4FEA3C
:10090000DC6C0AFA0CF807FA0CF726EA08063743FB
:10091000CEF820700F7906684FEA430807F0030706
:1009200004FA08FC07FA08F726EA0C0637430760C2
:100930004E6816F4403F1CD04A4E376847F0020715
:10094000376036689F0706F00206009623F003061C
:1009500006F1B046B6463F0FD6F80864DFF80881C6
:100960000AFA07FC404526EA0C0603D14FF0000CBA
:1009700041E06CE0DFF8F4C0604502D14FF0010CBB
:1009800039E0DFF8ECC0604502D14FF0020C32E0F4
:10099000DFF8E0C0604502D14FF0030C2BE0DFF838
:1009A000D8C0604502D14FF0040C24E0DFF8CCC081
:1009B000604502D14FF0050C1DE0DFF8C4C0604572
:1009C00002D14FF0060C16E0DFF8B8C0604502D146
:1009D0004FF0070C0FE0DFF8B0C0604502D14FF0D8
:1009E000080C08E0DFF8A4C0604502D14FF0090C04
:1009F00001E04FF00A0C0CFA07FC4CEA060CCEF8AA
:100A000008C44F68DBF80060FF0226EA020600D542
:100A100016435F46CBF80060D1F804C0DBF80460F1
:100A20005FEA8C2C26EA020600D516437E606E68CB
:100A30004F6826EA0206BF0300D516436E602E6893
:100A40004F6826EA0206FF0300D516432E605B1CA2
:100A50000A6832FA03F67FF411AFBDE8F88F0000A0
:100A600080000058F4440258000002580004025864
:100A700000080258000C02580010025800140258D6
:100A800000180258001C0258002002580024025886
:100A9000426921EA02030A4043EA02418161704748
:100AA0000AB1816170470904FBE700000148006852
:100AB000000C70470010005C01488068704700001F
:100AC00080000024024881680278114481607047E8
:100AD00080000024032010B500F078F801F052F8EF
:100AE0000F4A104914681368C4F3032203F00F037C
:100AF0008A5CC95C02F01F0201F01F01D0400A4A63
:100B000020FA01F11160094908600F2000F010F887
:100B100008B1012010BD00F02BF8002010BD00002E
:100B200018440258D0CF0008900000248C00002404
:100B300070B50D4D04462878A0B14FF47A71B1FB21
:100B4000F0F00A490968B1FBF0F001F0B8FD48B9CE
:100B5000102C07D200222146501E00F017F800206A
:100B60006C6070BD012070BD800000248C000024EA
:100B7000054808B5016841F002010160006800F015
:100B80000200009008BD0000F44402580E4BF0B47F
:100B90001B680D46C3F30223C3F10706042E00D9D8
:100BA0000426191D072901D2002300E0DB1E0124C1
:100BB00004FA06F19C40491E2940641E99401440E5
:100BC0002143F0BC04F0CEB90CED00E0064900F082
:100BD000070210B54FF6FF040868044B204040EAB6
:100BE00002201843086010BD0CED00E00000FA057B
:100BF000134970B50A68D243520705D5096801F058
:100C00000701814213D118E00A6822F0070202436B
:100C10000A60FFF751FF0A4D4FF47A760446083D0B
:100C200007E000BFFFF748FF001BB04201D90120D9
:100C300070BD2868C0438004F4D4002070BD00005B
:100C40000C48025810B500F057FF05490968054ADD
:100C5000C1F30211515C01F01F01C84010BD00003A
:100C600020440258D0CF0008494930B5484C0B1DEC
:100C70000A68143409681D68246802F00303C5F388
:100C80000012C1F30531C4F3CC04002914FB02F2B5
:100C900000EE102AF8EE400A75D03F4A9FED3D1A4B
:100CA000B7EE000A6BB1DFED3D1A012B01D0022B2C
:100CB00064D002EE101A1168F8EE422A81EEA22AE0
:100CC00021E0334C283C23689B0612D5344B246822
:100CD00001EE901A1168C4F3C104F8EE612AE340F2
:100CE00001EE903AC1F30801F8EE611A81EEA22AF2
:100CF0000BE001EE901ADFED2B2A00BFF8EE611A2F
:100D0000116882EEA12AC1F3080101EE901A116860
:100D1000F8EE611A40EE811A71EE800A62EE200A46
:100D2000C1F3462101EE101AB8EE411A31EE001A55
:100D3000C0EE811ABCEEE11A80ED001A1168C1F311
:100D4000064101EE101AB8EE411A31EE001AC0EE5B
:100D5000811ABCEEE11A80ED011A1168C1F3066137
:100D600001EE101AB8EE411A31EE000A80EE801A38
:100D7000BCEEC10A80ED020A30BD04E001EE901A1B
:100D8000DFED092ABAE70021016041608160F3E7E5
:100D90002844025800000039384402580024744A9C
:100DA0000090D0030024744C20BCBE4B494930B5A0
:100DB000484C0B1D0A681C3409681D68246802F041
:100DC0000303C5F30022C1F30551C4F3CC04002989
:100DD00014FB02F200EE102AF8EE400A75D03F4AEA
:100DE0009FED3D1AB7EE000A6BB1DFED3D1A012B06
:100DF00001D0022B64D002EE101A1168F8EE422ADC
:100E000081EEA22A21E0334C283C23689B0612D5B0
:100E1000344B246801EE901A1168C4F3C104F8EE53
:100E2000612AE34001EE903AC1F30801F8EE611A3D
:100E300081EEA22A0BE001EE901ADFED2B2A00BF13
:100E4000F8EE611A116882EEA12AC1F3080101EEE1
:100E5000901A1168F8EE611A40EE811A71EE800A5C
:100E600062EE200AC1F3462101EE101AB8EE411AD3
:100E700031EE001AC0EE811ABCEEE11A80ED001AC4
:100E80001168C1F3064101EE101AB8EE411A31EEB5
:100E9000001AC0EE811ABCEEE11A80ED011A116849
:100EA000C1F3066101EE101AB8EE411A31EE000AE4
:100EB00080EE801ABCEEC10A80ED020A30BD04E06B
:100EC00001EE901ADFED092ABAE7002101604160C6
:100ED0008160F3E72844025800000039404402587A
:100EE0000024744A0090D0030024744C20BCBE4BF4
:100EF0002DE9FE4F0546DFF8E48350F8081B002477
:100F0000F64FC943019005F12800264608F1240850
:100F1000009008011DD4A86E50B1B0F5801F0CD010
:100F2000B0F5001F0ED0B0F5401F1ED001240FE019
:100F3000386840F40030386017E00198022103F06F
:100F40007BF903E00098022103F006FA04000CD0BC
:100F500026462888C043C00523D4A86D05281ED284
:100F6000DFE800F00C11161B1B00AA6ED8F8001069
:100F700021F440111143C8F80010EAE7386840F442
:100F80000030386009E00198002103F055F903E0D2
:100F90000098002103F0E0F9044674B100E0012458
:100FA00026462888C043800528D4E86D80281ED0B6
:100FB0000CDC90B140280ED114E0AA6DD8F80010D6
:100FC00021F007011143C8F80010EAE7C02813D048
:100FD000B0F5807F10D001240FE0386840F4003075
:100FE000386009E00198002103F026F903E0009839
:100FF000002103F0B1F904469CB126462888DFF8A9
:10100000DC92C04309F12C0940052CD4D5F8A80086
:10101000B0F5800F20D00DDCA0B1B0F5001F0FD1CE
:1010200015E0EA6DD8F8001021F4E0711143C8F81A
:101030000010E3E7B0F5C00F13D0B0F5000F10D0EB
:1010400001240FE0386840F40030386009E001986E
:10105000002103F0F1F803E00098002103F07CF98F
:1010600004467CB126462888C04300052DD4D5F817
:10107000AC00B0F1007F21D00EDCA8B1B0F1807FD0
:1010800010D116E0D5F8A820D9F8001021F460019D
:101090001143C9F80010E6E7B0F1407F13D0B0F17A
:1010A000806F10D001240FE0386840F400303860C1
:1010B00009E00198002103F0BFF803E00098002147
:1010C00003F04AF9044674B126462868C0438001FB
:1010D0001FD4E86CD8B110280FD0202812D03028A7
:1010E00015D0012414E0D5F8AC20D9F8001021F077
:1010F000E0611143C9F80010E7E7386840F40030B8
:10110000386004E00198022103F096F8044674B1B7
:1011100026462888C043C0042BD4286EB0F5005F53
:1011200020D00DDCA0B1B0F5805F0FD115E06B4889
:10113000EA6C2030016821F0300111430160E8E7DA
:10114000B0F5405F13D0B0F5804F10D001240FE010
:10115000386840F40030386009E00198002103F05D
:101160006BF803E00098002103F0F6F804468CB118
:1011700026462888C043800429D4686EB0F5403FD5
:1011800023D010DC08B3B0F5803F14D0B0F5003F99
:101190000FD115E02A6ED8F8001021F4E041114378
:1011A000C8F80010E5E7B0F5802F0ED0B0F5A02FFD
:1011B0000BD001240AE00198012103F03DF803E07F
:1011C0000098012103F0C8F8044694B12646288807
:1011D000C04340042AD4D5F8B000B0F1405F23D01A
:1011E00010DC08B3B0F1805F14D0B0F1005F0FD114
:1011F00015E06A6ED8F8001021F4E0211143C8F818
:101200000010E4E7B0F1804F0ED0B0F1A04F0BD04A
:1012100001240AE00198012103F00EF803E0009890
:10122000012103F099F8044674B126462888C0438A
:1012300000041FD4286FD8B1B0F1805F0ED0B0F198
:10124000005F10D0012414E0D5F8B020D9F80010C8
:1012500021F0E0411143C9F80010E7E7386840F495
:101260000030386004E00198012102F0E5FF0446F7
:1012700074B126462868C043C0011ED4A86CD0B102
:1012800001280ED0022811D0032814D0012413E025
:101290002A6FD8F8001021F040511143C8F800100F
:1012A000E8E7386840F40030386004E00198022133
:1012B00002F0C2FF0446ACB126462868DFF81CB035
:1012C000C043ABF11C0B400252D40548016841F405
:1012D00080710160FFF7F0FB824611E02C44025858
:1012E00000480258FA48AA6C016821F00301114332
:1012F0000160E2E7FFF7E0FBA0EB0A00642835D8C5
:10130000F4480068C005F5D58CBBDFF8C4A3B5F878
:10131000B4100AF1240ADAF8000001F4407100F474
:101320004070884211D0DAF80010DAF8002021F479
:10133000407142F48032CAF80020DAF8002022F42A
:101340008032CAF80020CAF80010D5F8B400B0F511
:10135000807F1AD1FFF7B0FB029012E0FFF7ACFBE1
:101360000299411A41F2883081420AD90324264663
:101370002878DFF85CA3C0430AF1080AC00721D02F
:101380003CE0DAF800008007E8D5D5F8B410C1F3E6
:101390000120032858460DD0016821F47C510160DA
:1013A000B5F8B420DAF80010C2F30B021143CAF802
:1013B0000010DDE7C84A036802EA111223F47C51E9
:1013C0001143ECE7E86F182816D005DCA0B1082817
:1013D00008D0102804D10AE020280DD028280BD0EE
:1013E00001240AE00198012102F026FF03E00098A1
:1013F000012102F0B1FF044664B126462878C043BB
:1014000080071ED4A86F062819D2DFE800F0160C5A
:1014100011161616EA6FDAF8001021F038011143A0
:10142000CAF80010EAE70198012102F005FF03E085
:101430000098012102F090FF04467CB100E00124F5
:1014400026462878C04340071FD4D5F894000628C4
:1014500019D2DFE800F0160C11161616AA6FDAF88A
:10146000001021F007011143CAF80010E9E70198C4
:10147000012102F0E1FE03E00098012102F06CFF7F
:101480000446A4B100E0012426462878C043800623
:101490002BD4D5F89000B0F1405F24D011DC10B30C
:1014A000B0F1805F15D0B0F1005F10D116E0D5F833
:1014B0009420D9F8001021F007011143C9F8001059
:1014C000E3E7B0F1804F0ED0B0F1A04F0BD0012474
:1014D0000AE00198002102F0AFFE03E0009802212B
:1014E00002F03AFF044694B126462878C0434006ED
:1014F0002BD4D5F89C00B0F5406F24D011DC10B38C
:10150000B0F5806F15D0B0F5006F10D116E0D5F8AA
:101510009020DAF8001021F0E0411143CAF80010E1
:10152000E3E7B0F5805F0ED0B0F5A05F0BD00124EB
:101530000AE00198002102F07FFE03E000980221FA
:1015400002F00AFF044694B126462878C0430006FC
:101550002BD4D5F8A000B0F5C04F24D011DC10B3C7
:10156000B0F5005F15D0B0F5804F10D116E0D5F87A
:101570009C20D9F8001021F4E0511143C9F8001063
:10158000E3E7B0F5004F0ED0B0F5204F0BD00124AB
:101590000AE00198002102F04FFE03E000980221CA
:1015A00002F0DAFE044654B126462878C04300070C
:1015B0001ED4D5F88400B0F5805F0AD00FE0D5F8CE
:1015C000A020D9F8001021F460411143C9F800109F
:1015D000EBE70098022102F0BFFE00B10126D5F82A
:1015E0008420DAF8001021F440511143CAF80010A9
:1015F0002878C043C00613D4D5F89800B0F5807F92
:1016000005D10098022102F0A7FE00B10126D5F80D
:101610009820D9F8001021F440711143C9F8001046
:101620002868C043000316D4D5F8A40038B1B0F53B
:10163000803F09D0B0F5003F0BD001240AE00198AB
:10164000002102F0F9FD03E00098022102F084FE7F
:1016500004468CB126462868C043400322D4D5F8FE
:101660008800B0F5801F11D0B0F5001F13D0B0F581
:10167000401F15D0012414E0D5F8A420D9F800109B
:1016800021F440311143C9F80010E4E7386840F410
:101690000030386004E00098012102F05DFE04464D
:1016A0005CB126462868C043C00323D4286DA8B186
:1016B000B0F5803F17D001241BE0D5F88820DAF878
:1016C000001021F440111143CAF80010EAE70000AD
:1016D0004C44025800480258CFFFFF00386840F4DD
:1016E0000030386004E00198022102F0A5FD0446B4
:1016F000E4B126462868C043800005D40098022142
:1017000002F02AFE00B101262868C04380031BD4E2
:10171000D5F88000B0B1B0F5807F0FD0B0F5007F74
:1017200010D0B0F5407F0DD001240CE05A482A6D4E
:10173000016821F4803111430160DBE7386840F42F
:1017400000303860ECB326462868C043C00207D496
:101750006A6FD8F8001021F000411143C8F800105A
:101760002868C043C00008D4D5F8B820DBF80010C2
:1017700021F480411143CBF800102868C043800257
:1017800007D4EA6ED8F8001021F080711143C8F830
:1017900000102868C04340000CD4DBF8001021F48E
:1017A0000041CBF80010DBF80010D5F8BC20114345
:1017B000CBF800102868C04308D437486A6D016828
:1017C00000E018E021F04051114301602868C04357
:1017D000000208D4D5F88C20DAF8001021F440017A
:1017E0001143CAF8001028790024C04300F001001A
:1017F00020430AD00FE0D5F88020DAF8001021F459
:1018000040711143CAF800109EE70198002102F0D0
:1018100013FD00B106462879C04300F002002043C2
:1018200005D10198012102F007FD00B10646287993
:10183000C04300F00400204305D10198022102F0CA
:10184000FBFC00B106462879C04300F008002043A5
:1018500005D10098002102F07FFD00B106462879ED
:10186000C04300F01000204305D10098012102F090
:1018700073FD00B106462879C04300F02000044300
:1018800004D10098022102F067FD00B916B10120D1
:10189000BDE8FE8F0020FBE74C4402582DE9F05FC5
:1018A00004000F467ED0DFF83882D8F8000000F040
:1018B0000F00B8420CD2D8F8001021F00F013943C4
:1018C000C8F80010D8F8000000F00F00B84269D145
:1018D0002078844D40070AD52069296801F07001FD
:1018E000884204D9296821F07001014329602078D9
:1018F0007C4E361D00070AD56069316801F0700121
:10190000884204D9316821F07001014331602078A8
:10191000C0060AD5A069316801F4E061884204D9A3
:10192000316821F4E061014331602078DFF8B4B11F
:1019300080060BF1080B0CD5E1695846DBF8002056
:1019400002F07002914204D9026822F070020A4348
:101950000260207880070AD5E068296801F00F014D
:10196000884204D9296821F00F01014329602078B9
:10197000C0073ED05B49A2682868183920F470601F
:10198000104328606068022818D0032819D009681D
:10199000012819D0490700294ADADFF848A1AAF13D
:1019A000080A00E044E0DAF8002022F007020243CF
:1019B000CAF80020FFF780F8814612E00968890321
:1019C000E9E709688901E6E7C905E4E7FFF774F884
:1019D000A0EB090141F28830814202D90320BDE821
:1019E000F09F6168DAF8000000F03800B0EBC10F3A
:1019F000ECD1207880070AD5E068296801F00F0152
:101A0000884204D2296821F00F0101432960D8F8E7
:101A10000010404601F00F01B9420BD9016821F0D6
:101A20000F0139430160006800F00F00B84201D097
:101A30000120D4E7207840070AD52069296801F001
:101A40007001884204D2296821F0700101432960A5
:101A5000207800070AD56069316801F0700188427A
:101A600004D2316821F07001014331602078C00652
:101A70000AD5A069316801F4E061884204D2316876
:101A800021F4E06101433160207880060CD5E169E2
:101A90005846DBF8002002F07002914204D202683E
:101AA00022F070020A43026000F06CF80E492A68C6
:101AB0002B68C2F3032203F00F038A5CC95C02F0B7
:101AC0001F0201F01F01D040084A20FA01F1116005
:101AD0000749086007480068BDE8F05FFFF728B8CD
:101AE0000020005218440258D0CF00089000002473
:101AF0008C0000248400002430B500F043F80B4A29
:101B00000B490C4B15681468C5F3032204F00F044D
:101B10008A5C095D02F01F0201F01F01D040064AF5
:101B200020FA01F119601060084630BD18440258CF
:101B3000D0CF0008900000248C00002400B5FFF7EF
:101B4000DBFF05490968054AC1F30211515C01F048
:101B50001F01C84000BD00001C440258D0CF00083F
:101B600000B5FFF7C9FF05490968054AC1F302211D
:101B7000515C01F01F01C84000BD00001C44025828
:101B8000D0CF0008454970B545480968434B103B24
:101B900011F0380208D00111082A03D0102A0BD006
:101BA000182A0BD0084670BD19688906FBD519683C
:101BB000C1F3C101C84070BD3A4870BD3749374DC7
:101BC00018310C1D24350A68096826682D6802F052
:101BD000030406F00102C1F30511C5F3CC0515FBA2
:101BE00002F200EE102AB8EE400AE9B32F4ADFED08
:101BF0002E0AB7EE001A6CB1DFED2D1A012C01D0C0
:101C0000022C43D002EE101A1068F8EE422A81EE40
:101C1000A22A1EE01C68A40611D51B6801EE901ACA
:101C20001168C3F3C103F8EE612AD84001EE900AAF
:101C3000C1F30800F8EE611A81EEA22A0BE001EE72
:101C4000901ADFED1C2A00BFF8EE611A106882EED0
:101C5000A12AC0F3080001EE900AF8EE611A40EEE6
:101C6000201A31EE810A00E015E022EE000A106829
:101C7000C0F34620401C00EE900AF8EE600A80EEA9
:101C8000201ABCEEC10A10EE100A70BD01EE901AC7
:101C9000DFED092AD8E7002070BD0000104402588B
:101CA0000090D00340787D01000000393044025894
:101CB0000024744A0024744C20BCBE4B2DE9F05F14
:101CC00004007DD0FF4F2078FE4D1837DFF8F493E5
:101CD000103DC00748D0D9F80000396800F038003E
:101CE000102815D0182803D101F0030002280FD0C6
:101CF0006068B0F5803F12D010B1B0F5A02F18D0B9
:101D0000286820F480302860286820F4802009E0CA
:101D10002868800328D560680028D2D024E028688D
:101D200040F480302860606888B1FEF7C5FE064642
:101D300009E0286840F480202860F0E7FEF7BCFE48
:101D4000801B64286FD828688003F7D50CE0FEF765
:101D5000B3FE064605E000BFFEF7AEFE801B64281A
:101D6000F0D828688003F7D4207841F20308D54ED4
:101D70000C3E800769D5D9F80000396810F03800AA
:101D80000ED0182801D188070AD0E06890B32968DE
:101D900021F0190101432960FEF78EFE824631E0F1
:101DA0002868400702D5E06800288AD0E1682868E2
:101DB00020F0190008432860FEF77EFE824607E007
:101DC000DFE000BFFEF778FEA0EB0A000228B9D8DA
:101DD00028684007F6D500BFFEF768FE40451BD8CF
:101DE0002069402812D0316821F47C3141EA00306A
:101DF00030602AE018E000BFFEF75EFEA0EB0A00AC
:101E000002289FD828684007F6D5E5E7306820F417
:101E10007C3040F40030EBE7207C316821F0FE415B
:101E200041EA0060E4E70DE1286820F00100286045
:101E3000FEF742FE824605E0FEF73EFEA0EB0A00FA
:101E400002288DD828684007F6D42078C0065DD5D2
:101E5000D9F80000DFF86CB2396800F03800ABF157
:101E6000040B082810D0182803D101F00300012822
:101E70000AD0E0690028286838D040F08000286047
:101E8000FEF71AFE824623E02868C00523D5E069E4
:101E9000802876D11FE0206A202821D0316821F0E7
:101EA000F84141EA8060306030E000BF94F82010D3
:101EB000DBF8002022F07C5242EA0161CBF80010EE
:101EC00024E000BFFEF7F8FDA0EB0A00022898D836
:101ED0002868C005F6D5FEF7E9FD4045E6D8DAE703
:101EE000306820F0F84040F08040DCE720F08000CF
:101EF0002860FEF7E1FD064605E000BFFEF7DCFDC9
:101F0000801B02289DD82868C005F7D420780007D8
:101F100029D56C486169643000298046016811D078
:101F200041F001010160FEF7C7FD064605E000BF74
:101F3000FEF7C2FD801B0228C9D8D8F80000800730
:101F4000F6D510E021F001010160FEF7B5FD06466F
:101F500005E000BFFEF7B0FD801B022872D8D8F85C
:101F600000008007F6D42078800623D5A0690028D9
:101F7000286810D040F480502860FEF79DFD06468A
:101F800005E036E1FEF798FD801B02285AD8286844
:101F90008004F7D50EE020F480502860FEF78CFD19
:101FA000064604E0FEF788FD801B02284AD8286810
:101FB0008004F7D4207840074FD5DFF80C81D8F89B
:101FC000001041F48071C8F80010FEF775FD064658
:101FD00005E000BFFEF770FD801B642832D8D8F8FA
:101FE0000000C005F6D5374EA068603601280AD03B
:101FF00008B1052813D0306820F001003060306847
:1020000020F0040002E0306840F001003060A06879
:1020100041F2883A90B1FEF74FFD80460AE0306801
:1020200040F004003060EEE7FEF746FDA0EB08014B
:10203000514507D830688007F6D50EE0FEF73CFD25
:10204000804607E084E000BFFEF736FDA0EB080104
:1020500051457DD830688007F6D4606AB0B3DFF8A8
:102060006480D9F8001008F120084FF6F87B08F1D9
:102070000409C1F3C2010329A8F1040A69D00228A6
:10208000286820F08070286003D0FEF715FD044614
:1020900084E0FEF711FD064605E000BFFEF70CFDEB
:1020A000801B022877D828688001F7D4E26A40F2C2
:1020B000F331386854F8283F884340EA0210184347
:1020C000386004E01044025800480258B5E0217B13
:1020D000434622894FF4FE0C208A4FF0FE47490206
:1020E000267D521E401EA1F50071C2F308088AB277
:1020F000761E0CEA004042EA08020243504607EA14
:1021000006610A431A60DAF8002022F00102CAF8D8
:102110000020D9F80020266A22EA0B0242EAC60211
:10212000C9F80020DAF80010A26921F00C0111436F
:10213000CAF800100168E26921F002011143016050
:10214000016841F480310160016841F4003101E02F
:1021500021E027E00160016841F48021016001680D
:1021600041F001010160286840F080702860FEF7AE
:10217000A3FC044605E000BFFEF79EFC001B0228FE
:1021800009D828688001F7D557E000BFFEF794FC16
:10219000001B022802D90320BDE8F09F28688001B7
:1021A000F4D44AE039680128D8F8000021D0A26AA6
:1021B00001F0030393421CD1E26AC1F305118A4284
:1021C00017D1216BC0F30802491E8A4211D1616BFD
:1021D000C0F34622491E91420BD1A16BC0F30642C7
:1021E000491E914205D1E16BC0F30660491E814250
:1021F00001D00120D0E7A16C4E46D9F80000C0F311
:10220000CC00814219D0DAF80000554620F00100D8
:10221000CAF80000FEF750FC4FEA0007FEF74CFC3E
:10222000B842FBD0A26C306820EA0B0040EAC20042
:102230003060286840F0010028600020ACE7000012
:102240002DE9F047040029D0594A4FF000092068D1
:10225000584B594D9042C4F8289006D0984204D06B
:10226000A84202D0E1680F2918D8E1684FF0010AAE
:10227000E76B0831C9080AEB57167143904205D045
:10228000984203D0A84201D0082907D8904203D031
:10229000984201D0A84204D1102902D90120BDE8FA
:1022A000F08794F8810020B9204684F8809000F0EF
:1022B00085F8022084F881002068016821F001017E
:1022C00001602068A1698268B1F1806F02F4F811A1
:1022D00010D16268B2F5800F01D01AB10AE0A26B8A
:1022E00022B107E0A26BB2F1805F03D1026842F431
:1022F000805202606068400209D5E068072806D372
:102300002068236D026822F480721A4303E020687B
:10231000026822F480720260A66AE069E26B2568B6
:102320003043E3680A4310431843A860D4E90D0220
:10233000D4E90581636A25691843D4F820C00A43AB
:10234000266810432843A56DD4E90172D4E91231FF
:1023500040EA080040EA0C003843084310431843A1
:102360002843F060606868B92068816821F4C05132
:1023700041F4006181602068816821F4C06141F40A
:10238000806181602068016D21F001010165606854
:10239000400206D52068626DC16821F000411143FA
:1023A000C160C4F8849084F881A0002077E7000021
:1023B0000030014000380040003C004070B5B6B02D
:1023C0000446142130A8FDF7BDFFC0216846FDF783
:1023D000B9FF2349206888423FD100202C904FF458
:1023E00080410446CDE900106846FEF781FD08B142
:1023F000FEF723FA1B48016841F0200101600068E4
:1024000000F02000359017481438016841F00101B0
:102410000160016801F001013591016841F040015E
:102420000160006807210225329400F040003590D9
:102430000326A803CDE93361CDE930050A4830A968
:10244000FEF710FA052132947003CDE93361CDE92E
:102450003005064830A9FEF705FA36B070BD000019
:1024600000140058F44402580000025800180258A2
:102470002DE9FC5F0446006817468A46002199460C
:1024800094F8802000F1200B0191012A0DD04FF02B
:10249000010884F88080FEF70FFB064694F881005F
:1024A0000025012804D0022034E00220BDE8FC9F72
:1024B000BAF1000F2DD067B3A1680320C4F85CA067
:1024C000A4F8607084F88100C4F88450A4F86270A5
:1024D0006566A4F86850A4F86A50B1F5C02F656726
:1024E0002567206819D0C16821F4C02141F400316A
:1024F000C160206841686FF30F0139434160206873
:10250000016841F0010101606068B0F5800F09D0F9
:102510000DE0012084F88050C8E7016841F40061B3
:102520000160E6E72068016841F400710160E0683D
:102530000F281CD820E02068416989070BD5E16D80
:1025400009680162E06D001DE065B4F86200401E9C
:10255000A4F862000BE0FEF7AFFA811B494503D3F4
:10256000B9F1FF3F03D099E0B9F1000F30D0B4F8D2
:1025700062000028DFD177E007282DD870E02068BE
:10258000416989071CD5B4F8621001290BD9E16BA8
:1025900049B1E16D09680162E06D001DE065B4F8C4
:1025A0006200801E09E0E06D0188ABF80010E06D6C
:1025B000801CE065B4F86200401EA4F862000BE0E5
:1025C000FEF77AFA811B494503D3B9F1FF3F03D0E7
:1025D00064E0B9F1000F61D0B4F862000028CED1F8
:1025E00042E02068416989072ED5B4F862100329BA
:1025F0000CD9E16B402909D9E16D09680162E06DF0
:10260000001DE065B4F86200001F1AE0B4F8621023
:1026100001290CD9E16B51B1E06D0188ABF80010D4
:10262000E06D801CE065B4F86200801E09E0E16D99
:10263000097880F82010E06D401CE065B4F8620075
:10264000401EA4F862000BE0FEF736FA811B4945F4
:1026500003D3B9F1FF3F03D020E0B9F1000F1DD043
:10266000B4F862000028BCD100224B460821204665
:10267000009602F03DF828B1D4F8840040F0200024
:10268000C4F88400204601F0F7FE84F88180D4F875
:10269000840084F8805080B1012007E7204601F0D3
:1026A000EBFED4F8841084F8805041F48071C4F8B3
:1026B000841084F881800320F8E60198F6E6401E35
:1026C000B0F1807F10B501D3012010BD4FF0E024A0
:1026D00060610F21601702F045FC0020A061072116
:1026E000216110BD30B590F88410012918D0012265
:1026F00080F884202421C0F888100022202401685A
:102700000B680D6823F0005325F001050D6042664B
:1027100001680B60C0F8884080F88420104630BD06
:10272000022030BD70B5044690F8840001281DD009
:10273000012284F884202420C4F8880020680568D9
:10274000026822F0010202602068826822F0606262
:102750000A438260204602F0CDF822682021002042
:102760001560C4F8881084F8840070BD022070BD24
:1027700070B5044690F8840001281DD0012284F829
:1027800084202420C4F8880020680568026822F0AC
:10279000010202602068826822F060420A4382607F
:1027A000204602F0A7F82268202100201560C4F816
:1027B000881084F8840070BD022070BD10B504003C
:1027C00003D0D4F8880010B107E0012010BD00202C
:1027D00084F88400204600F027F82420C4F88800FC
:1027E0002068016821F001010160204602F088F9AB
:1027F0000128EBD0A06A10B1204602F09DF82068B5
:10280000416821F4904141602068816821F02A01EB
:1028100081602068016841F0010101602046BDE847
:10282000104002F0EDB8000010B5B6B00446142117
:1028300030A8FDF787FDC0216846FDF783FD1A49E2
:10284000206888422DD100201F9001210446CDE947
:1028500000106846FEF74CFB08B1FDF7EEFF134889
:10286000016841F010010160006800F0100035902F
:102870000E481038016841F00101016000680DF157
:10288000C00C022100F0010035904FF4C060072316
:102890008CE8130003220648CDE9332330A9FDF765
:1028A000E1FF36B010BD000000100140F0440258B6
:1028B00000000258FEE7000070B5124C6189A08943
:1028C000491E8AB2401E83B20021084600F0C6FDB0
:1028D00001220D481103FEF7E3F80C4D0F20E860CC
:1028E0002846FFF7ADFC6289A089A188424389B2DE
:1028F000284600F0E5FC0720E8602846BDE8704067
:10290000FFF79EBCB0090024001802589400002470
:102910002DE9F05FDFF8A0E0203A0023274E02F017
:10292000FF0A894683461A46DEF80000194626E06B
:10293000234DD0F80080B5F800C0AF880AFB0485AD
:102940001FFA8CFCBFB2002413F805505FEAC5786B
:1029500002D026F812C001E026F81270B0F8048008
:10296000491C521C89B26D0892B2884501D10021E0
:1029700003E0641CA4B2082CE8D35B1C9BB204895E
:102980009C42D5D8C288A9F101018388ABF101002E
:102990001144744618448BB2494682B2584600F03E
:1029A0005DFD20688188C088BDE8F05F4143034831
:1029B00089B201F059BB000078000024B001002466
:1029C000B00900242DE9F05FDFF8D0808346177846
:1029D00000238A461946D8F80400048906685D1C5D
:1029E00004FB05FC16F80CC0BC4508D105FB0465CA
:1029F00092F801C06D78654501D1994604E045899A
:102A00009B1C9BB29D42EAD80022254E1346C64627
:102A100027E0DFF890C0056809FB0455BCF800808A
:102A20000024BCF804C01FFA88F75D5D1FFA8CFC17
:102A30005FEAC57802D026F8127001E026F812C0CD
:102A4000B0F80480491C521C89B26D0892B28845C6
:102A500001D1002103E0641CA4B2082CE8D35B1C64
:102A60009BB204899C42D4D8C288AAF10101838810
:102A7000ABF101001144744618448BB2514682B246
:102A8000584600F0EBFC60688188C088BDE8F05FC4
:102A90004143034889B201F0E7BA000078000024FE
:102AA000B0010024B009002430B50546094887B0BC
:102AB0000C46007A8DED000B50B107A102A802F080
:102AC0003DFA02AA2146284600F02CF807B030BD96
:102AD00003A1F3E7B0090024252A2E2A6C66000022
:102AE00025302A2E2A6C66007FB51E46094B054606
:102AF0000C46187A1346324648B107A1684602F0E0
:102B00001DFA6A462146284600F00CF87FBD03A155
:102B1000F4E70000B0090024252A640025302E2A9D
:102B2000640000002DE9F0410B4F15460B4E88461E
:102B3000044608E041462046FFF7EAFE38686D1C6F
:102B40008088204484B27089A04202D92A78002A61
:102B5000F0D1BDE8F081000078000024B009002425
:102B60002DE9F0410F4E14460F46054615E07F2A29
:102B700009D839462846FFF7CBFE3068641C8088A8
:102B8000284485B209E0224639462846FFF71AFF55
:102B90007068A41C8088284485B22278002AE6D177
:102BA000BDE8F081780000242DE9F84F55428146B8
:102BB00002201F4F0026884600EB450408EB060A5A
:102BC0003A68A9EB05001FFA8AF1009080B200F084
:102BD00049FA09EB050B3A681FFA8AF11FFA8BF0E4
:102BE00000F040FAA8EB060A3A681FFA8BF01FFAC9
:102BF0008AF100F037FA00981FFA8AF13A6880B239
:102C000000F030FAB442204608DC761C00EB4604A3
:102C1000641CF54202D1A84200DC0020A84203DD7A
:102C20006D1C04EB4504641C002DC7DDBDE8F88F66
:102C3000B00900242DE9F05F00EE102A00EE903A72
:102C4000C2F10007804602200E46B8EEC00AF8EE38
:102C5000E00A00EB47046D489A424FF000052DED65
:102C6000028B67DD80EE208A4FEA000900EE105AE1
:102C7000A8EB070BD9F80020B8EEC00AC0EE080A8E
:102C8000BCEEE00A10EE100A304481B21FFA8BF05D
:102C900000F0E8F900EE105A08EB070AD9F8002016
:102CA000B8EEC00AC0EE080ABCEEE00A10EE100A48
:102CB000304481B21FFA8AF000F0D4F900EE105AC5
:102CC000D9F80020B8EEC00AC0EE080ABCEEE00A4F
:102CD00010EE100A301A81B21FFA8AF000F0C2F921
:102CE00000EE105AD9F80020F8EEC00A80EE880AEB
:102CF000BCEEC00A10EE100A301A81B21FFA8BF037
:102D000000F0B0F9AC42204608DC6D1C00EB450435
:102D1000641CEF4202D1B84200DC0020B84203DD5F
:102D20007F1C04EB4704641C002F9FDDBDEC028B6D
:102D3000BDE8F09F80EE808A5F424FEA00090025DF
:102D400000EE105A06EB070AD9F800201FFA8AF1A4
:102D5000B8EEC00AC0EE080ABCEEE00A10EE100A97
:102D6000A8EB000080B200F07DF900EE105A1FFAC7
:102D70008AF1D9F80020B8EEC00AC0EE080ABCEE0D
:102D8000E00A10EE100A404480B200F06BF900EE49
:102D9000105AA6EB070AD9F800201FFA8AF1B8EEFC
:102DA000C00AC0EE080ABCEEE00A10EE100A404469
:102DB00080B200F057F900EE105A1FFA8AF1D9F8E4
:102DC0000020B8EEC00AC0EE080ABCEEE00A10EE21
:102DD000100AA8EB000080B200F044F9AC42204693
:102DE0000ADC6D1C05EB45021418EF4204F10104E6
:102DF00002D1B84200DC0020B84204DD7F1C07EBA2
:102E000047000444641C002F9ADD8FE7B0090024BA
:102E10002DE9FF4F4FF480619B46B1FBFBF183B07E
:102E2000144607464FF0000A3E4655460498009067
:102E30003819401EDDF84090CDE901106EE0002009
:102E4000B4EE001A27E0384B002199F80020A3F5D2
:102E5000006EB3F800C09B881FFA8CFC1FFA83F346
:102E60005FEAC27802D02EF815C001E02EF81530C6
:102E7000761CB6B26D1C5208A6EB0708ADB2A04591
:102E800001D13E4603E0491C89B20829E8D3401C21
:102E900080B209F1010900EE104A00EE900AF8EE46
:102EA000401AB8EE600A61EE810AF4EEC00AF1EE53
:102EB00010FAC8DC01986043A84216D1DDE9000190
:102EC000002500EB01080299A8F1010083B2384601
:102ED0008AB2009900F0C2FA0198604381B21348A7
:102EE00001F0C2F81FFA88F000900AF10108D845F5
:102EF00012D1049938468A4402991FFA8AF38AB299
:102F0000009900F0ABFA0099AAEB0100401C604365
:102F100081B2064801F0A8F81FFA88FADA458ED384
:102F200007B0BDE8F08F0000B0090024B001002414
:102F30002DE9FC5F151A0027002D00DC851A5C1AAC
:102F40000FFA85FC002C00DCCC1A06B282424FF04E
:102F5000FF320DB220B203D301240094A24601E057
:102F6000924600928B4203D34FF0010BD94601E009
:102F70009346D9464FF00001844507DB894600910E
:102F80000CEBDC71E04601904C1025E08A464FF0D6
:102F9000000B00EBD0718046CDF804C04C101BE054
:102FA0000F48A9B20268B0B200F05CF80198204462
:102FB00004B2444508DB0098A4EB08010CB23218B7
:102FC00005EB0B0016B205B27F1C06EB0A0105EB00
:102FD00009000EB205B23FB24745E1DDBDE8FC9FF6
:102FE000B00900240B460D4970B514460A88A1F5B6
:102FF0000065002192B203E04E1C25F81120B1B209
:10300000A142F9D30119491E8AB2194600F026FAE5
:1030100021460348BDE8704001F026B8B0090024FD
:10302000B001002470B514460C4AA2F5006513885F
:1030300000229BB203E0561C25F81230B2B2A24225
:10304000F9D30A19521E93B2024600F007FA21463C
:103050000348BDE8704001F007B80000B009002443
:10306000B001002410B514460B46024600F0F6F9F4
:10307000A0B2BDE8104001F02BB82DE9F0411C468C
:1030800016460D460746FFF7ADFF28193246401E8B
:1030900081B23846FFF7A6FF224629463846FFF799
:1030A000C1FFB81922462946BDE8F041401E80B252
:1030B000FFF7B8BF2DE9F84F8B469046032107462E
:1030C00000244FF6FF79A1EB4806154631E08DB19B
:1030D0003B1BABEB0501009109EA450298B2924611
:1030E00089B2FFF79FFF0099381980B2524689B222
:1030F000FFF798FF8CB17B1BABEB0401009109EA51
:10310000440298B2924689B2FFF78CFF0099781971
:1031100080B2524689B2FFF785FF002E03DA06EB34
:103120008406B61D04E0601B6D1E06EB80060A36A1
:10313000641CAC42CBD9424659463846BDE8F84FEC
:10314000FFF732BD70B51D4614464B1902195B1EC0
:10315000521E9BB292B200F081F901220C48110379
:10316000FDF79EFC0B4E0F20F0603046FFF768F82D
:10317000094804FB05F2008881B2304600F0A0F84F
:103180000720F0603046BDE87040FFF759B80000F6
:103190000018025894000024B009002430B587B00C
:1031A00014216846FDF7CEF81348016841F080010C
:1031B0000160016801F080010591016841F0400162
:1031C0000160006800240125694600F04000059078
:1031D00040200090CDE9015408480394FDF742FBDC
:1031E00028030090CDE90154054869460394FDF792
:1031F00039FB07B030BD0000E0440258001C025803
:103200000018025810B5026840F26F335169946992
:1032100044F0080494610268946944F010049461D5
:103220000268146824F001041460026814699C4365
:1032300014610268936823F44043936090F88120FE
:10324000042A0CD08A060AD5D0F8842042F08002E5
:10325000C0F884200268936943F02003936190F8DA
:103260008120032A0CD04A060AD5D0F8842042F0E7
:103270000402C0F884200268936943F0400393611C
:103280008A050AD5D0F8842042F00102C0F88420D3
:103290000268936943F400739361C9050AD5D0F8B5
:1032A000841041F00801C0F8841001688A6942F472
:1032B00080728A610021A0F86210A0F86A1010BD27
:1032C0002DE9FC5F8A4690F88010044616460020DF
:1032D000019001294FF47A770DD04FF0010884F85E
:1032E0008080FDF7E9FB814694F8810000250128E4
:1032F00004D0022017E00220BDE8FC9F96B1A1682F
:1033000003204AEA0A4B84F88100C4F884506566B9
:10331000A4F86850A4F86A50B1F5C02F6567256716
:1033200004D008E0012084F88050E5E720680168B7
:1033300041F400610160206841686FF30F01416052
:103340002068016841F0010101606068B0F5800FFC
:1033500004D12068016841F400710160206841696E
:1033600089070DD5B4F86210012905D9E16B19B1AF
:10337000C0F820B0B61E17E0A0F820A0761E13E01B
:10338000FDF79AFBA0EB0900B8420DD32046FFF7EA
:1033900039FFD4F8841084F8805041F48071C4F867
:1033A000841084F8818033E0002ED7D100224B4670
:1033B0004FF480512046009700F02EF828B1D4F841
:1033C000840040F02000C4F884002068016841F4C3
:1033D0008061016000224B464FF400612046009757
:1033E00000F01AF828B1D4F8840040F02000C4F8A6
:1033F00084002046FFF706FF2068826942F40062DD
:10340000826184F8805084F88180D4F8840008B107
:10341000012071E701986FE72DE9F04198461646C3
:103420000D460746069C09E0FDF746FBA0EB0800A9
:10343000A04202D3601C01D00BE054B1386840694F
:1034400035EA000007D00020B042EDD00020BDE8F2
:10345000F0810320FBE70120F6E700002DE9F041B1
:10346000984615460E4607462A2000F01DFE0F4CD2
:10347000A07B384480B200F02BFEA07B284480B2B1
:1034800000F026FE2B2000F00FFEE07B304480B2DF
:1034900000F01EFEE17B01EB080080B200F018FE98
:1034A000BDE8F0412C2000F0FFBD0000B009002471
:1034B0000149086070470000780000244FF478410B
:1034C0004FF4FC6301EA1021C0F3C40203EA501078
:1034D000014302481143416070470000B0090024D5
:1034E0004FF478414FF4FC6301EA1021C0F3C402A9
:1034F00003EA501001430248114301607047000085
:10350000B00900242DE9F041194C002514264FF094
:10351000F0084FF48C77607298B1022816D0012819
:1035200019D003280BD1362000F0BEFD5FF0C0009B
:1035300000F0E6FDA573E673A4F80A80A781BDE854
:10354000F081362000F0B0FD702008E0362000F059
:10355000ABFD0020ECE7362000F0A6FDA02000F037
:10356000CFFDA673E5736781A4F80C80E7E7000040
:10357000B00900240C494860808814280FD005DC6D
:103580000C280AD0102807D1084804E0182808D0D1
:10359000202801D10648086070470648FBE7064826
:1035A000F9E70648F7E700007800002460000024EF
:1035B0003C0000246C000024540000244800002437
:1035C0000149087270470000B00900242DE9F05F3E
:1035D00000240220FFF796FF2448FFF7CBFF0020CE
:1035E000FFF77EFFDFF88C90DFF884B0204D09F103
:1035F0007F09204E0BF17F0B1F4FDFF88080DFF833
:1036000080A0082C0AD2DFE804F004062426282A29
:103610002C2E284600E03046FFF750FFFFF74CF90C
:1036200046210D2017A2FFF79BFA6A210D201AA24E
:10363000FFF796FA8E210D201CA2FFF791FA4FF4A6
:103640007A70FDF7FDF8641CE4B2082CD9D3BDE80C
:10365000F09F3846E0E74046DEE74846DCE7504664
:10366000DAE75846D8E76FF07F40D5E7240000241A
:103670008080FF0080FF8000FF80800080FFFF00CF
:10368000A3A3A30053544D3332483720CBA2C6C165
:10369000B2E2CAD400000000C6C1C4BBB7D6B1E6CE
:1036A000C2CA3A3234302A3238300000BFD8D6C6C7
:1036B000C6F73A53543737383900000070B5002048
:1036C000FFF7FCFEFFF7F8F85948FFF753FF6FF0DC
:1036D0007F40FFF705FF1421002056A2FFF740FAB4
:1036E00000244FF47F0500BFA5EB0440FFF7F8FE70
:1036F0000A2220462821FFF795FC641CA4B2F02C76
:10370000F2D300244FF47F45A5EB0420FFF7E8FE39
:103710000A2220463721FFF785FC641CA4B2F02C56
:10372000F2D30024C4F1FF00FFF7DAFE0A2220469C
:103730004621FFF777FC641CA4B2F02CF2D340487A
:103740005A24FFF7CDFE5F210A235A229620FFF765
:10375000F9FC002021463BA2FFF7E4F93C48FFF7C3
:10376000BFFE73210A235A229620FFF7EBFC6E213D
:10377000002038A2FFF7D6F93A48FFF7B1FE8721BB
:103780000A235A229620FFF7DDFC8221002036A270
:10379000FFF7C8F93848FFF7A3FE9B210A235A22F6
:1037A0009620FFF7CFFC9621002034A2FFF7BAF94C
:1037B00048F28000FFF794FEAF210A235A22962098
:1037C000FFF7C0FCAA2100202FA2FFF7ABF94FF0B2
:1037D0008010FFF785FEC3210A235A229620FFF7A7
:1037E000B1FCBE2100202BA2FFF79CF92D48FFF76A
:1037F00077FED7210A235A229620FFF7A3FCD22175
:10380000002029A2FFF78EF92A48FFF769FEEB2175
:103810000A235A229620FFF795FCE621002026A2D3
:10382000FFF780F9BDE870404FF4FA60FDF708B883
:1038300018000024524742C8FDBBF9C9AB3A00004A
:10384000FFFF80004C494748545F4359414E0000F8
:10385000FF80FF004C494748545F4D4147454E5457
:103860004100000080FFFF004C494748545F594524
:103870004C4C4F5700000000A3A3A3004C494748FD
:10388000545F4752455900004441524B5F435941F0
:103890004E0000004441524B5F4D4147454E54415C
:1038A00000000000008080004441524B5F59454CAD
:1038B0004C4F5700404040004441524B5F475245F7
:1038C000590000002DE9F843DFF8A8800024DFF854
:1038D000A8904FF47A77294D294E0020FFF7EEFD8E
:1038E000FEF7EAFF2748FFF745FE4046FFF7F8FDE1
:1038F00034B1012C09D0022C31D0032C0DD133E08E
:103900000220FFF7FFFD20A203E00020FFF7FAFDF1
:1039100020A228211420FFF723F94846FFF7E0FDF5
:103920005323009564211A461320FFF771FA1C48AF
:10393000FFF720FE3046FFF7D3FD6E21822019A24B
:10394000FFF70EF99621822018A2FFF709F93846F1
:10395000FCF776FF641C042CBFDBBDE8F883032072
:10396000FFF7D0FD13A2D4E70120FFF7CBFD16A28D
:10397000CFE70000FBF9DFFF8DE5F6FF40590008B7
:10398000A8D39DFF24000024446972656374696FA5
:103990006E5F5600446972656374696F6E5F4800BC
:1039A00030000024B7B4BFCD00000000BFC6BCBCCF
:1039B00000000000446972656374696F6E5F565F52
:1039C000466C697000000000446972656374696F39
:1039D0006E5F485F466C697000000000002010B503
:1039E000FFF76CFDFEF768FF6FF07F40FFF778FD93
:1039F0000021F02208464FF48C73FFF73EFB4FF492
:103A00007F00FFF76DFD1E2246218C20FFF752FB41
:103A10004FF47F40FFF764FD1E224621AA20FFF7E6
:103A200049FBFF20FFF75CFD1E224621C820FFF75F
:103A300041FB2948FFF754FD542371222E211A20FF
:103A4000FFF776FA65236A222A212320FFF770FA0E
:103A500078235D2228212D20FFF76AFA8023452252
:103A600024213420FFF764FA80232C2224213E20D5
:103A7000FFF75EFA1948FFF733FD1E22BE217820BA
:103A8000FFF792F81422BE217820FFF78DF8144832
:103A9000FFF726FD28235A22BE217820FFF7CAF817
:103AA00028234622BE217820FFF7C4F80C487F3037
:103AB000FFF716FD32236422BE217820FFF7BAF803
:103AC0003C236E22BE217820FFF7B4F8BDE81040F9
:103AD0004FF4FA60FCF7B4BE00FFFF00FFFF800068
:103AE0008080FF00002008B5FFF7E8FCFEF7E4FE49
:103AF0001848FFF7F5FC1848532329211A4600906F
:103B00001320FFF785F91548FFF7EAFC1448532303
:103B100029211A4600908D20FFF77AF91148FFF706
:103B2000DFFC11485323A0211A4600901320FFF711
:103B30006FF90E48FFF7D4FC0D485323A0211A4615
:103B400000908D20FFF764F9BDE808404FF4FA605B
:103B5000FCF776BE8DE5F6FF40590008FBF9DFFF64
:103B6000D15C0008A8D39DFF626000085387FFFF67
:103B7000F363000870B50020FFF7A0FCFEF79CFE81
:103B80006FF07F442046FFF7ABFC5648FFF790FCF0
:103B90001421002054A2FEF7C5FF5748FFF788FC08
:103BA0003421002055A2FEF7BDFF5A48FFF780FCE4
:103BB0004C21002058A2FEF7B5FF5E48FFF778FCC5
:103BC000602100205CA2FEF7ADFF6348FFF770FCA8
:103BD0007021002061A2FEF7A5FF2012FFF780FCF4
:103BE0005D48FFF765FC7C21002067A2FEF79AFF85
:103BF0005048FFF75DFC882100206EA2FEF792FF7F
:103C00004448FFF755FC9821002072A2FEF78AFF76
:103C10003948FFF74DFCAC21002075A2FEF782FF6A
:103C20003048FFF745FCC421002077A2FEF77AFF59
:103C30007948FFF79FFC7948FFF752FCEC21002000
:103C400077A2FEF78DFF4FF4FA652846FCF7F8FDE2
:103C5000FEF732FE7548FFF78DFC7548FFF740FC14
:103C60001E210E2073A2FEF77BFF7648FFF782FC31
:103C70007548FFF735FC32210E2074A2FEF770FF65
:103C80007648FFF777FC7648FFF72AFC50210E2094
:103C900074A2FEF765FF6048FFF76CFC7548FFF7FC
:103CA0001FFC6E210E2074A2FEF75AFF7648FFF724
:103CB00061FC7648FFF714FC96210E2074A2FEF7F3
:103CC0004FFF5548FFF756FC2046FFF709FCC82177
:103CD0000E2073A2FEF744FF2846BDE87040FCF7B3
:103CE000AFBD00003C0000242123242728292A2BD3
:103CF0002C2D2E303132330048000024212324277C
:103D000028292A2B2C2D2E303132333435363738B2
:103D100000000000540000242123242728292A2BF6
:103D20002C2D2E303132333435363738393A3B3C4E
:103D300000000000600000242123242728292A2BCA
:103D40002C2D2E303132333435363738393A3B3C2E
:103D50003D3E3F40414200006C00002421232427C7
:103D600028292A2B2C2D2E30313233343536373852
:103D7000393A3B3C3D3E3F4041424344454647483B
:103D8000494A4B4C000000002123262728292A2BD2
:103D90002C2D2E303132333435363738393A3B3CDE
:103DA0003D3E3F404142434445464748494A4B4CCB
:103DB000000000002123262728292A2B2C2D2E3015
:103DC0003132333435363738393A3B3C3D3E3F406B
:103DD000414200002123262728292A2B2C2D2E3072
:103DE0003132333435363738393A3B3C0000000045
:103DF0002123262728292A2B2C2D2E30313233340B
:103E000035363738000000002123262728292A2BA1
:103E10002C2D2E30313233002400002400FFFF000F
:103E20004153434949D7D6B7FBBCAF00000000243B
:103E3000D1C68A00313231323AB7B4BFCDBFC6BC29
:103E4000BC0000000C000024A5E1C500313631366D
:103E50003AB7B4BFCDBFC6BCBC00000018000024F8
:103E600049B5FF00323032303AB7B4BFCDBFC6BC1F
:103E7000BC0000005D58FF00323432343AB7B4BFA2
:103E8000CDBFC6BCBC00000030000024B9B6FF00A6
:103E9000333233323AB7B4BFCDBFC6BCBC0000002A
:103EA000D6D0CEC4CFD4CABE000000002DE9F05F4A
:103EB0004FF00008454647462DED088B9FED519B7E
:103EC0009FED528B4046FFF7F9FAFEF7F5FC51489B
:103ED000FFF750FB504E3046FFF702FB1E2100203B
:103EE0004EA2FEF73DFE3C2100204EA2FEF738FE1A
:103EF0004E4C2046FFF7F4FA642100204CA2FEF756
:103F00002FFE822100204DA2FEF72AFEDFF8349119
:103F10004846FFF7E5FAAA2100204BA2FEF720FE53
:103F2000C82100204AA2FEF71BFEB346A246002489
:103F30009FED49AB9FED4ABB5846FFF7D1FA0120F0
:103F4000FFF73EFB04EB8400042305EB40021E2137
:103F50005020FEF7C9FD6042042300EB80003C21A5
:103F600007EB40025020FEF7BFFD5046FFF7B8FABE
:103F70000120FFF725FBC4EB0410082300EB8006AB
:103F80006421822008EB4602FEF7AEFD0020FFF719
:103F900017FB82210823084605EB4602FEF7A4FD25
:103FA0004846FFF79DFA0120FFF70AFB00EE104A92
:103FB00003230622B8EE401BB0EE490BAA21642071
:103FC00001EE0A0BFEF770FD00EE104A04230B22EF
:103FD000B8EE401BB0EE480BC821642001EE0B0B7D
:103FE000FEF762FD0F20FCF72BFC641CA4B2642CCE
:103FF000A2D3BDEC088B40F6C410BDE8F05FFCF71F
:104000001FBC00004AD8124DFB2109404ED1915CE3
:104010007E4893C024000024FFFF8000D5FDCAFD28
:104020003A000000B8BACAFD3A00000080FFFF0065
:10403000CCEEB3E4BFD5B8F13A000000CCEEB3E467
:10404000303A00008080FF00D5FDD0A1CAFD3A00C3
:10405000B8BAD0A1CAFD3A009A9999999999B93FED
:104060007B14AE47E17A843F70B501220C460546C9
:104070000B481103FCF714FD0A4E0F20F060304688
:10408000FEF7DEF84FF47A73224629463046FEF7F3
:10409000EFF90720F0603046BDE87040FEF7D0B879
:1040A000001802589400002401B5074800224FF47C
:1040B0008051FCF7F5FC054801224FF47A736946FC
:1040C000FEF7D6F908BD000000180258940000243D
:1040D000012238B5110304460748FCF7E1FC200A29
:1040E0008DF80000054802224FF47A7369468DF876
:1040F0000140FEF7BDF938BD0018025894000024B5
:10410000012201B505481103FCF7CAFC044801224D
:104110004FF47A736946FEF7ABF908BD00180258F0
:104120009400002430B587B014216846FCF70AF9E2
:104130000E48016841F00401016000684FF400542A
:104140000B4D002200F00400214605902846FCF7A4
:10415000A7FC002100940120CDE90101284603912C
:104160006946FCF77FFB07B030BD0000E044025811
:104170000008025870B514484FF480050021114C16
:10418000EB010722C0E90321C0E90513C1615A0010
:104190000162202341626E118162C162C0E90D217A
:1041A000C0E90F3141648164C16401654165816585
:1041B00080E87000FEF744F8002801D072B6FEE7F0
:1041C00070BD00000014005894000024174800211E
:1041D00010B5154C0C224FF4E1330460C0E90131F5
:1041E000C160C0E904128161C16101624162816202
:1041F000FEF7E4FA08B172B6FEE70C480021FEF7BC
:10420000B7FA08B172B6FEE708480021FEF78AFA4D
:1042100008B172B6FEE70548FEF764FA002801D03F
:1042200072B6FEE710BD0000001001401C01002422
:10423000FEE7FEE7704700002DE9F047454D0446D4
:1042400089464FF0000A2868C04380070AD0414ED3
:10425000283E306820F080603060FCF72DFC074677
:10426000B04608E00120BDE8F08700BFFCF724FC61
:10427000C01B022867D8D8F800000001F6D42068D7
:1042800029684FF4FE0721F47C313E0241EA0030F8
:104290002860207AA389B4F804C040022D4D2D492E
:1042A0005B1E227CACF1010C1035091DA0F50070DD
:1042B00080B2521ECCF3080C07EA034340EA0C001C
:1042C000184306EA0262104328600868626920F019
:1042D000C000104308600A68A06922F0200202436F
:1042E0000A60281D0A6822F010020A6002684FF670
:1042F000F873E4699A4342EAC40202600868B9F1BB
:10430000000F40F010020A6011D00868B9F1010FE7
:1043100011D040F400100860D8F80000444640F086
:104320008060C8F80000FCF7C7FB05460DE0086890
:1043300040F40020EFE740F48010ECE7FCF7BCFB12
:10434000401B022801D903208DE720680001F5D524
:10435000504688E7284402582DE9F047454D044669
:1043600089464FF0000A2868C04380070AD0414EB2
:10437000283E306820F080503060FCF79DFB0746F7
:10438000B04608E00120BDE8F08700BFFCF794FBD1
:10439000C01B022867D8D8F800008000F6D4208817
:1043A00029684FF4FE0721F07C713E0241EA00507B
:1043B0002860207AA389B4F804C040022D4D2D490D
:1043C0005B1E227CACF1010C1835091DA0F50070B4
:1043D00080B2521ECCF3080C07EA034340EA0C00FB
:1043E000184306EA0262104328600868626920F4F4
:1043F0004060104308600A68A06922F4007202431A
:104400000A60281D0A6822F480720A6002684FF66A
:10441000F873E4699A4342EAC40202600868B9F199
:10442000000F40F480720A6011D00868B9F1010FE2
:1044300011D040F080700860D8F80000444640F089
:104440008050C8F80000FCF737FB05460DE008680F
:1044500040F48000EFE740F40000ECE7FCF72CFBB1
:10446000401B022801D903208DE720688000F5D584
:10447000504688E72844025810B5026840F26F336E
:104480005169946944F0080494610268946944F0A5
:10449000100494610268146824F001041460026836
:1044A00014699C4314610268936823F44043936049
:1044B00090F88120042A0CD08A060AD5D0F88420EE
:1044C00042F08002C0F884200268936943F0200320
:1044D000936190F88120032A0CD04A060AD5D0F8BF
:1044E000842042F00402C0F884200268936943F0FB
:1044F000400393618A050AD5D0F8842042F0010276
:10450000C0F884200268936943F400739361C9057D
:104510000AD5D0F8841041F00801C0F88410016871
:104520008A6942F480728A610021A0F86210A0F8C2
:104530006A1010BD10B5FEF731FE0A20FCF780F9B5
:104540003620FFF7B1FD0020FFF7DAFD3A20FFF734
:10455000ABFD0520FFF7D4FDB220FFF7A5FD0C2031
:10456000FFF7CEFD0C20FFF7CBFD0020FFF7C8FDC5
:104570003320FFF7C5FD3320FFF7C2FDB720FFF75B
:1045800093FD3520FFF7BCFDBB20FFF78DFD192003
:10459000FFF7B6FDC020FFF787FD2C20FFF7B0FD29
:1045A000C220FFF781FD0120FFF7AAFDC320FFF71E
:1045B0007BFD1220FFF7A4FDC420FFF775FD20202E
:1045C000FFF79EFDC620FFF76FFD0F20FFF798FD58
:1045D000D020FFF769FDA420FFF792FDA120FFF78F
:1045E0008FFDE020FFF760FDD020FFF789FD04205C
:1045F000FFF786FD0D20FFF783FD1120FFF780FDFB
:104600001320FFF77DFD2B20FFF77AFD3F20FFF7FA
:1046100077FD5420FFF774FD4C20FFF771FD182043
:10462000FFF76EFD0D20FFF76BFD0B20FFF768FD18
:104630001F20FFF765FD2320FFF762FDE120FFF754
:1046400033FDD020FFF75CFD0420FFF759FD0C205F
:10465000FFF756FD1120FFF753FD1320FFF750FD24
:104660002C20FFF74DFD3F20FFF74AFD4420FFF7C8
:1046700047FD5120FFF744FD2F20FFF741FD1F208C
:10468000FFF73EFD1F20FFF73BFD2020FFF738FD21
:104690002320FFF735FD2120FFF706FD1120FFF74E
:1046A00003FD7820FCF7CCF82920FFF7FDFC022061
:1046B000FEF728FF0020FEF701FF6FF07F40FEF7B6
:1046C0000FFFFEF7F9F807490122054808600020AE
:1046D000054908724021BDE810400448FCF7E0B9E4
:1046E0004800002478000024B0090024001C02586F
:1046F0002DE9F0411C4616460D460746DDF81880A8
:104700000AE000BFFCF7D8F9A0EB0800A04202D3F2
:10471000601C01D00BE054B13868406935EA0000F4
:1047200007D00020B042EDD00020BDE8F08103208A
:10473000FBE70120F6E77047FCF7C4B970B59CB001
:104740004C216846FBF7FEFD202113A8FBF7FAFD7C
:104750000220FCF74DFA2D4900242D480A6822F06A
:1047600001020A600A68026842F44042026002687C
:1047700002F440421B9202689204FCD5254A136859
:1047800043F002031360126802F002021B920268F7
:1047900042F44042026002680A6842F001020A6084
:1047A000096801F001011B9101688904FCD50DF134
:1047B000280C022009900521C0228CE80700C303C1
:1047C0000F9008250D9001260E90CDE91054CDE9EB
:1047D000006368461294FDF771FA08B172B6FEE7FD
:1047E00040201A903F210301CDE916500322CDE964
:1047F000180313AB13A883E816000421FDF74EF845
:10480000002801D072B6FEE71CB070BD2C04005821
:1048100018480258F44402582C48F0B52C4A016854
:1048200041F470010160106800F00F00072804D205
:10483000106820F00F00C01D106026490020254C94
:1048400010340B68244D43F001030B6020600B68AB
:104850002B400B60136803F00F03072B04D9136878
:1048600023F00F03DB1D13601A4C1C4A18341C4B39
:10487000261D371D2060174C1A4D28343060261D28
:104880003860371D23603B1D35601C1D3A60251DB7
:104890002E1D1860331D22602860326018600A687F
:1048A0000C4B114C22F4802260330A60186020689F
:1048B0006FF30F00B0F1005F03D20C490120C1F883
:1048C000080143F2D2000A490860F0BD88ED00E01B
:1048D00000200052004402587FEDF6EA80020101F8
:1048E000000202020000FF010010005C0080005185
:1048F0000040005230B5416EB9B101680D4B03F173
:1049000008048A688968C2F34262490F5D5C615C91
:104910002D01B5FBF1F1A0F86A10995CA25C0901C8
:10492000B1FBF2F1A0F8681030BD0121A0F86A10C7
:10493000F8E70000C0CF000890F82810C90706D09B
:104940000168C36A4A6822F400321A434A6090F848
:104950002810890706D50168036B4A6822F4803263
:104960001A434A6090F82810490706D50168436B3E
:104970004A6822F480221A434A6090F828100907F6
:1049800006D50168836B4A6822F400421A434A60E4
:1049900090F82810C90606D50168C36B8A6822F40E
:1049A00080521A438A6090F82810890606D501685B
:1049B000036C8A6822F400521A438A6090F8281027
:1049C000490611D50168436C4A6822F480121A43E3
:1049D0004A60416CB1F5801F06D10168836C4A685A
:1049E00022F4C0021A434A6090F82810090606D53E
:1049F0000168C26C486820F400201043486070478A
:104A00002DE9F84300250446C0F89050FCF754F80F
:104A10008046206820266FF07E470068000713D587
:104A20000022434631042046009700F03FFA58B177
:104A3000216851E8000F20F0800041E80002002AC0
:104A4000F6D1C4F8886021E020680068400722D5CC
:104A5000002243464FF480012046009700F026FADA
:104A6000C8B1206850E8001F21F4907140E800129E
:104A7000002AF6D12068083050E8001F21F001011B
:104A800040E80012002AF5D1C4F88C60032084F8B5
:104A90008450BDE8F883C4F88860C4F88C60E5668B
:104AA0002567002084F88450F3E7000010B5026801
:104AB00052E8001F21F4907142E80013002BF6D158
:104AC0000E4B0268083252E8001F194042E80014F9
:104AD000002CF6D1C16E012908D1026852E8001FEE
:104AE00021F0100142E80013002BF6D10021202212
:104AF000C0F88C20C166416710BD0000FEFFFFEFCB
:104B00002DE9F04304468068D84E87B0D84B216821
:104B1000D4E90427D4F81CC010430A68002547EAEA
:104B20000C073843324002430A602068E26841685B
:104B300021F44051114341602268A1699A4201D099
:104B4000206A01439768DFF82CC3CB4ECB4807EAB5
:104B50000C070F4397602168676ACA6A22F00F0248
:104B60003A43CA622268B2420ED1006800F03800AF
:104B7000182873D047DCB8B3082879D010286FD133
:104B800078E028287ED17BE0BD498A4209D10068BF
:104B900000F00700062875D2DFE800F0546A6C6E5A
:104BA0007072B8498A4209D1006800F007000628EF
:104BB00068D2DFE800F0475D5F616365B2498A4211
:104BC00009D1006800F0070006285BD2DFE800F09A
:104BD0003A5052545658AD498A420BD1006800F001
:104BE000070006284ED200E010E0DFE800F02B417D
:104BF00043454749A6498A420AD1006800F0380077
:104C0000182839D0B7DD2028BBD13CE001203AE09C
:104C1000A0498A4209D1006800F00700062831D275
:104C2000DFE800F01026282A2C2E9B498A420BD15F
:104C3000006800F00700062824D2DFE800F003191E
:104C40001B1D1F2100201EE09A421BD18B48001D16
:104C5000006800F00700062814D202E00CE007E02C
:104C600010E0DFE800F0030507090B0D02200AE061
:104C7000042008E0082006E0102004E0202002E0E4
:104C8000402000E080208549DFF814829A42854A5E
:104C90004FF400434FEA21174FF000064ED1102881
:104CA0001AD006DC022809D004280BD008287CD1B1
:104CB0000DE020283ED0402877D13DE0FBF7C2FF31
:104CC000014610E06846FBF7CFFF01990BE003A80F
:104CD000FCF76CF8049906E01068800605D51068AA
:104CE000C0F3C100C140002970D0606A676838F81D
:104CF000102007EB4703B1FBF2F0834255D8B0EB2D
:104D0000073F52D8002308461946FBF7E3FA02464C
:104D10007808130E120243EA012110183A46714135
:104D20000023FBF7D7FA604AA0F5407191423CD8C6
:104D300021688FE03946D8E71946D6E7D4F81CC079
:104D40004FF6EF799C4546D1082819D005DC58B1BB
:104D500001280CD0042875D10DE0102815D020288A
:104D600035D040286ED134E0FCF7E8FE01E0FCF7D6
:104D7000F7FE014610E06846FBF776FF01990BE06D
:104D800003A8FCF713F8049906E01068800604D520
:104D90001068C0F3C100C140C1B1636A606838F8EF
:104DA0001330B1FBF3F1490000E04BE001EB50019F
:104DB000B1FBF0F0A0F11001494543D84FF6F07374
:104DC0002168C0F342021840104343E043E03946F3
:104DD000E3E71946E1E7082819D005DC58B10128B6
:104DE0000CD004282ED10DE0102815D020282BD06F
:104DF000402827D12AE0FCF7A1FE01E0FCF7B0FE35
:104E0000014610E06846FBF72FFF01990BE003A86D
:104E1000FBF7CCFF049906E01068800604D5106803
:104E2000C0F3C100C140B1B1636A606838F81330A3
:104E3000B1FBF3F101EB5001B1FBF0F0A0F1100177
:104E4000494505D9012506E03946EDE71946EBE766
:104E5000216880B2C8600120A4F86A00A4F8680044
:104E600028466667A66707B0BDE8F083F369FFCF01
:104E7000000C0058FFF4FF11001001405444025888
:104E80000044004000480040004C004000500040FA
:104E90000014014000780040007C00400090D003E6
:104EA000A8CF000800440258FFFC0F002DE9F0478E
:104EB000994617460E460446089D4FF000082FE01D
:104EC000681C2DD0FBF7F8FDA0EB0900A84214D810
:104ED0009DB120680168490722D5C169C943090706
:104EE0000DD4082505622046FFF7E0FDC4F8905078
:104EF000012084F88480BDE8F0870320FBE7C069C7
:104F0000C04300050CD421684FF4006008622046BD
:104F1000FFF7CCFD2021C4F8901084F88480ECE7E2
:104F20002068C06936EA000004D00020B842C7D02B
:104F30000020E0E70120F9E7FEE700000FB4084B8E
:104F400010B504A902AA039800F0EEF8044602A9DD
:104F5000002000F06CFC204610BC5DF814FB000043
:104F60002F580008090700284FEA116104DB00F1FF
:104F7000E02080F80014704700F00F0000F1E020FE
:104F800080F8141D704702E008C8121F08C1002AEB
:104F9000FAD170477047002001E001C1121F002ABA
:104FA000FBD170472DE9FF5F82B00021DDE90430BD
:104FB000020DDDF840B0034318D044F61050A2F2C1
:104FC000FF3242431514119801281FD0A5EB0B00A6
:104FD000401C5FEA000A4FF000064E4FDFF83891A0
:104FE000B046504615D5CAF1000413E011980124CB
:104FF0004AA3012801D16FEA0B010298119AC0E976
:105000000031C0E9024206B0BDE8F09FCBF10000DC
:10501000DFE704460021404A491842EB0450CDE93D
:10502000001012E0E00707D032463B4640464946B2
:10503000FBF76FFA8046894632463B4610461946D2
:10504000FBF767FA06460F466410002CEAD1DDE94B
:105050000401DDE90023BAF1000F06DAFBF759FA83
:1050600042464B46FBF755FA05E0FBF7C4FA4246C9
:105070004B46FBF7C0FA04460E460022284BFBF7CE
:1050800041FB03D84FF0FF30014607E00022254BDB
:1050900020463146FBF796F9FBF71CFB102409E08C
:1050A000002C0ADB0A220023FBF714F9039B3032A1
:1050B0001A55641E50EA0102F2D1641C039AC4F12D
:1050C00011031444119A012A03D0012208430DD17F
:1050D0000AE0084304D000204FF0110B119072E752
:1050E000A3EB0B056D1E0DE05B4504DD4FF00002E8
:1050F00005F1010504E003DA4FF00002A5F1010516
:10510000002AECD002981199C0E90231C0E90045AB
:1051100079E70000000014400000F03F300000007C
:105120000000F0430000E03F2DE9FF4F95B09A46A4
:10513000884606460025EEE1252877D1002427463B
:10514000F94A0121039400E0044316F8013F203B93
:1051500001FA03F01042F7D130782A2811D06FF00D
:105160002F033078A0F13002092A16D8039A44F0B0
:10517000020402EB820203EB42021044761C03900D
:10518000EFE758F8042B0392002A03DA504244F464
:105190000054039044F00204761C30782E2816D177
:1051A00016F8010F44F004042A280DD06FF02F02E6
:1051B0003078A0F13003092B09D807EB870302EB05
:1051C0004303C718761CF3E758F8047B761C307845
:1051D0006C280FD006DC4C2817D068280DD06A2820
:1051E00014D104E0742810D07A280FD10DE044F4D3
:1051F00000140AE044F4801401E044F4401472788E
:10520000824202D104F58014761C761C3078662820
:105210000BD013DC582877D009DC002875D045283E
:10522000F6D04628F4D047281AD193E118E0632835
:1052300035D0642879D0652812D18BE1702873D0DD
:1052400008DC6728F1D069286FD06E280DD06F2850
:1052500006D1ACE073282CD0752874D0782853D0B0
:105260005246179990476D1C54E1C4F3025002282E
:1052700009D003280DD0D8F8001004280DD00D60F7
:1052800008F1040846E1D8F80010EA17C1E9005215
:10529000F6E7D8F800100D80F2E70D70F0E718F887
:1052A000041B8DF8001000208DF80100EB46012052
:1052B00003E058F804BB4FF0FF3061074FF00001E6
:1052C00002D40DE009F101018946B9420FDA8145A6
:1052D000F8DB1BF809100029F4D108E009F10101FD
:1052E00089468142FADB1BF809100029F6D10398A0
:1052F0005346A0EB090721463846179A00F080FA7A
:10530000284400EB090507E044E008E10DE01BF844
:10531000010B524617999047B9F10109F7D253464C
:1053200021463846179AF2E039E00A21C4F30252C6
:105330004FF0000B0091022A06D058F8040BC11759
:10534000032A09D00AE023E008F1070020F0070251
:10535000F2E80201904605E000B2C117042A01D12B
:1053600040B2C117002906DA0A460021404261EB2B
:1053700002012D2202E0220504D52B228DF8042003
:10538000012203E0E20701D02022F7E7914657E02F
:105390000A2100E010214FF0000B00910BE01021DA
:1053A0004FF0000B44F004040827009103E00820AC
:1053B0004FF0000B0090C4F30252022A05D058F8B7
:1053C000040B0021032A08D008E008F1070020F0B0
:1053D0000702F2E80201904603E080B2042A00D1FD
:1053E000C0B24FF0000922072AD53278702A07D0C0
:1053F000DDF800C08CF0100C5CEA0B0C05D00EE060
:1054000040228DF80420012208E050EA010306D072
:1054100030238DF804308DF8052002229146009B40
:1054200083F0080353EA0B030AD150EA010201D1C9
:10543000620705D530228DF804204FF001097F1E48
:105440003278582A04D039A20C920CAA02920BE0AE
:105450003BA2F9E75B46009AFAF73CFF0C9B9B5C8A
:10546000029A521E0292137050EA0102F2D102987F
:1054700004A9081A00F1200B600702D524F4803437
:1054800000E001275F4502DDA7EB0B0000E00020F4
:1054900000EB0B01009003984944401A0390E0038D
:1054A00006D453462146179A039800F0A9F90544FB
:1054B000002706E001A85246C05D179990476D1C71
:1054C0007F1C4F45F6DBE0030CD553462146179A67
:1054D000039800F095F9054404E0302052461799EE
:1054E00090476D1C0099481E00900029F5DC08E0EB
:1054F0000298029952460078491C029117999047E8
:105500006D1CBBF10001ABF1010BF1DC5BE100F0C4
:1055100065F90544761C307800287FF40DAE19B08B
:105520002846BDE8F08F00000928010030313233F1
:1055300034353637383961626364656600000000CF
:1055400030313233343536373839414243444546B9
:1055500000000000600700D4062708F1070020F0D3
:105560000700F0E80223804603F0004C5FEA0C00DD
:1055700001D097A009E0200501D596A005E0E0073D
:1055800001D095A001E0AFF24C001390307823F0E9
:10559000004365280CD006DC452809D046281DD0DC
:1055A00047287FD13BE0662818D067287AD136E0BB
:1055B0000021112F01DB112000E0781CCDE9000152
:1055C00004A90CA8FFF7EEFCDDE90D010C9A4FF0E1
:1055D000000B07F10109109200914EE04FF00040DE
:1055E0000097CDE9011004A90CA8FFF7DBFCDDE969
:1055F0000D020C9B0F994FF0000B914610930092F7
:1056000011B9791C00EB0109B7EB090003D4C0F113
:10561000FF3B07F10109A9EB0700019042E0012FD0
:1056200000DA01270021112F01DD112000E03846AA
:10563000CDE9000104A90CA8FFF7B4FCDDE90D01D8
:105640000C9A00914FF0000BB946109221070FD42D
:10565000009A4A4503DA914601E0A9F10109B9F13E
:10566000010F05DD109AA9F10101515C3029F4D038
:10567000B84202DA10F1040F03DA0121CDE901107A
:1056800010E0002803DC8344A9EB000102E0411C88
:10569000494500DD8946A0EB0B00401C01904FF00E
:1056A00000400290200705D40198484502DB4FF0E6
:1056B000FF30019000208DF84B0002980DF14B0750
:1056C000B0F1004F25D002200C902B200D900298B5
:1056D00000280CDA404202902D200D9007E00A21AC
:1056E0000298FAF73AFE3031029007F8011D0C9942
:1056F000481E0C900029F2DC02980028EFD1791E98
:105700000D980870307800F0200040F0450007F850
:10571000020D11A8C01BC01D02901398007800B1A3
:10572000012000EB0901019801EBE07102980144AE
:105730000398401A401E0390E00306D453462146C6
:10574000179A039800F05CF805441398007818B194
:105750005246179990476D1CE00323D553462146C6
:10576000179A039800F04CF805441BE0BBF1000FBA
:1057700007DB0098584504DD1098179910F80B00C6
:1057800001E0179930205246904701980BF1010B28
:10579000401E05F10105019004D12E2052461799B3
:1057A00090476D1CB9F10001A9F10109DEDC05E0AB
:1057B00017F8010B5246179990476D1C0299481E25
:1057C00002900029F4DC53462146179A03989EE67E
:1057D0002D0000002B000000200000002DE9F0410A
:1057E000044600251E461746880404D405E03946C1
:1057F0002020B0476D1C641EF9D52846BDE8F08115
:105800002DE9F041044600251E469046C80301D507
:10581000302700E02027880404D505E041463846BB
:10582000B0476D1C641EF9D52846BDE8F0810A68B2
:10583000531C0B60107070473D4A002008B511687A
:10584000890311D4BFF34F8FBFF36F8F39490860BD
:10585000BFF34F8FBFF36F8F116841F400311160B8
:10586000BFF34F8FBFF36F8F1168C90323D4304943
:1058700070310860BFF34F8F081F43F6FF74006854
:105880002C4D1035C0F34E31C0F3C90304EA411664
:10589000184600BF46EA80772F60401EFAD2491EA4
:1058A000F4D2BFF34F8F106840F480301060BFF324
:1058B0004F8FBFF36F8FFBF70DF9FEF73FFF1E48C9
:1058C000016841F001010160016801F001010091EE
:1058D000016841F040010160016801F04001009160
:1058E000016841F080010160006800F080000090D4
:1058F000FEF76CFCFEF73EFCFEF714FCFEF71AFE0A
:105900000E4D4FF4005400BFFDF760FEFEF732F974
:10591000FEF7CCFAFDF7D2FEFEF760F8FEF7E2F8EC
:10592000FDF7D0FF21462846FBF7B2F8ECE7000070
:1059300014ED00E050EF00E0E04402580008025887
:105940000000000F000080070000000000001F00A2
:1059500000C0070000000000003F0000E00700005A
:10596000000000007EE01FF007000000000000FCC7
:10597000FCFFF903000000000000F8FFFFFF01003A
:105980000000000000F0FFFFFF000000000000002A
:10599000F0FFFF7F00000000000000F8FFFF7F0025
:1059A000000000000000FCFFFFFF010000000000FD
:1059B00000FEFFFFFF03000000000000FEFFFFFFEE
:1059C00003000000000000FFFFFFFF0700000000D1
:1059D0000080FFFFFFFF0F000000000080FFFCFFC2
:1059E000F90F0000000000C0FFFCFFF91F000000DD
:1059F0000000C0FFFCFFF91F0000000000E0FFFFF7
:105A0000FFFF1F0000000000E0FFFFFFFF3F00005E
:105A1000000000E0FFFFFFFF3F0000000000E0FF8C
:105A2000FFFFFF3F0000000000E0FFFFFFFF3F001F
:105A300000000000E0FFFFFFFF7F0000000000F01B
:105A4000FFFFFFFF7F0000000000E0FFFFFFFF7F80
:105A50000000000000000000000000000000000046
:105A6000000000000000000000001CF0FFFFFFFF2E
:105A70007FE0000000FFF0FFFFFFFF7FF803000062
:105A8000FFF1FFFFFFFF7FFC070080FFF1FFFFFF3B
:105A9000FF7FFC0F0080FFF3FFFFFFFF7FFC0F0085
:105AA00080FFF3FFFFFFFF7FFE1F00C0FFF3FFFF3C
:105AB000FFFF7FFE1F00C0FFF3FFFFFFFF7FFE1F02
:105AC00000C0FFF3FFFFFFFF7FFE1F00C0FFF3FFDB
:105AD000FFFFFF7FFE1F00C0FFF3FFFFFFFF7FFE02
