:020000040800F2
:10000000F8220020B102000803560008FD4C000849
:10001000015600085B080008956600080000000013
:10002000000000000000000000000000955E0008D5
:10003000C10F00080000000033580008975E000858
:10004000CB020008CB020008CB020008CB0200085C
:10005000CB020008CB020008CB020008CB0200084C
:10006000CB020008CB020008CB020008CB0200083C
:10007000CB020008CB020008CB020008CB0200082C
:10008000CB020008CB020008CB020008CB0200081C
:10009000CB020008CB020008CB020008CB0200080C
:1000A000CB020008CB020008CB020008CB020008FC
:1000B000CB020008CB020008CB020008CB020008EC
:1000C000CB020008CB020008CB020008CB020008DC
:1000D000CB020008CB020008CB020008CB020008CC
:1000E000CB020008CB02000800000000CB02000891
:1000F000CB020008CB020008CB020008CB020008AC
:10010000CB020008CB020008CB020008CB0200089B
:10011000CB020008CB020008CB020008CB0200088B
:10012000CB020008CB020008CB020008CB0200087B
:10013000CB020008CB020008CB020008CB0200086B
:1001400000000000000000000000000000000000AF
:10015000CB020008CB020008E1090008CB0200082E
:10016000CB020008CB020008CB020008CB0200083B
:10017000CB020008CB0200084D090008CB020008A2
:10018000CB020008CB020008CB020008CB0200081B
:10019000CB020008CB020008CB020008CB0200080B
:1001A000CB020008CB020008CB020008CB020008FB
:1001B000CB020008CB020008CB020008CB020008EB
:1001C000CB020008CB020008CB020008CB020008DB
:1001D000CB020008CB020008CB020008CB020008CB
:1001E000CB020008CB020008CB020008CB020008BB
:1001F000CB020008CB020008CB020008CB020008AB
:10020000CB020008CB020008CB020008CB0200089A
:10021000CB020008CB020008CB020008CB0200088A
:10022000CB020008CB020008CB020008000000004F
:10023000CB020008CB02000800000000CB0200083F
:10024000CB020008CB020008CB020008CB0200085A
:10025000CB020008CB020008CB020008CB0200084A
:10026000CB020008CB020008CB020008CB0200083A
:10027000CB020008CB020008CB02000800000000FF
:10028000CB020008CB020008CB02000800000000EF
:1002900000000000CB020008DFF810D000F05CFA8C
:1002A00000480047CD6F0008AFF30080F82200201F
:1002B0000648804706480047FEE7FEE7FEE7FEE700
:1002C000FEE7FEE7FEE7FEE7FEE7FEE7755F0008F4
:1002D000990200082DE9F05F0546002092469B46F2
:1002E00088460646814640241BE02846414647464C
:1002F000224600F069F853465A46C01A914110D37D
:1003000011461846224600F050F82D1A67EB0108F6
:100310004F4622460120002100F047F817EB000964
:100320004E41201EA4F10104DFDC484631462A4636
:100330004346BDE8F09F40EA01039B0703D009E074
:1003400008C9121F08C0042AFAD203E011F8013BC1
:1003500000F8013B521EF9D27047D2B201E000F81A
:10036000012B491EFBD270470022F6E710B5134659
:100370000A4604461946FFF7F0FF204610BD30B587
:100380000B46014600202022012409E021FA02F553
:100390009D4205D303FA02F5491B04FA02F52844ED
:1003A000151EA2F10102F1DC30BD202A04DB203A47
:1003B00000FA02F1002070479140C2F1200320FAB8
:1003C00003F3194390407047202A04DB203A21FAB6
:1003D00002F00021704721FA02F3D040C2F120025E
:1003E00091400843194670472DE9FE4F804681EA47
:1003F0000300C00F0C46009021F0004123F000459F
:10040000B8EB0200A94105D24046214690461C4661
:100410000B46024623F00040104347D0270DC7F398
:100420000A00C3F30A510290401A019040286BDA87
:10043000C3F3130040F4801B0098924620B10023C0
:10044000D2EB030A63EB0B0B01985946C0F1400253
:100450005046FFF7AAFF06460D4650465946019AF8
:1004600000F08CF910EB08006141002487EA11527A
:1004700084EAE7731A4340D0009A62B3019A012AD2
:100480004FEA075215DC001B61EB02014FF00042FE
:1004900002EA0752CDE90042001C41F580113246C4
:1004A0002B4600F08CF903B0BDE8F08F40462146A2
:1004B000F9E7001B61EB0201001C41F580130018F5
:1004C0005B412018A2F5001747EB030140EAD57005
:1004D000B6196D4111E06D084FEA360645EAC07560
:1004E0004FEA0752001B61EB0201001C41F580112D
:1004F00049084FEA30000019514132462B4603B0FB
:10050000BDE8F04F00F04CB90098012240000023F4
:10051000D0EB020263EBE073009821464FEAE074EF
:10052000B8EB000061EB0401E9E783F000435BE70F
:1005300081F0004158E72DE9FE4F81EA030404F001
:10054000004421F0004100944FF0000B23F00043E1
:1005500050EA01045ED052EA03045BD0C3F30A54AC
:10056000C1F30A552C44A4F2F3340194A0FB0254C5
:10057000C1F3130141F48011C3F3130343F4801357
:1005800001FB024400FB034E840A970A44EA8154AB
:1005900047EA8357A4FB076802958D0A05FB078588
:1005A0004FEA932C04FB0C542705029D4FEA065892
:1005B00047EA1637B5EB08056EEB070C870E920E6F
:1005C00047EA811742EA8312A7FB0201B6EB0B014F
:1005D00064EB00042B0D43EA0C335E1844EB1C5013
:1005E000DA465146E7FB0201C5F313044FEA0B3329
:1005F00043EA14534FEA0432019C43EA0603A4F190
:100600000C040294009CCDE900B400F0D8F803B0CB
:10061000BDE8F08F00200146F9E72DE9F04D81EAB1
:10062000030404F0004B21F0004514464FF0000A8B
:1006300023F0004150EA050220D054EA01021DD007
:10064000C5F30A570246C5F31303C1F31300C1F300
:100650000A5640F4801543F48013A7EB0608101BDC
:10066000D64608F2FD3873EB050002D308F1010805
:1006700001E092185B41B8F1000F03DA0020014657
:10068000BDE8F08D00204FF48011064684460EE050
:10069000171B73EB050705D3121B63EB050306431A
:1006A0004CEA010C49084FEA300092185B4150EACD
:1006B0000107EDD152EA030012D082EA040083EA76
:1006C0000501084305D0101BAB4106D201220023CF
:1006D00006E000224FF0004302E06FF001025310E9
:1006E0001AEB06004CEB085110EB0A0041EB0B0132
:1006F000BDE8F04D00F054B8C1F30A52C1F3130144
:1007000040F2FF3341F480119A4202DA00200146A0
:10071000704740F233439A42A2F2334202DC524223
:10072000FFF752BEFFF741BE30B5041E71F1000461
:1007300004DB4FF00044404264EB0101141E73F1EE
:10074000000405DB1C464FF00043524263EB0403F8
:10075000994208BF904230BD064C074D06E0E06864
:1007600040F0010394E8070098471034AC42F6D3F8
:10077000FFF796FD5497000874970008202A06DBBF
:10078000CB17203A41FA02F043EAE07306E041FA5F
:1007900002F3D040C2F1200291400843194670474D
:1007A00010B5141E73F1000408DA401C41F1000179
:1007B00092185B411A4301D120F0010010BD2DE9D0
:1007C000F04D92469B4611B1B1FA81F202E0B0FAC7
:1007D00080F220329046FFF7E8FD04460F4640EADB
:1007E0000A0041EA0B0153465A46084313D011460A
:1007F00053EA010019D0C8F140025046FFF7E4FD6A
:1008000005460E46504659464246FFF7CEFD084380
:1008100005D0012004E020463946BDE8F08D0020D7
:10082000054346EAE0762C4337430A986305E40A19
:10083000A0EB08000022FD0A44EA47540A3002D522
:1008400000200146E9E7010510196941DDE9084585
:1008500000196941BDE8F04DA2E7FEE710B5806BD5
:10086000816C496D022906D0012180F83510C16CD8
:1008700041F04001C16400F08EFC10BD10B5816BE9
:100880000C468A6B886C0168CAB10A68A36B02F4D3
:100890000022DB0706D12AB1C968E26B01EBC20175
:1008A000002207E00A68120319D40969E26B01EB20
:1008B000C201012200F004FFA06B401E0EE0086898
:1008C000000302D5606CC86009E00868000306D424
:1008D000E26B606C00EB82000861206CA063A06B8F
:1008E000216C88420BD12068C16841F00101C160D0
:1008F00020680068800702D5012084F8350010BD0B
:1009000010B586B014216846FFF72EFD0D4801682A
:1009100041F040010160006801220B4C802100F091
:1009200040000590204602F0EEFA012100228020CE
:10093000CDE90001CDE902126946204602F0C0F976
:1009400006B010BDE044025800180258014800F0FB
:100950003BBC00004400002070B505F0CBF8FFF769
:10096000CFFF04F01FFF04F00FFF0146A0F5AC40DD
:10097000403805D00EA005F08FFE4FF0FF3070BD5F
:1009800012A005F089FE04F09DFE4FF45C7540F264
:10099000EF142146284604F025FF4FF4F07123465A
:1009A0004FF448702A4604F0A1FE002070BD0000FC
:1009B0004F5635363430204552524F522121212195
:1009C00021202049443A25580D0A00004F5635365B
:1009D0003430204F4B2C49443A307825580D0A00CA
:1009E0003B48202110B5826D90F85C30126803F00E
:1009F0001F039940114265D03649006888423AD0B9
:100A000034491831884236D032493031884232D0A8
:100A10003049483188422ED02E49603188422AD050
:100A20002C497831884226D02A499031884222D0F8
:100A30002849A83188421ED0274988421BD0264920
:100A40001831884217D024493031884213D02249C6
:100A5000483188420FD02049603188420BD01E496E
:100A60007831884207D01C499031884203D01A4916
:100A7000A831884203D1016801F0100102E0016849
:100A800001F00201F1B1016849031BD501684FF47F
:100A90001632134C114809032188C1EB011101EBF7
:100AA000810100EBC12001D40E4901E04FF010514B
:100AB000FFF741FC2088401C20802088052801D3B6
:100AC00000202080BDE81040014801F0B7B90000C7
:100AD0006C020020100002401004024000B80BC05D
:100AE0002800002000580224294A016891423AD087
:100AF000274A1832914236D0254A3032914232D0BC
:100B0000234A483291422ED0214A603291422AD063
:100B10001F4A7832914226D01D4A9032914222D00B
:100B20001B4AA83291421ED01A4A91421BD0194A40
:100B30001832914217D0174A3032914213D0154AD9
:100B4000483291420FD0134A603291420BD0114A81
:100B50007832914207D00F4A9032914203D00D4A29
:100B6000A832914211D1CAB21823103AB2FBF3F263
:100B70006FF30901032A02F00703074AD25CC2653A
:100B800000D9091D81650846704721F0FF01F9E78A
:100B900010000240100402401197000830B5224AAC
:100BA000012301689142CAB21BD01F4C1434A142E8
:100BB00017D01D4C2834A14213D01B4C3C34A14209
:100BC0000FD0194C5034A1420BD0174C6434A142C1
:100BD00007D0154C7834A14203D0134C8C34A14279
:100BE0000CD11421114C083AB2FBF1F10F4A8032BA
:100BF00001F01F0504EB8101AB4010E00C4D1824FF
:100C0000103A0D44B2FBF4F1A82D00D80831094A7E
:100C100001F01F0402EB8101064AA34080326030DC
:100C200080E80E0030BD00000854025800580258F9
:100C3000F0FBFDBF0008024010B50279531E072BE0
:100C40002DD8174C0168A1421BD0154C1434A14279
:100C500017D0134C2834A14213D0114C3C34A1427C
:100C60000FD00F4C5034A1420BD00D4C6434A14234
:100C700007D00B4C7834A14203D0094C8C34A142EC
:100C800003D10849074C443102E00749064C44317E
:100C900004EB8202C0E91B2101219940416710BD8C
:100CA00008540258FC580258FC08024010B58369E9
:100CB0004FF0C074826A0146002053B1B3F5005F63
:100CC00015D072B1012A0CD0022A0AD0032A09D108
:100CD00004E01AB1012A06D0022A03D1C96AC90167
:100CE00000D5012010BDC96AA142FAD010BD002A6A
:100CF000F7D0012AF2D0022AF3D0032AF3D010BD94
:100D000030B5254D0468AC4238D0234D1835AC427F
:100D100034D0214D3035AC4230D01F4D4835AC4237
:100D20002CD01D4D6035AC4228D01B4D7835AC42DF
:100D300024D0194D9035AC4220D0174DA835AC4287
:100D40001CD0164DAC4219D0144D1835AC4215D0FC
:100D5000124D3035AC4211D0104D4835AC420DD05B
:100D60000E4D6035AC4209D00C4D7835AC4205D003
:100D70000A4D9035AC4201D0084DA83563608368B8
:100D8000402B036803D099600068C26030BD9A6050
:100D90000068C16030BD0000100002401004024035
:100DA0002DE9F04F804E804FDFF8FC911836DFF8C8
:100DB000F8A148370468856D0AF1300ADFF8ECB114
:100DC0004C45DFF8ECC1DFF8ECE16DD0B4426BD0FC
:100DD000544569D0BC4267D0DFF8D081A8F118082B
:100DE000444561D05C455FD064455DD074455BD0BF
:100DF000DFF8C481444557D0DFF8BC8108F11808FA
:100E0000444551D0DFF8B08108F1300844454BD05B
:100E1000DFF8A48108F14808444545D0DFF89881FF
:100E200008F1600844453FD0DFF88C8108F178086C
:100E3000444539D0DFF8808108F19008444533D02B
:100E4000DFF8748108F1A80844452DD0DFF86C81E3
:100E5000444529D0DFF8648108F11408444523D0C3
:100E6000DFF8588108F1280844451DD0DFF84C818F
:100E700008F13C08444517D0DFF8408108F15008DC
:100E8000444511D0DFF8348108F1640844450BD0A3
:100E9000DFF8288108F17808444505D0DFF81C8187
:100EA00008F18C08444509D1D0E91948C4F80480F8
:100EB000C46E1CB1D0E91C48C4F8048004684C45D9
:100EC0002ED0B4422CD054452AD0BC4228D0374E24
:100ED000183EB44224D05C4522D0644520D07445ED
:100EE0001ED0354EB4421BD0334E1836B44217D004
:100EF000314E3036B44213D02F4E4836B4420FD064
:100F00002D4E6036B4420BD02B4E7836B44207D00B
:100F1000294E9036B44203D0274EA836B44215D19C
:100F200090F85C603F2406F01F06B440AC60046893
:100F3000256825F4802525602EE09A600068C16050
:100F4000BDE8F08F99600068C260F9E71B4EB442BB
:100F50001BD01A4E1436B44217D0184E2836B4425D
:100F600013D0164E3C36B4420FD0144E5036B44215
:100F70000BD0124E6436B44207D0104E7836B442CD
:100F800003D00E4E8C36B442DAD190F85C60012466
:100F900006F01F06B4406C60046863608368402BF1
:100FA0000368CFD1C9E7000010000240880002406A
:100FB000A0000240B8000240100402400854025849
:100FC0007047000072B603A005F066FB0A2001F02E
:100FD000D9FDF8E76572726F72210A00F0B5D1E9A8
:100FE0000843CD690A68C2B10268254322F4F84279
:100FF00013431D430560D1E90125D1E903364C694E
:101000002A434568334389691A43EB0B2243DB03C8
:101010000A431A4342600020F0BDD1E9012ED1E914
:10102000036CD1E9057142EA0E0246EA0C0632432E
:101030003A430A4301682A4322431A436FF30E01DD
:101040000A430260E7E7426943F6FE739A4342EAC5
:10105000410141610020704770B591E81C00C968EA
:101060006FF01F0506691A4305EB441444EA412159
:101070000A4306EA45431A430261002070BD00009E
:101080002DE9F04F8B8A6FF00F05264C4FF07F4B08
:10109000D1F80C9004EB03536FF0FF044FEA042ADD
:1010A0001AB386684FEA09321F4FA2F580521A43DD
:1010B0003E4032438260D1E900278E68521E05EB24
:1010C00007150F8A2A43C56804EB06240E7E0AEB37
:1010D000074322431A430BEB06610A4305F07043B2
:1010E0001A43C2600020BDE8F08F91E804110F4E52
:1010F000521E0F8A05EB08152A4304EB0C2C06EB55
:1011000009350E7E42EA0C022A4385680AEB074441
:1011100022431A430BEB06610A4305F070431A435E
:101120008260DFE70000F0FFFF0F0FFF00F0FFFF1E
:1011300070B590F83440049D012C12D00124022691
:1011400080F8356043EA0543056841EA0241002220
:101150006B620368196280F8354080F834201046CD
:1011600070BD022070BD10B590F83410012910D068
:10117000012180F83410022280F8352050F8342BF9
:101180000023146844F0040414604170037018468E
:1011900010BD022010BD704710B501F0BFFE094C14
:1011A0006168401AB0F57A7F06D301F0B7FE60603F
:1011B00000216078A070617001216078401C60702F
:1011C000217010BD200000202DE9F0410446006888
:1011D000234F0426056969070BD54661E06C40F092
:1011E0000200E06484F83560A06C0765A06C00F034
:1011F000E3FCA8070DD5216802204861E06C40F0AF
:101200000100E06484F83560A06C0765A06C00F014
:10121000D3FCE80605D5216810204861204600F07F
:1012200073F8280705D5216808204861204600F09A
:1012300089F9E80712D020680168890703D5C168D9
:1012400021F01E01C16020680121C26822F0010264
:10125000C260206841612046FFF79EFFBDE8F08133
:101260005D0800082DE9F041040003D094F8350032
:1012700018B105E00120BDE8F081204600F046F8F5
:10128000A16902204FF0000E84F8350009B1C4F8BE
:1012900024E020681B4A016811400160D4E904522F
:1012A000E168D4E9010C29431043A269084354F8CA
:1012B000201B40EA0C001043B4E8E8100A68184309
:1012C00028433043384340EA0C001043086054F888
:1012D000300C343C102808D1A17FA08B2368E27F1A
:1012E00061F31F4040EA0260986120680121C268F2
:1012F00042F01E02C260C4F84CE084F835100020B1
:10130000B9E7000007F0E0FF704700002DE9F04169
:1013100086B0804614216846FFF726F84549D8F87C
:10132000000088427DD14448016841F0010101601C
:10133000006800F0010005903F48001D016841F081
:1013400040010160016801F040010591016841F030
:1013500008010160016801F008010591016841F090
:1013600010010160016801F010010591016841F070
:1013700004010160016801F004010591016841F078
:1013800001010160006802240025694600F00100A7
:10139000059003260D274FF460608DE8F100274883
:1013A00001F08EFC082069468DE8F100244801F028
:1013B00087FC702069468DE8F100224801F080FC2E
:1013C000C02069468DE8F1001F4801F079FC5020EB
:1013D00069468DE8F1001D4801F072FC1D4F4B205D
:1013E0001B4C391527608A00C4E901050B01C4E9CB
:1013F000035104F11401042081E82C00C4E90850D1
:10140000C4E90A652046256301F08CF808B1FFF7AE
:10141000D9FD0022C8F848400521C4F838804E2084
:1014200000E004E001F05EFF4E2001F04DFF06B049
:10143000BDE8F08100000248DC4402580018025860
:10144000000C025800100258000802580000025810
:101450006C020020B80402402DE9F843044690F8DD
:101460003400012833D0354802274FF0010884F8B2
:101470003480002584F8357026684FF4803C63453D
:10148000376847F48047376026684FF0400937686F
:1014900027F0020737602668376847EA0107376098
:1014A000A16CC863A66C2649F164A16C0D65A563A7
:1014B0002564E56365640DD22168A06C283101F0D4
:1014C00013FA80B3C4F84C9084F8358027E00220EA
:1014D000BDE8F883A16C46464864C4F83880E363ED
:1014E000626405E0E06B4008E063A06B4000A0632D
:1014F000E06B6045F6D2A06B801EA063A36BE16B2E
:10150000E06B2364009002EB81032168A06C28311A
:1015100000F01EF938B1C4F84C9084F83560012011
:1015200084F83450D4E7FFE72068016841F00101F6
:101530000160002084F83450CAE700007D080008EC
:101540005D08000870470000F0B590F86020012A9F
:1015500022D0C1EBC102012780F86070022380F81D
:10156000613000EB8202284D138F168EB2F83CC01A
:10157000D46A1B05283244EA064643EA4C530A2C37
:1015800046EA03060AD0092C08D0137B46EA036317
:1015900049B10B2C1AD01DE00220F0BDD36803F036
:1015A0007F433343F4E701684C6AAC431C434C620D
:1015B000016813688B6151680A2901D009291BD180
:1015C000D168026821F07F41916215E0118B0F4DC7
:1015D00043EA81430168CC69AC431C43CC61016898
:1015E00013680B6151680A2901D0092904D1D16817
:1015F000026821F07F411162002180F8617080F85B
:1016000060100846F0BD00000F0033FF0F003FFFE1
:101610002DE9F041040004D094F86100002518B1D0
:1016200007E00120BDE8F081204684F8605000F01A
:1016300033F8184E022084F861000123D4E9001029
:10164000D4F81CC040F207120F6840EA0C00374083
:10165000384308602068A769A168466B3943964300
:10166000314341632068E268016C6FF30F0111435D
:1016700001642068218AA28A466B090541EA425129
:1016800026F4401211434163656684F861300020FE
:10169000C8E70000BFFFF8FF08B5006806498842A8
:1016A00008D10648016841F010010160006800F0AF
:1016B0001000009008BD000000100052D4440258F1
:1016C0000068214B984238D01F4B1833984234D0D1
:1016D0001D4B3033984230D01B4B483398422CD0AE
:1016E000194B6033984228D0174B7833984224D056
:1016F000154B9033984220D0134BA83398421CD0FE
:10170000124B984219D0114B1833984215D00F4BF9
:101710003033984211D00D4B483398420DD00B4BCB
:101720006033984209D0094B7833984205D0074B73
:101730009033984201D0054BA83312B101610020CB
:101740007047C160FBE70000100002401004024037
:101750002DE9FF4F81B081689646044600200E9A1D
:101760008029009012D094F83400012813D094F806
:101770003500012184F8341001280ED0C90201205F
:1017800000906165009805B0BDE8F08F4FF480705F
:1017900060650120F7E70220F5E7FE4D022720688B
:1017A000002684F83570A842FB4D6665FB4EFC4F61
:1017B000DFF8F093DFF8F0A3DFF8F0B33FD0A842F2
:1017C0003DD0B0423BD0B84239D0484537D05045E3
:1017D00035D0584533D0DFF8D4C30CF1180C604530
:1017E0002DD0DFF8CCC3604529D0DFF8C4C30CF19D
:1017F000180C604523D0DFF8B8C30CF1300C6045FD
:101800001DD0DFF8ACC30CF1480C604517D0DFF8F1
:10181000A0C30CF1600C604511D0DFF894C30CF14B
:10182000780C60450BD0DFF888C30CF1900C604554
:1018300005D0DFF87CC30CF1A80C604510D1D0F8BE
:1018400000C03F214CF4802CC0F800C02068036128
:1018500094F85C30A06D03F01F039940816010E0A4
:10186000D0F800C048F220084CEA080CC0F800C0CC
:101870002068036194F85C30A06D03F01F03994069
:1018800041601346029972462046FFF739FAC94A69
:10189000C84BDFF820E31432DFF8F88228332068E1
:1018A0000EF13C0EC34940455FD0A8425DD0B04226
:1018B0005BD0B84259D0484557D0504555D05845CF
:1018C00053D0DFF8E8C20CF1180C60454DD0DFF8BA
:1018D000E0C2604549D0DFF8D8C20CF1180C604571
:1018E00043D0DFF8CCC20CF1300C60453DD0DFF8BE
:1018F000C0C20CF1480C604537D0DFF8B4C20CF11F
:10190000600C604531D0DFF8A8C20CF1780C60455E
:101910002BD0DFF89CC20CF1900C604525D0DFF88D
:1019200090C20CF1A80C60451FD088421DD0904297
:101930001BD0984219D0704517D0DFF878C20CF14F
:10194000500C604511D0DFF86CC20CF1640C60459E
:101950000BD0DFF860C20CF1780C604505D0DFF8E1
:1019600054C20CF18C0C604509D1D4E9190CC0F8B3
:1019700004C0E06E18B1D4E91C0CC0F804C0C44621
:10198000206860453FD0A8423DD0B0423BD0B8422D
:1019900039D0484537D0504535D0584533D0DFF899
:1019A0000C8208F1180840452DD0DFF8048240452C
:1019B00029D0DFF8FC8108F11808404523D0DFF872
:1019C000F08108F1300840451DD0DFF8E48108F1CE
:1019D0004808404517D0DFF8D88108F16008404535
:1019E00011D0DFF8CC8108F1780840450BD0DFF842
:1019F000C08108F19008404505D0DFF8B48108F1B6
:101A0000A808404518D1D0F8008028F01E0848F0FA
:101A10001608C0F800802068D0F8148048F08008CC
:101A2000C0F81480206C08B9A06CC0B12068D0F850
:101A3000008048F0080810E0D0F8008028F00E0878
:101A400048F00A08C0F80080206C08B9A06C30B1DA
:101A50002068D0F8008048F00408C0F800802068B2
:101A6000E046404557D0A84255D0B04253D0B84286
:101A700051D048454FD050454DD058454BD0DFF858
:101A80002CC10CF1180C604545D0DFF824C160452D
:101A900041D0DFF81CC10CF1180C60453BD0DFF8D9
:101AA00010C10CF1300C604535D0DFF804C10CF1E9
:101AB000480C60452FD0DFF8F8C00CF1600C604591
:101AC00029D0DFF8ECC00CF1780C604523D0DFF8AA
:101AD000E0C00CF1900C60451DD0DFF8D4C00CF1D3
:101AE000A80C604517D0884215D0904213D0984278
:101AF00011D070450FD02F49503188420BD02D495D
:101B00006431884207D02B497831884203D0294973
:101B10008C3188420DD1206E0168C90303D501685C
:101B200041F480710160E06E18B1016841F4807188
:101B300001602068404528D0A84226D0B04224D079
:101B4000B84222D0484520D050451ED058451CD020
:101B500016491831884218D01549884215D01449C1
:101B60001831884211D01249303188420DD01049C5
:101B70004831884209D00E496031884205D00C496D
:101B80007831884201D00A499031016841F0010161
:101B90000160F7E5100002402800024040000240CA
:101BA000580002407000024088000240A00002403D
:101BB00010040240085402582DE9F05F28B190F853
:101BC0003510022904D0802141650120BDE8F09F35
:101BD000904C904B0168183C18338E4ADFF83C92C9
:101BE000A1428D4CDFF838E28E4FDFF83CB2DFF8CF
:101BF0003CA28F4D8F4E31D091422FD099422DD0A3
:101C0000A1422BD0494529D0714527D0B94225D0D2
:101C1000DFF810C20CF1180C61451FD0DFF808C2C4
:101C2000ACF1600C614519D0DFF8FCC1ACF1480C97
:101C3000614513D0DFF8F0C1ACF1300C61450DD037
:101C4000DFF8E4C1ACF1180C614507D0594505D067
:101C5000514503D0A94201D0B1422CD1DFF8B4C123
:101C60004FF0040880F83580ACF1180C61451DD0A8
:101C700091421BD0994219D0A14217D0494515D0A5
:101C8000714513D0B94211D06648183081420DD049
:101C900065486038814209D063484838814205D0A0
:101CA00061483038814201D05F481838086820F018
:101CB00001000860ABE0D1F800C02CF00E08DFF89E
:101CC00054C1C1F80080ACF1180C0168614527D0FF
:101CD000914225D0994223D0A14221D049451FD01D
:101CE00071451DD0B9421BD0DFF838C10CF1180C7A
:101CF000614515D0DFF830C1ACF1600C61450FD003
:101D0000DFF824C1ACF1480C614509D0DFF818C1F7
:101D1000ACF1300C614503D0DFF80CC1ACF1180C0C
:101D2000D1F800C02CF0010CC1F800C0DFF8E4804D
:101D30004FF0010C0168A8F11808414546D09142C6
:101D400044D0994242D0A14240D049453ED071454D
:101D50003CD0B9423AD0334A1832914236D0324A56
:101D6000603A914232D0304A483A91422ED02E4ABF
:101D7000303A91422AD02C4A183A914226D05945FD
:101D800024D0514522D0A94220D0B1421ED02A4AA7
:101D900091421BD0284A1432914217D0264A283249
:101DA000914213D0244A3C3291420FD0224A503201
:101DB00091420BD0204A6432914207D01E4A7832B9
:101DC000914203D01C4A8C32914218D1016E0A68AC
:101DD00022F480720A6090F85C20816D02F01F028C
:101DE0000CFA02F24A60D0E919124A60C16E31B1B0
:101DF0000A6822F480720A60D0E91C124A6000224C
:101E0000016D80F835C080F8342001B1884700208A
:101E1000DCE600002800024058000240700002404A
:101E200088000240A0000240700402408804024082
:101E3000A0040240B8040240085402582DE9FC5F97
:101E40000446F74E0020DFF8D88300904FF4165276
:101E5000F44808F11808A56DDFF8C493DFF8C0A3B3
:101E6000016809F1300920680AF1480AB1FBF2F172
:101E7000B04201912F68D5F800C0DFF8ACB335D07F
:101E80004146884232D0484530D050452ED0584542
:101E90002CD0E5491831884228D0E34930318842B6
:101EA00024D0E1494831884220D0E04988421DD001
:101EB000DE491831884219D0DC493031884215D0CA
:101EC000DA494831884211D0DFF860E30EF1600E44
:101ED00070450BD0D54A7832904207D0D34B90331F
:101EE000984203D0D149A83188427DD194F85C2032
:101EF000082102F01F0201FA02F23A424AD0B0422F
:101F000032D0404530D048452ED050452CD0584591
:101F10002AD0C54A1832904226D0C34A3032904265
:101F200022D0C14A483290421ED0C04A90421BD0B3
:101F3000BE4A1832904217D0BC4A3032904213D079
:101F4000BA4A483290420FD0B84A603290420BD021
:101F5000B64A7832904207D0B44A9032904203D0C9
:101F6000B24AA832904203D1026802F0040202E0B1
:101F7000026802F008026AB1026822F004020260FC
:101F800094F85C0000F01F008140A960606D40F093
:101F90000100606594F85C00012100F01F008140A1
:101FA000394240D02068B04234D0404532D0484514
:101FB00030D050452ED058452CD09B4A18329042F4
:101FC00028D0994A3032904224D0974A48329042E1
:101FD00020D0964A90421DD0944A1832904219D08F
:101FE000924A3032904200E0AFE113D08F4A48323B
:101FF00090420FD08D4A603290420BD08B4A78329B
:10200000904207D0894A9032904203D0874AA83242
:1020100090427DD1406910F0800F04D0A960606DBE
:1020200040F00200606594F85C00042100F01F009D
:10203000814039423ED02068B04232D0404530D055
:1020400048452ED050452CD058452AD0764A1832D3
:10205000904226D0744A3032904222D0724A48329E
:1020600090421ED0714A90421BD0704A1832904262
:1020700017D06E4A3032904213D06C4A48329042A8
:102080000FD06A4A603290420BD0684A7832904250
:1020900007D0664A9032904203D0644AA8329042F8
:1020A0004ED1006810F0020F04D0A960606D40F0BE
:1020B0000400606594F85C00102100F01F0081406E
:1020C000394258D02068B04234D0404532D04845DB
:1020D00030D050452ED058452CD0534A183290421B
:1020E00028D0514A3032904224D04F4A4832904250
:1020F00020D04E4A90421DD04C4A1832904219D0FE
:102100004A4A3032904215D0484A4832904200E064
:1021100014E00FD0454A603290420BD0434A7832E7
:10212000904207D0414A9032904203D03F4AA832B1
:10213000904207D1006800F0080006E0006872E7EE
:102140000068B7E7006800F00400A0B1A96020684B
:102150000168490304D50068000308D5A16C07E0B5
:102160000168C90503D4016821F008010160216CF0
:1021700009B12046884794F85C00202100F01F0038
:102180008140394279D02068B04232D0404530D0C9
:1021900048452ED050452CD058452AD0224A1832D6
:1021A000904226D0204A3032904222D01E4A4832F5
:1021B00090421ED01D4A90421BD01C4A18329042B9
:1021C00017D01A4A3032904213D0184A48329042FF
:1021D0000FD0164A603290420BD0144A78329042A7
:1021E00007D0124A9032904203D0104AA83290424F
:1021F00003D1006800F0100002E0006800F0020067
:10220000B0B3A96094F835000428206801680FD0A5
:1022100049037ED5006800032BD4616C2AE00000DE
:1022200010000240380000207000024010040240FC
:1022300021F0160101602068416921F080014161AF
:10224000206C08B9A06C20B12068016821F0080159
:10225000016094F85C303F21012003F01F0300224D
:102260009940A96084F8350084F83420216D65E038
:1022700003E0E16B09B120468847606D00287DD0FE
:10228000606DC00759D02068042184F83510B04231
:102290002BD0404529D0484527D0504525D058451A
:1022A00023D09D49884220D09B49183188421CD0B8
:1022B00099493031884218D09849884215D09749B9
:1022C0001831884211D09549303188420DD0934958
:1022D0004831884209D091496031884205D08F4900
:1022E0007831884201D08D499031016821F0010197
:1022F000016020680099019A491C0091914202D81E
:102300000168C907F6D10068C00710D003200FE0AC
:10231000FFE70168C905ACD403680121002223F05E
:102320001003036084F8351084F83420A1E70120FD
:1023300084F83500002084F83400E16C00291DD0B9
:1023400002B02046BDE8F05F0847754988421DD0BD
:1023500073491431884219D071492831884215D007
:102360006F493C31884211D06D49503188420DD0BF
:102370006B496431884209D0694900E084E07831D2
:10238000884203D066498C3188427DD194F85C80C4
:102390000427016808F01F0807FA08F717EA0C0F6E
:1023A000009746D04F0744D500980F04686003D5C6
:1023B000C8033CD4A16CC1E7880638D42068B04279
:1023C0002DD055496039884229D0484527D05045FD
:1023D00025D0584523D05049884220D04E49183145
:1023E00088421CD04C493031884218D04B49884231
:1023F00015D04A491831884211D0484930318842B5
:102400000DD046494831884209D0704507D09042E6
:1024100005D0984203D04149A831884203D10168D0
:1024200021F0080102E0016821F004010160216C43
:1024300084E7022707FA08F717EA0C0F00974ED037
:102440008F074CD500980F04686003D5C80344D4A7
:10245000616C73E7880640D42068B0422FD02E49C3
:10246000603988422BD0484529D0504527D058455F
:1024700025D02949884222D02749183188421ED0C8
:1024800025493031884200E044E018D02349884291
:1024900015D022491831884211D020493031884264
:1024A0000DD01E494831884209D0704507D090426E
:1024B00005D0984203D01949A831884203D1016858
:1024C00021F0140102E0016821F00A0101600121FC
:1024D00084F83510002084F83400E16B2EE70822E0
:1024E00002FA08F212EA0C0F14D0090712D501689B
:1024F00021F00E01016094F85C100120002201F02F
:102500001F0100FA01F16960606584F8350084F804
:10251000342012E7BDE8FC9F88000240100402400E
:10252000085402582DE9F05F044600F0F7FC002C37
:1025300007467DD0E34E022120684FF00308DFF804
:1025400088934FF00005DFF884A3B042DFF880B332
:1025500034D0DC4A1832904230D048452ED0504515
:102560002CD058452AD0DA4A1832904226D0D84A80
:102570003032904222D0D64A483290421ED0D54ABC
:1025800090421BD0D34A1832904217D0D14A3032F1
:10259000904213D0CF4A483290420FD0CD4A603299
:1025A00090420BD0CB4A7832904207D0C94A903241
:1025B000904203D0C74AA83290427DD184F83510AA
:1025C000B04284F834502ED0BE49183188422AD007
:1025D000484528D0504526D0584524D0BC4918310C
:1025E000884220D0BA49303188421CD0B84948319D
:1025F000884218D0B749884215D0B6491831884268
:1026000011D0B449303188420DD0B24948318842A6
:1026100009D0B0496031884205D0AE49783188424E
:1026200001D0AC499031016821F00101016008E05E
:1026300027E100BF00F072FCC01B052801D9202152
:102640001CE120680068C007F4D104F1080021688B
:10265000D4E9053C8E4685C809681043D4E90728AB
:102660001F43636A38439C4F40EA0C0010433940D3
:1026700040EA0800042B40EA010003D1D4E90B1220
:1026800011430843954909686FF30F01B1F1005FE9
:102690000FD36168A1F12902052A08D9163A032A45
:1026A00005D9083A012A02D94F39032901D840F443
:1026B0008010CEF8000000E023E02068676A4069DF
:1026C000042F20F0070047EA00070DD1D4E90A01E2
:1026D000074349B12046FEF7E9FA28B1402060657A
:1026E000012184F83510CCE0206847612046FEF7D0
:1026F000FBF994F85C203F2102F01F0291408160B9
:1027000054E0774A90421BD0754B1433984217D04F
:10271000734B2833984213D0714B3C3398420FD0FF
:102720006F4B503398420BD06D4B6433984207D0B7
:102730006B4B7833984203D0694B8C3398427DD1F0
:1027400084F8351084F83450664B0168A26801EAB9
:10275000030E402A73D0802A72D00022D4E9037875
:10276000D4E9053142EAD70242EAD8085C4AD4E902
:10277000077C48EAD30848EAD10141EAD70152422E
:1027800041EA1C11142341EA0E0101602068104443
:10279000B0FBF3F08000E0652046FEF7A5F994F861
:1027A0005C20012102F01F02914041602068B0428C
:1027B00057D044491831884253D0484551D05045EC
:1027C0004FD058454DD042491831884249D04049F0
:1027D0003031884245D03E494831884241D03D4958
:1027E00088423ED03B49183188423AD0394930318D
:1027F000884236D037494831884232D03549603135
:1028000088422ED03349783188422AD031499031DC
:10281000884226D02F49A831884222D030498842A8
:102820001FD02F49143188421BD02D4928318842AE
:1028300017D02B493C31884213D002E01DE017E04D
:1028400018E02749503188420BD02549643188422D
:1028500007D023497831884203D021498C318842FE
:1028600029D12046FEF79AF9A06880280CD00CE008
:10287000102273E74FF4804270E74021616584F8CD
:1028800035800120BDE8F09F6560216E20790860E9
:10289000D4E9190141606068401E072808D8204625
:1028A000FEF7CAF9E06E0560D4E91C01416002E060
:1028B000E566256765670120656584F835000020B9
:1028C000E0E70000100002404000024058000240D3
:1028D00070000240100402403F8010FE0010005CB7
:1028E000085402580F00FEFF2DE9F84F04008C46F3
:1028F0004FF00000009014D094F83400012812D05A
:1029000094F835500120002184F83400012D0CD0BA
:10291000C00260650120009084F834100098BDE882
:10292000F88F0120FBE70220F9E78C4D0226206892
:1029300084F83560A8428A4D61658A4E8A4FDFF877
:102940002C82DFF82C92DFF82CA2DFF82CB226D0F4
:10295000A84224D0B04222D0B84220D040451ED058
:1029600048451CD050451AD0584518D08349884254
:1029700015D082491831884211D0804930318842BF
:102980000DD07E494831884209D07C496031884267
:1029900005D07A497831884201D078499031016870
:1029A00021F00101016061462046FEF7F9F96B490B
:1029B000206888422CD0A8422AD0B04228D0B84201
:1029C00026D0404524D0484522D0504520D05845F7
:1029D0001ED06A4A90421BD0684A1832904217D0E3
:1029E000664A3032904213D0644A483290420FD047
:1029F000624A603290420BD0604A7832904207D0EF
:102A00005E4A9032904203D05C4AA83290420CD188
:102A1000026822F01E0242F016020260206C88B1A9
:102A20002068026842F008020BE0026822F00E0201
:102A300042F00A020260206C20B12068026842F075
:102A400004020260206888424BD0A84249D0B042BC
:102A500047D0B84245D0404543D0484541D0504585
:102A60003FD058453DD0454A90423AD0434A18326B
:102A7000904236D0414A3032904232D03F4A4832BA
:102A800090422ED03D4A603290422AD03B4A783262
:102A9000904226D0394A9032904222D0374AA8320A
:102AA00090421ED0364A90421BD0354A1432904292
:102AB00017D0334A2832904213D0314A3C329042E8
:102AC0000FD02F4A503290420BD02D4A64329042A0
:102AD00007D02B4A7832904203D0294A8C32904258
:102AE0000DD1206E0268D20303D5026842F48072D1
:102AF0000260E06E18B1026842F4807202602068E1
:102B0000884226D0A84224D0B04222D0B84220D059
:102B100040451ED048451CD050451AD0584518D0C5
:102B20001649884215D015491831884211D01349E9
:102B3000303188420DD011494831884209D00F49BF
:102B40006031884205D00D497831884201D00B4967
:102B50009031016841F001010160DFE610000240A0
:102B6000280002404000024058000240700002402D
:102B700088000240A0000240B80002401004024059
:102B80000854025870B5044600F0C8F90546601CA8
:102B900002D004480078044400F0C0F9401BA04271
:102BA000FAD370BD2C0000202DE9F041B6B01421FD
:102BB0006846FDF7D9FB3948016800296BD14FF011
:102BC0000108C0F80080C02106A8FDF7CDFB002059
:102BD00018904FF080710446CDE9061006A800F069
:102BE00033FD08B1FEF7EEF92D48016841F480513C
:102BF00001600068022502AA694600F48050059031
:102C000040F2FF60CDE90005032626480C2782E844
:102C1000D00000F055F802AA4FF68370CDE9000508
:102C20002148694682E8D00000F04AF802AA4FF62F
:102C30000C70CDE900051D48694682E8D00000F01F
:102C40003FF802AA48F23310CDE90005184869465A
:102C500082E8D00000F034F802AA4CF20370CDE90B
:102C600000051448694682E8D00000F029F802AA5D
:102C70004FF63F00CDE900050F48694682E8D000D5
:102C800000F01EF802AA0D48694682E8D000CDE99E
:102C9000008500F015F836B0BDE8F0810000002096
:102CA000D44402580020025800100258001C025858
:102CB00000180258000C025800140258000802586C
:102CC0002DE9F84F03247D4D00234FF001094FF00B
:102CD000B04B4FF00F0AE9E009FA03F73A4076D01B
:102CE0000E7906F00306012E01D0022E18D1D0F87D
:102CF00008C04FEA430ECE6804FA0EF82CEA080C1E
:102D000006FA0EF646EA0C068660D0F804C00E7984
:102D10002CEA070CC6F300169E4046EA0C064660F5
:102D20000E79F643B6070BD0C6684FEA43088F68A2
:102D300004FA08FC26EA0C0607FA08F73743C760CE
:102D40000E7906F00306022E12D1DE080F694FEA53
:102D5000437C00EB8606B646366A4FEADC6C0AFA1C
:102D60000CF807FA0CF726EA08063743CEF820706D
:102D70000F7906684FEA430807F0030704FA08FCD6
:102D800007FA08F726EA0C06374307604E6816F480
:102D9000403F1CD04A4E376847F00207376036681C
:102DA0009F0706F00206009623F0030606F1B046E0
:102DB000B6463F0FD6F80864DFF808810AFA07FC28
:102DC000404526EA0C0603D14FF0000C41E06CE0D0
:102DD000DFF8F4C0604502D14FF0010C39E0DFF8B4
:102DE000ECC0604502D14FF0020C32E0DFF8E0C0E9
:102DF000604502D14FF0030C2BE0DFF8D8C06045EE
:102E000002D14FF0040C24E0DFF8CCC0604502D1C1
:102E10004FF0050C1DE0DFF8C4C0604502D14FF053
:102E2000060C16E0DFF8B8C0604502D14FF0070C81
:102E30000FE0DFF8B0C0604502D14FF0080C08E0A9
:102E4000DFF8A4C0604502D14FF0090C01E04FF05B
:102E50000A0C0CFA07FC4CEA060CCEF808C44F68C2
:102E6000DBF80060FF0226EA020600D516435F4643
:102E7000CBF80060D1F804C0DBF804605FEA8C2C6A
:102E800026EA020600D516437E606E684F6826EA81
:102E90000206BF0300D516436E602E684F6826EA0F
:102EA0000206FF0300D516432E605B1C0A6832FA47
:102EB00003F67FF411AFBDE8F88F000080000058E2
:102EC000F444025800000258000402580008025856
:102ED000000C025800100258001402580018025842
:102EE000001C0258002002580024025800690840C3
:102EF00000D001207047426921EA02030A4043EAF8
:102F00000241816170470AB1816170470904FBE7A2
:102F100001480068000C70470010005C01488068A0
:102F2000704700002C00002002488168027811449C
:102F3000816070472C000020032010B500F0F2F9EA
:102F400001F0CCF90F4A104914681368C4F3032246
:102F500003F00F038A5CC95C02F01F0201F01F013D
:102F6000D0400A4A20FA01F11160094908600F2097
:102F700000F010F808B1012010BD00F097F9002012
:102F800010BD000018440258429700083C00002081
:102F90003800002070B50D4D04462878A0B14FF4DC
:102FA0007A71B1FBF0F00A490968B1FBF0F001F069
:102FB00053FD48B9102C07D200222146501E00F0C4
:102FC00091F900206C6070BD012070BD2C000020C4
:102FD000380000202DE9F041044690F8A000164684
:102FE0000F4601281DD0012584F8A050022084F846
:102FF000A10006EB860000EBC600342204EB800043
:103000003830FDF798F932463946204602F096F8F6
:10301000216800204D6284F8A15084F8A000BDE82A
:10302000F0810220FBE700002DE9F041040004D00C
:1030300094F8A100002518B107E00120BDE8F08157
:10304000204684F8A05000F06BF83448022184F840
:10305000A110012202CC8B6923F070438B6194E8AC
:103060004A001943E3681E4354F8043D31439E6906
:103070003143996121688B6803408B602168A68A7F
:10308000A7698B683B4343EA06438B602168CB68A2
:103090000340CB602168A38B276ACE683E4346EA93
:1030A0000346CE6021680B6903400B612368A68C40
:1030B000A76A1969394341EA0641196121684B69D8
:1030C00003404B612068A38D266B4169314341EA7F
:1030D00003414161236894F8351094F83600DE6AA4
:1030E000000406F07F46DE62236840EA012094F87F
:1030F0003460D96A31430143D9622068416B41F0A1
:10310000060141632068816941F001018161C4F8D1
:10311000A45084F8A120002090E7000000F800F0FF
:10312000F0B5B7B00446142130A8FDF71DF9C02151
:103130006846FDF719F93149206888425CD10AAF29
:103140004FF4A5730225192287E82C000021109165
:103150000A260C4640040D95CDE90E61CDE900012B
:103160006846119100F070FA08B1FDF72BFF244872
:10317000016841F008010160006800F00800359026
:103180001F48001F016841F480610160016801F47B
:1031900080613591016841F400710160016801F4BA
:1031A00000713591016841F480710160006832AAB4
:1031B000032600F480703590FF20CDE930050E27FE
:1031C000104882E8D00030A9FFF77AFD32AA4FF606
:1031D000FF70CDE930050C4830A982E8D000FFF738
:1031E0006FFD4FF4704032AACDE93005074830A991
:1031F00082E8D000FFF764FD37B0F0BD001000504A
:10320000E4440258002802580024025800200258C2
:10321000F0B5154C4378211D0A1D23600378F3B1E6
:1032200043680B60057BC67A817A437B2D07847BDC
:1032300045EA0665C77B90F809C0067A90F800E079
:1032400045EAC14040EA834040EA444040EA074042
:1032500040EA0C2040EA460040EA0E0001E000206F
:1032600008601060F0BD000098ED00E0BFF35F8FD4
:10327000044800210368034A23F48033036070325A
:103280001160704724ED00E0074A40F00100064954
:1032900070321060086840F480300860BFF34F8FD0
:1032A000BFF36F8F7047000024ED00E0054808B5BC
:1032B000016841F002010160006800F00200009026
:1032C00008BD0000F4440258002809DB410900F061
:1032D0001F028900012001F1E0219040C1F80001A6
:1032E000704700000E4BF0B41B680D46C3F3022379
:1032F000C3F10706042E00D90426191D072901D29F
:10330000002300E0DB1E012404FA06F19C40491E64
:103310002940641E994014402143F0BC03F0E0B9F9
:103320000CED00E0064900F0070210B54FF6FF046F
:103330000868044B204040EA02201843086010BD92
:103340000CED00E00000FA05134970B50A68D2439D
:10335000520705D5096801F00701814213D118E031
:103360000A6822F0070202430A60FFF7D7FD0A4D00
:103370004FF47A760446083D07E000BFFFF7CEFD24
:10338000001BB04201D9012070BD2868C0438004F1
:10339000F4D4002070BD00000C48025810B500F0B5
:1033A00057FF05490968054AC1F30211515C01F054
:1033B0001F01C84010BD0000204402584297000879
:1033C000494930B5484C0B1D0A68143409681D681A
:1033D000246802F00303C5F30012C1F30531C4F3FE
:1033E000CC04002914FB02F200EE102AF8EE400A89
:1033F00075D03F4A9FED3D1AB7EE000A6BB1DFED85
:103400003D1A012B01D0022B64D002EE101A116874
:10341000F8EE422A81EEA22A21E0334C283C2368B0
:103420009B0612D5344B246801EE901A1168C4F340
:10343000C104F8EE612AE34001EE903AC1F30801BD
:10344000F8EE611A81EEA22A0BE001EE901ADFED90
:103450002B2A00BFF8EE611A116882EEA12AC1F38F
:10346000080101EE901A1168F8EE611A40EE811A17
:1034700071EE800A62EE200AC1F3462101EE101AB5
:10348000B8EE411A31EE001AC0EE811ABCEEE11A14
:1034900080ED001A1168C1F3064101EE101AB8EE72
:1034A000411A31EE001AC0EE811ABCEEE11A80ED2D
:1034B000011A1168C1F3066101EE101AB8EE411A43
:1034C00031EE000A80EE801ABCEEC10A80ED020ADD
:1034D00030BD04E001EE901ADFED092ABAE70021C1
:1034E000016041608160F3E7284402580000003920
:1034F000384402580024744A0090D0030024744CCD
:1035000020BCBE4B494930B5484C0B1D0A681C34E1
:1035100009681D68246802F00303C5F30022C1F3A3
:103520000551C4F3CC04002914FB02F200EE102A6A
:10353000F8EE400A75D03F4A9FED3D1AB7EE000AFB
:103540006BB1DFED3D1A012B01D0022B64D002EEEE
:10355000101A1168F8EE422A81EEA22A21E0334CBB
:10356000283C23689B0612D5344B246801EE901A40
:103570001168C4F3C104F8EE612AE34001EE903A09
:10358000C1F30801F8EE611A81EEA22A0BE001EE08
:10359000901ADFED2B2A00BFF8EE611A116882EE57
:1035A000A12AC1F3080101EE901A1168F8EE611A20
:1035B00040EE811A71EE800A62EE200AC1F34621C4
:1035C00001EE101AB8EE411A31EE001AC0EE811A5F
:1035D000BCEEE11A80ED001A1168C1F3064101EE5C
:1035E000101AB8EE411A31EE001AC0EE811ABCEE84
:1035F000E11A80ED011A1168C1F3066101EE101A9B
:10360000B8EE411A31EE000A80EE801ABCEEC10A13
:1036100080ED020A30BD04E001EE901ADFED092AC8
:10362000BAE70021016041608160F3E72844025855
:1036300000000039404402580024744A0090D0032E
:103640000024744C20BCBE4B2DE9FE4F0546DFF82C
:10365000E48350F8081B0024F64FC943019005F19C
:103660002800264608F12408009008011DD4A86E01
:1036700050B1B0F5801F0CD0B0F5001F0ED0B0F5E2
:10368000401F1ED001240FE0386840F4003038603D
:1036900017E00198022102F0CDF803E00098022122
:1036A00002F058F904000CD026462888C043C00513
:1036B00023D4A86D05281ED2DFE800F00C11161BDC
:1036C0001B00AA6ED8F8001021F440111143C8F86D
:1036D0000010EAE7386840F40030386009E00198EB
:1036E000002102F0A7F803E00098002102F032F96F
:1036F000044674B100E0012426462888C0438005B2
:1037000028D4E86D80281ED00CDC90B140280ED162
:1037100014E0AA6DD8F8001021F007011143C8F891
:103720000010EAE7C02813D0B0F5807F10D0012444
:103730000FE0386840F40030386009E0019800215B
:1037400002F078F803E00098002102F003F9044643
:103750009CB126462888DFF8DC92C04309F12C0989
:1037600040052CD4D5F8A800B0F5800F20D00DDC92
:10377000A0B1B0F5001F0FD115E0EA6DD8F8001028
:1037800021F4E0711143C8F80010E3E7B0F5C00F71
:1037900013D0B0F5000F10D001240FE0386840F4CA
:1037A0000030386009E00198002102F043F803E09E
:1037B0000098002102F0CEF804467CB12646288805
:1037C000C04300052DD4D5F8AC00B0F1007F21D066
:1037D0000EDCA8B1B0F1807F10D116E0D5F8A8209A
:1037E000D9F8001021F460011143C9F80010E6E790
:1037F000B0F1407F13D0B0F1806F10D001240FE002
:10380000386840F40030386009E00198002102F087
:1038100011F803E00098002102F09CF8044674B10E
:1038200026462868C04380011FD4E86CD8B1102810
:103830000FD0202812D0302815D0012414E0D5F85C
:10384000AC20D9F8001021F0E0611143C9F8001054
:10385000E7E7386840F40030386004E0019802215E
:1038600001F0E8FF044674B126462888C043C0042E
:103870002BD4286EB0F5005F20D00DDCA0B1B0F5E0
:10388000805F0FD115E06B48EA6C2030016821F0B1
:10389000300111430160E8E7B0F5405F13D0B0F5A7
:1038A000804F10D001240FE0386840F400303860B9
:1038B00009E00198002101F0BDFF03E0009800211C
:1038C00002F048F804468CB126462888C04380049C
:1038D00029D4686EB0F5403F23D010DC08B3B0F5B2
:1038E000803F14D0B0F5003F0FD115E02A6ED8F814
:1038F000001021F4E0411143C8F80010E5E7B0F5ED
:10390000802F0ED0B0F5A02F0BD001240AE0019833
:10391000012101F08FFF03E00098012102F01AF865
:10392000044694B126462888C04340042AD4D5F8DA
:10393000B000B0F1405F23D010DC08B3B0F1805F7D
:1039400014D0B0F1005F0FD115E06A6ED8F8001006
:1039500021F4E0211143C8F80010E4E7B0F1804FF2
:103960000ED0B0F1A04F0BD001240AE00198012144
:1039700001F060FF03E00098012101F0EBFF044635
:1039800074B126462888C04300041FD4286FD8B1DC
:10399000B0F1805F0ED0B0F1005F10D0012414E0D0
:1039A000D5F8B020D9F8001021F0E0411143C9F852
:1039B0000010E7E7386840F40030386004E0019810
:1039C000012101F037FF044674B126462868C04340
:1039D000C0011ED4A86CD0B101280ED0022811D08D
:1039E000032814D0012413E02A6FD8F8001021F026
:1039F00040511143C8F80010E8E7386840F400303F
:103A0000386004E00198022101F014FF0446ACB1D3
:103A100026462868DFF81CB0C043ABF11C0B4002FF
:103A200052D40548016841F480710160FFF776FACD
:103A3000824611E02C44025800480258FA48AA6C09
:103A4000016821F0030111430160E2E7FFF766FA24
:103A5000A0EB0A00642835D8F4480068C005F5D505
:103A60008CBBDFF8C4A3B5F8B4100AF1240ADAF865
:103A7000000001F4407100F44070884211D0DAF87F
:103A80000010DAF8002021F4407142F48032CAF8C4
:103A90000020DAF8002022F48032CAF80020CAF8A8
:103AA0000010D5F8B400B0F5807F1AD1FFF736FAD0
:103AB000029012E0FFF732FA0299411A41F288307F
:103AC00081420AD9032426462878DFF85CA3C04344
:103AD0000AF1080AC00721D03CE0DAF800008007AC
:103AE000E8D5D5F8B410C1F30120032858460DD00D
:103AF000016821F47C510160B5F8B420DAF80010B7
:103B0000C2F30B021143CAF80010DDE7C84A03688C
:103B100002EA111223F47C511143ECE7E86F1828F4
:103B200016D005DCA0B1082808D0102804D10AE07E
:103B300020280DD028280BD001240AE0019801216B
:103B400001F078FE03E00098012101F003FF044634
:103B500064B126462878C04380071ED4A86F062883
:103B600019D2DFE800F0160C11161616EA6FDAF813
:103B7000001021F038011143CAF80010EAE701985B
:103B8000012101F057FE03E00098012101F0E2FE5F
:103B900004467CB100E0012426462878C043400753
:103BA0001FD4D5F89400062819D2DFE800F0160CCF
:103BB00011161616AA6FDAF8001021F0070111434A
:103BC000CAF80010E9E70198012101F033FE03E093
:103BD0000098012101F0BEFE0446A4B100E00124DA
:103BE00026462878C04380062BD4D5F89000B0F143
:103BF000405F24D011DC10B3B0F1805F15D0B0F17C
:103C0000005F10D116E0D5F89420D9F8001021F00B
:103C100007011143C9F80010E3E7B0F1804F0ED05F
:103C2000B0F1A04F0BD001240AE00198002101F06F
:103C300001FE03E00098022101F08CFE044694B1DD
:103C400026462878C04340062BD4D5F89C00B0F512
:103C5000406F24D011DC10B3B0F5806F15D0B0F5F3
:103C6000006F10D116E0D5F89020DAF8001021F09E
:103C7000E0411143CAF80010E3E7B0F5805F0ED0D1
:103C8000B0F5A05F0BD001240AE00198002101F0FB
:103C9000D1FD03E00098022101F05CFE044694B1DE
:103CA00026462878C04300062BD4D5F8A000B0F5EE
:103CB000C04F24D011DC10B3B0F5005F15D0B0F5C3
:103CC000804F10D116E0D5F89C20D9F8001021F4CF
:103CD000E0511143C9F80010E3E7B0F5004F0ED0F2
:103CE000B0F5204F0BD001240AE00198002101F02B
:103CF000A1FD03E00098022101F02CFE044654B11E
:103D000026462878C04300071ED4D5F88400B0F5B5
:103D1000805F0AD00FE0D5F8A020D9F8001021F478
:103D200060411143C9F80010EBE70098022101F04F
:103D300011FE00B10126D5F88420DAF8001021F434
:103D400040511143CAF800102878C043C00613D46C
:103D5000D5F89800B0F5807F05D10098022101F0D8
:103D6000F9FD00B10126D5F89820D9F8001021F40A
:103D700040711143C9F800102868C043000316D4ED
:103D8000D5F8A40038B1B0F5803F09D0B0F5003FB8
:103D90000BD001240AE00198002101F04BFD03E063
:103DA0000098022101F0D6FD04468CB12646286811
:103DB000C043400322D4D5F88800B0F5801F11D04D
:103DC000B0F5001F13D0B0F5401F15D0012414E04A
:103DD000D5F8A420D9F8001021F440311143C9F8D6
:103DE0000010E4E7386840F40030386004E00098E0
:103DF000012101F0AFFD04465CB126462868C043AE
:103E0000C00323D4286DA8B1B0F5803F17D001249A
:103E10001BE0D5F88820DAF8001021F44011114396
:103E2000CAF80010EAE700004C4402580048025863
:103E3000CFFFFF00386840F40030386004E001989C
:103E4000022101F0F7FC0446E4B126462868C0438D
:103E5000800005D40098022101F07CFD00B101260C
:103E60002868C04380031BD4D5F88000B0B1B0F5FA
:103E7000807F0FD0B0F5007F10D0B0F5407F0DD01F
:103E800001240CE05A482A6D016821F48031114365
:103E90000160DBE7386840F400303860ECB3264658
:103EA0002868C043C00207D46A6FD8F8001021F018
:103EB00000411143C8F800102868C043C00008D46E
:103EC000D5F8B820DBF8001021F480411143CBF87D
:103ED00000102868C043800207D4EA6ED8F80010AA
:103EE00021F080711143C8F800102868C0434000D9
:103EF0000CD4DBF8001021F40041CBF80010DBF803
:103F00000010D5F8BC201143CBF800102868C0433E
:103F100008D437486A6D016800E018E021F040518C
:103F2000114301602868C043000208D4D5F88C20F2
:103F3000DAF8001021F440011143CAF80010287982
:103F40000024C04300F0010020430AD00FE0D5F860
:103F50008020DAF8001021F440711143CAF80010F3
:103F60009EE70198002101F065FC00B10646287922
:103F7000C04300F00200204305D10198012101F067
:103F800059FC00B106462879C04300F004002043E4
:103F900005D10198022101F04DFC00B106462879B7
:103FA000C04300F00800204305D10098002101F033
:103FB000D1FC00B106462879C04300F01000204330
:103FC00005D10098012101F0C5FC00B10646287911
:103FD000C04300F02000044304D10098022101F006
:103FE000B9FC00B916B10120BDE8FE8F0020FBE747
:103FF0004C4402582DE9F05F04000F467ED0DFF8F4
:104000003882D8F8000000F00F00B8420CD2D8F87F
:10401000001021F00F013943C8F80010D8F8000053
:1040200000F00F00B84269D12078844D40070AD5CE
:104030002069296801F07001884204D9296821F0BB
:1040400070010143296020787C4E361D00070AD597
:104050006069316801F07001884204D9316821F04B
:104060007001014331602078C0060AD5A06931682B
:1040700001F4E061884204D9316821F4E061014330
:1040800031602078DFF8B4B180060BF1080B0CD555
:10409000E1695846DBF8002002F07002914204D931
:1040A000026822F070020A430260207880070AD575
:1040B000E068296801F00F01884204D9296821F0DD
:1040C0000F01014329602078C0073ED05B49A268F8
:1040D0002868183920F4706010432860606802284E
:1040E00018D0032819D00968012819D049070029D8
:1040F0004ADADFF848A1AAF1080A00E044E0DAF859
:10410000002022F007020243CAF80020FEF706FF53
:10411000814612E009688903E9E709688901E6E751
:10412000C905E4E7FEF7FAFEA0EB090141F2883089
:10413000814202D90320BDE8F09F6168DAF80000EF
:1041400000F03800B0EBC10FECD1207880070AD521
:10415000E068296801F00F01884204D2296821F043
:104160000F0101432960D8F80010404601F00F010B
:10417000B9420BD9016821F00F0139430160006891
:1041800000F00F00B84201D00120D4E720784007AA
:104190000AD52069296801F07001884204D2296893
:1041A00021F0700101432960207800070AD5606979
:1041B000316801F07001884204D2316821F0700149
:1041C000014331602078C0060AD5A069316801F446
:1041D000E061884204D2316821F4E061014331603A
:1041E000207880060CD5E1695846DBF8002002F003
:1041F0007002914204D2026822F070020A43026007
:1042000000F06CF80E492A682B68C2F3032203F011
:104210000F038A5CC95C02F01F0201F01F01D0404D
:10422000084A20FA01F11160074908600748006850
:10423000BDE8F05FFEF7AEBE002000521844025801
:10424000429700083C000020380000203000002089
:1042500030B500F043F80B4A0B490C4B1568146855
:10426000C5F3032204F00F048A5C095D02F01F020B
:1042700001F01F01D040064A20FA01F119601060D8
:10428000084630BD18440258429700083C00002000
:104290003800002000B5FFF7DBFF05490968054A33
:1042A000C1F30211515C01F01F01C84000BD0000C4
:1042B0001C4402584297000800B5FFF7C9FF0549A2
:1042C0000968054AC1F30221515C01F01F01C84091
:1042D00000BD00001C44025842970008454970B5D3
:1042E00045480968434B103B11F0380208D00111D2
:1042F000082A03D0102A0BD0182A0BD0084670BD0C
:1043000019688906FBD51968C1F3C101C84070BDA1
:104310003A4870BD3749374D18310C1D24350A68AD
:10432000096826682D6802F0030406F00102C1F353
:104330000511C5F3CC0515FB02F200EE102AB8EE0C
:10434000400AE9B32F4ADFED2E0AB7EE001A6CB12E
:10435000DFED2D1A012C01D0022C43D002EE101AF1
:104360001068F8EE422A81EEA22A1EE01C68A4061C
:1043700011D51B6801EE901A1168C3F3C103F8EE62
:10438000612AD84001EE900AC1F30800F8EE611AE4
:1043900081EEA22A0BE001EE901ADFED1C2A00BF8D
:1043A000F8EE611A106882EEA12AC0F3080001EE4F
:1043B000900AF8EE611A40EE201A31EE810A00E010
:1043C00015E022EE000A1068C0F34620401C00EE03
:1043D000900AF8EE600A80EE201ABCEEC10A10EED8
:1043E000100A70BD01EE901ADFED092AD8E700200F
:1043F00070BD0000104402580090D00340787D0149
:1044000000000039304402580024744A0024744CDF
:1044100020BCBE4B2DE9F05F04007DD0FF4F20781B
:10442000FE4D1837DFF8F493103DC00748D0D9F897
:104430000000396800F03800102815D0182803D182
:1044400001F0030002280FD06068B0F5803F12D061
:1044500010B1B0F5A02F18D0286820F48030286063
:10446000286820F4802009E02868800328D5606847
:104470000028D2D024E0286840F4803028606068AA
:1044800088B1FEF74BFD064609E0286840F480201D
:104490002860F0E7FEF742FD801B64286FD828688B
:1044A0008003F7D50CE0FEF739FD064605E000BFB6
:1044B000FEF734FD801B6428F0D828688003F7D409
:1044C000207841F20308D54E0C3E800769D5D9F813
:1044D0000000396810F038000ED0182801D1880784
:1044E0000AD0E06890B3296821F0190101432960DE
:1044F000FEF714FD824631E02868400702D5E068E7
:1045000000288AD0E168286820F019000843286054
:10451000FEF704FD824607E0DFE000BFFEF7FEFC89
:10452000A0EB0A000228B9D828684007F6D500BFDA
:10453000FEF7EEFC40451BD82069402812D03168B8
:1045400021F47C3141EA003030602AE018E000BFFD
:10455000FEF7E4FCA0EB0A0002289FD82868400779
:10456000F6D5E5E7306820F47C3040F40030EBE726
:10457000207C316821F0FE4141EA0060E4E70DE172
:10458000286820F001002860FEF7C8FC824605E09C
:10459000FEF7C4FCA0EB0A0002288DD8286840076B
:1045A000F6D42078C0065DD5D9F80000DFF86CB2EB
:1045B000396800F03800ABF1040B082810D0182837
:1045C00003D101F0030001280AD0E069002828681F
:1045D00038D040F080002860FEF7A0FC824623E03F
:1045E0002868C00523D5E069802876D11FE0206ABD
:1045F000202821D0316821F0F84141EA8060306004
:1046000030E000BF94F82010DBF8002022F07C524C
:1046100042EA0161CBF8001024E000BFFEF77EFC07
:10462000A0EB0A00022898D82868C005F6D5FEF746
:104630006FFC4045E6D8DAE7306820F0F84040F0FB
:104640008040DCE720F080002860FEF767FC06462B
:1046500005E000BFFEF762FC801B02289DD8286899
:10466000C005F7D42078000729D56C48616964300B
:1046700000298046016811D041F001010160FEF778
:104680004DFC064605E000BFFEF748FC801B0228F3
:10469000C9D8D8F800008007F6D510E021F0010154
:1046A0000160FEF73BFC064605E000BFFEF736FC66
:1046B000801B022872D8D8F800008007F6D4207832
:1046C000800623D5A0690028286810D040F48050C7
:1046D0002860FEF723FC064605E036E1FEF71EFCE7
:1046E000801B02285AD828688004F7D50EE020F4F1
:1046F00080502860FEF712FC064604E0FEF70EFC30
:10470000801B02284AD828688004F7D42078400704
:104710004FD5DFF80C81D8F8001041F48071C8F84B
:104720000010FEF7FBFB064605E000BFFEF7F6FBB8
:10473000801B642832D8D8F80000C005F6D5374E63
:10474000A068603601280AD008B1052813D0306867
:1047500020F001003060306820F0040002E0306892
:1047600040F001003060A06841F2883A90B1FEF755
:10477000D5FB80460AE0306840F004003060EEE788
:10478000FEF7CCFBA0EB0801514507D83068800745
:10479000F6D50EE0FEF7C2FB804607E084E000BFDE
:1047A000FEF7BCFBA0EB080151457DD830688007BF
:1047B000F6D4606AB0B3DFF86480D9F8001008F16D
:1047C00020084FF6F87B08F10409C1F3C201032960
:1047D000A8F1040A69D00228286820F080702860B7
:1047E00003D0FEF79BFB044684E0FEF797FB0646EA
:1047F00005E000BFFEF792FB801B022877D82868EF
:104800008001F7D4E26A40F2F331386854F8283F67
:10481000884340EA02101843386004E0104402580C
:1048200000480258B5E0217B434622894FF4FE0C34
:10483000208A4FF0FE474902267D521E401EA1F5F8
:104840000071C2F308088AB2761E0CEA004042EA00
:1048500008020243504607EA06610A431A60DAF882
:10486000002022F00102CAF80020D9F80020266AB0
:1048700022EA0B0242EAC602C9F80020DAF8001068
:10488000A26921F00C011143CAF800100168E26925
:1048900021F0020111430160016841F4803101609F
:1048A000016841F4003101E021E027E00160016886
:1048B00041F480210160016841F001010160286834
:1048C00040F080702860FEF729FB044605E000BF39
:1048D000FEF724FB001B022809D828688001F7D5C1
:1048E00057E000BFFEF71AFB001B022802D9032085
:1048F000BDE8F09F28688001F4D44AE039680128B7
:10490000D8F8000021D0A26A01F0030393421CD121
:10491000E26AC1F305118A4217D1216BC0F3080284
:10492000491E8A4211D1616BC0F34622491E914251
:104930000BD1A16BC0F30642491E914205D1E16B38
:10494000C0F30660491E814201D00120D0E7A16C6E
:104950004E46D9F80000C0F3CC00814219D0DAF8F5
:104960000000554620F00100CAF80000FEF7D6FA14
:104970004FEA0007FEF7D2FAB842FBD0A26C3068CB
:1049800020EA0B0040EAC2003060286840F00100D5
:1049900028600020ACE7000070B504000D4603D08D
:1049A00094F82C0010B107E0012070BD002084F8BD
:1049B0002D00204600F018F8022084F82C00206812
:1049C000211DFCF70BFBD4E900022946FCF758FB3C
:1049D00004480121026842F00042026084F82C1071
:1049E000002070BD00400052FEF7DEB810B504464E
:1049F00090F82C00022804D094F82C00012801D053
:104A0000012010BD022084F82C002068FCF71BFB5D
:104A1000012084F82C00002010BD000070B5044671
:104A200090F82C000D46022804D0012803D0052858
:104A300001D0012070BD022084F82C002068FCF712
:104A40000BFB2868022805D05FF0010084F82C00D9
:104A5000002070BD0520F9E7401EB0F1807F10B541
:104A600001D3012010BD4FF0E02460610F216017D9
:104A700001F036FE0020A0610721216110BD30B594
:104A800090F88410012918D0012280F88420242174
:104A9000C0F888100022202401680B680D6823F0FC
:104AA000005325F001050D60426601680B60C0F8F7
:104AB000884080F88420104630BD022030BD70B59B
:104AC000044690F8840001281DD0012284F8842037
:104AD0002420C4F8880020680568026822F00102DA
:104AE00002602068826822F060620A438260204689
:104AF00001F0AEFA2268202100201560C4F8881069
:104B000084F8840070BD022070BD70B5044690F832
:104B1000840001281DD0012284F884202420C4F8B8
:104B2000880020680568026822F00102026020689F
:104B3000826822F060420A438260204601F088FACF
:104B40002268202100201560C4F8881084F88400B1
:104B500070BD022070BD10B5040003D0D4F88800E9
:104B600010B107E0012010BD002084F88400204629
:104B700000F026F82420C4F888002068016821F09D
:104B800001010160204601F069FB0128EBD0A06A19
:104B900010B1204601F07EFA2068416821F490416E
:104BA00041602068816821F02A01816020680168E5
:104BB00041F0010101602046BDE8104001F0CEBA8D
:104BC00010B5B6B00446142130A8FBF7CDFBC021C8
:104BD0006846FBF7C9FB1A49206888422DD100209E
:104BE0001F9001210446CDE900106846FEF72CFD18
:104BF00008B1FCF7E7F91348016841F010010160C2
:104C0000006800F0100035900E481038016841F03F
:104C10000101016000680DF1C00C022100F00100EB
:104C200035904FF4C06007238CE813000322064838
:104C3000CDE9332330A9FEF743F836B010BD0000AC
:104C400000100140F0440258000002582DE9F843DA
:104C50000446D0F88800984616460D46202802D013
:104C60000220BDE8F883A5B19EB10021C4F89010E0
:104C70002120C4F888001834FEF750F9814654F812
:104C8000100CA687E6872027183CB0F5805F02D07D
:104C900003E00120E5E7206910B12E46002510E071
:104CA00000260EE08021204601F0AEFCC0B9DEB146
:104CB00016F8010B21688862B4F85600401EA4F86B
:104CC0005600B4F856004B464FF00002CDF8008075
:104CD0000028E7D14FF04001204601F095FC48B193
:104CE000C4F888700320BCE735F8020B2168C0F3D4
:104CF0000800E0E7C4F888700020B2E7FEE7000093
:104D00000F48002330B50F494FF44034026822F0B9
:104D10000102026004600C4D0C4A8C684463036419
:104D2000CB68C363456449688163916C0129FCD1F8
:104D3000016841F0010101600168C907FCD130BD83
:104D400000100052E4020020E00120030010005097
:104D5000F0B5124C01EBC10707EB0111059E0025D0
:104D6000276800EB411043EA02414FF0404C0CEB46
:104D7000400027F001032360C2F54872256002233A
:104D8000E36125612264E660E0636164206840F0CD
:104D9000010020602068C007FCD1F0BD0010005267
:104DA0002DE9F74F203A8046DFF868900025DFF8BC
:104DB00068A002F0FF0B444625E0136800260BFBB9
:104DC00001316F5CF80702D0DAF8002001E0DAF870
:104DD00004202046019900F05BF8D9F80000641C1B
:104DE000A4B27F088188A4EB0800884205D101980D
:104DF0004446401C80B2019003E0761CB6B2082EF7
:104E0000E0D36D1CADB2D9F800201189A942D4D8E5
:104E1000BDE8FE8F18000020E40200207FB51E468A
:104E2000094B05460C46D87C1346324648B107A1CB
:104E3000684601F041FC6A462146284600F00CF81D
:104E40007FBD03A1F4E70000E4020020252A6400EE
:104E500025302E2A640000002DE9F0410B4E4FF45E
:104E6000487715468846044608E041462046FFF745
:104E700097FF30686D1C8088204484B2BC4202D207
:104E80002A78002AF1D1BDE8F08100001800002046
:104E9000F0B51C4BA0F2DF1C6FF018061C460CFB93
:104EA00006FC01EBC1059F6805EB0116E568647C13
:104EB00001EB4C1100EB461647B190B2012F0ED01A
:104EC000E4B1012C01D125F81100F0BD24B1012C71
:104ED000FBD145F82120F0BD45F82620F0BDC2F3F6
:104EE000074244B1012CF9D101EB41016852D86865
:104EF000891C4254F0BD06EB4601F7E725F8160081
:104F0000F0BD0000E402002010B586B01421684610
:104F1000FBF72AFA0D48016841F080010160006842
:104F200040210B4C012200F08000059000200091F0
:104F30006946CDE9012003902046FDF7C1FE00221D
:104F400020464021FDF7DFFF06B010BDE0440258C7
:104F5000001C0258F0B58DB034216846FBF704FA06
:104F60004FF4487700244FF4F0760DF1100C022036
:104F7000CDE90047FF210B96CDE902468CE81300EE
:104F8000420207A805238D07694680E8AC008DF82A
:104F9000304000228DF831400F488DF83240FEF746
:104FA00019F8FFF7B1FF0D480E4A0D49447411601E
:104FB0000121C174002000F08DF8A81100F016F84E
:104FC000601E00F04DF8FFF79BFE074801224021CC
:104FD000FDF799FF0DB0F0BDFC000020E4020020B9
:104FE0000C00002018000020001C02581B4A00235F
:104FF00030B5C0F3C4019468022C05D0032C0CD04A
:10500000042C1AD0506030BD4FF478434FF4FC6448
:1050100003EA102304EA50100BE0040E01D04FF411
:1050200000434FF4F844651104EA5024234305EA91
:10503000901003430B43536030BD4FF47041F02593
:105040000B1103EA103401EA1041C0F303132143AA
:1050500005EA102001431943516030BDE4020020ED
:105060001B4A002330B5C0F3C4019468022C05D05C
:10507000032C0CD0042C1AD0106030BD4FF47843B0
:105080004FF4FC6403EA102304EA50100BE0040E12
:1050900001D04FF400434FF4F844651104EA502462
:1050A000234305EA901003430B43136030BD4FF4D4
:1050B0007041F0250B1103EA103401EA1041C0F3EE
:1050C0000313214305EA102001431943116030BD49
:1050D000E402002004484FF0404302210022C0E9CE
:1050E0000213817402747047E402002030B587B067
:1050F00014216846FBF738F90E48016841F00401B5
:10510000016000684FF400540B4D002200F00400D1
:10511000214605902846FDF7F6FE00210094012067
:10512000CDE90101284603916946FDF7C9FD07B0A5
:1051300030BD0000E0440258000802582DE9FE4F3F
:1051400081460068882493468D888C2204EBCB1717
:105150008A46C3689421BE46C459C3F30B432B440B
:1051600004F470441F04019702EBCB1240F80E4088
:1051700001EBCB13DAF800709C214FF0AC0C01EB83
:10518000CB1440F2077102910CEBCB11D9F800C09F
:1051900098250020CDF800C0A02605EBCB15DCF843
:1051A0000CC006EBCB16CCF30B4C0CF1010C07EB4F
:1051B0000C08DDF800C0019F48EA07084CF80E8093
:1051C000D9F80070BAF80CC0B846FF68C7F30A07F0
:1051D00067444FEA074E58F8027007F4704C48F8DD
:1051E00002C0D9F800C0DAF80870DCF80C80C8F307
:1051F0000A0808F10108B84448EA0E084CF8028091
:10520000D9F80020D75827F00707D750D9F80070F1
:10521000DAF81020FA509AF831209AF818304FEA4C
:10522000022C9AF83220120442EA0362D9F80030C4
:105230001F5918519AF8303043EA0C031343D9F838
:1052400000201351D9F80020535923F0FF03535184
:10525000D9F80020DAF814305351D9F800209359C6
:10526000029CA3439351D9F80030DAE90724224382
:105270009A51D9F8002053585050D9F80020DAF844
:1052800024005050DAF81000C8B301283AD004289E
:105290003AD0022838D0032836D0072834D001204D
:1052A000D9F80030B02505EBCB11B42284245D5829
:1052B00002EBCB1205F0E0255D50DAE9003504EB96
:1052C000CB14EB1ABAF8285043434543D9F80000F1
:1052D000DB1D43EA05434350D9F8000081586FF3C2
:1052E0000A018150D9F80000DAF82C108150D9F861
:1052F0000000015941F001010151BDE8FE8FFFE7B7
:105300000420CDE70320CBE70220C9E77FB50024C6
:105310000094019402940394FDF7A8FF01258DF8F1
:105320000C4017218DF808108DF809404FF04040CF
:105330008DF80D4003228DF800508DF80A408DF84D
:105340000E508DF80140019068468DF80B208DF8C5
:105350000F50FDF75DFF4FF010508DF801501221F6
:10536000019068468DF808108DF80D50FDF750FF3C
:105370000420FDF789FF7FBD0C4820220A4B002145
:1053800010B50360C0E90112C16001614161816132
:10539000016241628162C1620163FBF763FF002821
:1053A00001D0FBF70FFE10BD0000024844000020B2
:1053B0000E4802220C4B002110B50360C0E9011217
:1053C000C160C0E91112C164016541658165C165B3
:1053D000FCF71EF928B905480121FCF7B5F80028AB
:1053E00001D0FBF7EFFD10BD00100052940000202B
:1053F000F0B587B01C216846FAF7B6FF15480021C2
:10540000134E042300F1080E202506604FF4C077E8
:10541000416040268EE82A004FF4006C0222C0E969
:1054200005670724D502C0E9071CC0E90951CDE989
:10543000002403266946CDE90462CDE902340692D0
:10544000FFF7AAFA002801D0FBF7BCFD07B0F0BDBA
:105450004041005238020020294808B5016841F453
:1054600080710160016801F480710091016841F46C
:1054700080610160016801F480610091016841F080
:1054800040010160016801F040010091016841F0B4
:1054900010010160016801F010010091016841F400
:1054A00000710160016801F400710091016841F030
:1054B00008010160016801F008010091016841F0F4
:1054C00080010160016801F080010091016841F0F4
:1054D00001010160016801F001010091016841F0E2
:1054E00004010160016801F004010091016841F0CC
:1054F00020010160006800F02000009008BD00005D
:10550000E0440258F0B58DB034216846FAF72CFF1C
:1055100024480024224B502100F11C0C4FF48766D4
:10552000282240F21E27C0E9003484604FF45C73E7
:10553000C4604FF402750461446184618CE8EE003C
:1055400080F8344080F8354080F83640FDF76CFD37
:1055500008BB4FF448704FF4F07102270497CDE96F
:105560000040CDE90A0107A87A0205234D06CDE9DE
:10557000024180E82C00FF260A48CDE905648DF839
:10558000304000228DF8314069468DF83240FDF7F9
:1055900021FD002801D0FBF715FD0DB0F0BD000086
:1055A00000100050FC0000201448002110B5124CDF
:1055B0000C224FF4E1330460C0E90131C160C0E95D
:1055C00004128161C161016241628162FFF7C3FA25
:1055D00070B90A480021FFF798FA48B90748002136
:1055E000FFF76DFA20B90548FFF749FA002801D006
:1055F000FBF7E8FC10BD000000100140A4010020F2
:10560000FEE7FEE770B54FF44056002430462021F7
:105610004FF4004500F0EDFB124940F6ED722846CC
:1056200000F08CFB0021304600F0E3FB43F229053B
:10563000284600F0F1FA7E2802D070280DD002E052
:1056400009A001F029F8641CA4B2642CF0D30BA0CB
:1056500001F022F84FF0FF3070BD12A001F01CF8ED
:10566000002070BD248700084146B9CCBCFEB3F5CC
:10567000CABCBBAFD6D03E3E3E0D0A00D7D4B6AFB3
:10568000B6D4BDB9B9CCBCFED0B4C8EBCAA7B0DCA7
:10569000A3A1A3A1A3A16572726F72A3A1A3A10D7F
:1056A0000A0000004146B9CCBCFED0B4C8EBB3C977
:1056B000B9A6A3A10D0A0000042143F2220000F0C4
:1056C00098BB000070B5084D5FF0000405EB840046
:1056D000817835F8240000F08CFB012000F03EF8C2
:1056E000641CFE2CF2D370BD2C83000838B59042A8
:1056F0004FF0FF3401D2994201D3204638BD121A2F
:1057000095B25A1A04EB400302EBD272491E88B2DA
:10571000009004EB6202054892B229469BB2FBF767
:1057200007FD0248FBF71FFD002038BD44000020A4
:1057300070B50C46074905464FF48070C8610846AD
:10574000FCF7F0FE23462A46BDE8704002480021DF
:10575000FBF782BE6C0200204400002008B5002345
:1057600049F640410DE000BFADF8003005E000BF54
:10577000BDF80020521CADF80020BDF800208A4280
:10578000F6D3401EF0D208BD43F20A0010B500F077
:1057900043FA044643F20B0000F03EFA40EA0420CC
:1057A00010BD00001E2010B5FFF7D8FF0C480022E6
:1057B0008021FDF7A8FB0520FFF7D0FF1420FFF79D
:1057C000CDFF112143F2031000F013FB822143F2BD
:1057D000080000F00EFBBDE810400520FFF7BEBF3B
:1057E0000018025870B543F212260C4603210546F4
:1057F000304600F0FEFA290A43F6080000F0F9FAF4
:1058000043F60900E9B200F0F4FA210A43F60A006F
:1058100000F0EFFA43F60B00E1B200F0EAFA1321D0
:10582000304600F0E6FAA321304600F0E2FA00200C
:1058300070BD70472DE9F047454D044689464FF04D
:10584000000A2868C04380070AD0414E283E3068CD
:1058500020F080603060FDF761FB0746B04608E04D
:105860000120BDE8F08700BFFDF758FBC01B0228F0
:1058700067D8D8F800000001F6D4206829684FF4F2
:10588000FE0721F47C313E0241EA00302860207A94
:10589000A389B4F804C040022D4D2D495B1E227C23
:1058A000ACF1010C1035091DA0F5007080B2521E3C
:1058B000CCF3080C07EA034340EA0C00184306EA5D
:1058C0000262104328600868626920F0C00010433B
:1058D00008600A68A06922F0200202430A60281DBD
:1058E0000A6822F010020A6002684FF6F873E46951
:1058F0009A4342EAC40202600868B9F1000F40F01E
:1059000010020A6011D00868B9F1010F11D040F4FB
:1059100000100860D8F80000444640F08060C8F8E5
:105920000000FDF7FBFA05460DE0086840F4002092
:10593000EFE740F48010ECE7FDF7F0FA401B022897
:1059400001D903208DE720680001F5D5504688E78E
:10595000284402582DE9F047454D044689464FF04A
:10596000000A2868C04380070AD0414E283E3068AC
:1059700020F080503060FDF7D1FA0746B04608E0CD
:105980000120BDE8F08700BFFDF7C8FAC01B022860
:1059900067D8D8F800008000F6D4208829684FF432
:1059A000FE0721F07C713E0241EA00502860207A17
:1059B000A389B4F804C040022D4D2D495B1E227C02
:1059C000ACF1010C1835091DA0F5007080B2521E13
:1059D000CCF3080C07EA034340EA0C00184306EA3C
:1059E0000262104328600868626920F44060104336
:1059F00008600A68A06922F4007202430A60281D48
:105A00000A6822F480720A6002684FF6F873E4694B
:105A10009A4342EAC40202600868B9F1000F40F4F8
:105A200080720A6011D00868B9F1010F11D040F0FE
:105A300080700860D8F80000444640F08050C8F8F4
:105A40000000FDF76BFA05460DE0086840F48000A1
:105A5000EFE740F40000ECE7FDF760FA401B022896
:105A600001D903208DE720688000F5D5504688E7EE
:105A70002844025810B5144C002204212046FDF79A
:105A800042FA082000F022F8002220460821FDF703
:105A90003AFA082000F01AF8012220460421FDF706
:105AA00032FA082000F012F8002220460421FDF707
:105AB0002AFA012220460821FDF725FABDE8104008
:105AC000082000F003B8000000180258002208B5B2
:105AD0000DE000BFADF8002005E000BFBDF80010EC
