:020000040800F2
:1000000090060024B1020008AB5C0008C12B000878
:10001000A95C00085B080008756700080000000084
:10002000000000000000000000000000715F0008F8
:100030005D08000800000000AD5C0008735F000868
:10004000CB020008CB020008CB020008CB0200085C
:10005000CB020008CB020008CB020008CB0200084C
:10006000CB020008CB020008CB020008CB0200083C
:10007000CB020008CB020008CB020008CB0200082C
:10008000CB020008CB020008CB020008CB0200081C
:10009000CB020008CB020008CB020008CB0200080C
:1000A000CB020008CB020008CB020008CB020008FC
:1000B000CB020008CB020008CB020008CB020008EC
:1000C000CB020008CB020008CB020008CB020008DC
:1000D000CB020008CB020008CB020008CB020008CC
:1000E000CB020008CB02000800000000CB02000891
:1000F000CB020008CB020008CB020008CB020008AC
:10010000CB020008CB020008CB020008CB0200089B
:10011000CB020008CB020008CB020008CB0200088B
:10012000CB020008CB020008CB020008CB0200087B
:10013000CB020008CB020008CB020008CB0200086B
:1001400000000000000000000000000000000000AF
:10015000CB020008CB020008CB020008CB0200084B
:10016000CB020008CB020008CB020008CB0200083B
:10017000CB020008CB020008CB020008CB0200082B
:10018000CB020008CB020008CB020008CB0200081B
:10019000CB020008CB020008CB020008CB0200080B
:1001A000CB020008CB020008CB020008CB020008FB
:1001B000CB020008CB020008CB020008CB020008EB
:1001C000CB020008CB020008CB020008CB020008DB
:1001D000CB020008CB020008CB020008CB020008CB
:1001E000CB020008CB020008CB020008CB020008BB
:1001F000CB020008CB020008CB020008CB020008AB
:10020000CB020008CB020008CB020008CB0200089A
:10021000CB020008CB020008CB020008CB0200088A
:10022000CB020008CB020008CB020008000000004F
:10023000CB020008CB02000800000000CB0200083F
:10024000CB020008CB020008CB020008CB0200085A
:10025000CB020008CB020008CB020008CB0200084A
:10026000CB020008CB020008CB020008CB0200083A
:10027000CB020008CB020008CB02000800000000FF
:10028000CB020008CB020008CB02000800000000EF
:1002900000000000CB020008DFF810D000F05CFA8C
:1002A0000048004775700008AFF3008090060024F6
:1002B0000648804706480047FEE7FEE7FEE7FEE700
:1002C000FEE7FEE7FEE7FEE7FEE7FEE75560000813
:1002D000990200082DE9F05F0546002092469B46F2
:1002E00088460646814640241BE02846414647464C
:1002F000224600F069F853465A46C01A914110D37D
:1003000011461846224600F050F82D1A67EB0108F6
:100310004F4622460120002100F047F817EB000964
:100320004E41201EA4F10104DFDC484631462A4636
:100330004346BDE8F09F40EA01039B0703D009E074
:1003400008C9121F08C0042AFAD203E011F8013BC1
:1003500000F8013B521EF9D27047D2B201E000F81A
:10036000012B491EFBD270470022F6E710B5134659
:100370000A4604461946FFF7F0FF204610BD30B587
:100380000B46014600202022012409E021FA02F553
:100390009D4205D303FA02F5491B04FA02F52844ED
:1003A000151EA2F10102F1DC30BD202A04DB203A47
:1003B00000FA02F1002070479140C2F1200320FAB8
:1003C00003F3194390407047202A04DB203A21FAB6
:1003D00002F00021704721FA02F3D040C2F120025E
:1003E00091400843194670472DE9FE4F804681EA47
:1003F0000300C00F0C46009021F0004123F000459F
:10040000B8EB0200A94105D24046214690461C4661
:100410000B46024623F00040104347D0270DC7F398
:100420000A00C3F30A510290401A019040286BDA87
:10043000C3F3130040F4801B0098924620B10023C0
:10044000D2EB030A63EB0B0B01985946C0F1400253
:100450005046FFF7AAFF06460D4650465946019AF8
:1004600000F08CF910EB08006141002487EA11527A
:1004700084EAE7731A4340D0009A62B3019A012AD2
:100480004FEA075215DC001B61EB02014FF00042FE
:1004900002EA0752CDE90042001C41F580113246C4
:1004A0002B4600F08CF903B0BDE8F08F40462146A2
:1004B000F9E7001B61EB0201001C41F580130018F5
:1004C0005B412018A2F5001747EB030140EAD57005
:1004D000B6196D4111E06D084FEA360645EAC07560
:1004E0004FEA0752001B61EB0201001C41F580112D
:1004F00049084FEA30000019514132462B4603B0FB
:10050000BDE8F04F00F04CB90098012240000023F4
:10051000D0EB020263EBE073009821464FEAE074EF
:10052000B8EB000061EB0401E9E783F000435BE70F
:1005300081F0004158E72DE9FE4F81EA030404F001
:10054000004421F0004100944FF0000B23F00043E1
:1005500050EA01045ED052EA03045BD0C3F30A54AC
:10056000C1F30A552C44A4F2F3340194A0FB0254C5
:10057000C1F3130141F48011C3F3130343F4801357
:1005800001FB024400FB034E840A970A44EA8154AB
:1005900047EA8357A4FB076802958D0A05FB078588
:1005A0004FEA932C04FB0C542705029D4FEA065892
:1005B00047EA1637B5EB08056EEB070C870E920E6F
:1005C00047EA811742EA8312A7FB0201B6EB0B014F
:1005D00064EB00042B0D43EA0C335E1844EB1C5013
:1005E000DA465146E7FB0201C5F313044FEA0B3329
:1005F00043EA14534FEA0432019C43EA0603A4F190
:100600000C040294009CCDE900B400F0D8F803B0CB
:10061000BDE8F08F00200146F9E72DE9F04D81EAB1
:10062000030404F0004B21F0004514464FF0000A8B
:1006300023F0004150EA050220D054EA01021DD007
:10064000C5F30A570246C5F31303C1F31300C1F300
:100650000A5640F4801543F48013A7EB0608101BDC
:10066000D64608F2FD3873EB050002D308F1010805
:1006700001E092185B41B8F1000F03DA0020014657
:10068000BDE8F08D00204FF48011064684460EE050
:10069000171B73EB050705D3121B63EB050306431A
:1006A0004CEA010C49084FEA300092185B4150EACD
:1006B0000107EDD152EA030012D082EA040083EA76
:1006C0000501084305D0101BAB4106D201220023CF
:1006D00006E000224FF0004302E06FF001025310E9
:1006E0001AEB06004CEB085110EB0A0041EB0B0132
:1006F000BDE8F04D00F054B8C1F30A52C1F3130144
:1007000040F2FF3341F480119A4202DA00200146A0
:10071000704740F233439A42A2F2334202DC524223
:10072000FFF752BEFFF741BE30B5041E71F1000461
:1007300004DB4FF00044404264EB0101141E73F1EE
:10074000000405DB1C464FF00043524263EB0403F8
:10075000994208BF904230BD064C074D06E0E06864
:1007600040F0010394E8070098471034AC42F6D3F8
:10077000FFF796FDA49E0108C49E0108202A06DB0F
:10078000CB17203A41FA02F043EAE07306E041FA5F
:1007900002F3D040C2F1200291400843194670474D
:1007A00010B5141E73F1000408DA401C41F1000179
:1007B00092185B411A4301D120F0010010BD2DE9D0
:1007C000F04D92469B4611B1B1FA81F202E0B0FAC7
:1007D00080F220329046FFF7E8FD04460F4640EADB
:1007E0000A0041EA0B0153465A46084313D011460A
:1007F00053EA010019D0C8F140025046FFF7E4FD6A
:1008000005460E46504659464246FFF7CEFD084380
:1008100005D0012004E020463946BDE8F08D0020D7
:10082000054346EAE0762C4337430A986305E40A19
:10083000A0EB08000022FD0A44EA47540A3002D522
:1008400000200146E9E7010510196941DDE9084585
:1008500000196941BDE8F04DA2E7FEE7704772B6A6
:10086000FEE7F0B5D1E90843CD690A68C2B1026874
:10087000254322F4F84213431D430560D1E90125C5
:10088000D1E903364C692A434568334389691A43E1
:10089000EB0B2243DB030A431A4342600020F0BD06
:1008A000D1E9012ED1E9036CD1E9057142EA0E02CA
:1008B00046EA0C0632433A430A4301682A4322437C
:1008C0001A436FF30E010A430260E7E7426943F6F9
:1008D000FE739A4342EA410141610020704770B5BE
:1008E00091E81C00C9686FF01F0506691A4305EB03
:1008F000441444EA41210A4306EA45431A4302618B
:10090000002070BD2DE9F04F8B8A6FF00F05264C4B
:100910004FF07F4BD1F80C9004EB03536FF0FF04C2
:100920004FEA042A1AB386684FEA09321F4FA2F52C
:1009300080521A433E4032438260D1E900278E68DC
:10094000521E05EB07150F8A2A43C56804EB0624DF
:100950000E7E0AEB074322431A430BEB06610A4360
:1009600005F070431A43C2600020BDE8F08F91E8A3
:1009700004110F4E521E0F8A05EB08152A4304EB93
:100980000C2C06EB09350E7E42EA0C022A438568E0
:100990000AEB074422431A430BEB06610A4305F0B6
:1009A00070431A438260DFE70000F0FFFF0F0FFF84
:1009B00000F0FFFFF0B590F86020012A22D0C1EBD3
:1009C000C102012780F86070022380F8613000EBDB
:1009D0008202284D138F168EB2F83CC0D46A1B05D4
:1009E000283244EA064643EA4C530A2C46EA0306F8
:1009F0000AD0092C08D0137B46EA036349B10B2CBB
:100A00001AD01DE00220F0BDD36803F07F433343CA
:100A1000F4E701684C6AAC431C434C6201681368FC
:100A20008B6151680A2901D009291BD1D16802685C
:100A300021F07F41916215E0118B0F4D43EA814314
:100A40000168CC69AC431C43CC61016813680B613D
:100A500051680A2901D0092904D1D168026821F01E
:100A60007F411162002180F8617080F860100846B3
:100A7000F0BD00000F0033FF0F003FFF2DE9F041F4
:100A8000040004D094F86100002518B107E00120AB
:100A9000BDE8F081204684F8605000F033F8184E2D
:100AA000022084F861000123D4E90010D4F81CC0AE
:100AB00040F207120F6840EA0C00374038430860E4
:100AC0002068A769A168466B394396433143416367
:100AD0002068E268016C6FF30F0111430164206824
:100AE000218AA28A466B090541EA425126F4401246
:100AF00011434163656684F861300020C8E7000057
:100B0000BFFFF8FF08B500680649884208D10648CB
:100B1000016841F010010160006800F010000090D1
:100B200008BD000000100052D444025870B50446BD
:100B300000F0BCF90546601C02D00448007804446B
:100B400000F0B4F9401BA042FAD370BD8C00002421
:100B50002DE9F041B6B014216846FFF705FC39488D
:100B6000016800296BD14FF00108C0F80080C02156
:100B700006A8FFF7F9FB002018904FF0807104469B
:100B8000CDE9061006A800F019FD08B1FFF767FED1
:100B90002D48016841F4805101600068022502AAD5
:100BA000694600F48050059040F2FF60CDE90005F1
:100BB000032626480C2782E8D00000F055F802AA48
:100BC0004FF68370CDE900052148694682E8D000E0
:100BD00000F04AF802AA4FF60C70CDE900051D4856
:100BE000694682E8D00000F03FF802AA48F23310CC
:100BF000CDE900051848694682E8D00000F034F8D5
:100C000002AA4CF20370CDE900051448694682E857
:100C1000D00000F029F802AA4FF63F00CDE9000508
:100C20000F48694682E8D00000F01EF802AA0D487D
:100C3000694682E8D000CDE9008500F015F836B0AD
:100C4000BDE8F08100000024D4440258002002587E
:100C500000100258001C025800180258000C0258DC
:100C600000140258000802582DE9F84F03247D4D66
:100C700000234FF001094FF0B04B4FF00F0AE9E0AD
:100C800009FA03F73A4076D00E7906F00306012EF2
:100C900001D0022E18D1D0F808C04FEA430ECE681A
:100CA00004FA0EF82CEA080C06FA0EF646EA0C06D0
:100CB0008660D0F804C00E792CEA070CC6F3001643
:100CC0009E4046EA0C0646600E79F643B6070BD006
:100CD000C6684FEA43088F6804FA08FC26EA0C0647
:100CE00007FA08F73743C7600E7906F00306022EAD
:100CF00012D1DE080F694FEA437C00EB8606B64648
:100D0000366A4FEADC6C0AFA0CF807FA0CF726EAA6
:100D100008063743CEF820700F7906684FEA43087B
:100D200007F0030704FA08FC07FA08F726EA0C069E
:100D3000374307604E6816F4403F1CD04A4E376870
:100D400047F00207376036689F0706F002060096F4
:100D500023F0030606F1B046B6463F0FD6F8086406
:100D6000DFF808810AFA07FC404526EA0C0603D1A1
:100D70004FF0000C41E06CE0DFF8F4C0604502D1B8
:100D80004FF0010C39E0DFF8ECC0604502D14FF0C4
:100D9000020C32E0DFF8E0C0604502D14FF0030CF6
:100DA0002BE0DFF8D8C0604502D14FF0040C24E0FE
:100DB000DFF8CCC0604502D14FF0050C1DE0DFF834
:100DC000C4C0604502D14FF0060C16E0DFF8B8C091
:100DD000604502D14FF0070C0FE0DFF8B0C060456E
:100DE00002D14FF0080C08E0DFF8A4C0604502D142
:100DF0004FF0090C01E04FF00A0C0CFA07FC4CEA2A
:100E0000060CCEF808C44F68DBF80060FF0226EA43
:100E1000020600D516435F46CBF80060D1F804C047
:100E2000DBF804605FEA8C2C26EA020600D5164344
:100E30007E606E684F6826EA0206BF0300D516433F
:100E40006E602E684F6826EA0206FF0300D516433F
:100E50002E605B1C0A6832FA03F67FF411AFBDE81E
:100E6000F88F000080000058F44402580000025837
:100E70000004025800080258000C025800100258E2
:100E80000014025800180258001C02580020025892
:100E9000002402580AB1816170470904FBE7000091
:100EA00001480068000C70470010005C0148806831
:100EB000704700008C0000240248816802781144C9
:100EC000816070478C000024032010B500F0E4F925
:100ED00001F0BEF90F4A104914681368C4F30322E5
:100EE00003F00F038A5CC95C02F01F0201F01F01CE
:100EF000D0400A4A20FA01F11160094908600F2028
:100F000000F010F808B1012010BD00F097F90020A2
:100F100010BD000018440258949E01089C00002453
:100F20009800002470B50D4D04462878A0B14FF408
:100F30007A71B1FBF0F00A490968B1FBF0F001F0F9
:100F400045FD48B9102C07D200222146501E00F062
:100F500083F900206C6070BD012070BD8C000024FE
:100F6000980000242DE9F041044690F8A0001646B0
:100F70000F4601281DD0012584F8A050022084F8D6
:100F8000A10006EB860000EBC600342204EB8000D3
:100F90003830FFF7D0F932463946204604F06AFC73
:100FA000216800204D6284F8A15084F8A000BDE8BB
:100FB000F0810220FBE700002DE9F041040004D09D
:100FC00094F8A100002518B107E00120BDE8F081E8
:100FD000204684F8A05000F06BF83448022184F8D1
:100FE000A110012202CC8B6923F070438B6194E83D
:100FF0004A001943E3681E4354F8043D31439E6997
:101000003143996121688B6803408B602168A68A0F
:10101000A7698B683B4343EA06438B602168CB6832
:101020000340CB602168A38B276ACE683E4346EA23
:101030000346CE6021680B6903400B612368A68CD0
:10104000A76A1969394341EA0641196121684B6968
:1010500003404B612068A38D266B4169314341EA0F
:1010600003414161236894F8351094F83600DE6A34
:10107000000406F07F46DE62236840EA012094F80F
:101080003460D96A31430143D9622068416B41F031
:10109000060141632068816941F001018161C4F862
:1010A000A45084F8A120002090E7000000F800F090
:1010B000F0B5B7B00446142130A8FFF755F9C021A8
:1010C0006846FFF751F93149206888425CD10AAF80
:1010D0004FF4A5730225192287E82C0000211091F6
:1010E0000A260C4640040D95CDE90E61CDE90001BC
:1010F0006846119100F062FA08B1FFF7B0FB24488E
:10110000016841F008010160006800F008003590B6
:101110001F48001F016841F480610160016801F40B
:1011200080613591016841F400710160016801F44A
:1011300000713591016841F480710160006832AA44
:10114000032600F480703590FF20CDE930050E278E
:10115000104882E8D00030A9FFF786FD32AA4FF68A
:10116000FF70CDE930050C4830A982E8D000FFF7C8
:101170007BFD4FF4704032AACDE93005074830A915
:1011800082E8D000FFF770FD37B0F0BD00100050CE
:10119000E444025800280258002402580020025853
:1011A000F0B5154C4378211D0A1D23600378F3B177
:1011B00043680B60057BC67A817A437B2D07847B6D
:1011C00045EA0665C77B90F809C0067A90F800E00A
:1011D00045EAC14040EA834040EA444040EA0740D3
:1011E00040EA0C2040EA460040EA0E0001E0002000
:1011F00008601060F0BD000098ED00E0BFF35F8F65
:10120000044800210368034A23F4803303607032EA
:101210001160704724ED00E0074A40F001000649E4
:1012200070321060086840F480300860BFF34F8F60
:10123000BFF36F8F7047000024ED00E0054808B54C
:10124000016841F002010160006800F002000090B6
:1012500008BD0000F44402580E4BF0B41B680D4664
:10126000C3F30223C3F10706042E00D90426191D77
:10127000072901D2002300E0DB1E012404FA06F155
:101280009C40491E2940641E994014402143F0BCF3
:1012900005F086BA0CED00E0064900F0070210B533
:1012A0004FF6FF040868044B204040EA0220184330
:1012B000086010BD0CED00E00000FA05134970B5A0
:1012C0000A68D243520705D5096801F00701814237
:1012D00013D118E00A6822F0070202430A60FFF700
:1012E000E5FD0A4D4FF47A760446083D07E000BF5D
:1012F000FFF7DCFD001BB04201D9012070BD28685A
:10130000C0438004F4D4002070BD00000C48025893
:1013100010B500F057FF05490968054AC1F30211ED
:10132000515C01F01F01C84010BD0000204402586C
:10133000949E0108494930B5484C0B1D0A68143485
:1013400009681D68246802F00303C5F30012C1F3A5
:101350000531C4F3CC04002914FB02F200EE102A7C
:10136000F8EE400A75D03F4A9FED3D1AB7EE000AED
:101370006BB1DFED3D1A012B01D0022B64D002EEE0
:10138000101A1168F8EE422A81EEA22A21E0334CAD
:10139000283C23689B0612D5344B246801EE901A32
:1013A0001168C4F3C104F8EE612AE34001EE903AFB
:1013B000C1F30801F8EE611A81EEA22A0BE001EEFA
:1013C000901ADFED2B2A00BFF8EE611A116882EE49
:1013D000A12AC1F3080101EE901A1168F8EE611A12
:1013E00040EE811A71EE800A62EE200AC1F34621B6
:1013F00001EE101AB8EE411A31EE001AC0EE811A51
:10140000BCEEE11A80ED001A1168C1F3064101EE4D
:10141000101AB8EE411A31EE001AC0EE811ABCEE75
:10142000E11A80ED011A1168C1F3066101EE101A8C
:10143000B8EE411A31EE000A80EE801ABCEEC10A05
:1014400080ED020A30BD04E001EE901ADFED092ABA
:10145000BAE70021016041608160F3E72844025847
:1014600000000039384402580024744A0090D00328
:101470000024744C20BCBE4B494930B5484C0B1D70
:101480000A681C3409681D68246802F00303C5F368
:101490000022C1F30551C4F3CC04002914FB02F26D
:1014A00000EE102AF8EE400A75D03F4A9FED3D1A33
:1014B000B7EE000A6BB1DFED3D1A012B01D0022B14
:1014C00064D002EE101A1168F8EE422A81EEA22AC8
:1014D00021E0334C283C23689B0612D5344B24680A
:1014E00001EE901A1168C4F3C104F8EE612AE340DA
:1014F00001EE903AC1F30801F8EE611A81EEA22ADA
:101500000BE001EE901ADFED2B2A00BFF8EE611A16
:10151000116882EEA12AC1F3080101EE901A116848
:10152000F8EE611A40EE811A71EE800A62EE200A2E
:10153000C1F3462101EE101AB8EE411A31EE001A3D
:10154000C0EE811ABCEEE11A80ED001A1168C1F3F9
:10155000064101EE101AB8EE411A31EE001AC0EE43
:10156000811ABCEEE11A80ED011A1168C1F306611F
:1015700001EE101AB8EE411A31EE000A80EE801A20
:10158000BCEEC10A80ED020A30BD04E001EE901A03
:10159000DFED092ABAE70021016041608160F3E7CD
:1015A0002844025800000039404402580024744A7C
:1015B0000090D0030024744C20BCBE4B2DE9FE4F9C
:1015C0000546DFF8E48350F8081B0024F64FC943B2
:1015D000019005F12800264608F124080090080132
:1015E0001DD4A86E50B1B0F5801F0CD0B0F5001F0F
:1015F0000ED0B0F5401F1ED001240FE0386840F433
:101600000030386017E00198022104F051FB03E03C
:101610000098022104F0DCFB04000CD02646288848
:10162000C043C00523D4A86D05281ED2DFE800F012
:101630000C11161B1B00AA6ED8F8001021F44011E3
:101640001143C8F80010EAE7386840F40030386009
:1016500009E00198002104F02BFB03E00098002131
:1016600004F0B6FB044674B100E001242646288845
:10167000C043800528D4E86D80281ED00CDC90B1D2
:1016800040280ED114E0AA6DD8F8001021F007010F
:101690001143C8F80010EAE7C02813D0B0F5807FE6
:1016A00010D001240FE0386840F40030386009E0C1
:1016B0000198002104F0FCFA03E00098002104F0F6
:1016C00087FB04469CB126462888DFF8DC92C0439D
:1016D00009F12C0940052CD4D5F8A800B0F5800FED
:1016E00020D00DDCA0B1B0F5001F0FD115E0EA6DE0
:1016F000D8F8001021F4E0711143C8F80010E3E7B6
:10170000B0F5C00F13D0B0F5000F10D001240FE0DA
:10171000386840F40030386009E00198002104F096
:10172000C7FA03E00098002104F052FB04467CB1A4
:1017300026462888C04300052DD4D5F8AC00B0F16A
:10174000007F21D00EDCA8B1B0F1807F10D116E06F
:10175000D5F8A820D9F8001021F460011143C9F888
:101760000010E6E7B0F1407F13D0B0F1806F10D0E9
:1017700001240FE0386840F40030386009E0019837
:10178000002104F095FA03E00098002104F020FB0A
:10179000044674B126462868C04380011FD4E86C13
:1017A000D8B110280FD0202812D0302815D001240D
:1017B00014E0D5F8AC20D9F8001021F0E061114315
:1017C000C9F80010E7E7386840F40030386004E0FA
:1017D0000198022104F06CFA044674B12646288868
:1017E000C043C0042BD4286EB0F5005F20D00DDCC0
:1017F000A0B1B0F5805F0FD115E06B48EA6C2030E6
:10180000016821F0300111430160E8E7B0F5405F65
:1018100013D0B0F5804F10D001240FE0386840F4A9
:101820000030386009E00198002104F041FA03E03B
:101830000098002104F0CCFA04468CB12646288892
:10184000C043800429D4686EB0F5403F23D010DC3B
:1018500008B3B0F5803F14D0B0F5003F0FD115E0CC
:101860002A6ED8F8001021F4E0411143C8F80010A6
:10187000E5E7B0F5802F0ED0B0F5A02F0BD00124F6
:101880000AE00198012104F013FA03E00098012115
:1018900004F09EFA044694B126462888C0434004CA
:1018A0002AD4D5F8B000B0F1405F23D010DC08B3E3
:1018B000B0F1805F14D0B0F1005F0FD115E06A6E17
:1018C000D8F8001021F4E0211143C8F80010E4E733
:1018D000B0F1804F0ED0B0F1A04F0BD001240AE040
:1018E0000198012104F0E4F903E00098012104F0DB
:1018F0006FFA044674B126462888C04300041FD4FA
:10190000286FD8B1B0F1805F0ED0B0F1005F10D079
:10191000012414E0D5F8B020D9F8001021F0E041FE
:101920001143C9F80010E7E7386840F40030386028
:1019300004E00198012104F0BBF9044674B1264685
:101940002868C043C0011ED4A86CD0B101280ED0B5
:10195000022811D0032814D0012413E02A6FD8F8EC
:10196000001021F040511143C8F80010E8E7386832
:1019700040F40030386004E00198022104F098F946
:101980000446ACB126462868DFF81CB0C043ABF172
:101990001C0B400252D40548016841F4807101607B
:1019A000FFF784FA824611E02C440258004802589E
:1019B000FA48AA6C016821F0030111430160E2E7D3
:1019C000FFF774FAA0EB0A00642835D8F4480068E1
:1019D000C005F5D58CBBDFF8C4A3B5F8B4100AF187
:1019E000240ADAF8000001F4407100F440708842E3
:1019F00011D0DAF80010DAF8002021F4407142F436
:101A00008032CAF80020DAF8002022F48032CAF8C6
:101A10000020CAF80010D5F8B400B0F5807F1AD1C4
:101A2000FFF744FA029012E0FFF740FA0299411AD8
:101A300041F2883081420AD9032426462878DFF80B
:101A40005CA3C0430AF1080AC00721D03CE0DAF8E1
:101A500000008007E8D5D5F8B410C1F301200328B1
:101A600058460DD0016821F47C510160B5F8B420CE
:101A7000DAF80010C2F30B021143CAF80010DDE7D8
:101A8000C84A036802EA111223F47C511143ECE7BF
:101A9000E86F182816D005DCA0B1082808D0102857
:101AA00004D10AE020280DD028280BD001240AE018
:101AB0000198012104F0FCF803E00098012104F0F2
:101AC00087F9044664B126462878C04380071ED4AF
:101AD000A86F062819D2DFE800F0160C11161616AA
:101AE000EA6FDAF8001021F038011143CAF800104B
:101AF000EAE70198012104F0DBF803E000980121F6
:101B000004F066F904467CB100E0012426462878FA
:101B1000C04340071FD4D5F89400062819D2DFE847
:101B200000F0160C11161616AA6FDAF8001021F044
:101B300007011143CAF80010E9E70198012104F0F8
:101B4000B7F803E00098012104F042F90446A4B17B
:101B500000E0012426462878C04380062BD4D5F81F
:101B60009000B0F1405F24D011DC10B3B0F1805F81
:101B700015D0B0F1005F10D116E0D5F89420D9F857
:101B8000001021F007011143C9F80010E3E7B0F19C
:101B9000804F0ED0B0F1A04F0BD001240AE0019885
:101BA000002104F085F803E00098022104F010F908
:101BB000044694B126462878C04340062BD4D5F875
:101BC0009C00B0F5406F24D011DC10B3B0F5806FED
:101BD00015D0B0F5006F10D116E0D5F89020DAF8E6
:101BE000001021F0E0411143CAF80010E3E7B0F51E
:101BF000805F0ED0B0F5A05F0BD001240AE0019801
:101C0000002104F055F803E00098022104F0E0F808
:101C1000044694B126462878C04300062BD4D5F854
:101C2000A000B0F5C04F24D011DC10B3B0F5005FB8
:101C300015D0B0F5804F10D116E0D5F89C20D9F81A
:101C4000001021F4E0511143C9F80010E3E7B0F5AA
:101C5000004F0ED0B0F5204F0BD001240AE00198C0
:101C6000002104F025F803E00098022104F0B0F808
:101C7000044654B126462878C04300071ED4D5F840
:101C80008400B0F5805F0AD00FE0D5F8A020D9F825
:101C9000001021F460411143C9F80010EBE70098EF
:101CA000022104F095F800B10126D5F88420DAF875
:101CB000001021F440511143CAF800102878C043A5
:101CC000C00613D4D5F89800B0F5807F05D10098F0
:101CD000022104F07DF800B10126D5F89820D9F84A
:101CE000001021F440711143C9F800102868C04366
:101CF000000316D4D5F8A40038B1B0F5803F09D060
:101D0000B0F5003F0BD001240AE00198002103F058
:101D1000CFFF03E00098022104F05AF804468CB18A
:101D200026462868C043400322D4D5F88800B0F581
:101D3000801F11D0B0F5001F13D0B0F5401F15D093
:101D4000012414E0D5F8A420D9F8001021F4403182
:101D50001143C9F80010E4E7386840F400303860F7
:101D600004E00098012104F033F804465CB12646F3
:101D70002868C043C00323D4286DA8B1B0F5803FC4
:101D800017D001241BE0D5F88820DAF8001021F4E0
:101D900040111143CAF80010EAE700004C44025811
:101DA00000480258CFFFFF00386840F40030386028
:101DB00004E00198022103F07BFF0446E4B12646CB
:101DC0002868C043800005D40098022104F000F880
:101DD00000B101262868C04380031BD4D5F88000D9
:101DE000B0B1B0F5807F0FD0B0F5007F10D0B0F566
:101DF000407F0DD001240CE05A482A6D016821F47F
:101E0000803111430160DBE7386840F4003038600E
:101E1000ECB326462868C043C00207D46A6FD8F8DE
:101E2000001021F000411143C8F800102868C04399
:101E3000C00008D4D5F8B820DBF8001021F48041A8
:101E40001143CBF800102868C043800207D4EA6E23
:101E5000D8F8001021F080711143C8F800102868EC
:101E6000C04340000CD4DBF8001021F40041CBF853
:101E70000010DBF80010D5F8BC201143CBF800109F
:101E80002868C04308D437486A6D016800E018E04C
:101E900021F04051114301602868C043000208D47A
:101EA000D5F88C20DAF8001021F440011143CAF86B
:101EB000001028790024C04300F0010020430AD01C
:101EC0000FE0D5F88020DAF8001021F440711143BA
:101ED000CAF800109EE70198002103F0E9FE00B166
:101EE00006462879C04300F00200204305D101983E
:101EF000012103F0DDFE00B106462879C04300F061
:101F00000400204305D10198022103F0D1FE00B165
:101F100006462879C04300F00800204305D1009808
:101F2000002103F055FF00B106462879C04300F0B8
:101F30001000204305D10098012103F049FF00B1B2
:101F400006462879C04300F02000044304D10098DD
:101F5000022103F03DFF00B916B10120BDE8FE8F5C
:101F60000020FBE74C4402582DE9F05F04000F46C7
:101F70007ED0DFF83882D8F8000000F00F00B842B9
:101F80000CD2D8F8001021F00F013943C8F8001026
:101F9000D8F8000000F00F00B84269D12078844DD5
:101FA00040070AD52069296801F07001884204D9E8
:101FB000296821F070010143296020787C4E361D8C
:101FC00000070AD56069316801F07001884204D9C0
:101FD000316821F07001014331602078C0060AD5D4
:101FE000A069316801F4E061884204D9316821F4C4
:101FF000E061014331602078DFF8B4B180060BF175
:10200000080B0CD5E1695846DBF8002002F070029D
:10201000914204D9026822F070020A4302602078DB
:1020200080070AD5E068296801F00F01884204D9C9
:10203000296821F00F01014329602078C0073ED0B4
:102040005B49A2682868183920F470601043286042
:102050006068022818D0032819D00968012819D00F
:10206000490700294ADADFF848A1AAF1080A00E086
:1020700044E0DAF8002022F007020243CAF8002008
:10208000FEF714FF814612E009688903E9E7096851
:102090008901E6E7C905E4E7FEF708FFA0EB0901BF
:1020A00041F28830814202D90320BDE8F09F616887
:1020B000DAF8000000F03800B0EBC10FECD1207866
:1020C00080070AD5E068296801F00F01884204D230
:1020D000296821F00F0101432960D8F8001040461B
:1020E00001F00F01B9420BD9016821F00F0139430A
:1020F0000160006800F00F00B84201D00120D4E771
:10210000207840070AD52069296801F070018842CB
:1021100004D2296821F0700101432960207800076A
:102120000AD56069316801F07001884204D23168D3
:1021300021F07001014331602078C0060AD5A06902
:10214000316801F4E061884204D2316821F4E06131
:1021500001433160207880060CD5E1695846DBF8F0
:10216000002002F07002914204D2026822F0700254
:102170000A43026000F06CF80E492A682B68C2F32B
:10218000032203F00F038A5CC95C02F01F0201F016
:102190001F01D040084A20FA01F111600749086088
:1021A00007480068BDE8F05FFEF7BCBE00200052A3
:1021B00018440258949E01089C00002498000024B2
:1021C0009000002430B500F043F80B4A0B490C4B4B
:1021D00015681468C5F3032204F00F048A5C095DD6
:1021E00002F01F0201F01F01D040064A20FA01F15F
:1021F00019601060084630BD18440258949E0108CA
:102200009C0000249800002400B5FFF7DBFF05497F
:102210000968054AC1F30211515C01F01F01C84071
:1022200000BD00001C440258949E010800B5FFF751
:10223000C9FF05490968054AC1F30221515C01F053
:102240001F01C84000BD00001C440258949E0108B4
:10225000454970B545480968434B103B11F03802B9
:1022600008D00111082A03D0102A0BD0182A0BD04D
:10227000084670BD19688906FBD51968C1F3C1010C
:10228000C84070BD3A4870BD3749374D18310C1DF4
:1022900024350A68096826682D6802F0030406F0F0
:1022A0000102C1F30511C5F3CC0515FB02F200EEE6
:1022B000102AB8EE400AE9B32F4ADFED2E0AB7EE36
:1022C000001A6CB1DFED2D1A012C01D0022C43D085
:1022D00002EE101A1068F8EE422A81EEA22A1EE0E1
:1022E0001C68A40611D51B6801EE901A1168C3F38F
:1022F000C103F8EE612AD84001EE900AC1F308004C
:10230000F8EE611A81EEA22A0BE001EE901ADFEDE1
:102310001C2A00BFF8EE611A106882EEA12AC0F3F1
:10232000080001EE900AF8EE611A40EE201A31EE34
:10233000810A00E015E022EE000A1068C0F3462092
:10234000401C00EE900AF8EE600A80EE201ABCEE07
:10235000C10A10EE100A70BD01EE901ADFED092AD5
:10236000D8E7002070BD0000104402580090D00350
:1023700040787D0100000039304402580024744A3E
:102380000024744C20BCBE4B2DE9F05F04007DD0CE
:10239000FF4F2078FE4D1837DFF8F493103DC0074B
:1023A00048D0D9F80000396800F03800102815D05E
:1023B000182803D101F0030002280FD06068B0F59F
:1023C000803F12D010B1B0F5A02F18D0286820F4AB
:1023D00080302860286820F4802009E02868800385
:1023E00028D560680028D2D024E0286840F48030E6
:1023F0002860606888B1FEF759FD064609E0286844
:1024000040F480202860F0E7FEF750FD801B642830
:102410006FD828688003F7D50CE0FEF747FD064625
:1024200005E000BFFEF742FD801B6428F0D8286855
:102430008003F7D4207841F20308D54E0C3E800784
:1024400069D5D9F80000396810F038000ED0182886
:1024500001D188070AD0E06890B3296821F01901FA
:1024600001432960FEF722FD824631E028684007DB
:1024700002D5E06800288AD0E168286820F01900B9
:1024800008432860FEF712FD824607E0DFE000BF48
:10249000FEF70CFDA0EB0A000228B9D82868400717
:1024A000F6D500BFFEF7FCFC40451BD8206940284C
:1024B00012D0316821F47C3141EA003030602AE0EA
:1024C00018E000BFFEF7F2FCA0EB0A0002289FD83C
:1024D00028684007F6D5E5E7306820F47C3040F402
:1024E0000030EBE7207C316821F0FE4141EA0060DA
:1024F000E4E70DE1286820F001002860FEF7D6FC33
:10250000824605E0FEF7D2FCA0EB0A0002288DD837
:1025100028684007F6D42078C0065DD5D9F80000B9
:10252000DFF86CB2396800F03800ABF1040B082812
:1025300010D0182803D101F0030001280AD0E06967
:102540000028286838D040F080002860FEF7AEFCF4
:10255000824623E02868C00523D5E069802876D12B
:102560001FE0206A202821D0316821F0F84141EA9B
:102570008060306030E000BF94F82010DBF800206D
:1025800022F07C5242EA0161CBF8001024E000BF47
:10259000FEF78CFCA0EB0A00022898D82868C0053A
:1025A000F6D5FEF77DFC4045E6D8DAE7306820F046
:1025B000F84040F08040DCE720F080002860FEF723
:1025C00075FC064605E000BFFEF770FC801B022884
:1025D0009DD82868C005F7D42078000729D56C4815
:1025E0006169643000298046016811D041F0010121
:1025F0000160FEF75BFC064605E000BFFEF756FCF7
:10260000801B0228C9D8D8F800008007F6D510E052
:1026100021F001010160FEF749FC064605E000BF1C
:10262000FEF744FC801B022872D8D8F8000080070F
:10263000F6D42078800623D5A0690028286810D019
:1026400040F480502860FEF731FC064605E036E194
:10265000FEF72CFC801B02285AD828688004F7D586
:102660000EE020F480502860FEF720FC064604E0CF
:10267000FEF71CFC801B02284AD828688004F7D487
:10268000207840074FD5DFF80C81D8F8001041F4CE
:102690008071C8F80010FEF709FC064605E000BF8F
:1026A000FEF704FC801B642832D8D8F80000C0056F
:1026B000F6D5374EA068603601280AD008B1052843
:1026C00013D0306820F001003060306820F0040042
:1026D00002E0306840F001003060A06841F2883AC2
:1026E00090B1FEF7E3FB80460AE0306840F004005A
:1026F0003060EEE7FEF7DAFBA0EB0801514507D8A2
:1027000030688007F6D50EE0FEF7D0FB804607E084
:1027100084E000BFFEF7CAFBA0EB080151457DD85D
:1027200030688007F6D4606AB0B3DFF86480D9F807
:10273000001008F120084FF6F87B08F10409C1F3F6
:10274000C2010329A8F1040A69D00228286820F0F0
:102750008070286003D0FEF7A9FB044684E0FEF7F2
:10276000A5FB064605E000BFFEF7A0FB801B022884
:1027700077D828688001F7D4E26A40F2F3313868EC
:1027800054F8283F884340EA02101843386004E0B8
:102790001044025800480258B5E0217B4346228984
:1027A0004FF4FE0C208A4FF0FE474902267D521E50
:1027B000401EA1F50071C2F308088AB2761E0CEA29
:1027C000004042EA08020243504607EA06610A4313
:1027D0001A60DAF8002022F00102CAF80020D9F8C5
:1027E0000020266A22EA0B0242EAC602C9F800204B
:1027F000DAF80010A26921F00C011143CAF80010A8
:102800000168E26921F0020111430160016841F4AD
:1028100080310160016841F4003101E021E027E0EE
:102820000160016841F480210160016841F001010B
:102830000160286840F080702860FEF737FB04468E
:1028400005E000BFFEF732FB001B022809D828680C
:102850008001F7D557E000BFFEF728FB001B0228D8
:1028600002D90320BDE8F09F28688001F4D44AE033
:1028700039680128D8F8000021D0A26A01F00303CA
:1028800093421CD1E26AC1F305118A4217D1216B30
:10289000C0F30802491E8A4211D1616BC0F346227F
:1028A000491E91420BD1A16BC0F30642491E9142D1
:1028B00005D1E16BC0F30660491E814201D00120C1
:1028C000D0E7A16C4E46D9F80000C0F3CC0081429D
:1028D00019D0DAF80000554620F00100CAF80000CF
:1028E000FEF7E4FA4FEA0007FEF7E0FAB842FBD041
:1028F000A26C306820EA0B0040EAC2003060286811
:1029000040F0010028600020ACE7000070B5040032
:102910000D4603D094F82C0010B107E0012070BDE3
:10292000002084F82D00204600F018F8022084F8DA
:102930002C002068211DFDF794FFD4E900022946F0
:10294000FDF7E0FF04480121026842F00042026006
:1029500084F82C10002070BD00400052FEF7F8B83B
:1029600010B5044690F82C00022804D094F82C00EE
:10297000012801D0012010BD022084F82C0020681D
:10298000FDF7A4FF012084F82C00002010BD0000FA
:1029900070B5044690F82C000D46022804D001289A
:1029A00003D0052801D0012070BD022084F82C003E
:1029B0002068FDF794FF2868022805D05FF0010029
:1029C00084F82C00002070BD0520F9E7401EB0F10E
:1029D000807F10B501D3012010BD4FF0E02460616D
:1029E0000F21601703F0DCFE0020A06107212161A8
:1029F00010BD30B590F88410012918D0012280F85C
:102A000084202421C0F888100022202401680B684B
:102A10000D6823F0005325F001050D604266016842
:102A20000B60C0F8884080F88420104630BD02203A
:102A300030BD70B5044690F8840001281DD00122F5
:102A400084F884202420C4F888002068056802687F
:102A500022F0010202602068826822F060620A436C
:102A60008260204603F064FB22682021002015606C
:102A7000C4F8881084F8840070BD022070BD70B561
:102A8000044690F8840001281DD0012284F8842097
:102A90002420C4F8880020680568026822F001023A
:102AA00002602068826822F060420A438260204609
:102AB00003F03EFB2268202100201560C4F8881036
:102AC00084F8840070BD022070BD10B5040003D0EE
:102AD000D4F8880010B107E0012010BD002084F870
:102AE0008400204600F026F82420C4F888002068DE
:102AF000016821F001010160204603F01FFC01285C
:102B0000EBD0A06A10B1204603F034FB2068416886
:102B100021F4904141602068816821F02A018160A0
:102B20002068016841F0010101602046BDE81040C5
:102B300003F084BB10B5B6B00446142130A8FDF7ED
:102B400013FCC0216846FDF70FFC1A492068884233
:102B50002DD100201F9001210446CDE900106846C8
:102B6000FEF72CFD08B1FDF77AFE1348016841F02D
:102B700010010160006800F0100035900E48103818
:102B8000016841F00101016000680DF1C00C0221F3
:102B900000F0010035904FF4C06007238CE813006B
:102BA00003220648CDE9332330A9FEF75DF836B09D
:102BB00010BD000000100140F0440258000002580F
:102BC000FEE700000F48002330B50F494FF44034B2
:102BD000026822F00102026004600C4D0C4A8C680D
:102BE00044630364CB68C363456449688163916C43
:102BF0000129FCD1016841F0010101600168C907A8
:102C0000FCD130BD0010005278020024E001200306
:102C1000001000502DE9F74F203A8046DFF8689009
:102C20000025DFF868A002F0FF0B444625E013689A
:102C300000260BFB01316F5CF80702D0DAF80020A8
:102C400001E0DAF804202046019900F0CFFAD9F823
:102C50000000641CA4B27F088188A4EB08008842AD
:102C600005D101984446401C80B2019003E0761CD7
:102C7000B6B2082EE0D36D1CADB2D9F80020118990
:102C8000A942D4D8BDE8FE8F840000247802002435
:102C90002DE9F74FDFF8A0C08146044617780021E0
:102CA000DCF80400038906684D1C03FB05F816F8E0
:102CB0000880B84508D105FB036592F801806D785E
:102CC000454501D18B4604E04589891C89B28D4276
:102CD000EAD8DFF868A00025E04625E01368002662
:102CE0000BFB01316F5CF80702D0DAF8002001E03D
:102CF000DAF804202046019900F078FAD8F80400A8
:102D0000641CA4B27F088188A4EB0900884205D125
:102D100001984C46401C80B2019003E0761CB6B28C
:102D2000082EE0D36D1CADB2D8F804201189A94259
:102D3000D4D8BDE8FE8F000084000024780200246F
:102D400030B50546094887B00C46C07C8DED000BB8
:102D500050B107A102A803F00FFD02AA21462846A0
:102D600000F032F807B030BD03A1F3E77802002489
:102D7000252A2E2A6C66000025302A2E2A6C660031
:102D80000149487470470000780200247FB51E4650
:102D9000094B05460C46D87C1346324648B107A17C
:102DA000684603F0E9FC6A462146284600F00CF824
:102DB0007FBD03A1F4E7000078020024252A640007
:102DC00025302E2A640000002DE9F0410B4E4FF40F
:102DD000487715468846044608E041462046FFF7F6
:102DE00019FF30686D1C8088204484B2BC4202D236
:102DF0002A78002AF1D1BDE8F08100008400002487
:102E0000F0B50F4E14460F46054615E07F2A09D847
:102E100039462846FFF7FEFE3068641C8088284447
:102E200085B209E0224639462846FFF731FF70682F
:102E3000A41C8088284485B22278002AE6D1F0BDFF
:102E4000840000242DE9F84F5542814602201F4F8F
:102E50000026884600EB450408EB060A3A68A9EB11
:102E600005001FFA8AF1009080B200F0BFF909EB6B
:102E7000050B3A681FFA8AF11FFA8BF000F0B6F9D9
:102E8000A8EB060A3A681FFA8BF01FFA8AF100F0E5
:102E9000ADF900981FFA8AF13A6880B200F0A6F9FD
:102EA000B442204608DC761C00EB4604641CF54264
:102EB00002D1A84200DC0020A84203DD6D1C04EB17
:102EC0004504641C002DC7DDBDE8F88F780200249E
:102ED0002DE9F04F00EE102A01EE103AC2F1000782
:102EE000804602200E46F8EEC00AB8EEC11A00EB8A
:102EF00047046B489A424FF0000565DD80EE810A79
:102F00004FEA000900EE905AA8EB070BD9F8002011
:102F1000F8EEE00A80EE801AFCEEC10A10EE900A8C
:102F2000304481B21FFA8BF000F060F900EE905A45
:102F300008EB070AD9F80020F8EEE00A80EE801AC4
:102F4000FCEEC10A10EE900A304481B21FFA8AF0FA
:102F500000F04CF900EE905AD9F80020F8EEE00AA3
:102F600080EE801AFCEEC10A10EE900A301A81B28F
:102F70001FFA8AF000F03AF900EE905AD9F80020D2
:102F8000B8EEE01AC1EE000AFCEEE00A10EE900A7C
:102F9000301A81B21FFA8BF000F028F9AC422046BB
:102FA00008DC6D1C00EB4504641CEF4202D1B84202
:102FB00000DC0020B84203DD7F1C04EB4704641CE6
:102FC000002F9FDDBDE8F08F81EE200A5F424FEABF
:102FD0000009002500EE905A06EB070AD9F80020F8
:102FE0001FFA8AF1F8EEE00A80EE801AFCEEC10AC0
:102FF00010EE900AA8EB000080B200F0F7F800EEA7
:10300000905A1FFA8AF1D9F80020F8EEE00A80EE13
:10301000801AFCEEC10A10EE900A404480B200F023
:10302000E5F800EE905AA6EB070AD9F800201FFA3F
:103030008AF1F8EEE00A80EE801AFCEEC10A10EE8A
:10304000900A404480B200F0D1F800EE905A1FFA86
:103050008AF1D9F80020F8EEE00A80EE801AFCEE42
:10306000C10A10EE900AA8EB000080B200F0BEF892
:10307000AC4220460ADC6D1C05EB45021418EF42F9
:1030800004F1010402D1B84200DC0020B84204DDA2
:103090007F1C07EB47000444641C002F9ADD91E776
:1030A000780200242DE9FF4F904681460446DDF862
:1030B00034A0002003998346884238D20025B4EE1C
:1030C000001A21E09AF800700026F807194801D08C
:1030D000026800E042682046019900F087F8641C0D
:1030E000A4B27F08A4EB0901414505D101984C46E3
:1030F000401C80B2019003E0761CB6B2082EE4D3E7
:103100006D1CADB20AF1010A00EE108A00EE905A71
:10311000B8EE400AF8EE600A20EE010AB4EEE00ACA
:10312000F1EE10FACEDC0BF1010080B2C2E7BDE88F
:10313000FF8F0000780200242DE9FC4F151A0027AC
:10314000002D00DC851A5C1A0FFA85FC002C00DCCF
:10315000CC1A06B282424FF0FF320DB220B203D336
:1031600001240094A24601E0924600928B4203D3D0
:103170004FF0010BD94601E09346D9464FF00001CC
:10318000844507DB894600910CEBDC71E046019039
:103190004C1025E08A464FF0000B00EBD0718046C2
:1031A000CDF804C04C101BE00F48A9B20268B0B2C1
:1031B00000F01CF80198204404B2444508DB009854
:1031C000A4EB08010CB2321805EB0B0016B205B2E5
:1031D0007F1C06EB0A0105EB09000EB205B23FB2F7
:1031E0004745E1DDBDE8FC8F78020024F0B51C4BBB
:1031F000A0F2DF1C6FF018061C460CFB06FC01EB6E
:10320000C1059F6805EB0116E568647C01EB4C1174
:1032100000EB461647B190B2012F0ED0E4B1012C5D
:1032200001D125F81100F0BD24B1012CFBD145F8E6
:103230002120F0BD45F82620F0BDC2F3074244B17D
:10324000012CF9D101EB41016852D868891C425424
:10325000F0BD06EB4601F7E725F81600F0BD0000CB
:1032600078020024F0B585181C46AAB20F4606461F
:103270000B46FFF761FF3C443046AAB2A3B2A1B2AD
:10328000FFF75AFF32463946A3B21046FFF754FF04
:10329000A3B23946AAB2A8B2BDE8F040FFF74CBFCE
:1032A0002DE9F04F0746144603208A460025904634
:1032B000A0EB440645E0DCB1AAEB0409A7EB050C42
:1032C00009EB440B1FFA89F11FFA8BF31FFA8CF2FA
:1032D0001FFA8CF0FFF730FF07EB050C1FFA8BF39A
:1032E0001FFA89F11FFA8CF21FFA8CF0FFF724FF06
:1032F000DDB1AAEB0509A7EB040C09EB450B1FFA9E
:1033000089F11FFA8BF31FFA8CF21FFA8CF0FFF78A
:1033100013FF07EB040C1FFA8BF31FFA89F11FFA56
:103320008CF21FFA8CF0FFF707FF002E03DA06EB92
:103330008506B61D04E0281B641E06EB80060A36CF
:103340006D1CA542B7D9424651463846BDE8F04FFC
:10335000FFF778BDF0B5204C26684FF440371F4D7D
:1033600026F0010626602760AE6866632E68A663B5
:103370002F4695F811C0BD7CBCF1000FFE681AD035
:10338000C0F5F070801A401E42EA034200EBC0070D
:1033900007EB0010C3F54873236401EB401005FBF5
:1033A0000060E0636264206840F0010020602068F3
:1033B000C007FCD1F0BD01EBC10707EB011743EAE1
:1033C000024100EB4713C2F54870206405FB03621D
:1033D000E2636164E7E70000001000527802002415
:1033E00010B586B014216846FCF7BEFF0D48016891
:1033F00041F080010160006840210B4C012200F087
:1034000080000590002000916946CDE901200390DD
:103410002046FDF729FC002220464021FDF73AFD19
:1034200006B010BDE0440258001C0258F0B59BB035
:1034300034216846FCF798FF4FF448754FF4F07656
:1034400000240DF1200C05207106CDE90045CDE9E1
:10345000024602238CE863005A022A48FF27694685
:10346000CDE906428DF8304000228DF83140CDE99B
:1034700004378DF83240FDF775FD34210DA8FCF7B7
:1034800073FFCDE90D4503201F4BCDE90F46139483
:103490004102CDE9110714A8072280E86E008DF8DB
:1034A000664001228DF865400DA916488DF86440EC
:1034B000FDF758FDFFF794FF1448164A1449447469
:1034C00011600121C174002000F0A2F83C062046E2
:1034D00000F024F82516284600F05AF8FFF772FB92
:1034E000012000F095F8204600F018F8284600F07A
:1034F0004FF8FFF767FB084801224021FDF7CAFC9F
:103500001BB0F0BD0801002400B80BC078020024F5
:103510005400002484000024001C02581B4A00238D
:1035200030B5C0F3C4019468022C05D0032C0CD034
:10353000042C1AD0506030BD4FF478434FF4FC6433
:1035400003EA102304EA50100BE0040E01D04FF4FC
:1035500000434FF4F844651104EA5024234305EA7C
:10356000901003430B43536030BD4FF47041F0257E
:103570000B1103EA103401EA1041C0F30313214395
:1035800005EA102001431943516030BD7802002440
:103590001B4A002330B5C0F3C4019468022C05D047
:1035A000032C0CD0042C1AD0106030BD4FF478439B
:1035B0004FF4FC6403EA102304EA50100BE0040EFD
:1035C00001D04FF400434FF4F844651104EA50244D
:1035D000234305EA901003430B43136030BD4FF4BF
:1035E0007041F0250B1103EA103401EA1041C0F3D9
:1035F0000313214305EA102001431943116030BD34
:10360000780200240149086070470000840000240B
:1036100009494FF0020210B510B1012805D009E0A8
:103620004FF04043C1E9022303E0044C0323C1E906
:1036300002348A74087410BD7802002400B80BC0EC
:103640000C494860808814280FD005DC0C280AD06B
:10365000102807D1084804E0182808D0202801D1F4
:103660000648086070470648FBE70648F9E7064841
:10367000F7E70000840000246C00002448000024C8
:103680007800002460000024540000240149C8741C
:1036900070470000780200242DE9FC5F4FF47A7037
:1036A000002401903B48FFF739FFFFF78BFA3A48B7
:1036B000FFF7C6FF3948FFF76BFFA0214FF4A77053
:1036C00037A2FFF79DFB3948FFF762FF38485323C5
:1036D000F0220090DA214FF48C70FFF7E3FC6FF0DA
:1036E0007F052846FFF754FF4FF4A576A200314628
:1036F00006236420FFF72EFE0A20FDF717FA641C4C
:10370000E4B2962CF2D32448FFF79AFF4FF07F40A3
:10371000FFF73EFF274F0024DFF89C906FF07F16E5
:103720006FF4FE084FF0FF3B6FF4FE4A07E0082CF1
:103730000AD2DFE804F00406232527292B2D1F4891
:1037400000E03046FFF7EAFEFFF73CFA5421702014
:103750001BA2FFF755FB862170201FA2FFF750FB2D
:10376000B821702023A2FFF74BFB0198FDF7DEF98B
:10377000641CE4B2082CDAD3BDE8FC9F3846E1E7CC
:103780002846DFE74046DDE74846DBE75046D9E715
:103790005846D7E7F8EDB9FF3C000024333333FF38
:1037A000CBA2C6C1B2E2CAD4000000002379FDFF5B
:1037B000AE5C0108FF8080FFA3A3A3FF8080FFFF12
:1037C00053544D33324837204C54444320CBA2C687
:1037D000C1B2E2CAD4000000BACBD0C4B0E5D0CDAB
:1037E000BAC5A3BA464B3735304D362D5842483608
:1037F00000000000C6C1C4BBB7D6B1E6C2CAA3BAB6
:103800003830302A343830002DE9F8435A48FFF771
:1038100085FEFFF7D7F95948FFF712FF5848FFF721
:10382000B7FEA0214FF4A77056A2FFF7E9FA584857
:10383000FFF7AEFE57484FF48C7753230090F022E9
:103840003846DA21FFF72EFC6FF07F00FFF7A0FE6D
:1038500000244FF6FF754FF4A57600BF0623B0464F
:103860006420314605EA8402FFF774FD0A20FDF763
:103870005DF9641CA4B2962CF0D34FF07F40FFF7A3
:103880004DFEFFF79FF93D48FFF7DAFE4FF0FF309E
:10389000FFF77EFE46212A203FA2FFF7B1FA6E21F4
:1038A0002A2044A2FFF7ACFA96212A2046A2FFF76D
:1038B000A7FA00251E261F244FF4803909EB054086
:1038C0004042FFF765FE06EB45003B4682B280B200
:1038D000F021FFF731FC04EB45003B4682B280B299
:1038E000F021FFF729FC6D1CADB2FF2DE6D30025BA
:1038F00047464FF0FF294FF4917800BFA9EB052010
:10390000FFF746FE06EB45003B4682B2414680B2D9
:10391000FFF712FC04EB45003B4682B2414680B201
:10392000FFF70AFC6D1CADB2FF2DE7D3DFF8AC90BA
:103930000025B0464FF4C3764FF4AF77A9EB0500EE
:10394000FFF726FE08EB4500334682B2394680B2C7
:10395000FFF7F2FB04EB4500334682B2394680B2F2
:10396000FFF7EAFB6D1CADB2FF2DE7D3BDE8F843CE
:1039700040F6B830FDF7DAB8F8EDB9FF3C000024A6
:10398000333333FFD1D5C9ABBBE6D6C60000000048
:103990002379FDFFAE5C0108BACBD0C4B0E5D0CD31
:1039A000BAC5A3BA464B3735304D362D5842483646
:1039B00000000000C6C1C4BBB7D6B1E6C2CAA3BAF4
:1039C0003830302A34383000524742C8FDBBF9C97C
:1039D000ABC9ABBDD7B2E2CAD4000000FF0000FF04
:1039E0002DE9F84FA74800244FF0640BFFF796FD30
:1039F000FFF7E8F8A448FFF723FEA448FFF7C8FD47
:103A0000A0214FF4A770A2A2FFF7FAF9A348FFF78D
:103A1000BFFDA3485323F0220090DA214FF48C70AD
:103A2000FFF740FB6FF07F052846FFF7B1FD2E0C36
:103A30004FF4A57706233946642006EA8402FFF78F
:103A400089FC0A20FDF772F8641CA4B2962CF1D30D
:103A50000120FFF7DDFD0020FFF760FDFFF7B2F862
:103A60000020FFF7D5FD4FF07F442046FFF756FDBD
:103A7000FFF7A8F826163046FFF78AFD8248FFF7C1
:103A8000DFFD0A2187A20846FFF7BAF94FF47A7AD8
:103A90005046FDF74BF86FF4FE084046FFF778FDFF
:103AA0003C234FF4967919462D204A46FFF744FBF4
:103AB0005846FDF73BF86FF4FE473846FFF768FDC0
:103AC0005A234A462D201946FFF736FB5846FDF784
:103AD0002DF82846FFF75CFD78234A462D2019462D
:103AE000FFF72AFB5846FDF721F87548FFF750FD10
:103AF00096234A462D201946FFF71EFB5846FDF730
:103B000015F84046FFF744FDB4234A462D201946D8
:103B1000FFF712FB5846FDF709F83846FFF738FD66
:103B2000D2234A462D201946FFF706FB5846FCF7DC
:103B3000FDFF2846FFF72CFDF0234A462D201946AD
:103B4000FFF7FAFA5846FCF7F1FF2012FFF720FDC5
:103B50004FF4AF75552229467620FFF7A1FB584652
:103B6000FCF7E4FF4FF0FF20FFF712FD5522294636
:103B7000BB20FFF795FB5846FCF7D8FF5148FFF7ED
:103B800007FD552229464FF48670FFF789FB5846FA
:103B9000FCF7CCFF4C48FFF7FBFCC82340F2831036
:103BA00035211A46FFF7D6FB5846FCF7BFFF6FF0EA
:103BB0007F10FFF7EDFCC82340F2DD108D211A467F
:103BC000FFF7C8FB5846FCF7B1FF4048FFF7E0FCA1
:103BD000C82340F24520F8211A46FFF7BBFB5846A0
:103BE000FCF7A4FF5046FCF7A1FF0120FFF710FDF2
:103BF000374D2846FFF7CCFC502164204FF4BE73AC
:103C00004FF41672FFF7A6FB2846FFF787FC204605
:103C1000FFF7BEFC5A2192202EA2FFF7F1F8504682
:103C2000FCF784FF4FF070642046FFF777FC3046C6
:103C3000FFF7AEFC8C216E202AA2FFF7E1F8504678
:103C4000FCF774FF0020FFF769FC3046FFF7A0FC8B
:103C5000C8216E2023A2FFF7D3F85046FCF766FF79
:103C60002046FFF75BFC300AFFF792FC6E201DA296
:103C70004FF48271FFF7C4F8BDE8F84F4FF4FA60D3
:103C8000FCF754BFF8EDB9FF3C000024333333FF99
:103C9000CBABB2E3B2E2CAD4000000002379FDFF4F
:103CA000AE5C010853544D33324837204C544443E2
:103CB00020B1B3BEB0B2E32C206C617965723000E4
:103CC000A3A3A3FFFF0000FF8080FFFFFF8080FF12
:103CD000988434FFC7B0BEB0B2E32C206C61796524
:103CE0007231000053544D33324837204C54444312
:103CF0002C2041524742313535352C206C61796595
:103D000072310000F8B5C448FFF708FCFEF75AFF0F
:103D1000C248FFF795FCC248FFF73AFCA0214FF4D8
:103D2000A770C0A2FFF76CF8C148FFF731FCC1488B
:103D30005323F0220090DA214FF48C70FFF7B2F990
:103D40006FF07F063046FFF723FC00244FF4A57781
:103D5000350C00BF06233946642005EA8402FFF7CC
:103D6000F9FA0A20FCF7E2FE641CA4B2962CF1D307
:103D70004FF07F40FFF7D2FBFEF724FFAE48FFF77E
:103D800041FCAE48FFF704FC4FF4FA7410232246BE
:103D90000321C820FFF7DEFA03210020A8A2FFF7C5
:103DA00013F84FF0FF20FFF7F3FB102322461921F1
:103DB000C820FFF7CFFA19210020A4A2FFF704F8CA
:103DC000A548FFF7E5FB102322462F21C820FFF767
:103DD000C1FA2F210020A1A2FEF7F6FF6FF47F00A9
:103DE000FFF7D6FB102322464521C820FFF7B2FA81
:103DF000452100209BA2FEF7E7FF6FF47F40FFF70D
:103E0000C7FB102322465B21C820FFF7A3FA5B21E2
:103E1000002097A2FEF7D8FF6FF0FF00FFF7B8FB76
:103E2000102322467121C820FFF794FA7121002047
:103E300092A2FEF7C9FF9448FFF7AAFB102322467F
:103E40008721C820FFF786FA872100208FA2FEF77E
:103E5000BBFF9148FFF79CFB102322469D21C82001
:103E6000FFF778FA9D2100208CA2FEF7ADFF6FF0DE
:103E70007F10FFF78DFB10232246B321C820FFF7E8
:103E800069FAB321002088A2FEF79EFF8948FFF758
:103E90007FFB10232246C921C820FFF75BFAC92106
:103EA000002085A2FEF790FF6FF4FE00FFF770FB85
:103EB00010232246DF21C820FFF74CFADF21002023
:103EC00080A2FEF781FF6FF4FE40FFF761FB102335
:103ED0002246F521C820FFF73DFAF52100207CA2FB
:103EE000FEF772FF3046FFF753FB40F20B152246F8
:103EF00010232946C820FFF72DFA0020294678A272
:103F0000FEF762FF7A48FFF743FB40F22115224695
:103F100010232946C820FFF71DFA0020294675A264
:103F2000FEF752FF45487F38FFF732FB40F2371566
:103F3000224610232946C820FFF70CFA0020294604
:103F40006FA2FEF741FF7148FFF722FB40F24D15CB
:103F5000224610232946C820FFF7FCF900202946F5
:103F60006BA2FEF731FF6D48FFF712FB40F26315BD
:103F7000224610232946C820FFF7ECF900202946E5
:103F800067A2FEF721FF61488030FFF701FB40F296
:103F90007915224610232946C820FFF7DBF90020B7
:103FA000294662A2FEF710FF5C488030FFF7F0FA66
:103FB00040F28F15224610232946C820FFF7CAF980
:103FC000002029465CA2FEF7FFFE3348FF38FFF7CA
:103FD000DFFA40F2A515224610232946C820FFF734
:103FE000B9F90020294658A2FEF7EEFE5948FFF71E
:103FF000CFFA224640F2BB1410232146C820FFF717
:10400000A9F90020214654A2FEF7DEFEBDE8F840E3
:1040100040F6B830FCF78ABDF8EDB9FF3C0000244B
:10402000333333FFBED8D0CEBBE6D6C60000000087
:104030002379FDFFAE5C01086C000024FF0000FF47
:104040004C43445F424C5545000000004C43445FE4
:10405000475245454E0000000000FFFF4C43445FBF
:10406000524544004C43445F4359414E0000000018
:104070004C43445F4D4147454E5441004C43445FDF
:1040800059454C4C4F5700002C2C2CFF4C43445F9F
:104090004752455900000000FF8080FF4C494748C7
:1040A000545F424C554500004C494748545F4752C5
:1040B00045454E008080FFFF4C494748545F5245BC
:1040C000440000004C494748545F4359414E0000AA
:1040D0004C494748545F4D4147454E54410000000C
:1040E0004C494748545F59454C4C4F57000000001D
:1040F000A3A3A3FF4C494748545F475245590000CA
:104100004441524B5F424C5545000000008000FF87
:104110004441524B5F475245454E0000000080FF2E
:104120004441524B5F524544000000004441524B11
:104130005F4359414E0000004441524B5F4D41479F
:10414000454E5441000000004441524B5F59454CDC
:104150004C4F5700404040FF4441524B5F4752454F
:10416000590000002DE9F84390484FF05009FFF73F
:10417000D5F9FEF727FD8E48FFF762FA8D48FFF765
:1041800007FAA0214FF4A7708BA2FEF739FE8D48E5
:10419000FFF7FEF98C485323F0220090DA214FF408
:1041A0008C70FEF77FFF6FF07F00FFF7F1F90024BE
:1041B0004FF6FF754FF4A57606233146642005EAD5
:1041C0008402FFF7C7F80A20FCF7B0FC641CA4B215
:1041D000962CF1D34FF07F40FFF7A0F9FEF7F2FCE9
:1041E0004FF0FF30FFF7D4F9002340F21F3422468E
:1041F00019461846FEF7A0FF40F2DF1522462B466F
:1042000000201946FEF798FF00222B461146104663
:10421000FEF792FF22462B4600211046FEF78CFF48
:104220006A4D2846FFF7B4F94FF4AF745022214687
:104230007820FFF735F84FF0FF20FFF7A9F950225B
:104240002146AA20FFF72CF84FEA3560FFF7A0F9C6
:1042500050222146DC20FFF723F85D48FFF798F94C
:1042600005234FF4C876194632461846FEF764FF18
:104270004846FCF75BFC0A234FF496771946052065
:104280003A46FEF759FF4846FCF750FC0F23C82278
:1042900019460520FEF750FF4846FCF747FC14235B
:1042A000642219460520FEF747FF4846FCF73EFC0E
:1042B0006FF4FE00FFF76CF94FF416786422404665
:1042C0007821FEF7BFFD4846FCF730FC50224046FF
:1042D0007821FEF7B7FD4846FCF728FC3C22404613
:1042E0007821FEF7AFFD4846FCF720FC2822404627
:1042F0007821FEF7A7FD4846FCF718FC2846FFF793
:1043000047F99623324623210520FEF7ABFF4846A6
:10431000FCF70CFC7823224632211E20FEF7A2FF78
:104320004846FCF703FC5A233A4641213720FEF762
:1043300099FF4846FCF7FAFB50213C230846FA2235
:10434000FEF790FF4846FCF7F1FB6FF4FE40FFF7E5
:104350001FF940F24E25214664232846C822FEF765
:10436000B7FD4846FCF7E2FB50232146AA22284627
:10437000FEF7AEFD4846FCF7D9FB3C2321468C22D4
:104380002846FEF7A5FD4846FCF7D0FB282321462A
:104390006E222846FEF79CFD4846FCF7C7FBBDE8A9
:1043A000F8434FF4FA60FCF7C1BB0000F8EDB9FF29
:1043B0003C000024333333FFBBE6CDBCB2E2CAD4A9
:1043C000000000002379FDFFAE5C01080000FFFF44
:1043D000A3A3A3FFF8B54F48FFF7A0F8FEF7F2FB41
:1043E0004D48FFF72DF94D48FFF7D2F8A0214FF4C3
:1043F000A7704BA2FEF704FD4C48FFF7C9F84C48E4
:104400005323F0220090DA214FF48C70FEF74AFE1D
:104410006FF07F00FFF7BCF800244FF6FF754FF4F4
:10442000A57600BF06233146642005EA8402FEF724
:1044300091FF0A20FCF77AFB641CA4B2962CF1D3FE
:104440004FF07F442046FFF769F8FEF7BBFB394881
:10445000FFF79EF83848532374211A460090B9207C
:10446000FEF720FE3548FFF793F83548532340F216
:1044700067151A467C2100902846FEF713FE314846
:10448000FFF786F83048532340F215261A467C2160
:1044900000903046FEF706FE2C48FFF779F82C48CE
:1044A00053234FF487771A4639460090B920FEF718
:1044B000F9FD2848FFF76CF8274853231A46394678
:1044C00000902846FEF7EEFD2448FFF761F82448E7
:1044D00053231A46394600903046FEF7E3FD4FF469
:1044E000FA652846FCF722FB2016FFF717F8FEF7BF
:1044F00069FB2046FFF74CF81A48EF23782100901B
:104500009F204FF4F072FEF7CDFD2846BDE8F8403D
:10451000FCF70CBBF8EDB9FF3C000024333333FF4C
:10452000CDBCC6ACBBE6D6C6000000002379FDFFBB
:10453000AE5C01088DE5F6FF4847010891ABFFFF2F
:10454000D94A0108D1C68AFF6A4E0108FBF9DFFF8C
:10455000FB510108A8D39DFF8C5501085387FFFF2D
:104560001D59010868660108F8B582485025FEF714
:10457000D5FFFEF727FB8048FFF762F87F48FFF77B
:1045800007F8A0214FF4A7707DA2FEF739FC7F4801
:10459000FEF7FEFF7E485323F0220090DA214FF40D
:1045A0008C70FEF77FFD6FF07F00FEF7F1FF0024B7
:1045B0004FF6FF764FF4A57706233946642006EAC6
:1045C0008402FEF7C7FE0A20FCF7B0FA641CA4B20E
:1045D000962CF1D34FF07F40FEF7A0FFFEF7F2FAE2
:1045E0004FF0FF30FEF7D4FF6A48FFF70BF80021C9
:1045F00069A20846FEF7E8FB2846FCF797FA7348DD
:10460000FFF700F82021002063A2FEF7DDFB28461B
:10461000FCF78CFA6E48FEF7F5FF382100205EA209
:10462000FEF7D2FB2846FCF781FA6A48FEF7EAFF5C
:104630004C21002058A2FEF7C7FB2846FCF776FA6B
:104640006548FEF7DFFF5C21002053A2FEF7BCFBAC
:104650002846FCF76BFA6FF47F00FEF799FF5E487F
:10466000FEF7D0FF682100204BA2FEF7ADFB2846E5
:10467000FCF75CFA5748FEF7C5FF7421002046A2FC
:10468000FEF7A2FB2846FCF751FA5148FEF7BAFFA5
:104690008421002040A2FEF797FB2846FCF746FA4B
:1046A0004A48FEF7AFFF982100203BA2FEF78CFBA3
:1046B0002846FCF73BFA3748FEF7A4FFB02100205C
:1046C00035A2FEF781FB2846FCF730FA4348FEF797
:1046D000B7FF6FF0FF00FEF75BFFE621002040A26E
:1046E000FEF78EFB002047A24FF48271FEF788FB95
:1046F0004E48FEF7A5FF4E48FEF74AFF1C204FF438
:1047000091714CA2FEF77CFB5048FEF799FF504890
:10471000FEF73EFF1C204FF49B714EA2FEF770FB8C
:104720005248FEF78DFF5248FEF732FF1C2040F240
:104730004F1150A2FEF764FB2848FEF781FF534853
:10474000FEF726FF1C2040F26D1151A2FEF758FB28
:104750000948FEF775FF5448FEF71AFF1C2040F287
:10476000951152A2FEF74CFBBDE8F8404FF4FA60F9
:10477000FCF7DCB9F8EDB9FF3C000024333333FF1C
:10478000CEC4B1BECFD4CABE000000002379FDFF65
:10479000AE5C01084800002421232425262728296F
:1047A0002A2B2C2D2E303132333435363738393AE6
:1047B0003B3C3D3E3F404142434445464748494AD1
:1047C0004B4C4D4E4F505152535400005400002456
:1047D000600000246C0000247800002430000024D5
:1047E000CEC4B1BECFD4CABEA3ACBFC9CFD4CABE9B
:1047F000D6D0CEC4BACD4153434949D7D6B7FBBC76
:10480000AF000000D3C3BBA7BFC9B8F9BEDDD0E875
:10481000C7F3A3ACB6D4D7D6BFE2BDF8D0D0D4F698
:10482000CCEDBACDC9BEBCF5000000000C000024E0
:10483000D1C68AFF31323132D6D0CEC4D7D6CCE5FC
:10484000A3BAB7B4BFCDBFC6BCBC000018000024DB
:10485000A5E1C5FF31363136D6D0CEC4D7D6CCE5AA
:10486000A3BAB7B4BFCDBFC6BCBC000024000024AF
:104870008A242DFF32303230D6D0CEC4D7D6CCE504
:10488000A3BAB7B4BFCDBFC6BCBC00005D58FFFF24
:1048900032343234D6D0CEC4D7D6CCE5A3BAB7B4EE
:1048A000BFCDBFC6BCBC00003C00F6FF3332333284
:1048B000D6D0CEC4D7D6CCE5A3BAB7B4BFCDBFC689
:1048C000BCBC00002DE9F04F4FF0000AD146D046A5
:1048D0002DED088B81B09FED7D8B9FED7E9B7F48FA
:1048E000FEF71CFEFEF76EF97D48FEF7A9FE7D4837
:1048F000FEF74EFEA0214FF4A7707BA2FEF780FAD0
:104900007C48FEF745FE7C485323F0220090DA21D4
:104910004FF48C70FEF7C6FB6FF07F052846FEF75C
:1049200037FE00244FF4A5772E0C00BF062339462E
:10493000642006EA8402FEF70DFD0A20FCF7F6F873
:10494000641CA4B2962CF1D34FF07F40FEF7E6FD35
:10495000FEF738F96248FEF773FE4FF0FF30FEF7BE
:1049600017FE14211C2065A2FEF74AFA4FF4C87402
:104970001421204665A2FEF743FA6FF4FE00FEF70D
:1049800007FE3C211C2064A2FEF73AFA64211C2099
:1049900061A2FEF735FA8C211C2062A2FEF730FAE4
:1049A0002846FEF7F5FD3C2120465BA2FEF728FADB
:1049B0006421204658A2FEF723FA8C21204659A2F2
:1049C000FEF71EFA5A48FEF7E3FDC8211C2059A243
:1049D000FEF716FAF0211C2059A2FEF711FA002466
:1049E0004FF40C7B9FED59AB9FED5ABB6FF4FE006B
:1049F000FEF7CEFD0120FEF749FE04EB4400C0EBBC
:104A0000C41101EB0A0708233A463C21A020FEF717
:104A1000BDF909EB0406062332466421A020FEF707
:104A2000B5F9A8EB040506232A468C21A020FEF741
:104A3000ADF96FF07F00FEF7ABFD0020FEF726FE1C
:104A400008233A463C215F465846FEF79FF9062365
:104A5000324664213846FEF799F906232A468C210E
:104A60003846FEF793F93248FEF792FD0120FEF733
:104A70000DFE00EE104A03230622B8EE401BB0EEF6
:104A8000480BC821A02001EE0A0BFEF759F900EEF1
:104A9000104A04230B22B8EE401BB0EE490BF02164
:104AA000A02001EE0B0BFEF74BF91E20FCF73EF8A1
:104AB000641CA4B2642C99D301B040F6C410BDECC0
:104AC000088BBDE8F04FFCF731B800004AD8124D12
:104AD000FB2109404ED1915C7E4893C0F8EDB9FFAF
:104AE0003C000024333333FFB1E4C1BFCFD4CABE8E
:104AF000000000002379FDFFAE5C0108B6E0D3E0C2
:104B0000CEBBCCEEB3E4BFD5B8F10000B6E0D3E045
:104B1000CEBBCCEEB3E43000D5FDD5FBCAFDA3BAC5
:104B200000000000B8BAD5FBCAFDA3BA000000001F
:104B30008080FFFFD5FDD0A1CAFDA3BA0000000010
:104B4000B8BAD0A1CAFDA3BA000000009A999999F9
:104B50009999B93F7B14AE47E17A843F2DE9F84F2C
:104B600064250120FEF70CF9FE48FEF7D7FCFEF79E
:104B700029F8FD48FEF764FDFC48FEF709FD4FF4F7
:104B80008276B4203146FAA2FEF73AF9FB48FEF7E6
:104B9000FFFCFB485323F022009078204FF4A071D3
:104BA000FEF780FA6FF07F0A5046FEF7F1FC002412
:104BB0004FF4E1770623394604EB440082B22D20FE
:104BC000FEF7C8FB0A20FBF7B1FF641CA4B2822CDD
:104BD000F0D34FF07F442046FEF7A0FCFDF7F2FF34
:104BE0002016FEF7D5FCE748FEF70CFD0021E6A2F3
:104BF0000846FEF7E9F82846FBF798FFEA48FEF773
:104C000001FD20210020E0A2FEF7DEF82846FBF798
:104C10008DFFE648FEF7F6FC38210020DAA2FEF709
:104C2000D3F82846FBF782FFE148FEF7EBFC4C2166
:104C30000020D5A2FEF7C8F82846FBF777FFDD482D
:104C4000FEF7E0FC5C210020CFA2FEF7BDF828466D
:104C5000FBF76CFF6FF47F073846FEF799FCD548E9
:104C6000FEF7D0FC68210020C7A2FEF7ADF8284669
:104C7000FBF75CFFCE48FEF7C5FC74210020C2A202
:104C8000FEF7A2F82846FBF751FFC848FEF7BAFC2A
:104C900084210020BCA2FEF797F82846FBF746FFC8
:104CA000C148FEF7AFFC98210020B7A2FEF78CF8B0
:104CB0002846FBF73BFFB348FEF7A4FCB0210020D9
:104CC000B1A2FEF781F82846FBF730FFBA48FEF79D
:104CD000B7FC6FF0FF084046FEF75AFCE6210020C3
:104CE000B6A2FEF78DF800203146BDA2FEF788F887
:104CF000C548FEF7A5FCC548FEF74AFC1C204FF44A
:104D00009B71C3A2FEF77CF8C748FEF799FCC74821
:104D1000FEF73EFC1C204FF4A571C5A2FEF770F80B
:104D2000C948FEF78DFCC948FEF732FC1C2040F252
:104D30006311C7A2FEF764F89F48FEF781FCCA48DA
:104D4000FEF726FC1C2040F28111C8A2FEF758F89D
:104D50008548FEF775FCCB48FEF71AFC1C2040F294
:104D6000A911C9A2FEF74CF87F48FEF769FCCC48B0
:104D7000FEF70EFC2820CBA24FF4FA71FEF740F8A4
:104D80002820CDA24FF40771FEF73AF82820CFA2D1
:104D90004FF41171FEF734F84FF4FA60FBF7C6FEDA
:104DA00050252046FEF7BAFBFDF70CFF4FEA2429F9
:104DB0004846FEF7EDFB40F21D16502231467820A2
:104DC000FEF76EFA4FF0FF20FEF7E2FB502231466D
:104DD000AA20FEF765FA4FEA3960FEF7D9FB5022A8
:104DE0003146DC20FEF75CFA4846FEF7D1FB9623FD
:104DF0004FF4AF7223210520FEF734FA2846FBF763
:104E000095FE4FF496767823324632211E20FEF727
:104E100029FA2846FBF78AFE5A23FA224121372035
:104E2000FEF720FA2846FBF781FE50213C23084676
:104E3000C822FEF717FA2846FBF778FEA848FEF7C7
:104E4000A7FB05234FF4C87219461846FEF774F9FC
:104E50002846FBF76BFE0A23324605201946FEF76B
:104E60006BF92846FBF762FE0F23C822194605207E
:104E7000FEF762F92846FBF759FE1423642219460F
:104E80000520FEF759F92846FBF750FE4046FEF78D
:104E90007FFB4FF4F076502231466420FDF7D2FFBD
:104EA0002846FBF743FE3846FEF772FB5022314698
:104EB0009620FDF7C7FF2846FBF738FE3812FEF7AD
:104EC00067FB50223146C820FDF7BCFF2846FBF7A0
:104ED0002DFE4846FEF75CFB50223146FA20FDF7D6
:104EE000B1FF2846FBF722FE6FF4FE40FEF750FBB1
:104EF000C8224FF42A76104664233146FDF7E8FFB6
:104F00002846FBF713FE50233146AA22C820FDF79E
:104F1000DFFF2846FBF70AFE3C2331468C22C820DF
:104F2000FDF7D6FF2846FBF701FE282331466E2207
:104F3000C820FDF7CDFF2846FBF7F8FD4FF4FA60D7
:104F4000FBF7F4FD2046FEF7E9FAFDF73BFE1848B3
:104F5000FEF758FB4FEA3960FEF71AFB1023FA22DE
:104F60000321BFE0F8EDB9FF3C000024333333FFE9
:104F7000CAFAC6C1CFD4CABE000000002379FDFF23
:104F8000AE5C010848000024212324252627282977
:104F90002A2B2C2D2E303132333435363738393AEE
:104FA0003B3C3D3E00000000540000246000002413
:104FB0006C0000247800002430000024CEC4B1BE70
:104FC000CFD4CABEA3ACBFC9CFD4CABED6D0CEC47C
:104FD000BACD4153434949D7D6B7FBBCAF00000017
:104FE000D3C3BBA7BFC9B8F9BEDDD0E8C7F3A3AC34
:104FF000B6D4D7D6BFE2BDF8D0D0D4F6CCEDBACD7A
:10500000C9BEBCF5000000000C000024D1C68AFF18
:1050100031323132D6D0CEC4D7D6CCE5A3BAB7B46C
:10502000BFCDBFC6BCBC000018000024A5E1C5FF71
:1050300031363136D6D0CEC4D7D6CCE5A3BAB7B444
:10504000BFCDBFC6BCBC0000240000248A242DFFB5
:1050500032303230D6D0CEC4D7D6CCE5A3BAB7B42E
:10506000BFCDBFC6BCBC00005D58FFFF3234323438
:10507000D6D0CEC4D7D6CCE5A3BAB7B4BFCDBFC6C1
:10508000BCBC00003C00F6FF33323332D6D0CEC475
:10509000D7D6CCE5A3BAB7B4BFCDBFC6BCBC000061
:1050A000587058FF53544D333248373530204C54E4
:1050B000444320B2E2CAD400BACBD0C4B0E5D0CDCC
:1050C000BAC5A3BA464B3735304D3600C6C1C4BB4E
:1050D000B7D6B1E6C2CAA3BA3830302A3438300065
:1050E000A3A3A3FF9620FEF735F903210020FDA21C
:1050F000FDF76AFE4FF0FF20FEF74AFA1023FA226E
:1051000019219620FEF726F919210020F8A2FDF7B3
:105110005BFE4846FEF73CFA1023FA222F21962028
:10512000FEF718F92F210020F4A2FDF74DFE3846B6
:10513000FEF72EFA1023FA2245219620FEF70AF9EF
:1051400045210020EFA2FDF73FFE3812FEF720FABE
:105150001023FA225B219620FEF7FCF85B21002049
:10516000EBA2FDF731FE4046FEF712FA1023FA22B9
:1051700071219620FEF7EEF871210020E7A2FDF7DD
:1051800023FEE948FEF704FA1023FA22872196202D
:10519000FEF7E0F887210020E4A2FDF715FEE648BF
:1051A000FEF7F6F91023FA229D219620FEF7D2F899
:1051B0009D210020E1A2FDF707FE6FF07F10FEF7B2
:1051C000E7F91023FA22B3219620FEF7C3F8B321A2
:1051D0000020DDA2FDF7F8FDDE48FEF7D9F9102327
:1051E000FA22C9219620FEF7B5F8C9210020DAA2DB
:1051F000FDF7EAFD6FF4FE00FEF7CAF91023FA226C
:10520000DF219620FEF7A6F8DF210020D5A2FDF7CA
:10521000DBFD6FF4FE40FEF7BBF91023FA22F52107
:105220009620FEF797F8F5210020D1A2FDF7CCFDDE
:105230005046FEF7ADF9102340F20B11FA229620EA
:10524000FEF788F8002040F20B11CDA2FDF7BCFD5F
:10525000CF48FEF79DF940F2211410232146FA228F
:105260009620FEF777F800202146CAA2FDF7ACFD94
:10527000CB48FEF78DF940F2371410232146FA226D
:105280009620FEF767F800202146C6A2FDF79CFD98
:10529000C748FEF77DF940F24D1410232146FA224B
:1052A0009620FEF757F800202146C2A2FDF78CFD9C
:1052B000F805FEF76DF9102340F26311FA229620EB
:1052C000FEF748F8002040F26311BDA2FDF77CFD17
:1052D000B7488030FEF75CF940F27914102321467C
:1052E000FA229620FEF736F800202146B7A2FDF7F5
:1052F0006BFDB94D2846FEF74BF940F28F14102391
:105300002146FA229620FEF725F800202146B3A276
:10531000FDF75AFD8848FF38FEF73AF940F2A51428
:1053200010232146FA229620FEF714F80020214689
:10533000AEA2FDF749FDB048FEF72AF940F2BB14D2
:1053400010232146FA229620FEF704F80020214679
:10535000AAA2FDF739FD002440F2E1176E0240F2E7
:10536000D11800BF06EB04404042FEF711F904F1EA
:1053700096003B4682B2414680B2FDF7DDFE641CDA
:10538000A4B2FF2CEED300244FF0FF2640F2F71713
:1053900040F2E718A6EB0420FEF7FAF804F19600B5
:1053A0003B4682B2414680B2FDF7C6FE641CA4B201
:1053B000FF2CEFD37A4E002440F20D2740F2FD1867
:1053C0007F36301BFEF7E4F804F196003B4682B2CC
:1053D000414680B2FDF7B0FE641CA4B2FF2CF0D3AE
:1053E00000244FF4FF4640F2232740F2132800BF69
:1053F00006EB04404042FEF7CBF804F196003B4632
:1054000082B2414680B2FDF797FE641CA4B2FF2C25
:10541000EED3002041467CA2FDF7D6FC002440F2EA
:1054200029276FF07F164FF40E7800BFA6EB0420FB
:10543000FEF7AEF804F19600434682B2394680B2D8
:10544000FDF77AFE641CA4B2FF2CEFD3002039468E
:1054500070A2FDF7B9FC384E002440F24F2840F20C
:105460003F27301BFEF794F804F19600434682B2C2
:10547000394680B2FDF760FE641CA4B2FF2CF0D365
:105480000020394666A2FDF79FFC454E002440F2FD
:10549000652840F2552700BFA6EB0440FEF778F8D8
:1054A00004F19600434682B2394680B2FDF744FECD
:1054B000641CA4B2FF2CEFD3002039465BA2FDF799
:1054C00083FC002440F27B2740F26B28A6EB0420EB
:1054D000FEF75EF804F196003B4682B2414680B288
:1054E000AAE000004C43445F424C554500000000D8
:1054F0004C43445F475245454E0000004C43445FD7
:10550000524544004C43445F4359414E0000000063
:105510004C43445F4D4147454E5441004C43445F2A
:1055200059454C4C4F5700002C2C2CFF4C43445FEA
:105530004752455900000000FF8080FF4C49474812
:10554000545F424C554500004C494748545F475210
:1055500045454E008080FFFF4C494748545F524507
:10556000440000004C494748545F4359414E0000F5
:105570004C494748545F4D4147454E544100000057
:105580004C494748545F59454C4C4F570000000068
:10559000A3A3A3FF4C494748545F47524559000015
:1055A000800000FF4441524B5F424C5545000000D3
:1055B000008000FF4441524B5F475245454E00007A
:1055C0004441524B5F524544000000004441524B5D
:1055D0005F4359414E000000800080FF4441524B20
:1055E0005F4D4147454E5441000000004441524B3D
:1055F0005F59454C4C4F5700404040FF4441524B8F
:105600005F47524559000000307846463830383000
:105610000000000030783830464638300000000086
:10562000307838303830464600000000307830306E
:105630003030383000000000FDF77EFD641CA4B25D
:10564000FF2CFFF443AFAFF21C0200204146FDF7F0
:10565000BBFB002440F2912640F2812704F50000B4
:105660004042FDF795FF04F19600334682B2394679
:1056700080B2FDF761FD641CA4B2FF2CEED30020C4
:10568000394658A2FDF7A0FB002440F2A7274FF4AB
:10569000000640F2972800BF06EB04204042FDF7C9
:1056A00077FF04F196003B4682B2414680B2FDF797
:1056B00043FD641CA4B2FF2CEED30020414649A256
:1056C000FDF782FB4A4E002440F2BD2740F2AD2890
:1056D000A6EB0440FDF75CFF04F196003B4682B266
:1056E000414680B2FDF728FD641CA4B2FF2CEFD325
:1056F000002041463FA2FDF767FB002440F2D3277C
:1057000040F2C328301BFDF743FF04F196003B46EF
:1057100082B2414680B2FDF70FFD641CA4B2FF2C9B
:10572000F0D30020414633A2FDF74EFB304E00245B
:1057300040F2E92740F2D928803600BFA6EB0440AA
:10574000FDF726FF04F196003B4682B2414680B247
:10575000FDF7F2FC641CA4B2FF2CEFD300204146FD
:1057600027A2FDF731FB002440F2FF2640F2EF278D
:1057700004F5FF004042FDF70BFF04F196003346AD
:1057800082B2394680B2FDF7D7FC641CA4B2FF2C6C
:10579000EED3002039461DA2FDF716FB002440F28F
:1057A000153640F2053700BFA5EB0420FDF7F0FEEB
:1057B00004F19600334682B2394680B2FDF7BCFC54
:1057C000641CA4B2FF2CEFD30020394612A2FDF7CF
:1057D000FBFA40F6B830FBF7A9F9BDE8F84F002016
:1057E000FDF7CEBA3078383030303030000000006D
:1057F000008000FF3078303038303030000000005A
:1058000030783030383038300000000030783830B0
:1058100038303030000000003078383030303830E8
:105820000000000030B587B014216846FAF79CFDEF
:105830000E48016841F00401016000684FF4005413
:105840000B4D002200F00400214605902846FBF78E
:1058500021FB002100940120CDE90101284603919C
:105860006946FBF701FA07B030BD0000E04402587A
:10587000000802582DE9FE4F8146006888249346AF
:105880008D888C2204EBCB178A46C3689421BE46D0
:10589000C459C3F30B432B4404F470441F04019711
:1058A00002EBCB1240F80E4001EBCB13DAF800709C
:1058B0009C214FF0AC0C01EBCB1440F2077102912C
:1058C0000CEBCB11D9F800C098250020CDF800C012
:1058D000A02605EBCB15DCF80CC006EBCB16CCF301
:1058E0000B4C0CF1010C07EB0C08DDF800C0019F1C
:1058F00048EA07084CF80E80D9F80070BAF80CC0D6
:10590000B846FF68C7F30A0767444FEA074E58F8DE
:10591000027007F4704C48F802C0D9F800C0DAF8F9
:105920000870DCF80C80C8F30A0808F10108B844D4
:1059300048EA0E084CF80280D9F80020D75827F022
:105940000707D750D9F80070DAF81020FA509AF803
:1059500031209AF818304FEA022C9AF832201204BB
:1059600042EA0362D9F800301F5918519AF83030D2
:1059700043EA0C031343D9F800201351D9F800204F
:10598000535923F0FF035351D9F80020DAF81430AB
:105990005351D9F800209359029CA3439351D9F84D
:1059A0000030DAE9072422439A51D9F800205358ED
:1059B0005050D9F80020DAF824005050DAF81000DE
:1059C000C8B301283AD004283AD0022838D0032896
:1059D00036D0072834D00120D9F80030B02505EBA7
:1059E000CB11B42284245D5802EBCB1205F0E025E4
:1059F0005D50DAE9003504EBCB14EB1ABAF8285005
:105A000043434543D9F80000DB1D43EA05434350B7
:105A1000D9F8000081586FF30A018150D9F80000CD
:105A2000DAF82C108150D9F80000015941F0010139
:105A30000151BDE8FE8FFFE70420CDE70320CBE74F
:105A40000220C9E70F4802220D4B002110B5036068
:105A5000C0E90112C160C0E91112C164016541656C
:105A60008165C165FBF70AF808B172B6FEE7054823
:105A70000121FAF79FFF002801D072B6FEE710BDA2
:105A800000100052A0000024F0B587B01C21684629
:105A9000FAF76AFC15480021134E042300F1080EA2
:105AA000202506604FF4C077416040268EE82A002A
:105AB0004FF4006C0222C0E905670724D502C0E953
:105AC000071CC0E90951CDE9002403266946CDE948
:105AD0000462CDE902340692FCF718FF002801D0D9
