:020000040800F2
:1000000018080024B102000877160008211600081D
:1000100075160008DD080008FD2800080000000033
:100020000000000000000000000000003F27000862
:10003000DF080008000000003D27000841270008F5
:10004000CB020008CB020008CB020008CB0200085C
:10005000CB020008CB020008CB020008CB0200084C
:10006000CB020008CB020008CB020008CB0200083C
:10007000CB020008CB020008CB020008CB0200082C
:10008000CB020008CB020008CB020008CB0200081C
:10009000CB020008CB020008CB020008CB0200080C
:1000A000CB020008CB020008CB020008CB020008FC
:1000B000CB020008CB020008CB020008CB020008EC
:1000C000CB020008CB020008CB020008CB020008DC
:1000D000CB020008CB020008CB020008CB020008CC
:1000E000CB020008CB02000800000000CB02000891
:1000F000CB020008CB020008CB020008CB020008AC
:10010000CB020008CB020008CB020008CB0200089B
:10011000CB020008CB020008CB020008CB0200088B
:10012000CB020008CB020008CB020008CB0200087B
:10013000CB020008CB020008CB020008CB0200086B
:1001400000000000000000000000000000000000AF
:10015000CB020008CB020008CB020008CB0200084B
:10016000CB020008CB020008CB020008CB0200083B
:10017000CB020008CB020008CB020008CB0200082B
:10018000CB020008CB020008CB020008CB0200081B
:10019000CB020008CB020008CB020008CB0200080B
:1001A000CB020008CB020008CB020008CB020008FB
:1001B000CB020008CB020008CB020008CB020008EB
:1001C000CB020008CB020008CB020008CB020008DB
:1001D000CB020008CB020008CB020008CB020008CB
:1001E000CB020008CB020008CB020008CB020008BB
:1001F000CB020008CB020008CB020008CB020008AB
:10020000CB020008CB020008CB020008CB0200089A
:10021000CB020008CB020008CB020008CB0200088A
:10022000CB020008CB020008CB020008000000004F
:10023000CB020008CB02000800000000CB0200083F
:10024000CB020008CB020008CB020008CB0200085A
:10025000CB020008CB020008CB020008CB0200084A
:10026000CB020008CB020008CB020008CB0200083A
:10027000CB020008CB020008CB02000800000000FF
:10028000CB020008CB020008CB02000800000000EF
:1002900000000000CB020008DFF810D000F07EFA6A
:1002A0000048004761370008AFF3008018080024B9
:1002B0000648804706480047FEE7FEE7FEE7FEE700
:1002C000FEE7FEE7FEE7FEE7FEE7FEE7212800087F
:1002D00099020008D2B201E000F8012B491EFBD2BE
:1002E00070470022F6E710B513460A460446194641
:1002F000FFF7F0FF204610BD10B5002200E0521CB1
:10030000835C8C5CA34201D1002BF8D1D8B2E1B25E
:10031000401A10BD30B50B460146002020220124B2
:1003200009E021FA02F59D4205D303FA02F5491BC3
:1003300004FA02F52844151EA2F10102F1DC30BDD9
:100340002DE9F05F0546002092469B46884606460A
:10035000814640241BE0284641464746224600F09D
:100360003EFA53465A46C01A914110D311461846D8
:10037000224600F025FA2D1A67EB01084F46224667
:100380000120002100F01CFA17EB00094E41201E4D
:10039000A4F10104DFDC484631462A464346BDE865
:1003A000F09F2DE9FE4F804681EA0300C00F0C4606
:1003B000009021F0004123F00045B8EB0200A94174
:1003C00005D24046214690461C460B46024623F085
:1003D0000040104347D0270DC7F30A00C3F30A516A
:1003E0000290401A019040286BDAC3F3130040F4E6
:1003F000801B0098924620B10023D2EB030A63EBE6
:100400000B0B01985946C0F14002504600F0D8F954
:1004100006460D4650465946019A00F0F0F910EB99
:1004200008006141002487EA115284EAE7731A4305
:1004300040D0009A62B3019A012A4FEA075215DCB4
:10044000001B61EB02014FF0004202EA0752CDE9C6
:100450000042001C41F5801132462B4600F0F0F9B5
:1004600003B0BDE8F08F40462146F9E7001B61EB81
:100470000201001C41F5801300185B412018A2F511
:10048000001747EB030140EAD570B6196D4111E042
:100490006D084FEA360645EAC0754FEA0752001B61
:1004A00061EB0201001C41F5801149084FEA300060
:1004B0000019514132462B4603B0BDE8F04F00F021
:1004C000B0B90098012240000023D0EB020263EB98
:1004D000E073009821464FEAE074B8EB000061EB4E
:1004E0000401E9E783F000435BE781F0004158E74E
:1004F0002DE9FE4F81EA030404F0004421F000419D
:1005000000944FF0000B23F0004350EA01045ED04A
:1005100052EA03045BD0C3F30A54C1F30A552C44D6
:10052000A4F2F3340194A0FB0254C1F3130141F48B
:100530008011C3F3130343F4801301FB024400FB57
:10054000034E840A970A44EA815447EA8357A4FB7E
:10055000076802958D0A05FB07854FEA932C04FB7B
:100560000C542705029D4FEA065847EA1637B5EBAB
:1005700008056EEB070C870E920E47EA811742EAD8
:100580008312A7FB0201B6EB0B0164EB00042B0DF9
:1005900043EA0C335E1844EB1C50DA465146E7FB45
:1005A0000201C5F313044FEA0B3343EA14534FEA35
:1005B0000432019C43EA0603A4F10C040294009C5B
:1005C000CDE900B400F03CF903B0BDE8F08F0020A5
:1005D0000146F9E72DE9F04D81EA030404F0004BF0
:1005E00021F0004514464FF0000A23F0004150EA84
:1005F000050220D054EA01021DD0C5F30A57024675
:10060000C5F31303C1F31300C1F30A5640F4801578
:1006100043F48013A7EB0608101BD64608F2FD38FA
:1006200073EB050002D308F1010801E092185B4169
:10063000B8F1000F03DA00200146BDE8F08D00207C
:100640004FF48011064684460EE0171B73EB050736
:1006500005D3121B63EB050306434CEA010C490862
:100660004FEA300092185B4150EA0107EDD152EA9F
:10067000030012D082EA040083EA0501084305D092
:10068000101BAB4106D20122002306E000224FF0EE
:10069000004302E06FF0010253101AEB06004CEB2E
:1006A000085110EB0A0041EB0B01BDE8F04D00F0E2
:1006B000B8B800002DE9F041054621F000400C4695
:1006C000284309D0C4F30A5040F23341884205DD83
:1006D00028462146BDE8F0812846FBE740F2FE317E
:1006E000884210DC0CDB4FEA043040EA155050EA37
:1006F000053105D0104804F0004101430020E9E72E
:1007000000200146E6E7A0F233404642C6F140022F
:100710002846214600F054F80746884628462146D8
:10072000324600F05CF843463A4600F07AF832462A
:10073000BDE8F04100F044B80000F03FC1F30A52B8
:10074000C1F3130140F2FF3341F480119A4202DAFF
:1007500000200146704740F233439A42A2F23342EE
:1007600002DC524200F03BB800F02AB830B5041E5B
:1007700071F1000404DB4FF00044404264EB0101DE
:10078000141E73F1000405DB1C464FF00043524277
:1007900063EB0403994208BF904230BD064C074DFD
:1007A00006E0E06840F0010394E807009847103441
:1007B000AC42F6D3FFF774FD284400084844000813
:1007C000202A04DB203A00FA02F100207047914011
:1007D000C2F1200320FA03F3194390407047202A06
:1007E00004DB203A21FA02F00021704721FA02F3DB
:1007F000D040C2F120029140084319467047202A98
:1008000006DBCB17203A41FA02F043EAE07306E038
:1008100041FA02F3D040C2F1200291400843194648
:10082000704710B5141E73F1000408DA401C41F142
:10083000000192185B411A4301D120F0010010BD64
:100840002DE9F04D92469B4611B1B1FA81F202E0DA
:10085000B0FA80F220329046FFF7B2FF04460F460E
:1008600040EA0A0041EA0B0153465A46084313D0B6
:10087000114653EA010019D0C8F140025046FFF773
:10088000AEFF05460E46504659464246FFF798FFD2
:10089000084305D0012004E020463946BDE8F08D2C
:1008A0000020054346EAE0762C4337430A98630567
:1008B000E40AA0EB08000022FD0A44EA47540A308B
:1008C00002D500200146E9E7010510196941DDE97B
:1008D000084500196941BDE8F04DA2E7FEE7704701
:1008E00070B5044600F038F90546601C02D0044893
:1008F0000078044400F030F9401BA042FAD370BDE8
:10090000000000242DE9F84F03247D4D00234FF013
:1009100001094FF0B04B4FF00F0AE9E009FA03F775
:100920003A4076D00E7906F00306012E01D0022E51
:1009300018D1D0F808C04FEA430ECE6804FA0EF87A
:100940002CEA080C06FA0EF646EA0C068660D0F889
:1009500004C00E792CEA070CC6F300169E4046EA46
:100960000C0646600E79F643B6070BD0C6684FEA10
:1009700043088F6804FA08FC26EA0C0607FA08F711
:100980003743C7600E7906F00306022E12D1DE0847
:100990000F694FEA437C00EB8606B646366A4FEA9B
:1009A000DC6C0AFA0CF807FA0CF726EA080637435B
:1009B000CEF820700F7906684FEA430807F0030766
:1009C00004FA08FC07FA08F726EA0C063743076022
:1009D0004E6816F4403F1CD04A4E376847F0020775
:1009E000376036689F0706F00206009623F003067C
:1009F00006F1B046B6463F0FD6F80864DFF8088126
:100A00000AFA07FC404526EA0C0603D14FF0000C19
:100A100041E06CE0DFF8F4C0604502D14FF0010C1A
:100A200039E0DFF8ECC0604502D14FF0020C32E053
:100A3000DFF8E0C0604502D14FF0030C2BE0DFF897
:100A4000D8C0604502D14FF0040C24E0DFF8CCC0E0
:100A5000604502D14FF0050C1DE0DFF8C4C06045D1
:100A600002D14FF0060C16E0DFF8B8C0604502D1A5
:100A70004FF0070C0FE0DFF8B0C0604502D14FF037
:100A8000080C08E0DFF8A4C0604502D14FF0090C63
:100A900001E04FF00A0C0CFA07FC4CEA060CCEF809
:100AA00008C44F68DBF80060FF0226EA020600D5A2
:100AB00016435F46CBF80060D1F804C0DBF8046051
:100AC0005FEA8C2C26EA020600D516437E606E682B
:100AD0004F6826EA0206BF0300D516436E602E68F3
:100AE0004F6826EA0206FF0300D516432E605B1C02
:100AF0000A6832FA03F67FF411AFBDE8F88F000000
:100B000080000058F44402580000025800040258C3
:100B100000080258000C0258001002580014025835
:100B200000180258001C02580020025800240258E5
:100B3000426921EA02030A4043EA024181617047A7
:100B40000AB1816170470904FBE7000001480068B1
:100B5000000C70470010005C01488068704700007E
:100B600000000024024881680278114481607047C7
:100B700000000024032010B500F078F800F0E0F940
:100B80000F4A104914681368C4F3032203F00F03DB
:100B90008A5CC95C02F01F0201F01F01D0400A4AC2
:100BA00020FA01F11160094908600F2000F010F8E7
:100BB00008B1012010BD00F02BF8002010BD00008E
:100BC0001844025872430008100000240C0000244E
:100BD00070B50D4D04462878A0B14FF47A71B1FB81
:100BE000F0F00A490968B1FBF0F000F006FD48B9E1
:100BF000102C07D200222146501E00F017F80020CA
:100C00006C6070BD012070BD000000240C00002449
:100C1000054808B5016841F002010160006800F074
:100C20000200009008BD0000F44402580E4BF0B4DE
:100C30001B680D46C3F30223C3F10706042E00D937
:100C40000426191D072901D2002300E0DB1E012420
:100C500004FA06F19C40491E2940641E9940144044
:100C60002143F0BC01F076BE0CED00E0064900F037
:100C7000070210B54FF6FF040868044B204040EA15
:100C800002201843086010BD0CED00E00000FA05DA
:100C9000134970B50A68D243520705D5096801F0B7
:100CA0000701814213D118E00A6822F007020243CB
:100CB0000A60FFF751FF0A4D4FF47A760446083D6B
:100CC00007E000BFFFF748FF001BB04201D9012039
:100CD00070BD2868C0438004F4D4002070BD0000BB
:100CE0000C4802582DE9F05F04000F467ED0DFF873
:100CF0003882D8F8000000F00F00B8420CD2D8F8C3
:100D0000001021F00F013943C8F80010D8F8000096
:100D100000F00F00B84269D12078844D40070AD511
:100D20002069296801F07001884204D9296821F0FE
:100D300070010143296020787C4E361D00070AD5DA
:100D40006069316801F07001884204D9316821F08E
:100D50007001014331602078C0060AD5A06931686E
:100D600001F4E061884204D9316821F4E061014373
:100D700031602078DFF8B4B180060BF1080B0CD598
:100D8000E1695846DBF8002002F07002914204D974
:100D9000026822F070020A430260207880070AD5B8
:100DA000E068296801F00F01884204D9296821F020
:100DB0000F01014329602078C0073ED05B49A2683B
:100DC0002868183920F47060104328606068022891
:100DD00018D0032819D00968012819D0490700291B
:100DE0004ADADFF848A1AAF1080A00E044E0DAF89C
:100DF000002022F007020243CAF80020FFF7ACFEF1
:100E0000814612E009688903E9E709688901E6E794
:100E1000C905E4E7FFF7A0FEA0EB090141F2883025
:100E2000814202D90320BDE8F09F6168DAF8000032
:100E300000F03800B0EBC10FECD1207880070AD564
:100E4000E068296801F00F01884204D2296821F086
:100E50000F0101432960D8F80010404601F00F014E
:100E6000B9420BD9016821F00F01394301600068D4
:100E700000F00F00B84201D00120D4E720784007ED
:100E80000AD52069296801F07001884204D22968D6
:100E900021F0700101432960207800070AD56069BC
:100EA000316801F07001884204D2316821F070018C
:100EB000014331602078C0060AD5A069316801F489
:100EC000E061884204D2316821F4E061014331607D
:100ED000207880060CD5E1695846DBF8002002F046
:100EE0007002914204D2026822F070020A4302604A
:100EF00000F026F80E492A682B68C2F3032203F09B
:100F00000F038A5CC95C02F01F0201F01F01D04090
:100F1000084A20FA01F11160074908600748006893
:100F2000BDE8F05FFFF754BE00200052184402589D
:100F300072430008100000240C0000240400002468
:100F4000454970B545480968434B103B11F03802DC
:100F500008D00111082A03D0102A0BD0182A0BD070
:100F6000084670BD19688906FBD51968C1F3C1012F
:100F7000C84070BD3A4870BD3749374D18310C1D17
:100F800024350A68096826682D6802F0030406F013
:100F90000102C1F30511C5F3CC0515FB02F200EE09
:100FA000102AB8EE400AE9B32F4ADFED2E0AB7EE59
:100FB000001A6CB1DFED2D1A012C01D0022C43D0A8
:100FC00002EE101A1068F8EE422A81EEA22A1EE004
:100FD0001C68A40611D51B6801EE901A1168C3F3B2
:100FE000C103F8EE612AD84001EE900AC1F308006F
:100FF000F8EE611A81EEA22A0BE001EE901ADFED05
:101000001C2A00BFF8EE611A106882EEA12AC0F314
:10101000080001EE900AF8EE611A40EE201A31EE57
:10102000810A00E015E022EE000A1068C0F34620B5
:10103000401C00EE900AF8EE600A80EE201ABCEE2A
:10104000C10A10EE100A70BD01EE901ADFED092AF8
:10105000D8E7002070BD0000104402580090D00373
:1010600040787D0100000039304402580024744A61
:101070000024744C20BCBE4B2DE9F05F04007DD0F1
:10108000FF4F2078FE4D1837DFF8F493103DC0076E
:1010900048D0D9F80000396800F03800102815D081
:1010A000182803D101F0030002280FD06068B0F5C2
:1010B000803F12D010B1B0F5A02F18D0286820F4CE
:1010C00080302860286820F4802009E028688003A8
:1010D00028D560680028D2D024E0286840F4803009
:1010E0002860606888B1FFF737FD064609E0286888
:1010F00040F480202860F0E7FFF72EFD801B642875
:101100006FD828688003F7D50CE0FFF725FD064669
:1011100005E000BFFFF720FD801B6428F0D8286899
:101120008003F7D4207841F20308D54E0C3E8007A7
:1011300069D5D9F80000396810F038000ED01828A9
:1011400001D188070AD0E06890B3296821F019011D
:1011500001432960FFF700FD824631E0286840071F
:1011600002D5E06800288AD0E168286820F01900DC
:1011700008432860FFF7F0FC824607E0DFE000BF8D
:10118000FFF7EAFCA0EB0A000228B9D8286840075C
:10119000F6D500BFFFF7DAFC40451BD82069402890
:1011A00012D0316821F47C3141EA003030602AE00D
:1011B00018E000BFFFF7D0FCA0EB0A0002289FD880
:1011C00028684007F6D5E5E7306820F47C3040F425
:1011D0000030EBE7207C316821F0FE4141EA0060FD
:1011E000E4E70DE1286820F001002860FFF7B4FC77
:1011F000824605E0FFF7B0FCA0EB0A0002288DD87C
:1012000028684007F6D42078C0065DD5D9F80000DC
:10121000DFF86CB2396800F03800ABF1040B082835
:1012200010D0182803D101F0030001280AD0E0698A
:101230000028286838D040F080002860FFF78CFC38
:10124000824623E02868C00523D5E069802876D14E
:101250001FE0206A202821D0316821F0F84141EABE
:101260008060306030E000BF94F82010DBF8002090
:1012700022F07C5242EA0161CBF8001024E000BF6A
:10128000FFF76AFCA0EB0A00022898D82868C0057E
:10129000F6D5FFF75BFC4045E6D8DAE7306820F08A
:1012A000F84040F08040DCE720F080002860FFF745
:1012B00053FC064605E000BFFFF74EFC801B0228EA
:1012C0009DD82868C005F7D42078000729D56C4838
:1012D0006169643000298046016811D041F0010144
:1012E0000160FFF739FC064605E000BFFFF734FC5C
:1012F000801B0228C9D8D8F800008007F6D510E076
:1013000021F001010160FFF727FC064605E000BF60
:10131000FFF722FC801B022872D8D8F80000800753
:10132000F6D42078800623D5A0690028286810D03C
:1013300040F480502860FFF70FFC064605E036E1D8
:10134000FFF70AFC801B02285AD828688004F7D5CA
:101350000EE020F480502860FFF7FEFB064604E014
:10136000FFF7FAFB801B02284AD828688004F7D4CC
:10137000207840074FD5DFF80C81D8F8001041F4F1
:101380008071C8F80010FFF7E7FB064605E000BFD4
:10139000FFF7E2FB801B642832D8D8F80000C005B4
:1013A000F6D5374EA068603601280AD008B1052866
:1013B00013D0306820F001003060306820F0040065
:1013C00002E0306840F001003060A06841F2883AE5
:1013D00090B1FFF7C1FB80460AE0306840F004009E
:1013E0003060EEE7FFF7B8FBA0EB0801514507D8E6
:1013F00030688007F6D50EE0FFF7AEFB804607E0C9
:1014000084E000BFFFF7A8FBA0EB080151457DD8A1
:1014100030688007F6D4606AB0B3DFF86480D9F82A
:10142000001008F120084FF6F87B08F10409C1F319
:10143000C2010329A8F1040A69D00228286820F013
:101440008070286003D0FFF787FB044684E0FFF735
:1014500083FB064605E000BFFFF77EFB801B0228EA
:1014600077D828688001F7D4E26A40F2F33138680F
:1014700054F8283F884340EA02101843386004E0DB
:101480001044025800480258B5E0217B43462289A7
:101490004FF4FE0C208A4FF0FE474902267D521E73
:1014A000401EA1F50071C2F308088AB2761E0CEA4C
:1014B000004042EA08020243504607EA06610A4336
:1014C0001A60DAF8002022F00102CAF80020D9F8E8
:1014D0000020266A22EA0B0242EAC602C9F800206E
:1014E000DAF80010A26921F00C011143CAF80010CB
:1014F0000168E26921F0020111430160016841F4D1
:1015000080310160016841F4003101E021E027E011
:101510000160016841F480210160016841F001012E
:101520000160286840F080702860FFF715FB0446D2
:1015300005E000BFFFF710FB001B022809D8286850
:101540008001F7D557E000BFFFF706FB001B02281C
:1015500002D90320BDE8F09F28688001F4D44AE056
:1015600039680128D8F8000021D0A26A01F00303ED
:1015700093421CD1E26AC1F305118A4217D1216B53
:10158000C0F30802491E8A4211D1616BC0F34622A2
:10159000491E91420BD1A16BC0F30642491E9142F4
:1015A00005D1E16BC0F30660491E814201D00120E4
:1015B000D0E7A16C4E46D9F80000C0F3CC008142C0
:1015C00019D0DAF80000554620F00100CAF80000F2
:1015D000FFF7C2FA4FEA0007FFF7BEFAB842FBD0A6
:1015E000A26C306820EA0B0040EAC2003060286834
:1015F00040F0010028600020ACE7401EB0F1807F81
:1016000010B501D3012010BD4FF0E02460610F211F
:10161000601701F09FF90020A0610721216110BD32
:10162000FEE7000030B587B014216846FEF759FE8A
:101630000E48016841F00401016000684FF4005455
:101640000B4D002200F00400214605902846FFF7CC
:1016500077FA002100940120CDE901012846039189
:101660006946FFF74FF907B030BD0000E04402586B
:1016700000080258FEE7FEE730B5084C002211468C
:10168000002004EBC113451C1A54E8B28028FAD399
:10169000491CC9B20829F3D330BD0000180000244A
:1016A0002DE9F0437F282DD83F292BD88418802C92
:1016B00002D9C0F18002D2B2CC18402C02D9C1F1BB
:1016C0004003DBB2DFF8409085184FF00108CE18D8
:1016D00016E000BF01F00704CF0808FA04F209EB96
:1016E000C713044608E000BF13F804C0671C2CEAC7
:1016F000020C03F804C0FCB2A542F5D8491CC9B2DB
:101700008E42E7D8BDE8F083180000242DE9FF5F82
:1017100000271446C2F1010B0D460E9B0646039AA4
:101720002146384600F012FD20B12819C1B23046DA
:1017300000F082FB61424FF000090E9B8846039A3D
:10174000484600F003FD20B1281BC1B2304600F02E
:1017500073FB0E9B3946039A204600F0F7FC20B13C
:1017600030192946C0B200F067FB0E9B4946039A28
:10177000404600F0EBFC20B1301B2946C0B200F01F
:101780005BFB0F98002814D0404610E00E9B0146EA
:10179000039A002000F0DAFC28B105EB0800C1B282
:1017A000304600F049FB08F1010000B28046A04538
:1017B000ECDBC9E07F1C3FB2BBF1000F02DA0BEBA0
:1017C000470004E0641E24B2391B0BEB41000E9B62
:1017D000401C039A0FFA80FB2146384600F0B6FC05
:1017E00028B12819F219C1B2D0B200F025FB0E9B26
:1017F0003946039A204600F0A9FC28B1E8193219AD
:10180000C1B2D0B200F018FB60420E9B01B2039A45
:101810007842894600B2824600F098FC28B1281B25
:10182000F21BC1B2D0B200F007FB0E9B5146039AE7
:10183000484600F08BFC28B1E81B321BC1B2D0B285
:1018400000F0FAFA0E9B4946039A384600F07EFCF7
:1018500028B1281BF219C1B2D0B200F0EDFA0E9BEC
:101860005146039A204600F071FC28B1E81B32195A
:10187000C1B2D0B200F0E0FA0E9B2146039A504666
:1018800000F064FC28B12819F21BC1B2D0B200F0FC
:10189000D3FA0E9B3946039A484600F057FC28B10C
:1018A000E819321BC1B2D0B200F0C6FA0F98E8B303
:1018B0004846C8461FE00E9B0146039A384600F092
:1018C00045FC30B105EB0800F219C1B2D0B200F00E
:1018D000B3FA0E9B4146039A504600F037FC30B1F4
:1018E00005EB0800F21BC1B2D0B200F0A5FA08F176
:1018F000010000B28046A045DDDB5046D04621E025
:101900000E9B0146039A484600F020FC30B105EBDF
:101910000800321BC1B2D0B200F08EFA0E9B4146D5
:10192000039A204600F012FC40B100E00CE005EB09
:1019300008003219C1B2D0B200F07EFA08F10100FD
:1019400000B28046B845DBDBA742FFF633AFBDE807
:10195000FF9F00002DE9FF4F14460D4621448046AD
:10196000002691B0C2F1010AC9B200F065FA291B44
:101970004046C9B200F060FA08EB04002946C0B244
:1019800000F05AFAA8EB04002946C0B200F054FA5D
:10199000149800280AD0674206E0E819C1B2404610
:1019A00000F04AFA7F1C3FB2A742F6DB7EE0761CCD
:1019B00036B2BAF1000F02DA0AEB460004E0641E08
:1019C00024B2311B0AEB4100401C0FFA80FA08EBED
:1019D00006010A912A190E92C8B20591D1B200F0FF
:1019E0002BFAA8190D9008EB04010991C2B20491D9
:1019F000C8B2114600F020FAA8EB06010C91C8B25B
:101A00008946291B1091C9B200F016FAA81B0F9045
:101A1000A8EB0407C1B2BB46F8B200F00DFA10996A
:101A2000CAB20599C8B2114600F006FA0F98049997
:101A3000C2B2C8B2114600F0FFF90E9A09F0FF00D9
:101A4000D1B200F0F9F90D98C1B2F8B200F0F4F992
:101A5000149858B3604207B210E000BF0A9805EB33
:101A6000070909F0FF01C0B200F0E6F90C9809F08F
:101A7000FF01C0B200F0E0F97F1C3FB2A742EDDBEE
:101A8000704207B210E000BF05EB07090BF0FF0042
:101A900009F0FF0100F0D0F9099809F0FF01C0B288
:101AA00000F0CAF97F1C3FB2B742EDDBA642FFF659
:101AB0007EAF15B0BDE8F08F2DE9FE4F9A46804607
:101AC000CAF10007544601EE907AB6EE002B13FBE4
:101AD00004FBB8EEE11B12FB02F900EE90BA00EE37
:101AE000109A31EE021BB8EEE03BB8EEC00B0C983A
:101AF0000E464FF0000500EE013BB7EEC30B68B990
:101B00000EE0F0190090C1B2404600F095F900983F
:101B1000C1B2404600F090F97F1C3FB2A742F0DB13
:101B2000311908EB0500CDE90101C9B2C0B200F0DE
:101B300083F9301B0090A8EB0507C1B2F8B200F0A2
:101B40007BF90299F8B2C9B200F076F90098C1B2F7
:101B50000198C0B200F070F9B0EE421B57E000BF30
:101B6000B5EEC00A4FF00301F1EE10FA04D801EB14
:101B700045020BFB02F10BE06342022201EB45053B
:101B800002EB43030BFB05F109FB0311641E24B2B6
:101B900000EE901A05B20C98F8EEE00A30EE800ADA
:101BA000C8B1614208EB050002900FB2A8EB050036
:101BB00001900EE00298F1190091C9B2C0B200F094
:101BC0003BF900990198C9B2C0B200F035F97F1C09
:101BD0003FB2A742EEDB371908EB05000290F9B2DD
:101BE000C0B200F029F9311BA8EB0500CDE90001D6
:101BF000C9B2C0B200F020F90098F9B2C0B200F04A
:101C00001BF901990298C9B2C0B200F015F902EEB1
:101C1000104A00EE909A681CB8EEC23BB8EEE02B7A
:101C20000BFB00F133EE413B00EE901A22EE032B4A
:101C3000B8EEE03BB4EEC32BF1EE10FA90DC00EE10
:101C4000105A00EE90BA621EB8EEC03BB8EEE02B20
:101C5000B8EEC00B09FB02F033EE014B30EE013B56
:101C6000504309FB0AF100EE100A01FB0AF122EED3
:101C7000042BB8EEC00B01EE101AB8EEC11B02EE39
:101C8000030B30EE410BB7EEC00B5AE0B5EEC00AC5
:101C9000F1EE10FA0DD80220624200EB4503032159
:101CA0000BFB03F001EB42026D1C09FB02002DB29D
:101CB00005E00320614200EB410109FB01F0641ED5
:101CC00000EE900A0C9824B2F8EEE00A30EE800A9A
:101CD000D0B1614208EB050001900FB2A8EB0500FE
:101CE00000900FE0019806EB070A0AF0FF01C0B26E
:101CF00000F0A2F800980AF0FF01C0B200F09CF8D2
:101D00007F1C3FB2A742EDDB311908EB0500CDE99E
:101D10000001C9B2C0B200F08FF8A6EB040AA8EB2C
:101D200005070AF0FF01F8B200F086F80199F8B251
:101D3000C9B200F081F800980AF0FF01C0B200F0CB
:101D40007BF8002CA2DCBDE8FE8F2DE9F04F1F468A
:101D50004FF00009B94205460C461646C8460ED15A
:101D6000B54208DD2E46154605E02146E8B200F0F2
:101D700063F86D1C2DB2B542F7DDBDE8F08FB542BA
:101D80000DD1BC4208DD1C460F4605E02846E1B2F5
:101D900000F052F8641C24B2BC42F7DDEDE703DD2D
:101DA0002E4615461C460F46BC4203DD64424FF0EA
:101DB00001097F42381B711B884207DD28462546F2
:101DC000044630464FF001083E460746381B711B5B
:101DD000A0EB0102B9F1000FC1EB40074FEA400B45
:101DE0004FEA420A1FD122E06842C1B203E06042DA
:101DF000C1B203E0E9B2E0B201E0E1B2E8B200F062
:101E00001BF8B542B9DA6D1C2DB2002F03DA07EBCF
:101E10000B0007B204E0641C07EB0A0007B224B20F
:101E2000B9F1000F03D0B8F1000FE0D0DCE7B8F152
:101E3000000FE2D0DEE700007F2810B50CD83F2964
:101E40000AD8064ACB0801F0070402EBC3120123AB
:101E5000115CA3401943115410BD00001800002468
:101E60002DE9F0430446884601EB0307079804EB8D
:101E7000020508B126462DE0A7F1010926460AE031
:101E800041463046FFF7D8FF09F0FF013046FFF723
:101E9000D3FF761CF6B2B542F2D86D1E464609E075
:101EA00031462046FFF7C8FF3146E8B2FFF7C4FFCE
:101EB000761CF6B2B742F3D8BDE8F083444605E09D
:101EC00021463046FFF7B8FF641CE4B2A742F7D8BA
:101ED000761CF6B2B542F1D8EEE72DE9F04785B0B1
:101EE00005460C469A4691462746DDE90E800D9E32
:101EF000ADF804500028ADF80C102846ADF80620C7
:101F0000ADF80860ADF80E30ADF8108020D08145F6
:101F1000494600D20846864200D230465146A24584
:101F200000D20C46A04500D244464946A94500D9F6
:101F30000D46AE4200D935465146BA4500D90F4646
:101F4000B84500D947468046A84212D8264621E027
:101F500053464A463946FFF7F8FE43463246214685
:101F60002846FFF7F2FE4346324651464846FFF701
:101F7000ECFE05B0BDE8F0870320434603AA0096B7
:101F800001A900F0A1FB18B131464046FFF754FF0C
:101F9000761CF6B2BE42EFD908F10100C0B2D2E71A
:101FA00070B5002186B04FF47A720020401C904238
:101FB000FCD3491C9142F8D314216846FEF791F9ED
:101FC0001248016841F00401016000680024104ECD
:101FD000012500F00400059020200090CDE9015477
:101FE000694630460394FEF78DFC10200090CDE941
:101FF0000154694630460394FEF784FC012000F04A
:1020000019FB012000F026FB06B070BDE044025829
:10201000000802587F2801D83F2901D900207047C5
:10202000CB0801F00702054901EBC3130121185C3D
:1020300091400840F3D001207047000018000024B0
:1020400070B580250646002425FA04F0304000D003
:10205000012000F0FFFA012000F0ECFA002000F06F
:10206000E9FA641CE4B2082CEED3012000F0E2FA95
:10207000BDE87040002000F0DDBA012010B500F08E
:10208000E9FA012000F0D6FA002000F0E3FABDE8FA
:102090001040002000F0CEBA002010B500F0DAFAAF
:1020A000012000F0C7FABDE81040012000F0D2BACC
:1020B00010B5FFF775FFAE2000F0DCFAD52000F078
:1020C000D9FA802000F0D6FAA82000F0D3FA3F20F9
:1020D00000F0D0FAD32000F0CDFA002000F0CAFAC8
:1020E000402000F0C7FAA12000F0C4FAC82000F098
:1020F000C1FADA2000F0BEFA122000F0BBFA81200B
:1021000000F0B8FACF2000F0B5FAD92000F0B2FA0A
:10211000F12000F0AFFADB2000F0ACFA302000F044
:10212000A9FAA42000F0A6FAA62000F0A3FA8D20B8
:1021300000F0A0FA142000F09DFAAF2000F09AFA07
:10214000FFF79AFABDE8104000F060BA00EE100AFE
:1021500070B5B8EEC01B00EE101A1C461546B8EE5E
:10216000C00B00F009FD9FED0D1B9FED0E3BA5423E
:1021700080EE012B22EE030BBDEEC00B10EE100A19
:1021800000B204DAA84206DBA04202DD03E0A84266
:10219000FADB012070BD002070BD00001F85EB51EF
:1021A000B81E094000000000008066400246012081
:1021B00000E05043491EFCD270470FB470B588B0A0
:1021C000144610AA0D46064668460F9900F098FB83
:1021D00023466A462946304600F002FA08B070BC31
:1021E0005DF814FB084B002130B5002003EBC11251
:1021F000441C155CED431554E0B28028F8D3491C0B
:10220000C9B20829F1D330BD180000242DE9F043EC
:102210007F282BD83F2929D88418802C02D9C0F1D7
:102220008002D2B2CC18402C02D9C1F14003DBB2FB
:10223000DFF83C9085184FF00108CE1814E000BF7D
:1022400001F00704CF0808FA04F209EBC7130446AB
:1022500006E01F5D04F1010C57401F550CF0FF0410
:10226000A542F6D8491CC9B28E42E9D8BDE8F08330
:102270001800002410B540F0B0000C4600F0FAF948
:10228000102040EA141000F0F5F904F00F00BDE84A
:10229000104000F0EFB92DE9F04300241D46174629
:1022A0008946079E804612E0291B0220491EFFF73F
:1022B0007DFFB7FBF0F03346494600F0010204FB16
:1022C00006803032C0B200F007F8641CE4B2AC42C1
:1022D000EAD3BDE8F0830000082B08B50DD0062B2B
:1022E0000AD10A4B02EB420203EB4202C03A0092CF
:1022F0000823062200F0CAF808BD054B03EB0212C2
:102300001023A2F5007200920822F3E71C40000897
:102310002C3A00082DE9FC5F8246DFF87C90002013
:1023200090468B460446054601902EE001AA611CAA
:102330001055CCB2032C26D30024264606E001A972
:102340003846FDF7D9FF58B1761CF6B206EBC60148
:1023500009EB810011A10746FDF7CEFF0028EED161
:10236000681C0321B0FBF1F206EBC60309EB830105
:10237000091D0091102359460AEB02101A46103825
:10238000C0B200F083F86D1CEDB218F8050000280B
:10239000CCD1BDE8FC9F00005642000800000000C0
:1023A0002DE9F84FB5EEC00B0A9C9A46F1EE10FAF3
:1023B00090468B460746234603DB2B22FFF78CFF14
:1023C00004E02D22FFF788FFB1EE400B0A205146B2
:1023D000BCEEC01B11EE105A01EE105AB8EE411BB4
:1023E00030EE411BFFF7E2FE814600EE109AB8EE98
:1023F000400B21EE000B00F0A3FCBCEEC00B4346EB
:102400005946009410EE106AB6FBF9F042193819DB
:10241000C0B200F093F808F1010023462E2259467D
:1024200000FB0470C0B2FFF757FF08F102005346EB
:102430003246594600FB04700094C0B200F07EF8AA
:10244000BDE8F88F2DE9F04300241D4690468946EB
:10245000079E074616E0291B1020491EFFF7A6FE1F
:10246000B8FBF0F03346494600F00F0204FB06705B
:102470000A2AC0B201D2303200E03732FFF72CFF17
:10248000641CE4B2AC42E6D3BDE8F0832DE9FC4F16
:102490007F281E4615460C4681464BD83F2C49D80E
:1024A000FFF7FEF8761E244A0121F017002306EB01
:1024B000507004F0070B01EBE00639E0002033E038
:1024C00009EB000ABAF17F0F30D803EBD4010729DA
:1024D00030D813FB05FCCDF804C00B9F07EB0008B8
:1024E000CDF800804F1C02EBC1111CF808C0072F6B
:1024F0008E4611F80A700CFA0BFC47EA0C0701F83B
:102500000A700FD8DDE90017CBF1080817F801C0F1
:102510000EEB0A0191F880702CFA08FC47EA0C07D0
:1025200081F88070401CC0B2A842C9D35B1CDBB2EA
:102530009E42C3DCBDE8FC8F180000242DE9F04763
:102540000A271D4600249046089E8A46814614E0CC
:10255000291B0A20491EFFF729FEB8FBF0F033467D
:10256000B0FBF7F107FB110204FB06903032514635
:10257000C0B2FFF7B1FE641CE4B2AC42E8D3BDE8E0
:10258000F0872DE9F04714001E468A468146DDF8A3
:102590002080434604D42B22FFF79EFE254603E00D
:1025A0002D22FFF799FE654200240A2714E0311B13
:1025B0000A20491EFFF7FAFDB5FBF0F0641C434604
:1025C000B0FBF7F107FB110204FB089030325146D3
:1025D000C0B2FFF781FEE4B2B442E8D3BDE8F087B1
:1025E0002DE9F04100241E4615468846074608E0BE
:1025F00014FB067033464146C0B2FFF76DFE641C03
:10260000E4B22A5D002AF3D1BDE8F08170B5084D2F
:10261000002400212046FFF72DFE802105EBC41089
:1026200000F039F8641CE4B2082CF2D370BD00004D
:102630001800002420210246054810B5FEF780FA54
:1026400000204FF4FA71401C8842FCD310BD0000FA
:102650000008025810210246054810B5FEF770FA2E
:1026600000204FF4FA71401C8842FCD310BD0000DA
:102670000008025810B50446FFF7FFFC7820FFF76A
:10268000DFFC0020FFF7DCFC2046FFF7D9FCBDE8AB
:102690001040FFF701BD70B50D460646FFF7EDFC93
:1026A0007820FFF7CDFC4020FFF7CAFC002404E0AF
:1026B000305DFFF7C5FC641CE4B2AC42F8D3BDE862
:1026C0007040FFF7E9BC00002DE9F047471E9A462D
:1026D00000238946089C194629E000BF32F91150B1
:1026E000A54202DD4FF0010C01E04FF0000C32F981
:1026F0001760A64202DD4FF0010801E04FF000082C
:10270000C44511D039F917C0A4EB050839F9117087
:10271000751BACEB070606FB08F696FBF5F5EE1904
:10272000564501DD43B100230F464D1C29B28142BD
:10273000D4DB1846BDE8F0870123F5E77047704702
:10274000FEF710BA70B59CB04C216846FDF7C9FD84
:10275000202113A8FDF7C5FD0220FEF799FA2D49A7
:1027600000242D480A6822F001020A600A68026803
:1027700042F440420260026802F440421B92026846
:102780009204FCD5254A136843F0020313601268D3
:1027900002F002021B92026842F4404202600268A8
:1027A0000A6842F001020A60096801F001011B9108
:1027B00001688904FCD50DF1280C0220099005213F
:1027C000C0228CE80700C3030F9008250D90012656
:1027D0000E90CDE91054CDE9006368461294FEF7DF
:1027E0004BFC08B172B6FEE740201A903F2103016E
:1027F000CDE916500322CDE9180313AB13A883E8E3
:1028000016000421FEF76EFA002801D072B6FEE72A
:102810001CB070BD2C04005818480258F4440258EB
:102820002C48F0B52C4A016841F470010160106831
:1028300000F00F00072804D2106820F00F00C01D20
:10284000106026490020254C10340B68244D43F0BD
:1028500001030B6020600B682B400B60136803F0D2
:102860000F03072B04D9136823F00F03DB1D13603C
:102870001A4C1C4A18341C4B261D371D2060174C5F
:102880001A4D28343060261D3860371D23603B1DEB
:1028900035601C1D3A60251D2E1D1860331D2260F9
:1028A0002860326018600A680C4B114C22F48022B8
:1028B00060330A60186020686FF30F00B0F1005FAA
:1028C00003D20C490120C1F8080143F2D2000A49A1
:1028D0000860F0BD88ED00E000200052004402587E
:1028E0007FEDF6EA80020101000202020000FF0112
:1028F0000010005C0080005100400052FEE7000024
:1029000037B514460846064B6A46214600F08CFB54
:1029100004466946002000F00AFF20463EBD000044
:102920002F37000803B401984100009850EAC120F5
:1029300018BF04204A0D18BF40F0010040F2FF729A
:10294000B2EB515F08BF40F00200012808BF05202C
:1029500002B07047090700284FEA116104DB00F15B
:10296000E02080F80014704700F00F0000F1E02034
:1029700080F8141D7047000070B565482DED020BFE
:102980002DED048B059D25F00044A04218DC614824
:10299000844202DC0AD1049840B19DED040BBDECE9
:1029A000048B02B0BDE8704000F052BA002DCCBFDD
:1029B0009FED590B9FED5A0BBDEC048B02B070BD1F
:1029C0005948A04215DD5948A042D8BF4FF0FF3406
:1029D00055DD9DED040B51EC100BFFF7A3FF042810
:1029E00008BF00F03DFA9DED040BBDEC048B02B076
:1029F00070BD9DED040B51EC100B00F0A5FECDE970
:102A000004014B489FED4C0BA0421CDD4C48A042FA
:102A10000BDD9DED042B00249FED4B1B12EE010BF3
:102A200032EE011B80EE012B27E09DED041B9DED96
:102A3000042B012431EE401B32EE000B81EE002B03
:102A40008DED042B1BE04248A0420FDD9DED042BD1
:102A500002249FED411B9DED043B32EE412B03EE22
:102A6000010B82EE001B8DED041B08E09DED040BB5
:102A70009FED3B1B032481EE002B8DED042B9DED80
:102A8000040B3948062120EE009B29EE098BB0EE9D
:102A9000480B784400F0A4F920EE099B3348B0EECF
:102AA000480B0521784400F09BF920EE080B002C20
:102AB0000BDA9DED042B39EE001B9DED040BBDECF4
:102AC000048B02B002EE410B70BD2948784439EE08
:102AD000000B00EBC4009DED042B90ED001B25487E
:102AE00012EE001B9DED040B31EE400B784400EB21
:102AF000C400002D90ED001B31EE400BB8BFB1EECD
:102B0000400BBDEC048B02B070BD00000000000063
:102B1000000010440000F07F182D4454FB21F93FC1
:102B2000182D4454FB21F9BF0000DC3F0000203E7B
:102B30000000F33F00000000000000000000F03F34
:102B40000000E63F00000000000000000000004020
:102B50000080034000000000000000000000F83F7B
:102B6000000000000000F0BF5A190000201900000A
:102B7000D81800009818000070B5614E2DED040BB8
:102B80002DED048B82B0DDF824C0DDE907235C4223
:102B90002CF000411C4341EAD474069D22F0004011
:102BA000B44205D86C422C4340EAD474B4420BD9E9
:102BB0009DED081B9DED060B02B0BDEC048B04B02F
:102BC000BDE8704000F047B9ACF14054A4F17F6417
:102BD0001C430BD0022404EAAC7444EAD2740543CB
:102BE0009FED498B9FED4A2B0DD016E09DED060B16
:102BF00051EC100B00F0A0FD41EC100B02B0BDEC4D
:102C0000048B04B070BD002C14BF012C9DED060B8D
:102C1000F4D0022C2ED0032C2FD00B439FED3E1B63
:102C20009FED3F0B0AD0B1421DD1B04209D121F036
:102C3000804120F080400991079014E0002ADDDAFD
:102C400015E0394B7B44002C08BF93ED000BD5D029
:102C5000012C04BF93ED000BB1EE400BCED0022C43
:102C600008D0032C09D0B0420AD1002AC6DAB0EE4F
:102C7000410BC3E7B0EE480BC0E7B0EE420BBDE737
:102C8000401A00159FED2A9B3C28C8BF8DED000B14
:102C900015DCBCF1000FBCBF10F13C0F8DED009BAB
:102CA0000DDB9DED061B9DED082B81EE020B51EC1B
:102CB000100B00F049FD00F03FFDCDE9000194B19B
:102CC000012C0CD09DED001B9FED1B0B022C31EE57
:102CD000400B0CBF38EE400B30EE480B8EE70198EE
:102CE00080F0004001909DED000BB4EE490BF1EE39
:102CF00010FA04BF022000F0CFF89DED000B7DE735
:102D00000000F07F00000000182D4454FB21094012
:102D1000182D4454FB2109C0182D4454FB21F9BF40
:102D2000182D4454FB21F93FD81700000000000083
:102D30000000000000000000075C143326A6A13C40
:102D400010B52DED020B84B09DED040B51EC100B72
:102D5000FDF7B0FC41EC100B9DED041B05989FEDB9
:102D60001A2B31EE401B9FED1A3B9FED1B4B10F0D1
:102D7000004F0AD0B4EEC41BF1EE10FA0AD9B4EE3B
:102D8000C31BF1EE10FA0FDD0CE0B4EEC41BF1EE44
:102D900010FA02D230EE420B06E0B4EEC31BF1EEA5
:102DA00010FA01DB30EE020B8DED020B9DED040BF2
:102DB0008DED000B10EE900A039961F31E00039055
:102DC0009DED020B06B010BD000000000000F03FBA
:102DD000000000000000E03F000000000000E0BF35
:102DE000491E00EBC102B0EE401B92ED000B31F02A
:102DF00006020DD0491E00EBC102B0EE403B92ED41
:102E0000002B31F00602B0EE420B03EE010BF1D1C4
:102E1000022914D004290AD0062918BF704790ED62
:102E20000A2B00EE012B90ED080B02EE010B90ED4A
:102E3000062B00EE012B90ED040B02EE010B90ED42
:102E4000022B00EE012B90ED000B02EE010B704700
:102E500030EE000B704730EE010B704700000000B1
:102E60009FED030B20EE000B7047000000000000F8
:102E7000000000000000001002E008C8121F08C196
:102E8000002AFAD170477047002001E001C1121FEB
:102E9000002AFBD17047000001490860704700001C
:102EA000140000242DE9FF5F82B00021DDE9043029
:102EB000020DDDF840B0034318D044F61050A2F2E2
:102EC000FF3242431514119801281FD0A5EB0B00C7
:102ED000401C5FEA000A4FF000064E4FDFF83891C1
:102EE000B046504615D5CAF1000413E011980124EC
:102EF0004AA3012801D16FEA0B010298119AC0E997
:102F00000031C0E9024206B0BDE8F09FCBF10000FD
:102F1000DFE704460021404A491842EB0450CDE95E
:102F2000001012E0E00707D032463B4640464946D3
:102F3000FDF7DEFA8046894632463B461046194682
:102F4000FDF7D6FA06460F466410002CEAD1DDE9FB
:102F50000401DDE90023BAF1000F06DAFDF7C8FA33
:102F600042464B46FDF7C4FA05E0FDF733FB424607
:102F70004B46FDF72FFB04460E460022284BFDF77B
:102F8000F5FB03D84FF0FF30014607E00022254B48
:102F900020463146FDF705FAFDF7D0FB102409E085
:102FA000002C0ADB0A220023FDF7CAF9039B30320A
:102FB0001A55641E50EA0102F2D1641C039AC4F14E
:102FC00011031444119A012A03D0012208430DD1A0
:102FD0000AE0084304D000204FF0110B119072E773
:102FE000A3EB0B056D1E0DE05B4504DD4FF0000209
:102FF00005F1010504E003DA4FF00002A5F1010537
:10300000002AECD002981199C0E90231C0E90045CC
:1030100079E70000000014400000F03F300000009D
:103020000000F0430000E03F2DE9FF4F95B09A46C5
:10303000884606460025EEE1252877D1002427465C
:10304000F94A0121039400E0044316F8013F203BB4
:1030500001FA03F01042F7D130782A2811D06FF02E
:103060002F033078A0F13002092A16D8039A44F0D1
:10307000020402EB820203EB42021044761C03902E
:10308000EFE758F8042B0392002A03DA504244F485
:103090000054039044F00204761C30782E2816D198
:1030A00016F8010F44F004042A280DD06FF02F0207
:1030B0003078A0F13003092B09D807EB870302EB26
:1030C0004303C718761CF3E758F8047B761C307866
:1030D0006C280FD006DC4C2817D068280DD06A2841
:1030E00014D104E0742810D07A280FD10DE044F4F4
:1030F00000140AE044F4801401E044F440147278AF
:10310000824202D104F58014761C761C3078662841
:103110000BD013DC582877D009DC002875D045285F
:10312000F6D04628F4D047281AD193E118E0632856
:1031300035D0642879D0652812D18BE1702873D0FE
:1031400008DC6728F1D069286FD06E280DD06F2871
:1031500006D1ACE073282CD0752874D0782853D0D1
:103160005246179990476D1C54E1C4F3025002284F
:1031700009D003280DD0D8F8001004280DD00D6018
:1031800008F1040846E1D8F80010EA17C1E9005236
:10319000F6E7D8F800100D80F2E70D70F0E718F8A8
:1031A000041B8DF8001000208DF80100EB46012073
:1031B00003E058F804BB4FF0FF3061074FF0000107
:1031C00002D40DE009F101018946B9420FDA8145C7
:1031D000F8DB1BF809100029F4D108E009F101011E
:1031E00089468142FADB1BF809100029F6D10398C1
:1031F0005346A0EB090721463846179A00F080FA9B
:10320000284400EB090507E044E008E10DE01BF865
:10321000010B524617999047B9F10109F7D253466D
:1032200021463846179AF2E039E00A21C4F30252E7
:103230004FF0000B0091022A06D058F8040BC1177A
:10324000032A09D00AE023E008F1070020F0070272
:10325000F2E80201904605E000B2C117042A01D14C
:1032600040B2C117002906DA0A460021404261EB4C
:1032700002012D2202E0220504D52B228DF8042024
:10328000012203E0E20701D02022F7E7914657E050
:103290000A2100E010214FF0000B00910BE01021FB
:1032A0004FF0000B44F004040827009103E00820CD
:1032B0004FF0000B0090C4F30252022A05D058F8D8
:1032C000040B0021032A08D008E008F1070020F0D1
:1032D0000702F2E80201904603E080B2042A00D11E
:1032E000C0B24FF0000922072AD53278702A07D0E1
:1032F000DDF800C08CF0100C5CEA0B0C05D00EE081
:1033000040228DF80420012208E050EA010306D093
:1033100030238DF804308DF8052002229146009B61
:1033200083F0080353EA0B030AD150EA010201D1EA
:10333000620705D530228DF804204FF001097F1E69
:103340003278582A04D039A20C920CAA02920BE0CF
:103350003BA2F9E75B46009AFCF7F2FF0C9B9B5CF3
:10336000029A521E0292137050EA0102F2D10298A0
:1033700004A9081A00F1200B600702D524F4803458
:1033800000E001275F4502DDA7EB0B0000E0002015
:1033900000EB0B01009003984944401A0390E003AE
:1033A00006D453462146179A039800F0A9F905441C
:1033B000002706E001A85246C05D179990476D1C92
:1033C0007F1C4F45F6DBE0030CD553462146179A88
:1033D000039800F095F9054404E03020524617990F
:1033E00090476D1C0099481E00900029F5DC08E00C
:1033F0000298029952460078491C02911799904709
:103400006D1CBBF10001ABF1010BF1DC5BE100F0E5
:1034100065F90544761C307800287FF40DAE19B0AC
:103420002846BDE8F08F0000092801003031323312
:1034300034353637383961626364656600000000F0
:1034400030313233343536373839414243444546DA
:1034500000000000600700D4062708F1070020F0F4
:103460000700F0E80223804603F0004C5FEA0C00FE
:1034700001D097A009E0200501D596A005E0E0075E
:1034800001D095A001E0AFF24C001390307823F00A
:10349000004365280CD006DC452809D046281DD0FD
:1034A00047287FD13BE0662818D067287AD136E0DC
:1034B0000021112F01DB112000E0781CCDE9000173
:1034C00004A90CA8FFF7EEFCDDE90D010C9A4FF002
:1034D000000B07F10109109200914EE04FF00040FF
:1034E0000097CDE9011004A90CA8FFF7DBFCDDE98A
:1034F0000D020C9B0F994FF0000B91461093009218
:1035000011B9791C00EB0109B7EB090003D4C0F134
:10351000FF3B07F10109A9EB0700019042E0012FF1
:1035200000DA01270021112F01DD112000E03846CB
:10353000CDE9000104A90CA8FFF7B4FCDDE90D01F9
:103540000C9A00914FF0000BB946109221070FD44E
:10355000009A4A4503DA914601E0A9F10109B9F15F
:10356000010F05DD109AA9F10101515C3029F4D059
:10357000B84202DA10F1040F03DA0121CDE901109B
:1035800010E0002803DC8344A9EB000102E0411CA9
:10359000494500DD8946A0EB0B00401C01904FF02F
:1035A00000400290200705D40198484502DB4FF007
:1035B000FF30019000208DF84B0002980DF14B0771
:1035C000B0F1004F25D002200C902B200D900298D6
:1035D00000280CDA404202902D200D9007E00A21CD
:1035E0000298FCF797FE3031029007F8011D0C9904
:1035F000481E0C900029F2DC02980028EFD1791EB9
:103600000D980870307800F0200040F0450007F871
:10361000020D11A8C01BC01D02901398007800B1C4
:10362000012000EB0901019801EBE07102980144CF
:103630000398401A401E0390E00306D453462146E7
:10364000179A039800F05CF805441398007818B1B5
:103650005246179990476D1CE00323D553462146E7
:10366000179A039800F04CF805441BE0BBF1000FDB
:1036700007DB0098584504DD1098179910F80B00E7
:1036800001E0179930205246904701980BF1010B49
:10369000401E05F10105019004D12E2052461799D4
:1036A00090476D1CB9F10001A9F10109DEDC05E0CC
:1036B00017F8010B5246179990476D1C0299481E46
:1036C00002900029F4DC53462146179A03989EE69F
:1036D0002D0000002B000000200000002DE9F0412B
:1036E000044600251E461746880404D405E03946E2
:1036F0002020B0476D1C641EF9D52846BDE8F08136
:103700002DE9F041044600251E469046C80301D528
:10371000302700E02027880404D505E041463846DC
:10372000B0476D1C641EF9D52846BDE8F0810A68D3
:10373000531C0B601070704710B541EC100BFFF775
:103740001BF951EC100B10BD82B0CDE9000121F046
:10375000004001909DED000B02B051EC100B704742
:103760000EB5A04900240868800311D4BFF34F8F21
:10377000BFF36F8F9C480460BFF34F8FBFF36F8F11
:10378000086840F400300860BFF34F8FBFF36F8FBD
:103790000868C00324D4934870300460BFF34F8F8F
:1037A000001F43F6FF7600688F4D1035C0F34E3290
:1037B000C0F3C90306EA4217184600BF47EA807CF7
:1037C000C5F800C0401EF9D2521EF3D2BFF34F8F8E
:1037D000086840F480300860BFF34F8FBFF36F8FED
:1037E000FDF7C8F9FEF7AEFFFDF71CFFFEF760FC22
:1037F0000021082308464122FEF76EFD0823002120
:1038000010207AA2FEF7ECFE0623412212210020AE
:10381000FEF762FD06231221102074A2FEF7E0FEDF
:10382000062543F23902052300951C210020FEF7EE
:1038300085FE022300951C2128206FF04102FEF72F
:10384000A0FE04234AF2A5521C2100954620FEF753
:10385000F9FD08230095A52226210020FEF71BFD77
:10386000022303229FED650B262100953C20FEF7E5
:1038700097FD3021002063A2FEF74CFD6548102320
:1038800030211A4600906020FEF700FE06220095C7
:103890001221602060A3FEF790FCFEF7B7FE40F611
:1038A000B8363046FDF71CF8FDF7E6FE0821052086
:1038B000FEF7C2FA08210520FEF7ACFB2B4608B143
:1038C00057A200E057A204210A20FEF789FE0F2329
:1038D0007F2200212820FEF738FA00237F220F21C3
:1038E0002820FEF732FA0F2300940C221421002026
:1038F000FEF7B6FA012500950F230C22282100209F
:10390000FEF7AEFA1E27009723201421CDE901040B
:10391000192308462822FEF7E0FA372000972822CC
:10392000CDE901052D2311461420FEF7D6FA002318
:1039300008221B213720FEF70DF8012308222F2132
:103940003720FEF707F8082300940C221B21522091
:10395000FEF7B2F8082300950C222F215220FEF723
:10396000ABF87D2719230F2212216E20CDE90074B8
:10397000FDF7CCFE19230F2226216E20CDE900751C
:10398000FDF7C4FEFEF742FE3046FCF7A9FFDFF864
:1039900098806F034FF47A7639464046FDF7C8F8B1
:1039A0006420FCF79DFF00241023250180220020C5
:1039B000E9B2FEF72BFCFEF729FE3046FCF790FF3C
:1039C000102380220020E9B2FEF720FC641CE4B240
:1039D000042CE9D3FEF706FCFEF718FE3046FCF790
:1039E0007FFFD9E714ED00E050EF00E048656C6C14
:1039F0006F20576F726C642100000000CDCCCCCCDE
:103A0000CCDC5E40C4E3BAC3A3ACCAC0BDE7A1A38B
:103A100000000000524300085B253032645D000066
:103A2000594553004E4F2000000802580000000086
:103A3000000000000000000000000000000000F88E
:103A400000000000000000333000000000160E00EF
:103A5000160E0000000000000000000040C078408A
:103A6000C0784000043F04043F040400007088FC58
:103A700008300000001820FF211E0000F008F000B0
:103A8000E018000000211C031E211E0000F0088821
:103A9000700000001E2123241927211000000016A9
:103AA0000E0000000000000000000000000000E028
:103AB000180402000000000718204000000204184B
:103AC000E00000000040201807000000404080F0A7
:103AD000804040000202010F01020200000000F0DD
:103AE000000000000101011F0101010000000000B1
:103AF0000000000000B070000000000000000000A6
:103B000000000000000101010101010100000000AE
:103B10000000000000303000000000000000000045
:103B200080601804006018060100000000E0100822
:103B30000810E000000F102020100F00001010F8F7
:103B4000000000000020203F202000000070080836
:103B500008887000003028242221300000300888B6
:103B6000884830000018202020110E000000C020DE
:103B700010F8000000070424243F240000F80888FF
:103B8000880808000019212020110E0000E010888C
:103B900088180000000F112020110E0000380808BE
:103BA000C83808000000003F0000000000708808CE
:103BB00008887000001C222121221C0000E010084F
:103BC0000810E0000000312222110F00000000C0A8
:103BD000C00000000000003030000000000000C005
:103BE000C0000000000080B07000000000008040B5
:103BF000201008000001020408102000404040404E
:103C000040404000040404040404040000081020A0
:103C100040800000002010080402010000704808E5
:103C20000808F0000000003036010000C030C8284D
:103C3000E810E0000718272423140B000000C03808
:103C4000E0000000203C23020227382008F8888882
:103C500088700000203F202020110E00C03008088E
:103C600008083800071820202010080008F8080865
:103C70000810E000203F202020100F0008F888885E
:103C8000E8081000203F20202320180008F888882A
:103C9000E8081000203F200003000000C0300808A2
:103CA0000838000007182020221E020008F808002B
:103CB0000008F808203F210101213F20000808F8F2
:103CC000080800000020203F202000000000080815
:103CD000F8080800C08080807F00000008F888C0D5
:103CE00028180800203F20012638200008F8080086
:103CF00000000000203F20202020300008F8F800BD
:103D0000F8F80800203F003F003F200008F830C0CE
:103D10000008F808203F200007183F00E0100808BE
:103D20000810E0000F10202020100F0008F80808ED
:103D30000808F000203F210101010000E010080800
:103D40000810E0000F18242438504F0008F8888825
:103D500088887000203F2000030C30200070880805
:103D6000080838000038202121221C00180808F813
:103D7000080818000000203F2000000008F8080094
:103D80000008F808001F202020201F000878880065
:103D900000C83808000007380E010000F80800F8D5
:103DA0000008F800033C0700073C0300081868807F
:103DB0008068180820302C03032C30200838C800F5
:103DC000C83808000000203F200000001008080844
:103DD000C83808002038262120201800000000FEE6
:103DE000020202000000007F40404000000C30C092
:103DF00000000000000000010638C00000020202BE
:103E0000FE000000004040407F000000002010083D
:103E10000408102000000000000000000000000066
:103E20000000000080808080808080800002040884
:103E30000000000000000000000000000000808082
:103E4000808000000019242222223F2008F80080F0
:103E500080000000003F112020110E0000000080B3
:103E600080800000000E1120202011000000008042
:103E70008088F800000E112020103F200000808074
:103E800080800000001F222222221300008080F088
:103E9000888888180020203F2020000000008080B3
:103EA00080808000006B94949493600008F80080F8
:103EB00080800000203F210000203F200080989853
:103EC000000000000020203F2020000000000080B3
:103ED0009898000000C08080807F000008F80000F3
:103EE00080808000203F24022D302000000808F848
:103EF000000000000020203F202000008080808003
:103F000080808000203F20003F20003F0080800014
:103F10008080000000203F2100203F2000008080A2
:103F200080800000001F202020201F008080008053
:103F30008000000080FFA12020110E000000008002
:103F400080808000000E112020A0FF8080808000F3
:103F50008080800020203F21200001000000808020
:103F6000808080000033242424241900008080E015
:103F7000808000000000001F2020000080800000E2
:103F800000808000001F202020103F2080808000C3
:103F90000080808000010E300806010080800080D3
:103FA000008080800F300C030C300F0000808000F8
:103FB000808080000020312E0E3120008080800023
:103FC0000080808080818E701806010000808080D3
:103FD000808080000021302C222130000000000071
:103FE000807C020200000000003F40400000000012
:103FF000FF00000000000000FF0000000002027C43
:10400000800000000040403F000000000080404071
:10401000800000800000000000010100000000009E
:1040200000000000002F000000000700070000143F
:104030007F147F1400242A7F2A120023130864624D
:1040400000364955225000000007000000001C22E5
:104050004100000041221C000014083E0814000822
:10406000083E0808000000A06000000808080808D2
:10407000000060600000002010080402003E51496A
:10408000453E0000427F4000004261514946002108
:1040900041454B31001814127F1000274545453922
:1040A000003C4A494930000171090503003649497D
:1040B000493600064949291E000036360000000036
:1040C0005636000000081422410000141414141481
:1040D000000041221408000201510906003E495522
:1040E000592E007C1211127C007F49494936003E4E
:1040F00041414122007F4141221C007F4949494101
:10410000007F09090901003E4149497A007F0808FA
:10411000087F0000417F4100002040413F01007FB7
:1041200008142241007F40404040007F020C027F83
:10413000007F0408107F003E4141413E007F090995
:104140000906003E4151215E007F091929460046BB
:10415000494949310001017F0101003F4040403F92
:10416000001F2040201F003F4038403F00631408DC
:1041700014630007087008070061514945430000B7
:104180007F414100000204081020000041417F00EF
:1041900000040201020400404040404000000102CF
:1041A0000400002054545478007F484444380038B8
:1041B0004444442000384444487F00385454541840
:1041C00000087E0901020018A4A4A47C007F080452
:1041D00004780000447D4000004080847D00007F22
:1041E000102844000000417F4000007C041804783F
:1041F000007C0804047800384444443800FC24243B
:1042000024180018242418FC007C08040408004822
:104210005454542000043F444020003C4040207C43
:10422000001C2040201C003C4030403C0044281032
:104230002844001CA0A0A07C004464544C4400000E
:10424000087F41000000007F00000000417F08005F
:10425000000804081008EFBC8C00000000000000FB
:1042600000000000000000000000000058380000BE
:1042700000000000000000000000E3808200000059
:10428000000000000000000000000000000000002E
:104290001824241800000000000000000000E4BD05
:1042A000A000008060F8074020180F08C808082800
:1042B0001800010000FF00100C0340807F00010681
:1042C0001800E5A5BD001010F01F10F000808282DC
:1042D000E2928A8680004022150816610000408024
:1042E0007F0000000000E4B89600202020FE20207F
:1042F000FF202020FF20202020000000007F4040E1
:1043000047444444474040400000E7958C0000008B
:1043100000FE929292FE929292FE00000000080827
:104320000484621E010001FE02040408080000006B
:104330000000FF0101013109090909897101010129
:1043400001FFFF80808080808096818080808080D7
:1043500080FFFF01818181FD8991A1C1FD81818162
:1043600001FFFF808080809F888482819F80808081
:1043700080FF00000000010203040102030406079D
:1043800008090000000000004FBB610567ACDD3F7D
:10439000182D4454FB21E93F9BF681D20B73EF3F6C
:1043A000182D4454FB21F93FE2652F227F2B7A3CE4
:1043B000075C143326A6813CBDCBF07A8807703C9D
:1043C000075C143326A6913CC4EB98999999C9BF10
:1043D000711623FEC671BCBF6D9A74AFF2B0B3BF45
:1043E0009AFDDE522DDEADBF2F6C6A2C44B4A2BF05
:1043F0000D5555555555D53FFF8300922449C23F71
:104400006E204CC5CD45B73F513DD0A0660DB13FA4
:10441000EB0D76244B7BA93F11DA22E33AAD903FB6
:1044200000000000000000004844000800000024D4
:1044300018000000782E00086044000818000024CE
:1044400000080000882E0008010000001000000095
:10445000000000000090D0030090D0030000000096
:040000050800029954
:00000001FF
