:020000040800F2
:10000000E8040024B10200081B2300086122000854
:1000100019230008E9030008292E00080000000049
:100020000000000000000000000000001126000891
:10003000EB030008000000001D2300081326000841
:10004000CB020008CB020008CB020008CB0200085C
:10005000CB020008CB020008CB020008CB0200084C
:10006000CB020008CB020008CB020008CB0200083C
:10007000CB020008CB020008CB020008CB0200082C
:10008000CB020008CB020008CB020008CB0200081C
:10009000CB020008CB020008CB020008CB0200080C
:1000A000CB020008CB020008CB020008CB020008FC
:1000B000CB020008CB020008CB020008CB020008EC
:1000C000CB020008CB020008CB020008CB020008DC
:1000D000CB020008CB020008CB020008CB020008CC
:1000E000CB020008CB02000800000000CB02000891
:1000F000CB020008CB020008CB020008CB020008AC
:10010000CB020008CB020008CB020008CB0200089B
:10011000CB020008CB020008CB020008CB0200088B
:10012000CB020008CB020008CB020008CB0200087B
:10013000CB020008CB020008CB020008CB0200086B
:1001400000000000000000000000000000000000AF
:10015000CB020008CB020008CB020008CB0200084B
:10016000CB020008CB020008CB020008CB0200083B
:10017000CB020008CB020008CB020008CB0200082B
:10018000CB020008CB020008CB020008CB0200081B
:10019000CB020008CB020008CB020008CB0200080B
:1001A000CB020008CB020008CB020008CB020008FB
:1001B000CB020008CB020008CB020008CB020008EB
:1001C000CB020008CB020008CB020008CB020008DB
:1001D000CB020008CB020008CB020008CB020008CB
:1001E000CB020008CB020008CB020008CB020008BB
:1001F000CB020008CB020008CB020008CB020008AB
:10020000CB020008CB020008CB020008CB0200089A
:10021000CB020008CB020008CB020008CB0200088A
:10022000CB020008CB020008CB020008000000004F
:10023000CB020008CB02000800000000CB0200083F
:10024000CB020008CB020008CB020008CB0200085A
:10025000CB020008CB020008CB020008CB0200084A
:10026000CB020008CB020008CB020008CB0200083A
:10027000CB020008CB020008CB02000800000000FF
:10028000CB020008CB020008CB02000800000000EF
:1002900000000000CB020008DFF810D000F092F858
:1002A00000480047F92F0008AFF30080E80400245D
:1002B0000648804706480047FEE7FEE7FEE7FEE700
:1002C000FEE7FEE7FEE7FEE7FEE7FEE70927000898
:1002D000990200082DE9F05F0546002092469B46F2
:1002E00088460646814640241BE02846414647464C
:1002F000224600F057F853465A46C01A914110D38F
:1003000011461846224600F03EF82D1A67EB010808
:100310004F4622460120002100F035F817EB000976
:100320004E41201EA4F10104DFDC484631462A4636
:100330004346BDE8F09FD2B201E000F8012B491E10
:10034000FBD270470022F6E710B513460A46044672
:100350001946FFF7F0FF204610BD30B50B460146A9
:1003600000202022012409E021FA02F59D4205D354
:1003700003FA02F5491B04FA02F52844151EA2F1FE
:100380000102F1DC30BD202A04DB203A00FA02F140
:10039000002070479140C2F1200320FA03F3194373
:1003A00090407047202A04DB203A21FA02F0002115
:1003B000704721FA02F3D040C2F120029140084375
:1003C00019467047064C074D06E0E06840F001030F
:1003D00094E8070098471034AC42F6D3FFF760FF6B
:1003E000B8310008D8310008FEE7704772B6FEE762
:1003F00070B5044600F038F90546601C02D0044888
:100400000078044400F030F9401BA042FAD370BDDC
:10041000040000242DE9F84F03247D4D00234FF004
:1004200001094FF0B04B4FF00F0AE9E009FA03F76A
:100430003A4076D00E7906F00306012E01D0022E46
:1004400018D1D0F808C04FEA430ECE6804FA0EF86F
:100450002CEA080C06FA0EF646EA0C068660D0F87E
:1004600004C00E792CEA070CC6F300169E4046EA3B
:100470000C0646600E79F643B6070BD0C6684FEA05
:1004800043088F6804FA08FC26EA0C0607FA08F706
:100490003743C7600E7906F00306022E12D1DE083C
:1004A0000F694FEA437C00EB8606B646366A4FEA90
:1004B000DC6C0AFA0CF807FA0CF726EA0806374350
:1004C000CEF820700F7906684FEA430807F003075B
:1004D00004FA08FC07FA08F726EA0C063743076017
:1004E0004E6816F4403F1CD04A4E376847F002076A
:1004F000376036689F0706F00206009623F0030671
:1005000006F1B046B6463F0FD6F80864DFF808811A
:100510000AFA07FC404526EA0C0603D14FF0000C0E
:1005200041E06CE0DFF8F4C0604502D14FF0010C0F
:1005300039E0DFF8ECC0604502D14FF0020C32E048
:10054000DFF8E0C0604502D14FF0030C2BE0DFF88C
:10055000D8C0604502D14FF0040C24E0DFF8CCC0D5
:10056000604502D14FF0050C1DE0DFF8C4C06045C6
:1005700002D14FF0060C16E0DFF8B8C0604502D19A
:100580004FF0070C0FE0DFF8B0C0604502D14FF02C
:10059000080C08E0DFF8A4C0604502D14FF0090C58
:1005A00001E04FF00A0C0CFA07FC4CEA060CCEF8FE
:1005B00008C44F68DBF80060FF0226EA020600D597
:1005C00016435F46CBF80060D1F804C0DBF8046046
:1005D0005FEA8C2C26EA020600D516437E606E6820
:1005E0004F6826EA0206BF0300D516436E602E68E8
:1005F0004F6826EA0206FF0300D516432E605B1CF7
:100600000A6832FA03F67FF411AFBDE8F88F0000F4
:1006100080000058F44402580000025800040258B8
:1006200000080258000C025800100258001402582A
:1006300000180258001C02580020025800240258DA
:10064000426921EA02030A4043EA0241816170479C
:100650000AB1816170470904FBE7000001480068A6
:10066000000C70470010005C014880687047000073
:1006700004000024024881680278114481607047B8
:1006800004000024032010B500F078F801F05AF8B7
:100690000F4A104914681368C4F3032203F00F03D0
:1006A0008A5CC95C02F01F0201F01F01D0400A4AB7
:1006B00020FA01F11160094908600F2000F010F8DC
:1006C00008B1012010BD00F02BF8002010BD000083
:1006D00018440258A8310008140000241000002417
:1006E00070B50D4D04462878A0B14FF47A71B1FB76
:1006F000F0F00A490968B1FBF0F001F05FFC48B97D
:10070000102C07D200222146501E00F017F80020BE
:100710006C6070BD012070BD040000241000002436
:10072000054808B5016841F002010160006800F069
:100730000200009008BD0000F44402580E4BF0B4D3
:100740001B680D46C3F30223C3F10706042E00D92C
:100750000426191D072901D2002300E0DB1E012415
:1007600004FA06F19C40491E2940641E9940144039
:100770002143F0BC02F06ABB0CED00E0064900F03A
:10078000070210B54FF6FF040868044B204040EA0A
:1007900002201843086010BD0CED00E00000FA05CF
:1007A000134970B50A68D243520705D5096801F0AC
:1007B0000701814213D118E00A6822F007020243C0
:1007C0000A60FFF751FF0A4D4FF47A760446083D60
:1007D00007E000BFFFF748FF001BB04201D901202E
:1007E00070BD2868C0438004F4D4002070BD0000B0
:1007F0000C4802580248016841F48071016070475A
:100800000048025810B500F057FF05490968054A2D
:10081000C1F30211515C01F01F01C84010BD00007E
:1008200020440258A8310008494930B5484C0B1DF6
:100830000A68143409681D68246802F00303C5F3CC
:100840000012C1F30531C4F3CC04002914FB02F2F9
:1008500000EE102AF8EE400A75D03F4A9FED3D1A8F
:10086000B7EE000A6BB1DFED3D1A012B01D0022B70
:1008700064D002EE101A1168F8EE422A81EEA22A24
:1008800021E0334C283C23689B0612D5344B246866
:1008900001EE901A1168C4F3C104F8EE612AE34036
:1008A00001EE903AC1F30801F8EE611A81EEA22A36
:1008B0000BE001EE901ADFED2B2A00BFF8EE611A73
:1008C000116882EEA12AC1F3080101EE901A1168A5
:1008D000F8EE611A40EE811A71EE800A62EE200A8B
:1008E000C1F3462101EE101AB8EE411A31EE001A9A
:1008F000C0EE811ABCEEE11A80ED001A1168C1F356
:10090000064101EE101AB8EE411A31EE001AC0EE9F
:10091000811ABCEEE11A80ED011A1168C1F306617B
:1009200001EE101AB8EE411A31EE000A80EE801A7C
:10093000BCEEC10A80ED020A30BD04E001EE901A5F
:10094000DFED092ABAE70021016041608160F3E729
:100950002844025800000039384402580024744AE0
:100960000090D0030024744C20BCBE4B494930B5E4
:10097000484C0B1D0A681C3409681D68246802F085
:100980000303C5F30022C1F30551C4F3CC040029CD
:1009900014FB02F200EE102AF8EE400A75D03F4A2E
:1009A0009FED3D1AB7EE000A6BB1DFED3D1A012B4A
:1009B00001D0022B64D002EE101A1168F8EE422A20
:1009C00081EEA22A21E0334C283C23689B0612D5F5
:1009D000344B246801EE901A1168C4F3C104F8EE98
:1009E000612AE34001EE903AC1F30801F8EE611A82
:1009F00081EEA22A0BE001EE901ADFED2B2A00BF58
:100A0000F8EE611A116882EEA12AC1F3080101EE25
:100A1000901A1168F8EE611A40EE811A71EE800AA0
:100A200062EE200AC1F3462101EE101AB8EE411A17
:100A300031EE001AC0EE811ABCEEE11A80ED001A08
:100A40001168C1F3064101EE101AB8EE411A31EEF9
:100A5000001AC0EE811ABCEEE11A80ED011A11688D
:100A6000C1F3066101EE101AB8EE411A31EE000A28
:100A700080EE801ABCEEC10A80ED020A30BD04E0AF
:100A800001EE901ADFED092ABAE70021016041600A
:100A90008160F3E7284402580000003940440258BE
:100AA0000024744A0090D0030024744C20BCBE4B38
:100AB0002DE9FE4F0546DFF8E48350F8081B0024BB
:100AC000F64FC943019005F12800264608F1240895
:100AD000009008011DD4A86E50B1B0F5801F0CD055
:100AE000B0F5001F0ED0B0F5401F1ED001240FE05E
:100AF000386840F40030386017E00198022101F0B6
:100B00000FFC03E00098022101F09AFC04000CD0D5
:100B100026462888C043C00523D4A86D05281ED2C8
:100B2000DFE800F00C11161B1B00AA6ED8F80010AD
:100B300021F440111143C8F80010EAE7386840F486
:100B40000030386009E00198002101F0E9FB03E082
:100B50000098002101F074FC044674B100E0012407
:100B600026462888C043800528D4E86D80281ED0FA
:100B70000CDC90B140280ED114E0AA6DD8F800101A
:100B800021F007011143C8F80010EAE7C02813D08C
:100B9000B0F5807F10D001240FE0386840F40030B9
:100BA000386009E00198002101F0BAFB03E00098E9
:100BB000002101F045FC04469CB126462888DFF858
:100BC000DC92C04309F12C0940052CD4D5F8A800CB
:100BD000B0F5800F20D00DDCA0B1B0F5001F0FD113
:100BE00015E0EA6DD8F8001021F4E0711143C8F85F
:100BF0000010E3E7B0F5C00F13D0B0F5000F10D030
:100C000001240FE0386840F40030386009E00198B2
:100C1000002101F085FB03E00098002101F010FCA9
:100C200004467CB126462888C04300052DD4D5F85B
:100C3000AC00B0F1007F21D00EDCA8B1B0F1807F14
:100C400010D116E0D5F8A820D9F8001021F46001E1
:100C50001143C9F80010E6E7B0F1407F13D0B0F1BE
:100C6000806F10D001240FE0386840F40030386005
:100C700009E00198002101F053FB03E000980021F6
:100C800001F0DEFB044674B126462868C0438001AB
:100C90001FD4E86CD8B110280FD0202812D03028EB
:100CA00015D0012414E0D5F8AC20D9F8001021F0BB
:100CB000E0611143C9F80010E7E7386840F40030FC
:100CC000386004E00198022101F02AFB044674B167
:100CD00026462888C043C0042BD4286EB0F5005F98
:100CE00020D00DDCA0B1B0F5805F0FD115E06B48CE
:100CF000EA6C2030016821F0300111430160E8E71F
:100D0000B0F5405F13D0B0F5804F10D001240FE054
:100D1000386840F40030386009E00198002101F0A3
:100D2000FFFA03E00098002101F08AFB04468CB131
:100D300026462888C043800429D4686EB0F5403F19
:100D400023D010DC08B3B0F5803F14D0B0F5003FDD
:100D50000FD115E02A6ED8F8001021F4E0411143BC
:100D6000C8F80010E5E7B0F5802F0ED0B0F5A02F41
:100D70000BD001240AE00198012101F0D1FA03E02F
:100D80000098012101F05CFB044694B126462888B6
:100D9000C04340042AD4D5F8B000B0F1405F23D05E
:100DA00010DC08B3B0F1805F14D0B0F1005F0FD158
:100DB00015E06A6ED8F8001021F4E0211143C8F85C
:100DC0000010E4E7B0F1804F0ED0B0F1A04F0BD08F
:100DD00001240AE00198012101F0A2FA03E0009841
:100DE000012101F02DFB044674B126462888C0433A
:100DF00000041FD4286FD8B1B0F1805F0ED0B0F1DD
:100E0000005F10D0012414E0D5F8B020D9F800100C
:100E100021F0E0411143C9F80010E7E7386840F4D9
:100E20000030386004E00198012101F079FA0446AD
:100E300074B126462868C043C0011ED4A86CD0B146
:100E400001280ED0022811D0032814D0012413E069
:100E50002A6FD8F8001021F040511143C8F8001053
:100E6000E8E7386840F40030386004E00198022177
:100E700001F056FA0446ACB126462868DFF81CB0EB
:100E8000C043ABF11C0B400252D40548016841F449
:100E900080710160FFF7E8FB824611E02C440258A4
:100EA00000480258FA48AA6C016821F00301114376
:100EB0000160E2E7FFF7D8FBA0EB0A00642835D811
:100EC000F4480068C005F5D58CBBDFF8C4A3B5F8BD
:100ED000B4100AF1240ADAF8000001F4407100F4B9
:100EE0004070884211D0DAF80010DAF8002021F4BE
:100EF000407142F48032CAF80020DAF8002022F46F
:100F00008032CAF80020CAF80010D5F8B400B0F555
:100F1000807F1AD1FFF7A8FB029012E0FFF7A4FB35
:100F20000299411A41F2883081420AD903242646A7
:100F30002878DFF85CA3C0430AF1080AC00721D073
:100F40003CE0DAF800008007E8D5D5F8B410C1F32A
:100F50000120032858460DD0016821F47C5101601E
:100F6000B5F8B420DAF80010C2F30B021143CAF846
:100F70000010DDE7C84A036802EA111223F47C512D
:100F80001143ECE7E86F182816D005DCA0B108285B
:100F900008D0102804D10AE020280DD028280BD032
:100FA00001240AE00198012101F0BAF903E0009858
:100FB000012101F045FA044664B126462878C04371
:100FC00080071ED4A86F062819D2DFE800F0160C9F
:100FD00011161616EA6FDAF8001021F038011143E5
:100FE000CAF80010EAE70198012101F099F903E03D
:100FF0000098012101F024FA04467CB100E00124AC
:1010000026462878C04340071FD4D5F89400062808
:1010100019D2DFE800F0160C11161616AA6FDAF8CE
:10102000001021F007011143CAF80010E9E7019808
:10103000012101F075F903E00098012101F000FAA7
:101040000446A4B100E0012426462878C043800667
:101050002BD4D5F89000B0F1405F24D011DC10B350
:10106000B0F1805F15D0B0F1005F10D116E0D5F877
:101070009420D9F8001021F007011143C9F800109D
:10108000E3E7B0F1804F0ED0B0F1A04F0BD00124B8
:101090000AE00198002101F043F903E000980221E1
:1010A00001F0CEF9044694B126462878C0434006A4
:1010B0002BD4D5F89C00B0F5406F24D011DC10B3D0
:1010C000B0F5806F15D0B0F5006F10D116E0D5F8EF
:1010D0009020DAF8001021F0E0411143CAF8001026
:1010E000E3E7B0F5805F0ED0B0F5A05F0BD0012430
:1010F0000AE00198002101F013F903E000980221B1
:1011000001F09EF9044694B126462878C0430006B3
:101110002BD4D5F8A000B0F5C04F24D011DC10B30B
:10112000B0F5005F15D0B0F5804F10D116E0D5F8BE
:101130009C20D9F8001021F4E0511143C9F80010A7
:10114000E3E7B0F5004F0ED0B0F5204F0BD00124EF
:101150000AE00198002101F0E3F803E00098022181
:1011600001F06EF9044654B126462878C0430007C2
:101170001ED4D5F88400B0F5805F0AD00FE0D5F812
:10118000A020D9F8001021F460411143C9F80010E3
:10119000EBE70098022101F053F900B10126D5F8E0
:1011A0008420DAF8001021F440511143CAF80010ED
:1011B0002878C043C00613D4D5F89800B0F5807FD6
:1011C00005D10098022101F03BF900B10126D5F8C4
:1011D0009820D9F8001021F440711143C9F800108B
:1011E0002868C043000316D4D5F8A40038B1B0F580
:1011F000803F09D0B0F5003F0BD001240AE00198F0
:10120000002101F08DF803E00098022101F018F9A7
:1012100004468CB126462868C043400322D4D5F842
:101220008800B0F5801F11D0B0F5001F13D0B0F5C5
:10123000401F15D0012414E0D5F8A420D9F80010DF
:1012400021F440311143C9F80010E4E7386840F454
:101250000030386004E00098012101F0F1F8044604
:101260005CB126462868C043C00323D4286DA8B1CA
:10127000B0F5803F17D001241BE0D5F88820DAF8BC
:10128000001021F440111143CAF80010EAE70000F1
:101290004C44025800480258CFFFFF00386840F421
:1012A0000030386004E00198022101F039F804466A
:1012B000E4B126462868C043800005D40098022186
:1012C00001F0BEF800B101262868C04380031BD49A
:1012D000D5F88000B0B1B0F5807F0FD0B0F5007FB9
:1012E00010D0B0F5407F0DD001240CE05A482A6D93
:1012F000016821F4803111430160DBE7386840F474
:1013000000303860ECB326462868C043C00207D4DA
:101310006A6FD8F8001021F000411143C8F800109E
:101320002868C043C00008D4D5F8B820DBF8001006
:1013300021F480411143CBF800102868C04380029B
:1013400007D4EA6ED8F8001021F080711143C8F874
:1013500000102868C04340000CD4DBF8001021F4D2
:101360000041CBF80010DBF80010D5F8BC20114389
:10137000CBF800102868C04308D437486A6D01686C
:1013800000E018E021F04051114301602868C0439B
:10139000000208D4D5F88C20DAF8001021F44001BE
:1013A0001143CAF8001028790024C04300F001005E
:1013B00020430AD00FE0D5F88020DAF8001021F49D
:1013C00040711143CAF800109EE70198002100F017
:1013D000A7FF00B106462879C04300F00200204371
:1013E00005D10198012100F09BFF00B10646287944
:1013F000C04300F00400204305D10198022100F011
:101400008FFF00B106462879C04300F00800204352
:1014100005D10098002101F013F800B106462879A3
:10142000C04300F01000204305D10098012101F0D5
:1014300007F800B106462879C04300F020000443B5
:1014400004D10098022100F0FBFF00B916B1012081
:10145000BDE8FE8F0020FBE74C4402582DE9F05F09
:1014600004000F467ED0DFF83882D8F8000000F084
:101470000F00B8420CD2D8F8001021F00F01394308
:10148000C8F80010D8F8000000F00F00B84269D189
:101490002078844D40070AD52069296801F0700141
:1014A000884204D9296821F070010143296020781D
:1014B0007C4E361D00070AD56069316801F0700165
:1014C000884204D9316821F07001014331602078ED
:1014D000C0060AD5A069316801F4E061884204D9E8
:1014E000316821F4E061014331602078DFF8B4B164
:1014F00080060BF1080B0CD5E1695846DBF800209B
:1015000002F07002914204D9026822F070020A438C
:101510000260207880070AD5E068296801F00F0191
:10152000884204D9296821F00F01014329602078FD
:10153000C0073ED05B49A2682868183920F4706063
:10154000104328606068022818D0032819D0096861
:10155000012819D0490700294ADADFF848A1AAF181
:10156000080A00E044E0DAF8002022F00702024313
:10157000CAF80020FFF778F8814612E0096889036D
:10158000E9E709688901E6E7C905E4E7FFF76CF8D0
:10159000A0EB090141F28830814202D90320BDE865
:1015A000F09F6168DAF8000000F03800B0EBC10F7E
:1015B000ECD1207880070AD5E068296801F00F0196
:1015C000884204D2296821F00F0101432960D8F82C
:1015D0000010404601F00F01B9420BD9016821F01B
:1015E0000F0139430160006800F00F00B84201D0DC
:1015F0000120D4E7207840070AD52069296801F046
:101600007001884204D2296821F0700101432960E9
:10161000207800070AD56069316801F070018842BE
:1016200004D2316821F07001014331602078C00696
:101630000AD5A069316801F4E061884204D23168BA
:1016400021F4E06101433160207880060CD5E16926
:101650005846DBF8002002F07002914204D2026882
:1016600022F070020A43026000F06CF80E492A680A
:101670002B68C2F3032203F00F038A5CC95C02F0FB
:101680001F0201F01F01D040084A20FA01F1116049
:101690000749086007480068BDE8F05FFFF720B819
:1016A0000020005218440258A831000814000024F9
:1016B000100000240800002430B500F043F80B4A65
:1016C0000B490C4B15681468C5F3032204F00F0492
:1016D0008A5C095D02F01F0201F01F01D040064A3A
:1016E00020FA01F119601060084630BD1844025814
:1016F000A8310008140000241000002400B5FFF7F2
:10170000DBFF05490968054AC1F30211515C01F08C
:101710001F01C84000BD00001C440258A831000849
:1017200000B5FFF7C9FF05490968054AC1F3022161
:10173000515C01F01F01C84000BD00001C4402586C
:10174000A8310008454970B545480968434B103B2E
:1017500011F0380208D00111082A03D0102A0BD04A
:10176000182A0BD0084670BD19688906FBD5196880
:10177000C1F3C101C84070BD3A4870BD3749374D0B
:1017800018310C1D24350A68096826682D6802F096
:10179000030406F00102C1F30511C5F3CC0515FBE6
:1017A00002F200EE102AB8EE400AE9B32F4ADFED4C
:1017B0002E0AB7EE001A6CB1DFED2D1A012C01D004
:1017C000022C43D002EE101A1068F8EE422A81EE85
:1017D000A22A1EE01C68A40611D51B6801EE901A0F
:1017E0001168C3F3C103F8EE612AD84001EE900AF4
:1017F000C1F30800F8EE611A81EEA22A0BE001EEB7
:10180000901ADFED1C2A00BFF8EE611A106882EE14
:10181000A12AC0F3080001EE900AF8EE611A40EE2A
:10182000201A31EE810A00E015E022EE000A10686D
:10183000C0F34620401C00EE900AF8EE600A80EEED
:10184000201ABCEEC10A10EE100A70BD01EE901A0B
:10185000DFED092AD8E7002070BD000010440258CF
:101860000090D00340787D010000003930440258D8
:101870000024744A0024744C20BCBE4B2DE9F05F58
:1018800004007DD0FF4F2078FE4D1837DFF8F49329
:10189000103DC00748D0D9F80000396800F0380082
:1018A000102815D0182803D101F0030002280FD00A
:1018B0006068B0F5803F12D010B1B0F5A02F18D0FD
:1018C000286820F480302860286820F4802009E00F
:1018D0002868800328D560680028D2D024E02868D2
:1018E00040F480302860606888B1FEF7BDFE06468F
:1018F00009E0286840F480202860F0E7FEF7B4FE95
:10190000801B64286FD828688003F7D50CE0FEF7A9
:10191000ABFE064605E000BFFEF7A6FE801B64286E
:10192000F0D828688003F7D4207841F20308D54E18
:101930000C3E800769D5D9F80000396810F03800EE
:101940000ED0182801D188070AD0E06890B3296822
:1019500021F0190101432960FEF786FE824631E03D
:101960002868400702D5E06800288AD0E168286826
:1019700020F0190008432860FEF776FE824607E053
:10198000DFE000BFFEF770FEA0EB0A000228B9D826
:1019900028684007F6D500BFFEF760FE40451BD81B
:1019A0002069402812D0316821F47C3141EA0030AE
:1019B00030602AE018E000BFFEF756FEA0EB0A00F8
:1019C00002289FD828684007F6D5E5E7306820F45C
:1019D0007C3040F40030EBE7207C316821F0FE41A0
:1019E00041EA0060E4E70DE1286820F0010028608A
:1019F000FEF73AFE824605E0FEF736FEA0EB0A004F
:101A000002288DD828684007F6D42078C0065DD516
:101A1000D9F80000DFF86CB2396800F03800ABF19B
:101A2000040B082810D0182803D101F00300012866
:101A30000AD0E0690028286838D040F0800028608B
:101A4000FEF712FE824623E02868C00523D5E06930
:101A5000802876D11FE0206A202821D0316821F02B
:101A6000F84141EA8060306030E000BF94F8201017
:101A7000DBF8002022F07C5242EA0161CBF8001032
:101A800024E000BFFEF7F0FDA0EB0A00022898D882
:101A90002868C005F6D5FEF7E1FD4045E6D8DAE74F
:101AA000306820F0F84040F08040DCE720F0800013
:101AB0002860FEF7D9FD064605E000BFFEF7D4FD1D
:101AC000801B02289DD82868C005F7D4207800071D
:101AD00029D56C486169643000298046016811D0BD
:101AE00041F001010160FEF7BFFD064605E000BFC1
:101AF000FEF7BAFD801B0228C9D8D8F8000080077D
:101B0000F6D510E021F001010160FEF7ADFD0646BB
:101B100005E000BFFEF7A8FD801B022872D8D8F8A8
:101B200000008007F6D42078800623D5A06900281D
:101B3000286810D040F480502860FEF795FD0646D6
:101B400005E036E1FEF790FD801B02285AD8286890
:101B50008004F7D50EE020F480502860FEF784FD65
:101B6000064604E0FEF780FD801B02284AD828685C
:101B70008004F7D4207840074FD5DFF80C81D8F8DF
:101B8000001041F48071C8F80010FEF76DFD0646A4
:101B900005E000BFFEF768FD801B642832D8D8F846
:101BA0000000C005F6D5374EA068603601280AD07F
:101BB00008B1052813D0306820F00100306030688B
:101BC00020F0040002E0306840F001003060A068BE
:101BD00041F2883A90B1FEF747FD80460AE030684E
:101BE00040F004003060EEE7FEF73EFDA0EB080198
:101BF000514507D830688007F6D50EE0FEF734FD72
:101C0000804607E084E000BFFEF72EFDA0EB080150
:101C100051457DD830688007F6D4606AB0B3DFF8EC
:101C20006480D9F8001008F120084FF6F87B08F11D
:101C30000409C1F3C2010329A8F1040A69D00228EA
:101C4000286820F08070286003D0FEF70DFD044660
:101C500084E0FEF709FD064605E000BFFEF704FD3F
:101C6000801B022877D828688001F7D4E26A40F206
:101C7000F331386854F8283F884340EA021018438B
:101C8000386004E01044025800480258B5E0217B57
:101C9000434622894FF4FE0C208A4FF0FE4749024A
:101CA000267D521E401EA1F50071C2F308088AB2BB
:101CB000761E0CEA004042EA08020243504607EA58
:101CC00006610A431A60DAF8002022F00102CAF81D
:101CD0000020D9F80020266A22EA0B0242EAC60256
:101CE000C9F80020DAF80010A26921F00C011143B4
:101CF000CAF800100168E26921F002011143016095
:101D0000016841F480310160016841F4003101E073
:101D100021E027E00160016841F480210160016851
:101D200041F001010160286840F080702860FEF7F2
:101D30009BFC044605E000BFFEF796FC001B022852
:101D400009D828688001F7D557E000BFFEF78CFC62
:101D5000001B022802D90320BDE8F09F28688001FB
:101D6000F4D44AE039680128D8F8000021D0A26AEA
:101D700001F0030393421CD1E26AC1F305118A42C8
:101D800017D1216BC0F30802491E8A4211D1616B41
:101D9000C0F34622491E91420BD1A16BC0F306420B
:101DA000491E914205D1E16BC0F30660491E814294
:101DB00001D00120D0E7A16C4E46D9F80000C0F355
:101DC000CC00814219D0DAF80000554620F001001D
:101DD000CAF80000FEF748FC4FEA0007FEF744FC93
:101DE000B842FBD0A26C306820EA0B0040EAC20087
:101DF0003060286840F0010028600020ACE7000057
:101E000010B50B4601680F48002A496801EA000135
:101E100001F03F044FEA1140D870C1F304225A7018
:101E20009C70C1F3423119700AD100F099FBD8704F
:101E3000587800F095FB5870987800F091FB9870F6
:101E4000002010BD3FFFFF0010B50B460168134C8A
:101E5000002A896A596001680969C1F30E01996015
:101E60000068016801EA040101F07F04C1F3054044
:101E70001870C1F306225A709C704FEA9151D970C4
:101E80000AD100F06DFB1870587800F069FB5870AB
:101E9000987800F065FB9870002010BD7F7F7F0070
:101EA00070B504004FF0010041D094F8210028B92A
:101EB000002084F82000204600F042F8022084F838
:101EC00021002068C168C943C90631D5CA224262CF
:101ED000532120684162204600F04CFB18BB20686B
:101EE000164A816811408160D4E90003A56922691E
:101EF00081682A4319431143816022682189E0687F
:101F000040EA01401061204600F058FB58B92168B2
:101F1000CA6C22F00302CA6422686369E169D56C65
:101F200019432943D1642268FF21516208B170BD71
:101F30000020012184F8211070BD0000BFFF8FFF39
:101F400010B5B0B00446C0216846FEF7FBF90B4956
:101F50002068884210D1010200208A132D92CDE919
:101F600000106846FEF7A4FD08B1FEF73FFA0448EA
:101F7000016841F40041016030B010BD00400058DC
:101F80007044025870B5016804460B48C860FEF7FB
:101F90006BFB4FF47A76054607E000BFFEF764FB63
:101FA000401BB04201D9032070BD2068C068800684
:101FB000F4D5002070BD00005FFF0300401EB0F1AB
:101FC000807F10B501D3012010BD4FF0E024606187
:101FD0000F21601700F03AFF0020A0610721216166
:101FE00010BD30B590F88410012918D0012280F876
:101FF00084202421C0F888100022202401680B6866
:102000000D6823F0005325F001050D60426601685C
:102010000B60C0F8884080F88420104630BD022054
:1020200030BD70B5044690F8840001281DD001220F
:1020300084F884202420C4F8880020680568026899
:1020400022F0010202602068826822F060620A4386
:102050008260204600F0C6FB226820210020156027
:10206000C4F8881084F8840070BD022070BD70B57B
:10207000044690F8840001281DD0012284F88420B1
:102080002420C4F8880020680568026822F0010254
:1020900002602068826822F060420A438260204623
:1020A00000F0A0FB2268202100201560C4F88810F1
:1020B00084F8840070BD022070BD10B5040003D008
:1020C000D4F8880010B107E0012010BD002084F88A
:1020D0008400204600F026F82420C4F888002068F8
:1020E000016821F001010160204600F081FC012817
:1020F000EBD0A06A10B1204600F096FB2068416842
:1021000021F4904141602068816821F02A018160BA
:102110002068016841F0010101602046BDE81040DF
:1021200000F0E6BB10B5B6B00446142130A8FEF7A7
:1021300009F9C0216846FEF705F91A492068884266
:102140002DD100201F9001210446CDE900106846E2
:10215000FEF7AEFC08B1FEF749F91348016841F0FB
:1021600010010160006800F0100035900E48103832
:10217000016841F00101016000680DF1C00C02210D
:1021800000F0010035904FF4C06007238CE8130085
:1021900003220648CDE9332330A9FEF73BF936B0D8
:1021A00010BD000000100140F04402580000025829
:1021B0002DE9F8430446D0F88800984616460D46A7
:1021C000202802D00220BDE8F883A5B19EB10021ED
:1021D000C4F890102120C4F888001834FEF744FA9F
:1021E000814654F8100CA687E6872027183CB0F5E6
:1021F000805F02D003E00120E5E7206910B12E46A0
:10220000002510E000260EE08021204600F0C6FDEB
:10221000C0B9DEB116F8010B21688862B4F8560027
:10222000401EA4F85600B4F856004B464FF000028A
:10223000CDF800800028E7D14FF04001204600F0A3
:10224000ADFD48B1C4F888700320BCE735F8020B37
:102250002168C0F30800E0E7C4F888700020B2E706
:10226000FEE7000030B587B014216846FEF76AF833
:102270000E48016841F00401016000684FF4005409
:102280000B4D002200F00400214605902846FEF781
:10229000DFF9002100940120CDE9010128460391D6
:1022A0006946FEF7B7F807B030BD0000E0440258B9
:1022B000000802581748002110B5154C0C224FF4A5
:1022C000E1330460C0E90131C160C0E904128161F9
:1022D000C161016241628162FFF7EFFE08B172B62F
:1022E000FEE70C480021FFF7C2FE08B172B6FEE718
:1022F00008480021FFF795FE08B172B6FEE70548D1
:10230000FFF76FFE002801D072B6FEE710BD000097
:102310000010014040000024FEE7FEE77047000087
:102320002DE9F047454D044689464FF0000A2868DC
:10233000C04380070AD0414E283E306820F08060BC
:102340003060FEF791F90746B04608E00120BDE88D
:10235000F08700BFFEF788F9C01B022867D8D8F8BD
:1023600000000001F6D4206829684FF4FE0721F42C
:102370007C313E0241EA00302860207AA389B4F81B
:1023800004C040022D4D2D495B1E227CACF1010C96
:102390001035091DA0F5007080B2521ECCF3080C58
:1023A00007EA034340EA0C00184306EA02621043BE
:1023B00028600868626920F0C000104308600A685D
:1023C000A06922F0200202430A60281D0A6822F058
:1023D00010020A6002684FF6F873E4699A4342EA11
:1023E000C40202600868B9F1000F40F010020A60F0
:1023F00011D00868B9F1010F11D040F40010086045
:10240000D8F80000444640F08060C8F80000FEF7AD
:102410002BF905460DE0086840F40020EFE740F492
:102420008010ECE7FEF720F9401B022801D90320B9
:102430008DE720680001F5D5504688E7284402580A
:102440002DE9F047454D044689464FF0000A2868BB
:10245000C04380070AD0414E283E306820F08050AB
:102460003060FEF701F90746B04608E00120BDE8FC
:10247000F08700BFFEF7F8F8C01B022867D8D8F82D
:1024800000008000F6D4208829684FF4FE0721F070
:102490007C713E0241EA00502860207AA389B4F89A
:1024A00004C040022D4D2D495B1E227CACF1010C75
:1024B0001835091DA0F5007080B2521ECCF3080C2F
:1024C00007EA034340EA0C00184306EA026210439D
:1024D00028600868626920F44060104308600A6858
:1024E000A06922F4007202430A60281D0A6822F4DF
:1024F00080720A6002684FF6F873E4699A4342EA10
:10250000C40202600868B9F1000F40F480720A60EA
:1025100011D00868B9F1010F11D040F08070086047
:10252000D8F80000444640F08050C8F80000FEF79C
:102530009BF805460DE0086840F48000EFE740F4A2
:102540000000ECE7FEF790F8401B022801D90320B9
:102550008DE720688000F5D5504688E7284402586A
:10256000020900F00F0102EB820001EB4000C0B253
:10257000704700002DE9F041044600680025C1685D
:10258000490617D4691EC160FEF76EF80327064698
:102590004FF47A7808E000BFFEF766F8801B4045EC
:1025A00002D9032584F821702068C068400601D450
:1025B000032DF1D12846BDE8F08100002DE9F0415E
:1025C000124C032706460025E06820F04000E0603A
:1025D000A068800607D43046FFF7D4FC90B10325ED
:1025E00086F821700EE0A06820F02000A060304640
:1025F000FFF7C8FC10B1032586F82170A06840F0F1
:102600002000A0602846BDE8F0810000004000588E
:102610007047FEF72FB80000F0B59DB04C2168461A
:10262000FDF790FE202113A8FDF78CFE0220FEF797
:10263000B7F83249002432480A6822F001020A60E1
:102640000A68026842F440420260026802F44042B2
:102650001B9202689204FCD52A4A136843F00203D5
:102660001360126802F002021B92026842F44042B8
:10267000026002680A6842F001020A60096801F01B
:1026800001011B9101688904FCD5FEF7B3F8FDF741
:10269000E5FF1C49843905220B6802200825C60382
:1026A000012723F018030B600990C0218DE8C400B6
:1026B000CDE90A02CDE90C10CDE910540E900F902F
:1026C00068461294FFF7DAF808B172B6FEE74020C8
:1026D0001A903F210301CDE916500322CDE91803DA
:1026E00013AB13A883E816000421FEF7B7FE0028F9
:1026F00001D072B6FEE71DB0F0BD00002C040058FA
:1027000018480258F44402582C48F0B52C4A016885
:1027100041F470010160106800F00F00072804D236
:10272000106820F00F00C01D106026490020254CC5
:1027300010340B68244D43F001030B6020600B68DC
:102740002B400B60136803F00F03072B04D91368A9
:1027500023F00F03DB1D13601A4C1C4A18341C4B6A
:10276000261D371D2060174C1A4D28343060261D59
:102770003860371D23603B1D35601C1D3A60251DE8
:102780002E1D1860331D22602860326018600A68B0
:102790000C4B114C22F4802260330A6018602068D0
:1027A0006FF30F00B0F1005F03D20C490120C1F8B4
:1027B000080143F2D2000A490860F0BD88ED00E04C
:1027C00000200052004402587FEDF6EA8002010129
:1027D000000202020000FF010010005C00800051B6
:1027E0000040005230B5416EB9B101680D4B03F1A4
:1027F00008048A688968C2F34262490F5D5C615CC3
:102800002D01B5FBF1F1A0F86A10995CA25C0901F9
:10281000B1FBF2F1A0F8681030BD0121A0F86A10F8
:10282000F8E700009831000890F82810C90706D092
:102830000168C36A4A6822F400321A434A6090F879
:102840002810890706D50168036B4A6822F4803294
:102850001A434A6090F82810490706D50168436B6F
:102860004A6822F480221A434A6090F82810090727
:1028700006D50168836B4A6822F400421A434A6015
:1028800090F82810C90606D50168C36B8A6822F43F
:1028900080521A438A6090F82810890606D501688C
:1028A000036C8A6822F400521A438A6090F8281058
:1028B000490611D50168436C4A6822F480121A4314
:1028C0004A60416CB1F5801F06D10168836C4A688B
:1028D00022F4C0021A434A6090F82810090606D56F
:1028E0000168C26C486820F40020104348607047BB
:1028F0002DE9F84300250446C0F89050FDF7B4FEDA
:102900008046206820266FF07E470068000713D5B8
:102910000022434631042046009700F03FFA58B1A8
:10292000216851E8000F20F0800041E80002002AF1
:10293000F6D1C4F8886021E020680068400722D5FD
:10294000002243464FF480012046009700F026FA0B
:10295000C8B1206850E8001F21F4907140E80012CF
:10296000002AF6D12068083050E8001F21F001014C
:1029700040E80012002AF5D1C4F88C60032084F8E6
:102980008450BDE8F883C4F88860C4F88C60E566BC
:102990002567002084F88450F3E7000010B5026832
:1029A00052E8001F21F4907142E80013002BF6D189
:1029B0000E4B0268083252E8001F194042E800142A
:1029C000002CF6D1C16E012908D1026852E8001F1F
:1029D00021F0100142E80013002BF6D10021202243
:1029E000C0F88C20C166416710BD0000FEFFFFEFFC
:1029F0002DE9F04304468068D84E87B0D84B216853
:102A0000D4E90427D4F81CC010430A68002547EA1B
:102A10000C073843324002430A602068E26841688C
:102A200021F44051114341602268A1699A4201D0CA
:102A3000206A01439768DFF82CC3CB4ECB4807EAE6
:102A40000C070F4397602168676ACA6A22F00F0279
:102A50003A43CA622268B2420ED1006800F03800E0
:102A6000182873D047DCB8B3082879D010286FD164
:102A700078E028287ED17BE0BD498A4209D10068F0
:102A800000F00700062875D2DFE800F0546A6C6E8B
:102A90007072B8498A4209D1006800F00700062820
:102AA00068D2DFE800F0475D5F616365B2498A4242
:102AB00009D1006800F0070006285BD2DFE800F0CB
:102AC0003A5052545658AD498A420BD1006800F032
:102AD000070006284ED200E010E0DFE800F02B41AE
:102AE00043454749A6498A420AD1006800F03800A8
:102AF000182839D0B7DD2028BBD13CE001203AE0CE
:102B0000A0498A4209D1006800F00700062831D2A6
:102B1000DFE800F01026282A2C2E9B498A420BD190
:102B2000006800F00700062824D2DFE800F003194F
:102B30001B1D1F2100201EE09A421BD18B48001D47
:102B4000006800F00700062814D202E00CE007E05D
:102B500010E0DFE800F0030507090B0D02200AE092
:102B6000042008E0082006E0102004E0202002E015
:102B7000402000E080208549DFF814829A42854A8F
:102B80004FF400434FEA21174FF000064ED11028B2
:102B90001AD006DC022809D004280BD008287CD1E2
:102BA0000DE020283ED0402877D13DE0FDF72AFEF9
:102BB000014610E06846FDF737FE01990BE003A8D7
:102BC000FDF7D4FE049906E01068800605D510686C
:102BD000C0F3C100C140002970D0606A676838F84E
:102BE000102007EB4703B1FBF2F0834255D8B0EB5E
:102BF000073F52D8002308461946FDF76BFB0246F3
:102C00007808130E120243EA012110183A46714166
:102C10000023FDF75FFB604AA0F5407191423CD86C
:102C200021688FE03946D8E71946D6E7D4F81CC0AA
:102C30004FF6EF799C4546D1082819D005DC58B1EC
:102C400001280CD0042875D10DE0102815D02028BB
:102C500035D040286ED134E0FEF750FD01E0FEF79C
:102C60005FFD014610E06846FDF7DEFD01990BE0CF
:102C700003A8FDF77BFE049906E01068800604D5E2
:102C80001068C0F3C100C140C1B1636A606838F820
:102C90001330B1FBF3F1490000E04BE001EB5001D0
:102CA000B1FBF0F0A0F11001494543D84FF6F073A5
:102CB0002168C0F342021840104343E043E0394624
:102CC000E3E71946E1E7082819D005DC58B10128E7
:102CD0000CD004282ED10DE0102815D020282BD0A0
:102CE000402827D12AE0FEF709FD01E0FEF718FD94
:102CF000014610E06846FDF797FD01990BE003A837
:102D0000FDF734FE049906E01068800604D51068CB
:102D1000C0F3C100C140B1B1636A606838F81330D4
:102D2000B1FBF3F101EB5001B1FBF0F0A0F11001A8
:102D3000494505D9012506E03946EDE71946EBE797
:102D4000216880B2C8600120A4F86A00A4F8680075
:102D500028466667A66707B0BDE8F083F369FFCF32
:102D6000000C0058FFF4FF110010014054440258B9
:102D70000044004000480040004C0040005000402B
:102D80000014014000780040007C00400090D00317
:102D90008031000800440258FFFC0F002DE9F04785
:102DA000994617460E460446089D4FF000082FE04E
:102DB000681C2DD0FDF758FCA0EB0900A84214D8E0
:102DC0009DB120680168490722D5C169C943090737
:102DD0000DD4082505622046FFF7E0FDC4F89050A9
:102DE000012084F88480BDE8F0870320FBE7C069F8
:102DF000C04300050CD421684FF4006008622046EF
:102E0000FFF7CCFD2021C4F8901084F88480ECE713
:102E10002068C06936EA000004D00020B842C7D05C
:102E20000020E0E70120F9E7FEE700000FB4054BC2
:102E300010B503A9044A029800F028F810BC5DF808
:102E400014FB0000E12F00081800002409070028E7
:102E50004FEA116104DB00F1E02080F800147047B4
:102E600000F00F0000F1E02080F8141D704702E030
:102E700008C8121F08C1002AFAD170477047002005
:102E800001E001C1121F002AFBD170472DE9FF4F5D
:102E900089B09B460446002506E025280BD05A46FB
:102EA0000B999047641C6D1C20780028F5D10DB05B
:102EB0002846BDE8F08F0027B8460122474900E0C8
:102EC000074314F8013F203B02FA03F00842F7D110
:102ED00020782E2819D114F8010F47F004072A286A
:102EE0000ED06FF02F022078A0F1300109290CD804
:102EF00008EB880102EB410100EB0108641CF2E7DA
:102F00000A98641C50F8048B0A9020780028CED0D0
:102F1000642808D0692806D075281ED05A460B9917
:102F200090476D1C58E00A994FF00A0901C90A91AF
:102F3000002802DA40422D2102E0390504D52B2178
:102F40008DF82010012103E0F90704D02021F7E7D4
:102F50008A4608AE0DE00021FAE70A994FF00A0907
:102F600001C90A91F7E74946FDF7F7F9303106F84C
:102F7000011D0028F7D1ADEB060000F1200978070C
:102F800001D44FF00108C84502DDA8EB090000E0BC
:102F900000208046002706E008A85A46C05D0B992D
:102FA00090476D1C7F1C5745F6DB04E030205A46E5
:102FB0000B9990476D1CB8F10001A8F10108F5DCF0
:102FC00005E016F8010B5A460B9990476D1CB9F1B4
:102FD0000001A9F10109F4DC641C65E7092801007E
:102FE00013B50448642301226946FFF7E1F800980D
:102FF0001CBD00004000002408B54E4900240868AC
:10300000800311D4BFF34F8FBFF36F8F4A48046022
:10301000BFF34F8FBFF36F8F086840F40030086034
:10302000BFF34F8FBFF36F8F0868C00324D44148AC
:1030300070300460BFF34F8F001F43F6FF760068C7
:103040003D4D1035C0F34E32C0F3C90306EA4217B6
:10305000184600BF47EA807CC5F800C0401EF9D280
:10306000521EF3D2BFF34F8F086840F480300860DF
:10307000BFF34F8FBFF36F8FFDF704FBFFF7CCFA61
:103080002E48016841F004010160016801F004016B
:103090000091016841F001010160016801F0010146
:1030A0000091016841F080010160006800F080003B
:1030B0000090FFF7FFF823487F222149FF23E0E833
:1030C000021480E81C0004614461C4601D48FEF7DE
:1030D000E7FE08B172B6FEE7FFF7C4F81AA0FFF7E3
:1030E000A5FE184C4FF400561D4F4FF47A781D4D35
:1030F000B83431463846FDF7A3FA12490022114888
:10310000B831FEF7A1FE174900220E48FEF778FEFF
:10311000E97815A0AB786A7801F5FA61FFF786FEC9
:10312000A37814A062782178FFF780FE4046FDF76F
:103130005FF9DEE714ED00E050EF00E0E0440258F4
:10314000004000581C00002453544D33324837359A
:10315000302052544320CAB5D1E9200D0A000000A6
:10316000000802580000002425642D25642D2564E4
:103170002000000025643A25643A25640D0A000009
:10318000010002000400060008000A000C00100004
:103190002000400080000001010101030701000040
:1031A00008040204080101010000000001020304F8
:1031B0000102030406070809D831000800000024B2
:1031C0001C0000006E2E0008F43100081C000024D2
:1031D000CC0400007E2E000800000000010000006A
:1031E00010000000000000000090D0030090D00309
:0431F00000000000DB
:040000050800029954
:00000001FF
